:10000000F8FF022099010000F9330000B13300002D
:10001000B1330000B1330000B1330000B133000050
:10002000B1330000B1330000B1330000F9330000F8
:10003000F9330000B13300006D5800007159000021
:10004000F9330000F9330000F9330000F933000000
:10005000F9330000F9330000F9330000F9330000F0
:10006000F9330000F9330000F9330000F9330000E0
:10007000F9330000F9330000F9330000F9330000D0
:10008000F9330000F9330000F9330000F9330000C0
:10009000F9330000F9330000F9330000F9330000B0
:1000A0007D6F0000896F0000F9330000F933000014
:1000B000F9330000F9330000F9330000B13C0000CF
:1000C000F93300005D3F0000F9330000BD4100003E
:1000D000F93300002D440000F9330000F93300002B
:1000E000F9330000F9330000F9330000F933000060
:1000F000F9330000F9330000F9330000F933000050
:10010000F9330000F9330000F9330000F93300003F
:10011000F9330000114A0000F9330000F933000000
:10012000F9330000F9330000F9330000F93300001F
:10013000F9330000F9330000F9330000F93300000F
:10014000F9330000F933000059460000F93300008C
:10015000ED470000F9330000F9330000F9330000E7
:10016000F9330000F9330000956F0000F933000007
:10017000F9330000F9330000F9330000F9330000CF
:10018000F9330000F9330000F9330000F9330000BF
:10019000F9330000F9330000584B4CF2205210B5EF
:1001A0001A804DF628121A8000BF00BF03F028F90C
:1001B000534B4FF030621A60524A9A60524ADA60EA
:1001C000524B4FF470021A60514A136813F4807353
:1001D00004D150490B604FF4A85313604E4B1A786A
:1001E000110703D51A7842F008021A704B4B4C499C
:1001F0002A221A704B4A4C4B8B4204D252F8040FFD
:1002000043F8040BF8E7494B494900228B4202D2DC
:1002100043F8042BFAE74749474A002352F82300E2
:1002200041F823000133662BF8D1444B444A802126
:1002300003F8011B9342FBD1424B3E4A1A60424BEA
:100240008A221A70A3F5805324225A70A0221A70B1
:100250009A799207FCD59A79D406FCD43B4A9379D3
:1002600003F00C03082B394BF9D103221A714622F3
:100270005A719A799006FCD5344A9179334B4906E4
:10028000FBD5334A4FF08271116009215160202261
:100290001A709A7902F00C020C2AFAD12D4B2E4AD0
:1002A0001A602E4B2E4A1A6000225A60072243F829
:1002B000042C2C4AC3F80C2D62B603F081FB154BBD
:1002C0001B68DA0705D5284803F068F9274B284A48
:1002D0001A60284B1B785B0609D5244C244B2268F6
:1002E0009A4204D1204803F059F90023236008F012
:1002F00097FF03F08BF802F0B9FFFEE70E200540F0
:1003000030800440823F04000100002B88ED00E0B3
:1003100010D0034014D0034002D0074000E0074053
:10032000CC17FF1FB4A10000F806FF1FD017FF1F56
:10033000801EFF1F0002FF1F0000000000E400E01D
:1003400056E400E008ED00E00050064000400640A2
:100350004480044004800440C010050014E000E024
:10036000BFD40100000020200DB7C85D1CE0034091
:10037000A5C3945A00F00740FFFFFFFFFFFFFFFFF8
:10038000FFFFFFFFFFFFFFFFFFFFFFFFFFFFFFFF7D
:10039000FFFFFFFFFFFFFFFFFFFFFFFFFFFFFFFF6D
:1003A000FFFFFFFFFFFFFFFFFFFFFFFFFFFFFFFF5D
:1003B000FFFFFFFFFFFFFFFFFFFFFFFFFFFFFFFF4D
:1003C000FFFFFFFFFFFFFFFFFFFFFFFFFFFFFFFF3D
:1003D000FFFFFFFFFFFFFFFFFFFFFFFFFFFFFFFF2D
:1003E000FFFFFFFFFFFFFFFFFFFFFFFFFFFFFFFF1D
:1003F000FFFFFFFFFFFFFFFFFFFFFFFFFFFFFFFF0D
:10040000FFFFFFFFFFFFFFFFFFFFFFFFDEF9FFFF23
:1004100010B5054C237833B9044B13B10448AFF33E
:1004200000800123237010BDD017FF1F00000000C3
:10043000B0A10000084B10B51BB108490848AFF344
:1004400000800848036803B910BD074B002BFBD0A0
:10045000BDE81040184700BF00000000D417FF1F80
:10046000B0A10000CC17FF1F000000000020704763
:10047000F8B51E1E03680446CCBF02EB42050025FA
:100480000F469B68D8BF164698477A192368626062
:100490005B690A4A6661934201D12046F8BD204655
:1004A00098470028F9D0064A064B516893FBF0F0B4
:1004B000884238BF084650602046F8BD6D040000F1
:1004C000EC17FF1F40420F0070B40F4C2268531C02
:1004D0008A4283B0236013DB0C4D0D4A29680191D9
:1004E00001992D6800951668009D15604FF47A7289
:1004F0000025891B02FB03F32560B3FBF1F3438066
:1005000003B070BC704700BF0018FF1FD819FF1F51
:100510000818FF1F2DE9F04F43682D4C83B00646A5
:100520008946002B4BD103F0DBF9F36820601BB147
:100530004846B16898478146264B1C680025002C28
:1005400036D07388A77C61686269632B236898BF83
:10055000A574D3F804808DF804508DF805508DF8FB
:100560000650B9F1000F1CD004F10B030DF1040E7D
:1005700004F10E0C13F801BFBBF1000F0DD093F87E
:1005800003A00AF101000BFB0000BAF1000F04D038
:1005900009FB00F0000C8EF8000063450EF1010E1F
:1005A000E8D1204601ABC047A774A468002CC8D18D
:1005B00030461921FFF788FF03B0BDE8F08F03F044
:1005C0008FF922687368801A9842AAD3ABE700BFFC
:1005D0000418FF1FFC17FF1F00207047044B002268
:1005E000FF204FF0FF31187099605A80DA60704731
:1005F000EC17FF1F406970474FF4C870704700BF89
:1006000010B501210446172003F064F90422024BBF
:10061000A261E36110BD00BF80F00F402DE9F04FF3
:1006200093B0002304688DF824308DF825308DF8C0
:1006300026302568B34E0790B5428DF828300A461B
:100640008DF829308DF82A3040F01583817C0C928A
:1006500009A801290D928DF83E308DF83F308DF8B4
:1006600040300B9000F0CA828DF83D308DF83C3060
:100670008DF83B308DF83A308DF839308DF83830C0
:10068000A369A14900228B428DF84120119240F0CC
:10069000FA82079C03F024F9238CC01A83B2312B11
:1006A000F8D99A4A9DF83B1013689DF83D40019196
:1006B00002949DF83C109DF941409548009143F00B
:1006C00080739DF83950DDF82C8003949DF838A094
:1006D0009DF83A909DF83E609DF83F109DF840705F
:1006E000DDF830B0136002688A4C8B4B42F0010297
:1006F0000260002222601A681A6822F004021A605E
:10070000009B98F801405D1B5FFA85FC002C40F0CF
:1007100017814B1C049372B67E4B1968BBF1000F16
:1007200001F1960140F3BB80721C05927A487A1C55
:1007300006921F46019ACAEB020A009ACCEB020C01
:10074000029AC9EB02095FFA8AFA5FFA8CFC5FFA37
:1007500089F972B61A688A4206D91A6841F2F865B0
:10076000521AAA4200F2F6800568066845F00405B0
:1007700026F004064FF0070E1A689142FCD839683B
:100780000560220601F1960100F195801A688A1A27
:10079000822AFBD86400BEF1010E0660E4B2EBD100
:1007A0001A689142FCD839680560240601F1960167
:1007B00000F18B801A688A1A822AFBD8066098F8A2
:1007C00000403CB184FA5AF4059AE4B204FB02F406
:1007D000C4F307244FF0070E1A688A42FCD3396825
:1007E0000560220601F1960179D41A688A1A822AD4
:1007F000FBD86400BEF1010E0660E4B2ECD11A68C9
:100800009142FCD839680560240601F196016FD445
:100810001A688A1A822AFBD8066098F802403CB10E
:1008200084FA59F4069AE4B204FB02F4C4F30724F0
:100830004FF0070E1A688A42FCD339680560220619
:1008400001F196016AD41A688A1A822AFBD86400D8
:10085000BEF1010E0660E4B2ECD11A689142FCD8F8
:1008600039680560240601F1960160D41A688A1A75
:10087000822AFBD8039A066090440BF1FF3B98F85C
:1008800001403CB184FA5CF4049AE4B202FB04F443
:10089000C4F3072462B6BBF1000F7FF44BAF62B61E
:1008A0001C4B1B68002B56D003F01AF8079B1884CA
:1008B00013B0BDE8F08F1A688A1A372A7FF66AAF3C
:1008C0001A688A1A372AF6D864E71A688A1A372A01
:1008D0007FF674AF1A688A1A372AF6D86EE71A6854
:1008E0008A1A372A85D91A688A1A372AF7D880E7E8
:1008F0001A688A1A372A8FD91A688A1A372AF7D8B3
:100900008AE700BFD912000019190000FCED00E0D1
:10091000001000E0041000E080F00F401A688A1A0E
:10092000372A94D91A688A1A372AF7D88FE71A68AB
:100930008A1A372A9ED91A688A1A372AF7D899E765
:1009400084FA5CF4E3B24A1C02FB03F30492C3F39F
:100950000724E0E662B662B64FF4FA63013BFDD1CC
:1009600072B6A24A9DF83B1013689DF83D40019174
:1009700002949DF83C109DF941409D48009143F040
:1009800080739DF83950DDF82C8003949DF83890E1
:100990009DF83AA09DF83E609DF83F109DF840708C
:1009A000DDF830B013600268924C934B42F00102C4
:1009B0000260002222601A681A6822F004021A609B
:1009C000009B98F801405D1B5FFA85FC002C00F04D
:1009D000098184FA5CF4E3B24A1C02FB03F304923B
:1009E000C3F3072472B6834B1968BBF1000F01F102
:1009F000960140F3BB80721C05927F487A1C0692D8
:100A00001F46019AC9EB0209009ACCEB020C029A2C
:100A1000CAEB020A5FFA89F95FFA8CFC5FFA8AFA7C
:100A200072B61A688A4206D91A6841F2F865521AF3
:100A3000AA4200F226810668056846F0040625F001
:100A400004054FF0070E1A688A42FCD33968066025
:100A5000220601F1960100F18D801A688A1A822A15
:100A6000FBD86400BEF1010E0560E4B2EBD11A6858
:100A70009142FCD839680660240601F1960100F124
:100A800083801A688A1A822AFBD8056098F8004089
:100A90003CB184FA59F4059AE4B204FB02F4C4F3BD
:100AA00007244FF0070E1A688A42FCD339680660A3
:100AB000220601F1960171D41A688A1A822AFBD89B
:100AC0006400BEF1010E0560E4B2ECD11A689142F7
:100AD000FCD839680660240601F1960167D41A68CB
:100AE0008A1A822AFBD8056098F802403CB184FA41
:100AF0005AF4069AE4B204FB02F4C4F307244FF05C
:100B0000070E1A688A42FCD339680660220601F192
:100B1000960155D41A688A1A822AFBD86400BEF15D
:100B2000010E0560E4B2ECD11A689142FCD8396834
:100B30000660220601F196014BD41A688A1A822AAD
:100B4000FBD8039A056090440BF1FF3B98F80140F5
:100B50003CB184FA5CF4049AE4B202FB04F4C4F3FA
:100B6000072462B6BBF1000F7FF44BAF62B6214B96
:100B70001B6899E61A688A1A372A7FF672AF1A68D4
:100B80008A1A372AF6D86CE71A688A1A372A7FF643
:100B90007CAF1A688A1A372AF6D876E71A688A1A52
:100BA000372A8DD91A688A1A372AF7D888E71A6837
:100BB0008A1A372A97D91A688A1A372AF7D892E7F1
:100BC0001A688A1A372AA9D91A688A1A372AF7D8C6
:100BD000A4E71A688A1A372AB3D91A688A1A372AF0
:100BE000F7D8AEE74B1C0493FCE600BFFCED00E039
:100BF000001000E0041000E080F00F40254B1A7850
:100C0000013202F0070212F0010F1A7014BF8023A4
:100C10000023900744BF43F04003DBB2510748BFB5
:100C200043F0200310330021DBB20DF13B020DF144
:100C30003E074FF48076A9B196FBF1F1C9B2481C8A
:100C4000C0B200FB03352D121070ECB205B1013CAF
:100C500002F8034C00B111700132BA4208D0D178C9
:100C60000029E9D1117002F8031C0132BA42F6D111
:100C7000079B1C6804E50AAB09A9A84713B0BDE8A7
:100C8000F08F62B610E607980BA9984713B0BDE83D
:100C9000F08F00BF1018FF1F2DE9F04F91B0847C3A
:100CA0005D780790012C18789B7809910A920B9235
:100CB0008DF836008DF837508DF8383000F0CA8244
:100CC00000238DF835308DF834308DF833308DF8C1
:100CD00032308DF831308DF83030079CA94A2368C6
:100CE0009B690320002193428DF839000F9140F059
:100CF000EB8202F0F5FD238CC01A83B2312BF8D9B8
:100D0000A14A9DF8331013689DF835400191029473
:100D10009DF834109DF939409C48009143F0807350
:100D20009DF83150DDF8248003949DF830909DF8B3
:100D300032A09DF836609DF837109DF83870DDF8C8
:100D400028B013600268924C924B42F0010202609C
:100D5000002222601A681A6822F004021A60009BBE
:100D600098F801405D1B5FFA85FC002C40F01D8265
:100D70004B1C049372B6864B1968BBF1000F01F14E
:100D8000960140F3BB80721C059282487A1C069241
:100D90001F46019AC9EB0209009ACCEB020C029A99
:100DA000CAEB020A5FFA89F95FFA8CFC5FFA8AFAE9
:100DB00072B61A688A4206D91A6841F2F865521A60
:100DC000AA4200F2E9800568066845F0040526F0AD
:100DD00004064FF0070E1A689142FCD83968056086
:100DE000220601F1960100F195801A688A1A822A7A
:100DF000FBD86400BEF1010E0660E4B2EBD11A68C4
:100E00009142FCD839680560240601F1960100F191
:100E10008B801A688A1A822AFBD8066098F80040EC
:100E20003CB184FA59F4059AE4B204FB02F4C4F329
:100E300007244FF0070E1A688A42FCD33968056010
:100E4000220601F1960179D41A688A1A822AFBD8FF
:100E50006400BEF1010E0660E4B2ECD11A68914262
:100E6000FCD839680560240601F196016FD41A6830
:100E70008A1A822AFBD8066098F802403CB184FAAC
:100E80005AF4069AE4B204FB02F4C4F307244FF0C8
:100E9000070E1A688A42FCD339680560220601F100
:100EA00096015DD41A688A1A822AFBD86400BEF1C2
:100EB000010E0660E4B2ECD11A689142FCD83968A0
:100EC0000560240601F1960153D41A688A1A822A11
:100ED000FBD8039A066090440BF1FF3B98F8014061
:100EE0003CB184FA5CF4049AE4B202FB04F4C4F367
:100EF000072462B6BBF1000F7FF44BAF62B6244B00
:100F00001B68002B49D002F0EBFC079B188411B042
:100F1000BDE8F08F1A688A1A372A7FF66AAF1A6816
:100F20008A1A372AF6D864E71A688A1A372A7FF6A7
:100F300074AF1A688A1A372AF6D86EE71A688A1ABE
:100F4000372A85D91A688A1A372AF7D880E71A68A3
:100F50008A1A372A8FD91A688A1A372AF7D88AE75D
:100F60001A688A1A372AA1D91A688A1A372AF7D82A
:100F70009CE71A688A1A372AABD91A688A1A372A5C
:100F8000F7D8A6E719190000FCED00E0001000E01A
:100F9000041000E080F00F4062B662B64FF4FA63CE
:100FA000013BFDD172B6A74A9DF8331013689DF836
:100FB0003540019102949DF834109DF93940A248C2
:100FC000009143F080739DF83150DDF82480039444
:100FD0009DF830909DF832A09DF836609DF837104E
:100FE0009DF83870DDF828B013600268974C984B74
:100FF00042F001020260002222601A681A6822F0A0
:1010000004021A60009B98F801405D1B5FFA85FCA2
:10101000002C40F00C814B1C049372B68B4B19686A
:10102000BBF1000F01F1960140F3BB80721C0592E9
:1010300087487A1C06921F46019AC9EB0209009A5A
:10104000CCEB020C029ACAEB020A5FFA89F95FFA4A
:101050008CFC5FFA8AFA72B61A68914206D21A6854
:1010600041F2F865521AAA4200F22C81066805681E
:1010700046F0040625F004054FF0070E1A688A4270
:10108000FCD339680660220601F1960100F19780D1
:101090001A688A1A822AFBD86400BEF1010E056024
:1010A000E4B2EBD11A689142FCD839680660240694
:1010B00001F1960100F18D801A688A1A822AFBD804
:1010C000056098F800403CB184FA59F4059AE4B2FE
:1010D00004FB02F4C4F307244FF0070E1A688A4297
:1010E000FCD339680660220601F196017BD41A68A8
:1010F0008A1A822AFBD86400BEF1010E0560E4B2B0
:10110000ECD11A689142FCD839680660240601F1D6
:10111000960171D41A688A1A822AFBD8056098F859
:1011200002403CB184FA5AF4069AE4B204FB02F499
:10113000C4F307244FF0070E1A688A42FCD33968BB
:101140000660220601F196015FD41A688A1A822A83
:10115000FBD86400BEF1010E0560E4B2ECD11A6860
:101160009142FCD839680660220601F1960155D4F7
:101170001A688A1A822AFBD8039A056090440BF1F8
:10118000FF3B98F801403CB184FA5CF4049AE4B265
:1011900002FB04F4C4F3072462B6BBF1000F7FF432
:1011A0004BAF62B6294B1B68ADE684FA5CF4E3B240
:1011B0004A1C02FB03F30492C3F30724DAE51A681E
:1011C0008A1A372A7FF668AF1A688A1A372AF6D839
:1011D00062E71A688A1A372A7FF672AF1A688A1A83
:1011E000372AF6D86CE71A688A1A372A83D91A6818
:1011F0008A1A372AF7D87EE71A688A1A372A8DD9C9
:101200001A688A1A372AF7D888E71A688A1A372A92
:101210009FD91A688A1A372AF7D89AE71A688A1A59
:10122000372AA9D91A688A1A372AF7D8A4E784FA7C
:101230005CF4E3B24A1C02FB03F30492C3F30724F9
:10124000EBE600BFFCED00E0001000E0041000E061
:1012500080F00F401F4B1A78013202F0070212F0A3
:10126000010F1A7014BF80230023940744BF43F07A
:101270004003DBB2510748BF43F020031033DBB219
:101280000DF133020DF136074FF48076B0B196FBC5
:10129000F0F1C9B2481CC0B200FB03352D1210702A
:1012A000ECB205B1013C02F8034C00B111700132FF
:1012B000BA423FF412ADD0780028E8D1107002F89D
:1012C000030CF4E762B61EE6079809A9984711B027
:1012D000BDE8F08F1018FF1F2DE9F04F91B0847C0E
:1012E0005D780790012C18789B7809910A920B92EF
:1012F0008DF836008DF837508DF8383000F0CA82FE
:1013000000238DF835308DF834308DF833308DF87A
:1013100032308DF831308DF83030079CA949236880
:101320009B6900228B428DF839200F9240F0EC82AD
:1013300002F0D6FA238CC01A83B2312BF8D9A24A14
:101340009DF8331013689DF83540019102949DF883
:1013500034109DF939409D48009143F080739DF809
:101360003150DDF8248003949DF830909DF832A030
:101370009DF836609DF837109DF83870DDF828B07C
:1013800013600268924C934B42F00102026000220B
:1013900022601A681A6822F004021A60009B98F80A
:1013A00001405D1B5FFA85FC002C40F01E824B1C47
:1013B000049372B6864B1968BBF1000F01F19601D8
:1013C00040F3BB80721C059282487A1C06921F462D
:1013D000019AC9EB0209009ACCEB020C029ACAEB03
:1013E000020A5FFA89F95FFA8CFC5FFA8AFA72B630
:1013F0001A68914206D21A6841F2F865521AAA4256
:1014000000F2EA800568066845F0040526F0040647
:101410004FF0070E1A689142FCD839680560220621
:1014200001F1960100F195801A688A1A822AFBD888
:101430006400BEF1010E0660E4B2EBD11A6891427D
:10144000FCD839680560240601F1960100F18B8013
:101450001A688A1A822AFBD8066098F800403CB1C4
:1014600084FA59F4059AE4B204FB02F4C4F30724A5
:101470004FF0070E1A688A42FCD3396805602206CD
:1014800001F1960179D41A688A1A822AFBD864007D
:10149000BEF1010E0660E4B2ECD11A689142FCD8AC
:1014A00039680560240601F196016FD41A688A1A1A
:1014B000822AFBD8066098F802403CB184FA5AF4BC
:1014C000069AE4B204FB02F4C4F307244FF0070EBB
:1014D0001A688A42FCD339680560220601F1960138
:1014E0005DD41A688A1A822AFBD86400BEF1010E04
:1014F0000660E4B2ECD11A689142FCD83968056004
:10150000240601F1960153D41A688A1A822AFBD85C
:10151000039A066090440BF1FF3B98F801403CB100
:1015200084FA5CF4049AE4B202FB04F4C4F30724E2
:1015300062B6BBF1000F7FF44BAF62B6244B1B6861
:10154000002B4AD002F0CCF9079B188411B0BDE8FB
:10155000F08F1A688A1A372A7FF66AAF1A688A1AD1
:10156000372AF6D864E71A688A1A372A7FF674AFE2
:101570001A688A1A372AF6D86EE71A688A1A372A3A
:1015800085D91A688A1A372AF7D880E71A688A1A1A
:10159000372A8FD91A688A1A372AF7D88AE71A6839
:1015A0008A1A372AA1D91A688A1A372AF7D89CE7E3
:1015B0001A688A1A372AABD91A688A1A372AF7D8CA
:1015C000A6E700BF19190000FCED00E0001000E0E4
:1015D000041000E080F00F4062B662B64FF4FA6388
:1015E000013BFDD172B6A74A9DF8331013689DF8F0
:1015F0003540019102949DF834109DF93940A2487C
:10160000009143F080739DF83150DDF824800394FD
:101610009DF830909DF832A09DF836609DF8371007
:101620009DF83870DDF828B013600268974C984B2D
:1016300042F001020260002222601A681A6822F059
:1016400004021A60009B98F801405D1B5FFA85FC5C
:10165000002C40F00C814B1C049372B68B4B196824
:10166000BBF1000F01F1960140F3BB80721C0592A3
:1016700087487A1C06921F46019AC9EB0209009A14
:10168000CCEB020C029ACAEB020A5FFA89F95FFA04
:101690008CFC5FFA8AFA72B61A688A4206D91A680E
:1016A00041F2F865521AAA4200F22C8106680568D8
:1016B00046F0040625F004054FF0070E1A688A422A
:1016C000FCD339680660220601F1960100F197808B
:1016D0001A688A1A822AFBD86400BEF1010E0560DE
:1016E000E4B2EBD11A689142FCD83968066024064E
:1016F00001F1960100F18D801A688A1A822AFBD8BE
:10170000056098F800403CB184FA59F4059AE4B2B7
:1017100004FB02F4C4F307244FF0070E1A688A4250
:10172000FCD339680660220601F196017BD41A6861
:101730008A1A822AFBD86400BEF1010E0560E4B269
:10174000ECD11A689142FCD839680660240601F190
:10175000960171D41A688A1A822AFBD8056098F813
:1017600002403CB184FA5AF4069AE4B204FB02F453
:10177000C4F307244FF0070E1A688A42FCD3396875
:101780000660220601F196015FD41A688A1A822A3D
:10179000FBD86400BEF1010E0560E4B2ECD11A681A
:1017A0009142FCD839680660220601F1960155D4B1
:1017B0001A688A1A822AFBD8039A056090440BF1B2
:1017C000FF3B98F801403CB184FA5CF4049AE4B21F
:1017D00002FB04F4C4F3072462B6BBF1000F7FF4EC
:1017E0004BAF62B6294B1B68ACE684FA5CF4E3B2FB
:1017F0004A1C02FB03F30492C3F30724D9E51A68D9
:101800008A1A372A7FF668AF1A688A1A372AF6D8F2
:1018100062E71A688A1A372A7FF672AF1A688A1A3C
:10182000372AF6D86CE71A688A1A372A83D91A68D1
:101830008A1A372AF7D87EE71A688A1A372A8DD982
:101840001A688A1A372AF7D888E71A688A1A372A4C
:101850009FD91A688A1A372AF7D89AE71A688A1A13
:10186000372AA9D91A688A1A372AF7D8A4E784FA36
:101870005CF4E3B24A1C02FB03F30492C3F30724B3
:10188000EBE600BFFCED00E0001000E0041000E01B
:1018900080F00F401F4B1A78013202F0070212F05D
:1018A000010F1A7014BF80230023940744BF43F034
:1018B0004003DBB2510748BF43F020031033DBB2D3
:1018C0000DF133020DF136074FF48076B0B196FB7F
:1018D000F0F1C9B2481CC0B200FB03352D121070E4
:1018E000ECB205B1013C02F8034C00B111700132B9
:1018F000BA423FF412ADD0780028E8D1107002F857
:10190000030CF4E762B61DE6079809A9984711B0E1
:10191000BDE8F08F1018FF1F2DE9F04F8BB0044683
:101920000990089101F0DCFF238CC01A83B2312B9F
:10193000F8D9089C9E4AE07B13680290207C657C65
:1019400001902046667BD4F8008094F80C9094F8BF
:101950000EA00395A77CE57C94F814E0954994F9D2
:101960001540049443F08073D0F804B013600A6803
:101970009148924B42F001020A60002202601A680C
:101980001A68019822F004021A6098F80140861B38
:101990005FFA86FC002C40F058826B1C059372B6EF
:1019A000854B1968BBF1000F01F1960140F3BC8033
:1019B0007A1C069281480EF1010207921F46029A94
:1019C000C9EB0209019ACCEB020C039ACAEB020A9A
:1019D0005FFA89F95FFA8CFC5FFA8AFA72B61A68C4
:1019E0008A4206D91A6841F2F865521AAA4200F2F0
:1019F000E7800568066845F0040526F004064FF008
:101A0000070E1A688A42FCD339680560220601F184
:101A1000960100F195801A688A1A822AFBD8640020
:101A2000BEF1010E0660E4B2EBD11A689142FCD817
:101A300039680560240601F1960100F18B801A686F
:101A40008A1A822AFBD8066098F800403CB184FAD2
:101A500059F4069AE4B204FB02F4C4F307244FF0ED
:101A6000070E1A689142FCD839680560220601F118
:101A7000960179D41A688A1A822AFBD86400BEF1CA
:101A8000010E0660E4B2ECD11A689142FCD83968C4
:101A90000560240601F196016FD41A688A1A822A19
:101AA000FBD8066098F802403CB184FA5AF4079AD1
:101AB000E4B204FB02F4C4F307244FF0070E1A68E3
:101AC0008A42FCD339680560220601F196015DD493
:101AD0001A688A1A822AFBD86400BEF1010E0660D9
:101AE000E4B2ECD11A689142FCD83968056024064A
:101AF00001F1960153D41A688A1A822AFBD8049AF3
:101B0000066090440BF1FF3B98F801403CB184FA29
:101B10005CF4059AE4B202FB04F4C4F3072462B651
:101B2000BBF1000F7FF44BAF62B6234B1B68002B59
:101B300047D001F0D5FE099B18840BB0BDE8F08FAB
:101B40001A688A1A372A7FF66AAF1A688A1A372AF9
:101B5000F6D864E71A688A1A372A7FF674AF1A68CB
:101B60008A1A372AF6D86EE71A688A1A372A85D968
:101B70001A688A1A372AF7D880E71A688A1A372A21
:101B80008FD91A688A1A372AF7D88AE71A688A1A00
:101B9000372AA1D91A688A1A372AF7D89CE71A680F
:101BA0008A1A372AABD91A688A1A372AF7D8A6E7C9
:101BB000FCED00E0001000E0041000E080F00F40B9
:101BC00062B662B64FF4FA63013BFDD172B6089F6C
:101BD000A54AF97B13687E7C02913C46397C94F9D6
:101BE00015E0089CA1487D7B019143F08073D7F8F4
:101BF000008097F80CA097F80E900396F97CBE7CB5
:101C0000CDF810E03F7DD4F804B013600268984C22
:101C1000984B42F001020260002222601A681A68A2
:101C200022F004021A60019B98F801405D1B5FFAE4
:101C300085FC002C00F0138184FA5CF4E3B24A1CAA
:101C400002FB03F30592C3F3072472B6884B1968AD
:101C5000BBF1000F01F1960140F3BB80721C0692AC
:101C600084487A1C07921F46029ACAEB020A019A1C
:101C7000CCEB020C039AC9EB02095FFA8AFA5FFA0D
:101C80008CFC5FFA89F972B61A688A4206D91A681A
:101C900041F2F865521AAA4200F2E480066805682B
:101CA00046F0040625F004054FF0070E1A688A4234
:101CB000FCD339680660220601F1960100F18D809F
:101CC0001A688A1A822AFBD86400BEF1010E0560E8
:101CD000E4B2EBD11A689142FCD839680660240658
:101CE00001F1960100F183801A688A1A822AFBD8D2
:101CF000056098F800403CB184FA5AF4069AE4B2C0
:101D000004FB02F4C4F307244FF0070E1A688A425A
:101D1000FCD339680660220601F1960171D41A6875
:101D20008A1A822AFBD86400BEF1010E0560E4B273
:101D3000ECD11A689142FCD839680660240601F19A
:101D4000960167D41A688A1A822AFBD8056098F827
:101D500002403CB184FA59F4079AE4B204FB02F45D
:101D6000C4F307244FF0070E1A688A42FCD339687F
:101D70000660220601F1960155D41A688A1A822A51
:101D8000FBD86400BEF1010E0560E4B2ECD11A6824
:101D90009142FCD839680660220601F196014BD4C5
:101DA0001A688A1A822AFBD8049A056090440BF1BB
:101DB000FF3B98F801403CB184FA5CF4059AE4B228
:101DC00002FB04F4C4F3072462B6BBF1000F7FF4F6
:101DD0004BAF62B6264B1B68ABE61A688A1A372AE5
:101DE0007FF672AF1A688A1A372AF6D86CE71A6833
:101DF0008A1A372A7FF67CAF1A688A1A372AF6D8E9
:101E000076E71A688A1A372A8DD91A688A1A372A01
:101E1000F7D888E71A688A1A372A97D91A688A1A67
:101E2000372AF7D892E71A688A1A372AA9D91A687E
:101E30008A1A372AF7D8A4E71A688A1A372AB3D930
:101E40001A688A1A372AF7D8AEE784FA5CF4E3B244
:101E50006A1C02FB03F30592C3F307249FE54B1CA6
:101E60000593F2E662B664E6FCED00E0001000E0E7
:101E7000041000E080F00F4010B5074801F00CF8A6
:101E800040B1064C0D20217801F01EFD237883F02F
:101E90000103237010BD00BF3019FF1FFC06FF1F98
:101EA000F0B51F4E83B00DF1070501F0A5FE09281E
:101EB00034DD01F0B1FE0446E4B201F0E1FEFF2C96
:101EC000F3D1C0B2FF28F0D101F0A6FE0DF1FF342E
:101ED00001F0A2FE04F8010FAC42F9D19DF800C058
:101EE0009DF801009DF802E09DF803109DF8047034
:101EF0009DF805209DF806409DF8073040EA0C202B
:101F000041EA0E2142EA072243EA0423308171812B
:101F1000B281F38101F070FE0928CADC03B0F0BD84
:101F2000C019FF1F70B50D4E0D4D306806F0F0FD65
:101F3000042241EC100B2846022100F0C5FB0446A8
:101F4000306806F0E5FD052241EC100B2846032120
:101F500000F0BAFB201A00B270BD00BF9419FF1F39
:101F6000C019FF1FFFFFFFFF38B5414C2DED028B5D
:101F7000204600F081FD3F4800F068FB3E4800F03D
:101F800011FCFFF779FFFFF78BFF3C4B206893EDC7
:101F9000008B06F0BDFDB0EE481AF0EE681A41EC79
:101FA000100B9FED312B364800F076FE55EC104BB0
:101FB0000022002310EE100A294607F083F80028BB
:101FC0003ED000222F4B2046294606F043FC07F066
:101FD000A3F806F08BFD2C4BC3E90001FFF7A2FF2D
:101FE00006F084FD9FED202B41EC100BB0EE421A61
:101FF000F0EE621A254800F04FFE55EC104B00221F
:10200000002310EE100A294607F05CF808B30022FE
:102010001C4B2046294606F01DFC07F07DF8B0F564
:10202000967F1B4B1B4CA8BF4FF496709842B8BFCD
:10203000184606F05BFDBDEC028BC4E9000138BD1B
:102040000022104B2046294606F002FC07F064F8F7
:10205000BFE700220B4B2046294606F0F9FB07F0AC
:102060005BF8DCE7AFF30080000000000000000038
:102070009419FF1F3819FF1FC019FF1F5019FF1FA8
:102080005819FF1F0000E03F2819FF1FF018FF1F1D
:10209000D4FEFFFF4819FF1F38B546F2A81001F023
:1020A00023FD234800F0F4FA224800F0C9FA224840
:1020B00000F004FC01210D2001F00CFC1F4800F091
:1020C00097FD1F4800F0B8FA1E48036813F001049A
:1020D0000BD000231C491D483C22FEF7C9F91C48BF
:1020E000BDE838400178FEF715BA01F0A7F90028DD
:1020F000EFD01849154B08685C60FF2201255C6130
:102100009C609D741A735A739A73DA731A745A74B2
:1021100060B1114A116801B18B6000240F49094870
:102120001C841360196001F08FF9D2E70B60F0E7AF
:10213000C019FF1F3819FF1FB419FF1F9419FF1F83
:102140009019FF1F1418FF1F3C18FF1F1818FF1FBE
:10215000EC17FF1FFC17FF1F0C18FF1F809B0000D0
:10216000F0B583B0FFF700FF01220021C64800F060
:10217000A3FA642814D9C54CD4E9000106F0CCFFB9
:10218000822203B21146C24800F0B4FB4FF4FA7148
:10219000C04800F06BFA002840F0AF8003B0F0BDFB
:1021A00004220221B84800F087FA052204460321E0
:1021B000B54800F081FA844249D9B74CB74B0022A8
:1021C000D4E9000106F046FB06F0A6FF4FF4B47117
:1021D00000F02AFA06F08AFCB14B41EC110B1868AA
:1021E00084ED001B8DED001B06F092FC9DED001BA5
:1021F00041EC100B9FEDA02BAA4800F04DFD55ECD3
:10220000104B0022002310EE100A294606F05AFF58
:10221000002800F0E0800022A34B2046294606F06B
:1022200019FB06F079FF06F061FC984CC4E9000147
:1022300003E0FFF799FED4E9000106F06DFF0146C7
:10224000934800F0BBFB0028F3D003B0F0BD05229B
:1022500003218D4800F030FA0422044602218A4806
:1022600000F02AFA844299D98B4C8C4B0022D4E995
:10227000000106F0EDFA06F04FFF4FF4B47100F0E4
:10228000D3F906F033FC864B41EC110B186884ED52
:10229000001B8DED001B06F03BFC9DED001B41EC8F
:1022A000100B9FED752B7F4800F0F6FC55EC104BA2
:1022B0000022002310EE100A294606F003FF002832
:1022C00000F001810022784B2046294606F0C2FA30
:1022D00006F022FF06F00AFC6C4CC4E9000103E0A2
:1022E000FFF742FED4E9000106F016FF01466848F8
:1022F00000F064FB0028F3D050E7D4E9000106F0B9
:102300000BFF002203B21146614800F0F3FAD4E952
:10231000000106F001FF6FF0630203B211465C4852
:1023200000F0E8FA4FF4FA6001F0FCFA042202210E
:10233000554800F0C1F9052205460321524800F036
:10234000BBF9854250D9544D544B0022D5E90001C8
:1023500006F080FA06F0E0FE4FF4B47100F064F984
:1023600006F0C4FB4E4B41EC110B186885ED001BC9
:102370008DED001B06F0CCFB9DED001B41EC100B1E
:102380009FED3F2B474800F087FC57EC106B002275
:10239000002310EE100A394606F094FE002800F0E3
:1023A0009B800022404B3046394606F053FA06F037
:1023B000B3FE06F09BFBC4E9000103E0FFF7D4FD88
:1023C000D4E9000106F0A8FE0146314800F0F6FA13
:1023D0000028F3D0E2E60022334B2046294606F0DF
:1023E00037FA06F099FE1EE705220321264800F081
:1023F00063F9042205460221234800F05DF9854275
:102400007FF6CCAE244D254B0022D5E9000106F025
:102410001FFA06F081FE4FF4B47100F005F906F0E2
:1024200065FB1F4B41EC110B186885ED001B8DED12
:10243000001B06F06DFB9DED001B41EC100B9FEDAA
:10244000102B184800F028FC57EC106B00220023DA
:1024500010EE100A394606F035FE002845D000225D
:10246000114B3046394606F0F5F906F055FE06F0F8
:102470003DFBC4E900011DE0000000000000000079
:102480000000000000807640C019FF1F2819FF1FC0
:10249000B419FF1F3819FF1F5019FF1F0080564045
:1024A0009419FF1F5819FF1F0000E03FFFF75CFD64
:1024B000D4E9000106F030FE0146104800F07EFA33
:1024C0000028F3D06AE600220D4B2046294606F08C
:1024D000BFF906F021FEFDE60022094B30463946E1
:1024E00006F0B6F906F018FE63E70022044B30460A
:1024F000394606F0ADF906F00FFEB8E7B419FF1F34
:102500000000E03FFFFFFFFF10B52DED048B9FEDB6
:102510001E9B9FED1F8BB0EE493AF0EE693A264BB9
:102520002649B0EE481AF0EE681A002200249FED0A
:102530001A2B9FED1B0B22488C61CC611A605A60EC
:102540009A60DA601A8200F095FBB0EE493AF0EE3C
:10255000693AB0EE481AF0EE681A9FED132B9FED22
:10256000140B184800F086FB4FF47A71164800F0FF
:1025700091FCBDEC048BFA211448BDE8104000F03A
:1025800089BC00BFAFF300800000000000E07F4086
:1025900000000000000000000000000000003440C7
:1025A0000000000000002E40000000000000F8BF06
:1025B000000000000000F03FC019FF1F9419FF1F2A
:1025C0005819FF1FF018FF1F3019FF1FB819FF1F00
:1025D00000B52DED028B10EE900A85B0B0EE608A4A
:1025E0008DED030A06F094FA9DED030ACDE9000192
:1025F00010EE100A06F08CFA9DED001B41EC100B5A
:1026000004F002FE51EC100B06F0AEFD00EE100AD5
:10261000B5EEC00AF1EE10FA48BF38EE000A05B078
:10262000BDEC028B5DF804FB90FBF1F303FB1100A2
:102630000028B8BF4018704743F2D40002F078B8C1
:102640000023036043608360704700BF10B50446F9
:102650000E2000F051FD20600F2000F04DFD606065
:10266000102000F049FDA06010BD00BF70B4021F33
:1026700000F108060025012452F8043F8B42D4BF24
:102680002B462346B2420373F6D1D8B270BC7047D2
:1026900008B546F2A81001F091FB43F2D40001F016
:1026A000E3FC43F2D40001F0F5FD43F2D400BDE8B1
:1026B000084001F027BF00BF30F8111030F8123089
:1026C000C818C0F34F0070472DE9F04F824683B021
:1026D00030F811008DED000B934606F007FA9DEDE2
:1026E000000B2EA3D3E900238046894651EC100B42
:1026F00006F062FA0022284B06F088FB41EC100B32
:1027000004F022FD55EC104B0022002310EE100ABD
:10271000294606F0E1FC00B322462B4640464946D6
:1027200006F04AFA06F0F8FC80463AF81B0006F07C
:10273000DDF926462F4682468B4652465B4630469A
:10274000394606F039FA06F0E7FC404400EBD07059
:10275000C0F34F0003B0BDE8F08F05F100472246FB
:102760003B464046494606F027FA06F0D5FC80462F
:102770003AF81B0006F0BAF9002282468B46002385
:1027800020462946264606F0A7FC0028D5D0264636
:102790002F46D2E7AFF30080008066400000006063
:1027A000FB21094038B5054601F07CFB07281DDDFB
:1027B00001F088FB0446E4B201F0B8FB5A2CF3D1D7
:1027C000C0B25A28F0D101F07DFB01F07BFB01F093
:1027D00079FB01F077FB044601F074FBC0B240EADC
:1027E0000420288001F05EFB0728E1DC01F08AFC70
:1027F00007281DDD01F096FC0446E4B201F0C6FC9A
:102800005A2CF3D1C0B25A28F0D101F08BFC01F060
:1028100089FC01F087FC01F085FC044601F082FC94
:10282000C0B240EA0420688001F06CFC0728E1DCBB
:1028300001F0A0FD07281DDD01F0ACFD0446E4B267
:1028400001F0DCFD5A2CF3D1C0B25A28F0D101F0CE
:10285000A1FD01F09FFD01F09DFD01F09BFD0446EF
:1028600001F098FDC0B240EA0420A88001F082FD8A
:102870000728E1DC01F094FE07281DDD01F0A0FE31
:102880000446E4B201F0D0FE5A2CF3D1C0B25A286B
:10289000F0D101F095FE01F093FE01F091FE01F000
:1028A0008FFE044601F08CFEC0B240EA0420E880AE
:1028B00001F076FE0728E1DC38BD00BF08B5012134
:1028C000142001F007F801211A2001F003F801217A
:1028D0001B2000F0FFFF0121152000F0FBFF01216C
:1028E000182000F0F7FF01211920BDE8084000F092
:1028F000F1BF00BFF8B59BB21A4415B2C91AFE2D3C
:102900000CB221DC15F1FF0F4FDA6FF0FE063546F1
:10291000FE2C27461DDC14F1FF0FB8BFFF2446DA5A
:1029200000211A2000F0D0FF01211B2000F0CCFF75
:102930002146142000F044FE002D19DD012118204D
:1029400000F0C2FF002119E0FF26FE2C3546274685
:10295000E1DDFF2701211A2000F0B6FF00211B2036
:1029600000F0B2FF3946142000F02AFE002DE5DC0D
:102970006EB90121182000F0A7FF0121192000F0F5
:10298000A3FF31461520BDE8F84000F019BE002134
:10299000182000F099FF0121192000F095FF7142E5
:1029A0001520BDE8F84000F00BBE2E46B0E7002C25
:1029B000D0DC08BF0121B4D06442B1E770B506464F
:1029C00008460D4606F092F821F000431946002211
:1029D000074B06F063FB08B1012070BD04462BB223
:1029E000304622462146FFF785FF204670BD00BFD6
:1029F0000000594030B58DB008AB0E223B21682055
:102A000003F008F89DF828409DF821309DF82A50E1
:102A10009DF82B209DF82C009DF82D109FED147A29
:102A20009FED141A43EA042342EA05225B4241EA7D
:102A300000211BB2524212B200EE103A0BB200EE6D
:102A4000902A07EE903AF8EEE00AB8EEC00AF8EEE7
:102A5000E77A60EE870A20EE070A67EE877A60EE73
:102A6000810A20EE010A27EE811A0DB030BD00BFA9
:102A700000007A440000003810B586B00446FFF725
:102A8000B9FF8DED030ACDED040A8DED051A00F0B6
:102A900027FFA3689DED057ADFED274AD4ED045AA0
:102AA00094ED055A9DED046A244A94ED000A1168DC
:102AB000D4ED016A0191C31A07EE903AF8EEE77A75
:102AC00077EE655A87EEA47A019BE168A0605B1AF5
:102AD000642B36EE456AF1EE477AA7EEA50AE7EEDB
:102AE000866A84ED000AC4ED016A11D9F0EE667AB7
:102AF00094ED077AD4ED066A1368029330EE260A45
:102B000077EE277A029BE36084ED000AC4ED017A38
:102B1000DFED0B0AFFF75CFDDFED090A84ED000A2B
:102B200094ED010AFFF754FD0A2084ED010A00F03C
:102B3000F9FE06B010BD00BF00247449D819FF1F6C
:102B40000000B44330B52DED028B044685B0282536
:102B50002046FFF74FFF94ED047AD4ED057ACDEDD2
:102B6000020A37EE017A77EEA00A84ED047AC4ED0A
:102B7000050A64208DED010A8DED031A00F0D2FEE6
:102B80006B1E13F0FF05E3D1DFED177A94ED056AB4
:102B900094ED047AC7EE276A204686EE277AC4EDC4
:102BA000046A84ED057AFFF767FF6420D4ED008A9C
:102BB00094ED018A00F0B6FE2046FFF75DFF0B4B57
:102BC00094ED007A1B68D4ED017A019337EE687AB0
:102BD00077EEC87A019B84ED067AC4ED077AE3604C
:102BE00005B0BDEC028B30BD00002042D819FF1F9C
:102BF000F0B51E4B1E4C1A69597B87B00123049413
:102C00001227002413260546059310462346224624
:102C1000039400940297019603F0E4F906221D2123
:102C2000682002F02DFF06221A21682002F028FFFA
:102C300010221B21682002F023FF22461C2168205D
:102C400002F01EFF02223721682002F019FF16222F
:102C50000A210C2002F014FF00F042FEA860284672
:102C600007B0BDE8F040FFF76DBF00BF1C1EFF1F9F
:102C7000801A060010B580ED000B80ED021B80ED80
:102C8000042B80ED083B044600F02AFEA06120469C
:102C900010BD00BFFFFFFFFF2DE9F04F53EC102BDD
:102CA00085B0044651EC110B5BEC12AB05F0D2FD84
:102CB0009FED731B41EC100B04F0A6FA59EC108B3E
:102CC0000022002310EE100A494606F0E7F900281A
:102CD00040F0C58000226C4B4046494606F0DEF9C4
:102CE00000284BD0464609F1004700F0F9FDA369E2
:102CF0009FED667AC31A07EE903AF8EE677A0546BA
:102D0000C7EE876A16EE900A05F002FFA56102463B
:102D10000B46804689463046394605F04DFFD4E9DA
:102D20000A2305F097FD0022CDE90201C4E90A015A
:102D300000235046594606F0A7F940BB32463B46B1
:102D40003046394605F084FD52460BF10043CDE98B
:102D5000000106F0A3F9002869D0DDE90001524620
:102D60005B4605F077FDCDE9000142464B46DDE9C3
:102D7000000106F04BF88046894614E042464B4677
:102D80000020434905F064FD06460F46ADE7D4E94F
:102D90000C233046394605F05BFD42464B4606F0B3
:102DA00035F880468946C4E90C67D4E900233046EB
:102DB000394605F001FFD4E9022306460F46DDE956
:102DC000020105F0F9FE02460B463046394605F091
:102DD00041FDD4E9042306460F464046494605F026
:102DE000EBFE02460B463046394605F031FDD4E98C
:102DF000084506460F46002200232046294606F0D5
:102E000043F978B905F1004922464B463046394628
:102E100006F044F9E0B922462B463046394606F022
:102E20005BF928BB47EC106B05B0BDE8F08FDDE91E
:102E300000235046594606F031F9002895D0DDE9C7
:102E4000000152465B4605F003FDCDE900018CE729
:102E500026464F4647EC106B05B0BDE8F08F404664
:102E6000494600220A4B05F0F5FC8046894631E7C9
:102E700026462F4647EC106B05B0BDE8F08F00BF2B
:102E80000000000000807640008066400024744905
:102E9000008076400160704710B40C4A83B013681C
:102EA000009390E81200009B1B1B8B4208D913680B
:102EB0000193019B4360012003B05DF8044B704710
:102EC000002003B05DF8044B704700BFD819FF1F06
:102ED00000207047374A384913681B06FCD40B683A
:102EE00013F08003F8D172B634490A78002A5FD013
:102EF000334A3448F0B4344C176806682568D468FF
:102F00000C303E44143200681268304F35442C4473
:102F100020440244C2F34E022D4E2E482E4D2F4C1B
:102F200042F400423A60376806682D682C4A2468EB
:102F30000C303E44006812682A4F35442C4420442B
:102F40000244C2F34E02284E2848294D294C42F42F
:102F500000423A60376806682D68274A24680C30BA
:102F60003E4400681268254F35442C4420440244F6
:102F7000C2F34E02224E2348234D244C42F4004219
:102F80003A60376806682D68214A24680C303E4450
:102F90000068126835442C4420440244C2F34E02B7
:102FA0001C4842F4004202600B7062B6F0BC7047ED
:102FB00062B6704724B0034024B00B40D319FF1F02
:102FC00038B003403CB0034040B003402CB0034055
:102FD00058B003405CB0034060B0034064B00340AD
:102FE0006CB0034030B0034038B00B403CB00B40F5
:102FF00040B00B4044B00B404CB00B402CB00B40E9
:1030000058B00B405CB00B4060B00B4064B00B405C
:103010006CB00B4030B00B4030B42948294A2A4BE1
:103020002A4D6024E121047011701B78284C082B74
:1030300030D00A2B2748284937D00C2B0CBF35221B
:103040005D2212232A60236002600B60234B244917
:103050001B78244ABBB101230B601360224B234928
:103060001B78234A012B26D9042B0FD9082B1ED9F4
:10307000102B94BF862387230B6013601D4B012206
:103080001A7030BC70470B601360E7E784230B6055
:103090001360F3E700F58E200F4908302122132337
:1030A0002A60236002600B60D0E73922F7E78523AE
:1030B0000B601360E2E780230B601360DEE700BF64
:1030C0000040074001400740FD06FF1F08B00340D5
:1030D0000CB0034008B00B400CB00B40D619FF1FDA
:1030E00020B0034020B00B40FE06FF1F24B0034079
:1030F00024B00B40D319FF1F47282FD8334B2DE99D
:10310000F0411E5CFF2E2BD0314B1B78002B2AD1B7
:1031100032062CD472B62F4D2F4C2F460123266039
:103120002B7062B672B623681B060CD43B781BB9B1
:10313000F4E72B78002BF1D062B602F0C5FA72B634
:1031400023681806F5D5254B1B6800222A7062B645
:10315000234A107843FA00F0BDE8F0810020704760
:103160000020BDE8F081FFF7B5FE3206D2D572B679
:103170001C4DDFF87C801C4C06F04007FFB206F0C7
:103180003F06D8F80030DFB123F01003C8F8003054
:1031900001232660134A2B7062B672B623681906A3
:1031A0000CD413781BB9ECE72B78002BE9D062B66E
:1031B00002F08AFA72B623681B06F5D50B4BC3E7FB
:1031C00043F01003C8F80030E2E700BF9C9B00000A
:1031D000D319FF1FD519FF1F00B0034010B00340E3
:1031E000D219FF1FD419FF1F00B00B4010B00B40C5
:1031F0000CB00B400A4A0B49136843F48053136028
:103200000B7843B9084BC0221A70084B80F30C00AE
:1032100000B218807047044B80221A70F5E700BF97
:103220002C800440D619FF1F21C00C4000C00C4068
:103230000A4A0B49136843F4005313600B7843B9EF
:10324000084BC0221A70084B80F30C0000B21880A3
:103250007047044B80221A70F5E700BF2C800440B1
:10326000D619FF1F21D00C4000D00C4008B5FEF746
:1032700013FFFEF775FF02F027FAFAE7844641EAEA
:10328000000313F003036DD1403A41D351F8043BDE
:1032900040F8043B51F8043B40F8043B51F8043B30
:1032A00040F8043B51F8043B40F8043B51F8043B20
:1032B00040F8043B51F8043B40F8043B51F8043B10
:1032C00040F8043B51F8043B40F8043B51F8043B00
:1032D00040F8043B51F8043B40F8043B51F8043BF0
:1032E00040F8043B51F8043B40F8043B51F8043BE0
:1032F00040F8043B51F8043B40F8043B51F8043BD0
:1033000040F8043B51F8043B40F8043B403ABDD23E
:10331000303211D351F8043B40F8043B51F8043BE0
:1033200040F8043B51F8043B40F8043B51F8043B9F
:1033300040F8043B103AEDD20C3205D351F8043B6F
:1033400040F8043B043AF9D2043208D0D2071CBF3B
:1033500011F8013B00F8013B01D30B880380604664
:10336000704700BF082A13D38B078DD010F00303DA
:103370008AD0C3F10403D21ADB071CBF11F8013B4A
:1033800000F8013B80D331F8023B20F8023B7BE799
:10339000043AD9D3013A11F8013B00F8013BF9D2C4
:1033A0000B7803704B7843708B788370604670475E
:1033B00008B5104C08E0236859050DD423681A0598
:1033C0000FD42368DB0411D423685803F3D501F02C
:1033D0001FFB23685905F1D500F06AFC23681A0524
:1033E000EFD500F0BBFD2368DB04EDD500F0E6FE71
:1033F000EAE700BF3480044008B5FFF7D9FF00BFFB
:10340000014B10221A80704700200540704700BF12
:10341000094908B50B6830B16A461844A2F5005254
:10342000904202D20860184608BD05F0F3FE0C2356
:1034300003604FF0FF3008BD0007FF1F0078B0FAAF
:1034400080F04009704700BF01230370704700BF40
:10345000EFF3138070B9EFF310836BB9EFF30582CC
:103460005AB94FF48070EFF311832BB1984228BF03
:10347000184670474FF0FF3070470F2A01D81846A2
:10348000F1E7014BD05CEEE7F0E300E0F0B44D1E55
:103490002E46002400E00134B0FBF2F302FB1300DF
:1034A000092800F130078ABF3730F8B2C0B206F8F9
:1034B000010F1846002BEED10A1953704CB1107849
:1034C00015F8016F28700133E01A834202F8016990
:1034D000F5DB0846F0BC704710B4114B53F83020B0
:1034E00092F8804234B1012379B182F880305DF8DE
:1034F000044B704703EBC0035B681A6851B922F0B4
:1035000002021A605DF8044B704782F800315DF8E2
:10351000044B704742F003021A605DF8044B704799
:10352000E49B00001C4A02EBC00301295B6811D038
:1035300004291BD052F83000002280F8802229B1E3
:10354000022920D0032922D01A6070474FF48072DC
:103550001A60704752F830004FF4A27280F880125F
:103560001A601A6822F020021A60704752F8301070
:103570004FF4A272012081F880021A601A6842F0AA
:1035800020021A60704740F203121A6070474FF42D
:1035900081721A60704700BFE49B000030B4054B95
:1035A000054D064C002210211A602A602060196027
:1035B00030BC704714D0034004D0034000D0034017
:1035C00038B5A0F14203012B04461FD9002975DD4F
:1035D000904B1B78012505FA03F28A4202D83F2856
:1035E00027D938BDC21E012A2BD9A0F11D02012AFC
:1035F00073D90E2856D9A4F12302032A57D9864A33
:10360000126802FB011222FA03F320E0814B1B78BF
:103610000B2B0AD90C2B1CBF0C3B1941422C084622
:1036200057D0BDE83840FFF703BEC3F10C03994003
:10363000F4E72946FFF750FF2946BDE83840FFF779
:1036400071BF764A126802FB011222FA03F3A21E2E
:10365000242A00F2D580DFE812F0CC00C500BE00BD
:10366000B700B000A900A2009B009400D300D300D3
:10367000D3008D00D300D300D300D300D300860045
:103680007F0078007100D300D300D300D300D300B3
:103690006A006300D300D300D300D3005C00550060
:1036A0004E00470044F28412C240D207A3D55C4AC0
:1036B000126802FB011222FA03F3C8E73F2890D8F0
:1036C0000021FFF709FF20460121BDE83840FFF740
:1036D00029BFBDE83840FFF78DBD524A126802FB92
:1036E000011222FA03F3B2E74F49504A0B604FF43C
:1036F0005173136038BD4E494E4A0B604FF45173FD
:10370000136038BD4C494D4A0B604FF45173136040
:1037100038BD4B494B4A0B604FF45173136038BDB1
:1037200049494A4A0B604FF45173136038BD484908
:10373000484A0B604FF45173136038BD4649474AFD
:103740000B6040F24443136038BD4549454A0B6065
:1037500040F24443136038BD4349444A0B6040F291
:103760004443136038BD4249424A0B6040F244432F
:10377000136038BD4049414A0B6040F24443136036
:1037800038BD3F493F4A0B6040F24443136038BDA7
:103790003D493E4A0B6040F24443136038BD3C490A
:1037A0003C4A0B6040F24443136038BD3A493B4AFF
:1037B0000B6040F24443136038BD3949394A0B600D
:1037C00040F24443136038BD3749384A0B6040F239
:1037D0004443136038BD3649364A0B604FF4517389
:1037E000136038BD3449354A0B604FF45173136090
:1037F00038BD3349334A0B6040F24443136038BD4F
:103800003F2C3FF6EEAE7F29D4BF00210121204698
:1038100057E700BF0407FF1F0880034008900340DC
:1038200008900B4008800B4048900B402CB004409F
:1038300040900B4028B0044038900B4024B0044026
:1038400030900B4020B0044018800B404CA0044046
:1038500010800B4048A004401880034008B004408A
:103860001080034004B004404080034018C004406E
:103870003880034014C0044018900B4004C004403A
:103880002880034010B00440208003400CB0044066
:1038900028900B400CC0044020900B4008C004400E
:1038A0003080034010C00440488003401CC00440E6
:1038B000189003403490044010900340309004402E
:1038C00010900B4000C004403F2801D8FFF704BE11
:1038D000704700BF3F2801D8FFF724BE704700BFE4
:1038E00072B60C490C4B0D4A1B680868126862B628
:1038F000520102D5322B88BF01300949C3F5EA33A2
:103900004FF47A72BF33A1FB031302FB00F000EB0C
:1039100093107047D819FF1F18E000E004ED00E095
:10392000898888882DE9F843054672B6204F214BD7
:10393000214A1B683C68126862B6520102D5322BDC
:1039400088BF013495B3C3F5EA331C4EDFF86490A9
:10395000DFF86480BF334FF47A72A6FB031302FBD7
:1039600004F404EB931472B6D9F800103A68D8F84E
:1039700000E062B6C1F5EA33BF33A6FB03031EF0D5
:10398000806FC4EB93134FF47A7002D0322988BF52
:10399000013200FB0233B3F57A7F04D3013D05D039
:1039A00004F57A74DFE701F08FFEDCE7BDE8F88309
:1039B000D819FF1F18E000E004ED00E0898888882E
:1039C000F8B53E4B3E49DFF818C13E4E3E4ADFF89F
:1039D00014E13E4D3E4C3F4F4FF0006018604FF0F9
:1039E000805018604FF0005018604FF08040186011
:1039F0004FF0004018600020086028234EF6FF7149
:103A0000CCF80010CEF8003033600EF5012E1360B4
:103A10002B60236005F500253B6004F50024B362AC
:103A200007F50027936206F5012602F501220EF143
:103A3000100E05F6E87504F6E87407F57F67103296
:103A400020362B602360CEF800303B60136033607B
:103A5000214EBB61936109223260A7F5002706F56C
:103A60008056203F083638603160BB60F36047F80D
:103A7000042C06F5FD2607F5FE2706F2FC76043732
:103A800030603960B360FB6046F8042C0836C7F834
:103A9000FC0F06F6FC76114831602B602360026053
:103AA000FFF7BAFA1920FFF73DFF01F019FD40F2C8
:103AB0001310BDE8F840FFF735BF00BF04E100E098
:103AC00004800340148003401C8003402480034092
:103AD0002C800340348003400080034000900B4062
:103AE000088003400C800340324A33491368F0B524
:103AF00043F4806313600A78304F314E314D324CBD
:103B000032490023152A3B7033702B7023700B70E1
:103B100045D01B2A3ED082B32D4B1B78052B34D0C9
:103B20001A2B41D0012B1BD01F281FD80020024682
:103B30000125284B284C1A7028495D7004224FF04B
:103B4000020E88273C26402598729A704FF000405C
:103B500083F813E05A751F74DE7025700860F0BD9D
:103B60001F4B4FF451721F281A60DFD9C0F3443243
:103B7000C0F3471500F01F00DBE71A4B40F2133289
:103B80001A60134B1B78052BCAD1174B4FF4517297
:103B90001A60C9E7154B40F213321A60BCE7144BA8
:103BA00040F213321A60B7E7124B4FF451721A60A9
:103BB000BAE700BF34800440241AFF1FE019FF1F3A
:103BC000E119FF1F701AFF1F691AFF1F681AFF1FF4
:103BD0000507FF1F00A006401FE400E000E100E031
:103BE00044A0044040A004401CC004403C90044059
:103BF00018C0044038900440054A064B10781B78E2
:103C0000C0B2DBB2984238BF4030C01A704700BF24
:103C1000E019FF1FE119FF1F30B4154B154C1A783E
:103C20002378D2B2DBB29A421ED001333F2B0ED999
:103C30001149124B087819680023C0B2237021B1D2
:103C4000D31A1A2B01DC00230B7030BC70470A48D2
:103C50000A49C05C0968DDB2C0B225700029F4D001
:103C60009A4238BF4032EBE74FF0FF30EDE700BF3C
:103C7000E019FF1FE119FF1F281AFF1FDC19FF1FA2
:103C8000084A094B12781B78DBB29A4207D00133FD
:103C9000402B28BF0023054AD05CC0B270474FF0CC
:103CA000FF307047E019FF1FE119FF1F281AFF1F9F
:103CB000F0B4384B1A7912F0300F2CD072B6997DCF
:103CC00001F0FF0200293DD062B6334F3349387806
:103CD0000D78334E1C46C0B2EDB2431C402BE17947
:103CE00028BF0023AB4202F1FF32C9B21CBFF1541E
:103CF000184612F0FF02F0D12A4B1B68C2B23A708C
:103D00004BB1A84236BFC5F14005401B40192728DA
:103D1000C4BF01221A701F49CA78D2B2150616D440
:103D200052060DD51B4B1B795B0609D51E4B1F494F
:103D30001B6800220A7003B11A70164B3C22DA701D
:103D4000F0BC70474022D9795A7462B6E3E70B7928
:103D50001C06E5D5164B174E1C783378E4B2DBB25F
:103D60009C420ED0144D01E0A3420AD00133402BF7
:103D700028BF00230879E85CC0B2C871087D072815
:103D8000F2D9DBB2034933700B79180644BF7C23A8
:103D9000CB70C5E700A00640E019FF1FE119FF1F27
:103DA000281AFF1FDC19FF1F6C1AFF1F681AFF1F5C
:103DB000701AFF1F691AFF1FE419FF1F2A4A2B49B7
:103DC0001368F0B443F4006313600A78284F294E57
:103DD000294D2A4C2A490023092A3B7033702B7045
:103DE00023700B703AD03B2A1ED0264B1B780A2B2F
:103DF00022D03A2B2DD01F2824D80020024601269D
:103E0000214B224D1A70224C5E70042198720222BE
:103E100088273C2640209970DA7459751F74DE702B
:103E200028702260F0BC70471A4B40F213321A60BF
:103E3000144B1B780A2BDCD1174B4FF451721F28FF
:103E40001A60DAD9C0F34432C0F3471600F01F00FD
:103E5000D6E7124B4FF451721A60CCE7104B40F288
:103E600013321A60C1E700BF348004400607FF1F09
:103E7000E41AFF1F791AFF1FEC1AFF1FE51AFF1F34
:103E8000781AFF1F0707FF1F00B0064021E400E07B
:103E900004E100E004D0044010B0044000D004402D
:103EA0000CB00440054A064B10781B78C0B2DBB258
:103EB000984238BF4030C01A704700BFE41AFF1F55
:103EC000791AFF1F30B4154B154C1A782378D2B2EB
:103ED000DBB29A421ED001333F2B0ED91149124B4F
:103EE000087819680023C0B2237021B1D31A1A2BA5
:103EF00001DC00230B7030BC70470A480A49C05CE3
:103F00000968DDB2C0B225700029F4D09A4238BFEA
:103F10004032EBE74FF0FF30EDE700BFE41AFF1F40
:103F2000791AFF1FA41AFF1F741AFF1F084A094BB2
:103F300012781B78DBB29A4207D00133402B28BF9E
:103F40000023054AD05CC0B270474FF0FF30704785
:103F5000E41AFF1F791AFF1FA41AFF1FF0B4384B91
:103F60001A7912F0300F2CD072B6997D01F0FF0251
:103F700000293DD062B6334F334938780D78334E3F
:103F80001C46C0B2EDB2431C402BE17928BF002390
:103F9000AB4202F1FF32C9B21CBFF154184612F015
:103FA000FF02F0D12A4B1B68C2B23A704BB1A84253
:103FB00036BFC5F14005401B40192728C4BF012268
:103FC0001A701F49CA78D2B2150616D452060DD5FA
:103FD0001B4B1B795B0609D51E4B1F491B68002232
:103FE0000A7003B11A70164B3C22DA70F0BC7047AD
:103FF0004022D9795A7462B6E3E70B791C06E5D5FD
:10400000164B174E1C783378E4B2DBB29C420ED0CC
:10401000144D01E0A3420AD00133282B28BF00230E
:104020000879E85CC0B2C871087D0728F2D9DBB214
:10403000034933700B79180644BF7C23CB70C5E766
:1040400000B00640E41AFF1F791AFF1FA41AFF1FD1
:10405000741AFF1FE81AFF1F781AFF1FEC1AFF1FC0
:10406000E51AFF1F7C1AFF1F1B4BDFF890C01A6870
:104070001A49F0B542F48052194D1A60DFF880E019
:10408000184F194E194C00238CF800304FF4517220
:104090002B701F2840F213358EF800303B703370C0
:1040A00025600A6011D819460124114A114D11707A
:1040B0001148547000212C274026937208249170D7
:1040C0001174D7702E700460F0BDC0F34431C0F39A
:1040D000471400F01F03E8E7348004400CC004409C
:1040E000F51AFF1F611BFF1F601BFF1F08C0044064
:1040F00000C0064023E400E004E100E0F41AFF1FE2
:10410000681BFF1F054A064B10781B78C0B2DBB254
:10411000984238BF4030C01A704700BFF41AFF1FE2
:10412000F51AFF1F30B4154B154C1A782378D2B20C
:10413000DBB29A421ED001333F2B0ED91149124BEC
:10414000087819680023C0B2237021B1D31A1A2B42
:1041500001DC00230B7030BC70470A480A49C05C80
:104160000968DDB2C0B225700029F4D09A4238BF88
:104170004032EBE74FF0FF30EDE700BFF41AFF1FCE
:10418000F51AFF1F201BFF1FF01AFF1F084A094BDB
:1041900012781B78DBB29A4207D00133402B28BF3C
:1041A0000023054AD05CC0B270474FF0FF30704723
:1041B000F41AFF1FF51AFF1F201BFF1F30B42B4BF3
:1041C0001A7994061FD52A48DA79037829490133E8
:1041D0003F2B0978C8BF00238B42D2B203D0264CB4
:1041E000D9B2E2540170254A116861B1244A1278AB
:1041F000D2B2934236BFC2F140029B1A9B18272BC2
:10420000C4BF01230B70194AD378DBB2180611D44E
:104210005A060DD5154B1B795B0609D5194B1A4962
:104220001B6800220A7003B11A70104B2C22DA703E
:1042300030BC704711790906EAD5144910480C784A
:104240000178C9B28C420DD04A1C272A84BF0021B4
:104250000A460F4D054C98BFD1B2AA5CD2B2E271AA
:104260000170D5E76C21D170D2E700BF00C00640D5
:10427000F41AFF1FF51AFF1F201BFF1FF01AFF1F64
:10428000611BFF1F641BFF1F601BFF1F681BFF1FBD
:10429000F81AFF1F284A29491368F0B443F4005361
:1042A00013600A78264F274E274D284C28490023B3
:1042B0001F2A3B7033702B7023700B7037D03F2A4E
:1042C0001BD0244B1B78202B1FD03E2B2AD01F281D
:1042D00021D80020024601241F4B204D1A702C27A4
:1042E000002240261E495C70987220249A701A742D
:1042F000DF702E700C60F0BC70471A4B40F2133226
:104300001A60144B1B78202BDFD1174B4FF45172DE
:104310001F281A60DDD9C0F34432C0F3471400F0FF
:104320001F00D9E7114B4FF451721A60CFE7104BC1
:1043300040F213321A60C4E7348004400807FF1FBC
:10434000701BFF1F711BFF1FE41BFF1FDD1BFF1FE7
:10435000DC1BFF1F0907FF1F00D0064025E400E01B
:1043600004E100E014D004402CA0044010D004402C
:1043700028A00440054A064B10781B78C0B2DBB277
:10438000984238BF4030C01A704700BF701BFF1FF3
:10439000711BFF1F30B4154B154C1A782378D2B21D
:1043A000DBB29A421ED001333F2B0ED91149124B7A
:1043B000087819680023C0B2237021B1D31A1A2BD0
:1043C00001DC00230B7030BC70470A480A49C05C0E
:1043D0000968DDB2C0B225700029F4D09A4238BF16
:1043E0004032EBE74FF0FF30EDE700BF701BFF1FDF
:1043F000711BFF1F9C1BFF1F6C1BFF1F084A094BF3
:1044000012781B78DBB29A4207D00133402B28BFC9
:104410000023054AD05CC0B270474FF0FF307047B0
:10442000701BFF1F711BFF1F9C1BFF1F30B42B4B0A
:104430001A7994061FD52A48DA7903782949013375
:104440003F2B0978C8BF00238B42D2B203D0264C41
:10445000D9B2E2540170254A116861B1244A127838
:10446000D2B2934236BFC2F140029B1A9B18272B4F
:10447000C4BF01230B70194AD378DBB2180611D4DC
:104480005A060DD5154B1B795B0609D5194B1A49F0
:104490001B6800220A7003B11A70104B2C22DA70CC
:1044A00030BC704711790906EAD5144910480C78D8
:1044B0000178C9B28C420DD04A1C272A84BF002142
:1044C0000A460F4D054C98BFD1B2AA5CD2B2E27138
:1044D0000170D5E76C21D170D2E700BF00D0064053
:1044E000701BFF1F711BFF1F9C1BFF1F6C1BFF1FFF
:1044F000DD1BFF1FE01BFF1FDC1BFF1FE41BFF1F5B
:10450000741BFF1F1B4BDFF890C01A681A49F0B5E7
:1045100042F48062194D1A60DFF880E0184F194E9E
:10452000194C00238CF800304FF451722B701F2867
:1045300040F213358EF800303B70337025600A600E
:1045400011D819460124114A114D117011485470A7
:1045500000212C2740269372042491701174D77087
:104560002E700460F0BDC0F34431C0F3471400F076
:104570001F03E8E72880044060D00440ED1BFF1FC4
:10458000591CFF1F581CFF1F64D0044000A00E40A0
:1045900042E400E008E100E0EC1BFF1F601CFF1F8D
:1045A000054A064B10781B78C0B2DBB2984238BF80
:1045B0004030C01A704700BFEC1BFF1FED1BFF1FF0
:1045C00030B4154B154C1A782378D2B2DBB29A422C
:1045D0001ED001333F2B0ED91149124B08781968B0
:1045E0000023C0B2237021B1D31A1A2B01DC00239F
:1045F0000B7030BC70470A480A49C05C0968DDB2DC
:10460000C0B225700029F4D09A4238BF4032EBE79F
:104610004FF0FF30EDE700BFEC1BFF1FED1BFF1F4E
:10462000181CFF1FE81BFF1F084A094B12781B7854
:10463000DBB29A4207D00133402B28BF0023054A42
:10464000D05CC0B270474FF0FF307047EC1BFF1FCB
:10465000ED1BFF1F181CFF1F30B42B4B1A7994065B
:104660001FD52A48DA790378294901333F2B097885
:10467000C8BF00238B42D2B203D0264CD9B2E25439
:104680000170254A116861B1244A1278D2B293426E
:1046900036BFC2F140029B1A9B18272BC4BF0123CF
:1046A0000B70194AD378DBB2180611D45A060DD50F
:1046B000154B1B795B0609D5194B1A491B6800225B
:1046C0000A7003B11A70104B2C22DA7030BC70479C
:1046D00011790906EAD5144910480C780178C9B255
:1046E0008C420DD04A1C272A84BF00210A460F4D58
:1046F000054C98BFD1B2AA5CD2B2E2710170D5E785
:104700006C21D170D2E700BF00A00E40EC1BFF1F50
:10471000ED1BFF1F181CFF1FE81BFF1F591CFF1F6D
:104720005C1CFF1F581CFF1F601CFF1FF01BFF1F9E
:104730001B4BDFF890C01A681A49F0B542F40062CA
:10474000194D1A60DFF880E0184F194E194C0023FC
:104750008CF800304FF451722B701F2840F2133543
:104760008EF800303B70337025600A6011D819460E
:104770000124114A114D11701148547000212C2749
:1047800040269372102491701174D7702E700460BB
:10479000F0BDC0F34431C0F3471400F01F03E8E755
:1047A0002880044024C00440691CFF1FD51CFF1F43
:1047B000D41CFF1F20C0044000B00E4044E400E0C1
:1047C00008E100E0681CFF1FDC1CFF1F054A064BC8
:1047D00010781B78C0B2DBB2984238BF4030C01AA4
:1047E000704700BF681CFF1F691CFF1F30B42B4BB4
:1047F0001A7994061FD52A48DA79037829490133B2
:104800003F2B0978C8BF00238B42D2B203D0264C7D
:10481000D9B2E2540170254A116861B1244A127874
:10482000D2B2934236BFC2F140029B1A9B18272B8B
:10483000C4BF01230B70194AD378DBB2180611D418
:104840005A060DD5154B1B795B0609D5194B1A492C
:104850001B6800220A7003B11A70104B2C22DA7008
:1048600030BC704711790906EAD5144910480C7814
:104870000178C9B28C420DD04A1C272A84BF00217E
:104880000A460F4D054C98BFD1B2AA5CD2B2E27174
:104890000170D5E76C21D170D2E700BF00B00E40A7
:1048A000681CFF1F691CFF1F941CFF1F641CFF1F57
:1048B000D51CFF1FD81CFF1FD41CFF1FDC1CFF1FB3
:1048C0006C1CFF1F30B472B62B4A13781D0706D537
:1048D0002A4B196A002936D0996A002941D05378A9
:1048E0001C0706D5254B196C00293ED0996C002970
:1048F00039D09378190705D5204B196E002936D089
:10490000996E89B1D3781B0707D51C4BD3F880204B
:104910007AB3D3F8882011213AB162B6184B00223D
:104920001A7030BC00F078BE0D21154C154D227860
:1049300043F8315003EBC1030830013A586022704C
:1049400062B630BC704704220D4C0F4D217843F8FD
:10495000325003EBC20308304A1E5860227062B620
:10496000EFE70521E1E70921DFE70822ECE70C2268
:10497000EAE71022E8E700BFE49D00000000FF1F07
:10498000B51DFF1FC800400088004000431E032BD8
:104990001DD81B4A400140F0100030B4104472B6DC
:1049A000184CE25C032A1BD8DFE802F0021215174C
:1049B00003220D88E25410F0080F14BFC823882387
:1049C00043EA054308310360416062B630BC70477A
:1049D00008300222EDE70522EBE708300422E8E781
:1049E000094A52F8230038B1084A52F823004160BE
:1049F00042F8231062B6E9E742F82310034AF7E7CA
:104A00000000FF1FC41DFF1F8C1DFF1F9C1DFF1FEB
:104A10002DE9F04FDFF80CB3DFF80CA387B044E0CA
:104A2000AB4F4FEA930807EBC809013ED9F80420C1
:104A300003F00803F6B2A2F1080003F0FF04002B14
:104A400040F0028157F838301B0C99B222F8081C4C
:104A5000002B00F0F0809F4B22F8064C42F8044CEB
:104A600053F82620002A00F0C5829B4D55F82630C9
:104A700058609A4C45F8260034F81630194424F84A
:104A8000161000F0A9FD002800F0AD82944A954B65
:104A900019F0080F00F1080018BF1346C9F8040008
:104AA00047F8383008238BF800309BF80040E4B218
:104AB00061071AD58C4B1B78A3B18C490A7802F098
:104AC000FF0322B1013BDBB20B7003B900BE884982
:104AD0000A7802F0FF032AB1013BDBB20B70002B16
:104AE00000F0578204238BF8003004F0080303F031
:104AF000FF02002B00F0CC809AF80030DBB21E09D8
:104B00008ED19C08DFF8C89159F8342009EBC40114
:104B1000C2F38302013A49680C2A00F28880DFE878
:104B200002F07C7C86868686868647868686070097
:104B30000868704D4A68704F704E286081B240F22C
:104B40008160674B6A604FF0010E0022814249F894
:104B500034303A60C9F81020C9F8182086F800E00F
:104B60005B4C00F2E380B1F5D06F80F04683B1F585
:104B7000817F00F0FC8200F28D82802900F0778333
:104B8000822940F0FA82A98801F07F01042900F20D
:104B9000F4825B485B4C89000844227062700278A2
:104BA000930740F1588484F800E04FF0020E42E38E
:104BB000514F3A6832B3544B504E544918883478A8
:104BC0000D784028864645F0020828BF4FF0400E79
:104BD000002C84F001043470CEEB00000CBF88245C
:104BE000C82409EBC80680B285F0010544EA0E44EA
:104BF0007260188049F8384072440D70002800F047
:104C000045813A603B4B1A88B2F5A06F0FD1002165
:104C10009A7859703E4B1A7009E0364A108842F271
:104C20002102904200F037812D4A49F83420394A58
:104C30000123137036E72A4A2A4B19F0080F18BFD0
:104C4000134647F838302DE700F0E6FC324A334986
:104C500052F82630002B00F0D18158688C5D42F864
:104C6000260003F10802C9F80420032C05D8DFE868
:104C700004F02C02292602228A551A8819F0080FFE
:104C80000CBF8823C82343EA024347F8383009E7BA
:104C9000E00700F18181210600F1F281A20706D52B
:104CA0001F4A204913780220DBB213700870E30614
:104CB00002D51C4B10221A7007B0BDE8F08F0422F9
:104CC0008A55DAE705228A55D7E703228A55D4E7C1
:104CD0000000FF1F381DFF1FE41CFF1F681EFF1F81
:104CE000C800400088004000C01DFF1F491DFF1F75
:104CF000C81DFF1FAC1DFF1FE01CFF1F481DFF1F2D
:104D0000C0200740B81DFF1FF41CFF1FB41DFF1F6C
:104D100098200740942007408C1DFF1FC41DFF1FD3
:104D200088200740802007409020074042F2210061
:104D3000814200F02A8100F2D880B1F5086F00F0BE
:104D40007682B1F5106F40F01882226AB349A878D4
:104D50000870120600F13A83D9F82820B0491306EA
:104D600000F10C83D9F83020AD49150600F101831C
:104D7000D9F83820AA49140600F1F682D9F8402063
:104D8000A749100600F14A83D9F84820A449120621
:104D900000F13F83D9F85020A149130600F1348374
:104DA000D9F858209E49150600F12983D9F86020CA
:104DB0009B49140600F11E83D9F868209849100613
:104DC00000F11383D9F870209549120600F1088389
:104DD000D9F878209249130600F1FD82D9F8802095
:104DE0008F49150600F13183D9F888208C491406C3
:104DF00000F12583D9F890208949100600F1198324
:104E0000D9F898208649120600F10D838548864A14
:104E1000864901908648874D874C04970023059664
:104E2000029580460F4616461D460394306828B109
:104E3000446800F0F1FB2046002CF9D100233360D8
:104E4000029B38681A46002342F8253028B144688E
:104E500000F0E2FB2046002CF9D100223A60019AD2
:104E600098F800301146002241F8042B039A019172
:104E7000023B4FF0000122F81510032B00F22B81AA
:104E8000DFE813F07001250170012501BEF1400F2C
:104E900018BF0022B5E6694A0D7848781570507041
:104EA0008D78C8789570D07010680D791571862846
:104EB0004D7989795571917100F09B816049614EFE
:104EC0000A78307882F00105002842F002020D7065
:104ED0000CBF8821C82149F8321009EBC20280F0CA
:104EE00001000021307051609EE642F22120814293
:104EF00040F0CB81544B554C5549A8781D6825602E
:104F0000CDF804E0087000200290804684460446F4
:104F10004B490D7845F0020E09EBCE030393019B3C
:104F2000002B039B5C600CBF8824C82444EA080360
:104F300085F0010449F83E3032700C70DFF8E0E093
:104F4000404BDFF8FC80002840F01E81BCF1400F90
:104F50001BD144F0020C09EBCC03029CDFF8C0E04B
:104F60005C60002A40F02681020442F088029DF82D
:104F700004304EF83C20044433700D702346402822
:104F800003D10020334A3B601080334A0123137061
:104F90004DE600F075FBA5E5214B2F4828491A6125
:104FA0004FF0020E80F800E02C4F0A702C49196077
:104FB00099602C4E2C4D2D4C9A610D213970FF219A
:104FC0003170DFF8B8E029702270294D294A8EF837
:104FD00000109F27012406F8047C5D600470DA60ED
:104FE00007B0BDE8F08F244A47F838001378013342
:104FF000137057E543F826000E4D3AE58B5D032B01
:1050000000F2F08001A252F823F000BFA54A000090
:10501000A54A0000C9500000C3500000C01DFF1F7A
:105020000000FF1F9C1DFF1F381DFF1F8C1DFF1F51
:10503000C41DFF1FE41CFF1F681EFF1F701EFF1F03
:10504000B41DFF1F481DFF1FD819FF1F781EFF1F2B
:10505000D41DFF1FF41CFF1F94200740C0200740F1
:1050600088004000882007408020074098200740A3
:10507000F81CFF1F4C1DFF1FB51DFF1F8C20074094
:10508000C149C24B80220D2008701A70A2077FF51B
:105090000EAE05E640F20232914240F0EE80A98861
:1050A00001F07F01042968D86A88002A65D1B648D2
:1050B000CDF804E089000844017841F00201017054
:1050C00021E701238B55EDE400238B55EAE44FF0F3
:1050D000010388F800300135042D06F1040607F1BC
:1050E000040708F101087FF4A1AEA94CA94B22786E
:1050F000A94D049F059E002129701A70130700F125
:1051000005816278A549DFF8A0820A7010074FF088
:105110000001C9F83010C9F8381000F1E080A0494A
:10512000A2780A700021C9F85010C9F85810110768
:10513000DFF8748200F10181E2789A499A4C0A7092
:1051400000211207C9F87010C9F8781000F1B0807A
:1051500033780193002183F00102C9F89010C9F857
:105160009810D0E64FF0000388F80030B3E7A98824
:1051700001F07F01042940F28D80834A0F231370D0
:105180008A4A0123137052E540287FF6E2AE44F0CC
:1051900002040EEBC401029E4E60BAB19DF80410E9
:1051A000834A19703346403888F8005040334EF82F
:1051B0003420E7E69DF8043033700204029B0D7042
:1051C00042F0C80203444EF83C20D8E69DF8041093
:1051D0001970029B774A88F80050403840334EF8E7
:1051E0003420CFE619F0080F0CBF022303238B55A0
:1051F00058E4714A0F21117060E6704A5468002C1F
:10520000BBD06888B5F804E003E00C325468002C89
:10521000B3D013888342F8D153887345F5D1000A7F
:1052200003280CBF94F800E0B2F808E003E0644AF9
:10523000644C12782270E888704580F03F816249A2
:105240000D784028844645F0020E28BF4FF0400CF0
:1052500004EB0C0309EBCE02029301235460CCEB68
:1052600000004FEA0C4800220193C8245EE6554C2A
:105270004FF0020E22706270DDE7B1F5A06F7FF48F
:105280007CAF0123002201933DE642F2213291429C
:10529000F7D072E76A88002A7FF46FAF3A48CDF8FA
:1052A00004E089000844017821F0020101702AE637
:1052B00000F092F9002800F0EF8008303D4AC4F871
:1052C0008400C4F8802000F087F9002800F0DE8018
:1052D0000830374AC9F88C00C9F8882038E700F050
:1052E0007BF9002800F0C0800830324AC8F844003A
:1052F000C8F8402000F070F9002800F0AF800830B6
:105300002B4AC9F84C00C9F8482008E700F064F9B6
:10531000002800F0CD800830264AC9F82400C9F8DA
:10532000202000F059F9002800F0BC800830204A05
:10533000C9F82C00C9F82820E3E600F04DF9002850
:1053400000F09E8008301B4AC8F86400C8F860204E
:1053500000F042F9002800F08D800830144AC9F8A6
:105360006C00C9F86820E7E6C86B083800F054F90B
:1053700004E5486B083800F04FF9F9E4C86A0838CA
:1053800000F04AF9EEE400BFC0200740802007404B
:10539000E49D0000C4200740B51DFF1FC820074042
:1053A000CC200740D02007400000FF1F942007407A
:1053B000C800400088004000491DFF1FE89D000014
:1053C000C01DFF1FB81DFF1FB41DFF1F606A0838F6
:1053D00000F022F9C0E4C86F083800F01DF9FDE4C0
:1053E000486F083800F018F9F2E4C86E083800F089
:1053F00013F9E7E4486E083800F00EF9DCE4C86DF4
:10540000083800F009F9D1E4486D083800F004F9D3
:10541000C6E4C86C083800F0FFF8BBE4486C0838F4
:1054200000F0FAF8B0E4D1F89C00083800F0F4F885
:10543000ECE4D1F89400083800F0EEF8E0E4D1F89C
:105440008C00083800F0E8F8D4E4D1F8840008387B
:1054500000F0E2F8C8E44FF0020EECE62A78C9F852
:10546000480001322A705AE62A78C8F84000013212
:105470002A703FE72A78C9F8680001322A705BE693
:105480002A78C8F8600001322A7061E72A78C9F8E2
:10549000880001322A705BE62A78C4F88000013265
:1054A0002A7010E72A78C9F8280001322A7028E605
:1054B0002A78C9F8200001322A7032E7BEF1400F85
:1054C000F44628BF4FF0400C04EB0C030293012379
:1054D000CCEB0E004FEA0C480022019318E500BF08
:1054E0002DE9F04100F058FA2F4C304B3048DFF8EE
:1054F000D880304F304D314EDFF8D0C0DFF8D0E0EB
:1055000000221A605A609A60DA601A615A619A61E0
:10551000DA611A625A629A62DA621A635A639A63A9
:10552000DA631A645A649A64DA641A655A659A6589
:10553000DA651A665A669A66DA661A675A679A6769
:10554000DA67C3F880202168C3F8842041F4802101
:105550002160016841F040710160C3F3072188F8C0
:10556000001004F52834C3F307411B0E3970CC3406
:105570002B7000F12040FF238CF80030104D8EF886
:10558000003000F6041033700E49012308F8083C7F
:10559000702622704FF40014102207F82C3C2E7055
:1055A00004600A70BDE8F081348004400000FF1FF1
:1055B00000D80040B0200740B4200740102007402A
:1055C00035E400E0082107409C2007408020074088
:1055D00088200740704700BF72B60D480268B2FAD3
:1055E00082F30B2B10DC4FF00041D94022EA01027C
:1055F000026062B6074803EBC303DB00C218002158
:10560000C15010465160704762B60020704700BF1D
:105610000C07FF1F9803FF1F0D4B0E4AC31AA2FB76
:1056200003231B090B2B0CD80B4A127852B972B604
:105630000A484FF00041026821FA03F31A4302605E
:1056400062B67047064A1278002AF0D0FFF73AB9DE
:105650009803FF1F398EE338B51DFF1F0C07FF1F8E
:10566000C01DFF1F044B054A1B6890881BB11A8898
:105670005B88D31A18447047D01DFF1F681EFF1F98
:1056800038B50E4B1B7873B90D4C216861B103F02E
:10569000FF054B880B800420FFF778F9256038BDA3
:1056A000084B01221A7038BDFFF796FF0028F7D08B
:1056B0000146BDE838400420FFF768B9C91DFF1F47
:1056C000CC1DFF1FC81DFF1F38B52C4C237803B11C
:1056D00038BD01232370FFF7C5FF002842D1FEF734
:1056E0008BFA00283BD1FEF7DDFB002834D1FEF712
:1056F00009FD70BBFEF73EFE40BBFEF751FF10BB3D
:10570000FFF764F8E0B900232370EFF30583002B63
:10571000DED1EFF3108172B6194B186828B3194C1B
:10572000227812BB45691D60012323700DB3AA6165
:1057300001B962B600254577836898472570C7E7A9
:1057400000F028F9DFE700F023F9D9E700F01EF9AF
:10575000D3E700F019F9CDE700F014F9C7E700F03E
:105760000FF9C0E7FFF736FFB9E70029B0D162B6FD
:1057700038BD054B1D600029DCD1DAE7D51DFF1FC0
:10578000E81DFF1FEC1DFF1FE41DFF1F10B4EFF30A
:10579000108272B6437F33B9017F012908D00329F3
:1057A00010D00123437702B962B65DF8044B70470D
:1057B000114C2168A1B1114943610B6883610860F4
:1057C0005861EEE70E4C216881B10E4943610B68C8
:1057D0008361086058610C4B4FF080511960E0E71D
:1057E000064B4161816120601860DAE7054B416139
:1057F000816120601860EEE7E81DFF1FE41DFF1FB8
:10580000D81DFF1FDC1DFF1F04ED00E010B4047F56
:105810004160022CC26003D05DF8044BFFF7B6BFB5
:1058200083685DF8044B184770B5EFF3108272B6C9
:105830000C4C206880B10C4E00254369236073B185
:105840009D6102B962B6457783689847EFF310828D
:1058500072B620680028F0D102B962B670BD33601C
:10586000EFE700BFD81DFF1FDC1DFF1FFFF7DCBFE8
:10587000184A30B41468002C27D0036821688B4282
:105880000ED2CB1A00218460C1602360E0601060FA
:105890000223037530BC704711688B42144608D34D
:1058A000A2685B1A0360002AF6D18260C460A0601F
:1058B000EEE7D268C2608460E060C568CB1A02225D
:1058C000A8602360027530BC70478460C4601060BB
:1058D000DEE700BFE01DFF1FF8B5224E34682CB391
:1058E0002368002B3AD1204F1D4604E03468ECB108
:1058F0002368002B32D1A36803B1DD6020693360D7
:10590000036825751B68BB4221D1037F4560022BCC
:10591000C46020D0FFF73AFF6368002BE6D0236015
:105920002046FFF7A5FF3468002CE1D1EFF3108388
:1059300072B60E4A00211068116003B962B628B130
:105940008468FFF795FF20460028F9D1F8BD22466C
:1059500000219847E0E783689847DDE7013B236033
:10596000E4E700BFE01DFF1F0D580000F01DFF1F02
:10597000024A136801331360FFF7AEBFD819FF1F47
:10598000704700BF704700BF704700BF704700BF3F
:10599000704700BF704700BF72B6184A184B1949CC
:1059A0001160702280211A701A46197013781B0634
:1059B000FCD510B5144B84B0186862B6134B144C68
:1059C000984298BF00EB800001A998BF40000A22CE
:1059D000FDF75CFD01A92046002311F8012B0133DE
:1059E0003AB10A2B20F8022FF7D11623237004B006
:1059F00010BD5B00DBB2237004B010BD0400024098
:105A000000000240000007410C0002407F96980011
:105A10009C07FF1F2DE9F041184D074682B00C4648
:105A20002846394690461E4600F0FCFB2146284693
:105A3000002400F071F86A7B29690094284601234C
:105A400000F002FF4FF0010E697B28690194434684
:105A50003A46CDF800E000F00DFF04E000F024FF2E
:105A6000E3B20134F0542869D0F83821D0F8343149
:105A70009A42F3D102B0BDE8F08100BF1C1EFF1FA7
:105A800070B50D4C82B00E4601462046154600F01A
:105A9000C9FB3146204600F03FF82946204600F079
:105AA0003BF800230093627B21692046012300F02C
:105AB000CBFE02B070BD00BF1C1EFF1F0369D3F8F0
:105AC0003801D3F83431C01A704700BF0369D3F8E6
:105AD0003411D3F83821914208D2D3F83421511C23
