:10000000F8FF022099010000C52000007D200000BB
:100010007D2000007D2000007D2000007D2000006C
:100020007D2000007D2000007D200000C520000014
:10003000C52000007D200000554600005947000003
:10004000C5200000C5200000C5200000C52000001C
:10005000C5200000C5200000C5200000C52000000C
:10006000C5200000C5200000C5200000C5200000FC
:10007000C5200000C5200000C5200000C5200000EC
:10008000C5200000C5200000C5200000C5200000DC
:10009000C5200000C5200000C5200000C5200000CC
:1000A0008D4F0000994F0000C5200000C5200000C2
:1000B000C5200000C5200000C52000002D2900003B
:1000C000C5200000D92B0000C5200000392E0000FB
:1000D000C5200000A9300000C5200000C520000098
:1000E000C5200000C5200000C5200000C52000007C
:1000F000C5200000C5200000C5200000C52000006C
:10010000C5200000C5200000C5200000C52000005B
:10011000C520000061350000C5200000C52000009A
:10012000C5200000C5200000C5200000C52000003B
:10013000C5200000C5200000C5200000C52000002B
:10014000C5200000C5200000D5320000C5200000F9
:10015000A1470000C5200000C5200000C520000008
:10016000C5200000C5200000A54F0000C5200000EC
:10017000C5200000C5200000C5200000C5200000EB
:10018000C5200000C5200000C5200000C5200000DB
:10019000C5200000C5200000584B4CF2205210B57D
:1001A0001A804DF628121A8000BF00BF01F08EFFA2
:1001B000534B4FF030621A60524A9A60524ADA60EA
:1001C000524B4FF470021A60514A136813F4807353
:1001D00004D150490B604FF4A85313604E4B1A786A
:1001E000110703D51A7842F008021A704B4B4C499C
:1001F0002A221A704B4A4C4B8B4204D252F8040FFD
:1002000043F8040BF8E7494B494900228B4202D2DC
:1002100043F8042BFAE74749474A002352F82300E2
:1002200041F823000133662BF8D1444B444A802126
:1002300003F8011B9342FBD1424B3E4A1A60424BEA
:100240008A221A70A3F5805324225A70A0221A70B1
:100250009A799207FCD59A79D406FCD43B4A9379D3
:1002600003F00C03082B394BF9D103221A714622F3
:100270005A719A799006FCD5344A9179334B4906E4
:10028000FBD5334A4FF08271116009215160202261
:100290001A709A7902F00C020C2AFAD12D4B2E4AD0
:1002A0001A602E4B2E4A1A6000225A60072243F829
:1002B000042C2C4AC3F80C2D62B602F0BFF9154B82
:1002C0001B68DA0705D5284801F0A6FF274B284A06
:1002D0001A60284B1B785B0609D5244C244B2268F6
:1002E0009A4204D1204801F097FF0023236006F0D2
:1002F00077FF01F0F1FE01F01FFEFEE70E20054042
:1003000030800440823F04000100002B88ED00E0B3
:1003100010D0034014D0034002D0074000E0074053
:10032000B812FF1FA8BC0000F806FF1FB812FF1F7D
:100330006018FF1F0002FF1F0000000000E400E043
:1003400056E400E008ED00E00050064000400640A2
:100350004480044004800440C010050014E000E024
:10036000BFD40100000020209524935D1CE00340D1
:10037000A5C3945A00F00740FFFFFFFFFFFFFFFFF8
:10038000FFFFFFFFFFFFFFFFFFFFFFFFFFFFFFFF7D
:10039000FFFFFFFFFFFFFFFFFFFFFFFFFFFFFFFF6D
:1003A000FFFFFFFFFFFFFFFFFFFFFFFFFFFFFFFF5D
:1003B000FFFFFFFFFFFFFFFFFFFFFFFFFFFFFFFF4D
:1003C000FFFFFFFFFFFFFFFFFFFFFFFFFFFFFFFF3D
:1003D000FFFFFFFFFFFFFFFFFFFFFFFFFFFFFFFF2D
:1003E000FFFFFFFFFFFFFFFFFFFFFFFFFFFFFFFF1D
:1003F000FFFFFFFFFFFFFFFFFFFFFFFFFFFFFFFF0D
:10040000FFFFFFFFFFFFFFFFFFFFFFFFDEF9FFFF23
:1004100010B5054C237833B9044B13B10448AFF33E
:1004200000800123237010BDB812FF1F00000000E0
:10043000A4BC0000084B10B51BB108490848AFF335
:1004400000800848036803B910BD074B002BFBD0A0
:10045000BDE81040184700BF00000000BC12FF1F9D
:10046000A4BC0000B812FF1F0000000010B5074830
:1004700001F044FA40B1064C0D20217802F062F8F8
:10048000237883F00103237010BD00BF7813FF1F92
:10049000FC06FF1FF0B5264E264F83B00DF1070571
:1004A00002F0E8F9092841DD02F0F4F90446E4B26B
:1004B00002F024FAFF2CF3D1C0B2FF28F0D102F0F1
:1004C000E9F90DF1FF3402F0E5F904F8010FAC424F
:1004D000F9D19DF805309DF804009DF803209DF8A2
:1004E00002409DF806109DF800C09DF801E043EA27
:1004F00000209DF80730B08142EA04249DF80820CE
:10050000748143EA01219DF80930F181003218BF5E
:100510000122003318BF01234EEA0C2EA6F808E092
:10052000BA70FB7002F0A6F90928BDDC03B0F0BD7B
:10053000DC13FF1F4813FF1F70B50D4E0D4D3068C3
:1005400006F06EFA042241EC100B2846022100F05E
:100550000FFE0446306806F063FA052241EC100BEA
:100560002846032100F004FE201A00B270BD00BF2F
:10057000B813FF1FDC13FF1F38B50F4C04F1100533
:1005800054F8040F06F04CFA41EC100B02210B4812
:1005900001F02AFA01210A4803F086FEAC42EFD1AD
:1005A0001E21054801F08AF806490246BDE8384098
:1005B000024801F0C9B900BF4813FF1F0C07FF1F15
:1005C00004B4000068B40000F8B50B4F7B8893B109
:1005D0000E460546002421462A46074800F03CFC0A
:1005E000054800F05FFB304601F0DAFF01347B88FC
:1005F000A4B2A342EFD8F8BDA013FF1FFFFFFFFF77
:1006000038B5434C2DED028B204600F0A9FC414843
:1006100000F054FC404800F019FE404801F06AF830
:10062000FFF724FFFFF736FF3D4B206893ED008B6B
:1006300006F0F6F9B0EE481AF0EE681A41EC100B2D
:100640009FED312B374800F03BFF55EC104B00225B
:10065000002310EE100A294606F0BCFC00283ED00C
:100660000022314B2046294606F07CF806F0DCFCDF
:1006700006F0C4F92D4BC3E90001FFF75DFF06F05A
:10068000BDF99FED212B41EC100BB0EE421AF0EEBC
:10069000621A274800F014FF55EC104B002200238B
:1006A00010EE100A294606F095FC08B300221E4BF6
:1006B0002046294606F056F806F0B6FCB0F5967FBF
:1006C0001C4B1D4CA8BF4FF496709842B8BF1846FB
:1006D00006F094F9BDEC028BC4E9000138BD00229C
:1006E000114B2046294606F03BF806F09DFCBFE77B
:1006F00000220D4B2046294606F032F806F094FC05
:10070000DCE700BFAFF30080000000000000000045
:10071000B813FF1F8013FF1FDC13FF1F4813FF1FB9
:100720009813FF1FD812FF1F0000E03F7013FF1F38
:100730001013FF1FD4FEFFFF9013FF1F10B546F2EA
:10074000A81002F00FF81048104C00F0F3FC10480D
:1007500000F0B2FB0F4800F005FE0F4801F0BAF8B8
:1007600001210D2001F0F4FE0C4800F0B5FC2046FC
:1007700000F044FA2046142100F074FB2046BDE846
:10078000104000F08FBA00BFDC13FF1FA013FF1F43
:100790008013FF1FD813FF1F4813FF1FB813FF1F3D
:1007A00030B583B0FFF72CFFFFF7E6FEFFF772FED0
:1007B0001E218D4800F082FF00285FD101460122F2
:1007C0008A4800F0CBFC642800F2938004220221C6
:1007D000864800F0C3FC052204460321834800F04C
:1007E000BDFC844240F29380814C824B0022D4E9CC
:1007F000000105F0B7FF06F017FC4FF4B47100F0EC
:10080000B1F906F0FBF87C4B41EC110B186884ED54
:10081000001B8DED001B06F003F99DED001B41EC64
:10082000100B9FED6F2B754800F04AFE55EC104BF6
:100830000022002310EE100A294606F0CBFB002808
:1008400000F0C48000226E4B2046294605F08AFF46
:1008500006F0EAFB06F0D2F86A4CC4E9000103E0B6
:10086000FFF7CEFED4E9000106F0DEFB0146664844
:1008700000F0F8FD0028F3D003B030BD634BD3E99E
:10088000000106F0D1FB002203B211465E4800F0E1
:1008900085FD01214FF46140FFF796FE642001F0D1
:1008A0007FFE01210020FFF78FFE642001F078FE1B
:1008B00001214FF46140FFF787FE642001F070FED4
:1008C00001210020FFF780FE642001F069FE012174
:1008D0004FF46140FFF778FE642001F061FE0121D2
:1008E0000020FFF771FE642003B0BDE8304001F046
:1008F00057BE444BD3E9000106F096FB962203B2A3
:100900004148114603B0BDE8304000F047BD052224
:100910000321364800F022FC042204460221334819
:1009200000F01CFC844201D803B030BD304C314B88
:100930000022D4E9000105F013FF06F075FB4FF427
:10094000B47100F00FF906F059F82B4B41EC110B84
:10095000186884ED001B8DED001B06F061F89DED1D
:10096000001B41EC100B9FED1E2B244800F0A8FD4E
:1009700055EC104B0022002310EE100A294606F019
:1009800029FBD0B100221E4B2046294605F0EAFE85
:1009900006F04AFB06F032F81A4CC4E9000103E005
:1009A000FFF72EFED4E9000106F03EFB0146164893
:1009B00000F058FD0028F3D0B6E70022104B204687
:1009C000294605F0CDFE06F02FFBE3E700220C4B95
:1009D0002046294605F0C4FE06F026FB3AE700BF94
:1009E00000000000000000004813FF1FDC13FF1F81
:1009F0009813FF1F00805640B813FF1FD812FF1F27
:100A00000000E03F7013FF1FD813FF1F9013FF1F5C
:100A1000F8B52DED048B9FED2A8B9FED2B9BB0EE4F
:100A2000482AF0EE682AB0EE481AF0EE681A2E4B0B
:100A30002E4AB0EE493AF0EE693A002400219FEDCB
:100A4000240B2B4891611C605C609C60DC601C8204
:100A5000D16100F023FDB0EE493AF0EE693AB0EE14
:100A6000481AF0EE681A9FED1C2B9FED1D0B2148D4
:100A7000214F00F013FD21490D4601F1140645F800
:100A8000044B52234C604C61384617223C216C6069
:100A9000AC60EC607460B460F46000F0C7F9384694
:100AA0001749184A03F026FFBDEC048B4FF47A7106
:100AB0001548BDE8F84000F01FBF00BFAFF300804D
:100AC00000000000000000000000000000E07F4087
:100AD0000000000000002E40000000000000F8BFF1
:100AE000000000000000F03FDC13FF1FB813FF1FE1
:100AF000D812FF1F1013FF1FA013FF1F4813FF1F63
:100B0000DD0B0000F806FF1F7813FF1F00B52DED69
:100B1000028B10EE900A85B0B0EE608A8DED030A6C
:100B200005F07EFF9DED030ACDE9000110EE100AED
:100B300005F076FF9DED001B41EC100B04F0ECFA84
:100B400051EC100B06F0B8FA00EE100AB5EEC00A30
:100B5000F1EE10FA48BF38EE000A05B0BDEC028B8A
:100B60005DF804FB90FBF1F303FB11000028B8BF14
:100B700040187047037AF0B5160C150AF6B2EDB2BC
:100B80005FFA82FE5BB103FB06F603FB05F503FB90
:100B90000EFEC6F30726C5F30725CEF3072EC77C46
:100BA000047CBC4214D0C46804EB8101120E0F44D3
:100BB0004BB9D3B23B70077CCE55437CCD54837C7C
:100BC00001F803E0F0BD03FB02F3C3F30723F1E7F1
:100BD000C36801EB41011944EEE700BF10B50446BC
:100BE000C06806F02DFBB4F90600002803DBC0B294
:100BF000002101F0ADFC204610BD00BF10B5044639
:100C0000B0F90600002807DBC0B2012101F0A0FC0A
:100C10000021A07901F096FC0123637010BD00BF94
:100C200038B50446C0680D4606F00AFBE37C207C1C
:100C300083420CBF0320042010FB05F080B2A0808B
:100C4000012106F089FAE06008B1658038BDA08016
:100C5000608038BDF0B4077CC47CC568C1F38106F0
:100C6000FF29A4EB0704C1F3811201F003074674C6
:100C7000B4FA84F48CBF00260126C1F30111C274BA
:100C800064098774067001744DB1511AB1FA81F18B
:100C90004909A14203D04188F0BCFFF7C1BFF0BCB5
:100CA000704700BF2DE9F843C368002B4FD00446BE
:100CB00001F054FC6369C01AB0F5967FF8D372B6A0
:100CC0004649B4F906500B684548464A50F8350085
:100CD000E668A788257843F080730B60136843F0BB
:100CE000010337441360A5B3A1F55D41F8390A68E3
:100CF000BE4202F196021FD289464FF0010C16F84F
:100D0000018B4FF0080E80250B689B1A952BFBD9A1
:100D100018EA050FD9F8002080F880C055D00B687C
:100D20009B1A5F2BFBD9BEF1010E80F800C14FEA80
:100D30005505E9D1B742E2D12B490B689B1A952B97
:100D4000FBD962B601F00AFC6061BDE8F883BDE83A
:100D5000F88325490A68BE4202F5967220D2894678
:100D60004FF0010C16F8018B4FF0080E80250B6830
:100D70009B1AB3F5967FFAD318EA050FD9F800202D
:100D800080F880C018D00B689B1A8F2BFBD9BEF15E
:100D9000010E80F800C14FEA5505E8D1B742E1D114
:100DA00011490B689B1AB3F5967FFAD362B601F02E
:100DB000D5FB6061BDE8F8830B689B1A3B2BE6D836
:100DC0000B689B1A3B2BF7D9E1E70B689B1A1D2B8D
:100DD000A9D80B689B1A1D2BF7D9A4E7FCED00E0FE
:100DE00010B50000001000E0041000E038B54378B2
:100DF0006BB10446B0F9060000280D4609DBC0B20D
:100E0000002101F0A5FB6378E5801BB938BDC180E6
:100E100038BDE180EDB22846012101F099FB28465A
:100E20000021BDE8384001F08DBB00BF70B5002542
:100E300004460E46457019460572C5604561154663
:100E4000FFF708FF31462046FFF7EAFE2046294615
:100E5000FFF7CCFF204670BD43888B4201D9FFF7D6
:100E600089BE704770B44E1C047AF6B2A64213D005
:100E7000013C14F0FF04C56810D183882A4653B1A1
:100E8000137804FB03F31B1202F8013B531B818808
:100E90009BB29942F4D8067270BC7047FF2905D006
:100EA0003302013B93FBF4F4A4B2E6E74FF6FF7381
:100EB00093FBF4F4E1E700BF704700BF10B50446B0
:100EC0000E2000F07FFF20600F2000F07BFF6060AD
:100ED000102000F077FFA06010BD00BF30B58DB0CE
:100EE00008AB0E223B21682004F062F89DF82840F0
:100EF0009DF821309DF82A509DF82B209DF82C005C
:100F00009DF82D109FED147A9FED141A43EA0423E7
:100F100042EA05225B4241EA00211BB2524212B270
:100F200000EE103A0BB200EE902A07EE903AF8EE7F
:100F3000E00AB8EEC00AF8EEE77A60EE870A20EE23
:100F4000070A67EE877A60EE810A20EE010A27EE33
:100F5000811A0DB030BD00BF00007A440000003897
:100F600010B586B00446FFF7B9FF8DED030ACDED4D
:100F7000040A8DED051A01F0F1FAA3689DED057ADA
:100F8000DFED274AD4ED045A94ED055A9DED046A2D
:100F9000244A94ED000A1168D4ED016A0191C31A44
:100FA00007EE903AF8EEE77A77EE655A87EEA47A84
:100FB000019BE168A0605B1A642B36EE456AF1EE96
:100FC000477AA7EEA50AE7EE866A84ED000AC4ED2B
:100FD000016A11D9F0EE667A94ED077AD4ED066ACB
:100FE0001368029330EE260A77EE277A029BE360BD
:100FF00084ED000AC4ED017ADFED0B0AFFF786FDF0
:10100000DFED090A84ED000A94ED010AFFF77EFD89
:101010000A2084ED010A01F0C3FA06B010BD00BF3A
:1010200000247449F413FF1F0000B44330B52DEDC4
:10103000028B044685B028252046FFF74FFF94ED2C
:10104000047AD4ED057ACDED020A37EE017A77EE17
:10105000A00A84ED047AC4ED050A64208DED010A2E
:101060008DED031A01F09CFA6B1E13F0FF05E3D11E
:10107000DFED177A94ED056A94ED047AC7EE276ADE
:10108000204686EE277AC4ED046A84ED057AFFF7E0
:1010900067FF6420D4ED008A94ED018A01F080FAA4
:1010A0002046FFF75DFF0B4B94ED007A1B68D4EDF3
:1010B000017A019337EE687A77EEC87A019B84ED66
:1010C000067AC4ED077AE36005B0BDEC028B30BD53
:1010D00000002042F413FF1F10B50446144803F02B
:1010E00065FC06221D21682003F09CFF06221A21C0
:1010F000682003F097FF10221B21682003F092FF65
:1011000000221C21682003F08DFF02223721682075
:1011100003F088FF16220A210C2003F083FF01F060
:101120001DFAA0602046BDE81040FFF77FBF00BF5A
:101130003008FF1F08B546F2A81001F07DFC43F20D
:10114000D40001F0CFFD43F2D40001F0E1FE43F200
:10115000D400BDE8084002F013B800BF30F8111009
:1011600030F81230C818C0F34F007047FFFFFFFF80
:101170002DE9F04F824683B030F811008DED000B61
:10118000934605F03BFC9DED000B2EA3D3E9002315
:101190008046894651EC100B05F096FC0022284B46
:1011A00005F0BCFD41EC100B03F056FF55EC104B65
:1011B0000022002310EE100A294605F015FF00B3A7
:1011C00022462B464046494605F07EFC05F02CFFA2
:1011D00080463AF81B0005F011FC26462F46824651
:1011E0008B4652465B463046394605F06DFC05F0AD
:1011F0001BFF404400EBD070C0F34F0003B0BDE8CC
:10120000F08F05F1004722463B464046494605F02F
:101210005BFC05F009FF80463AF81B0005F0EEFB89
:10122000002282468B46002320462946264605F0AA
:10123000DBFE0028D5D026462F46D2E7AFF300804C
:101240000080664000000060FB21094038B505467B
:1012500001F066FC07281DDD01F072FC0446E4B2D3
:1012600001F0A2FC5A2CF3D1C0B25A28F0D101F0FF
:1012700067FC01F065FC01F063FC01F061FC0446D1
:1012800001F05EFCC0B240EA0420288001F048FC76
:101290000728E1DC01F074FD07281DDD01F080FD69
:1012A0000446E4B201F0B0FD5A2CF3D1C0B25A2882
:1012B000F0D101F075FD01F073FD01F071FD01F059
:1012C0006FFD044601F06CFDC0B240EA0420688066
:1012D00001F056FD0728E1DC01F08AFE07281DDD3C
:1012E00001F096FE0446E4B201F0C6FE5A2CF3D19A
:1012F000C0B25A28F0D101F08BFE01F089FE01F056
:1013000087FE01F085FE044601F082FEC0B240EA8D
:101310000420A88001F06CFE0728E1DC01F07EFFCC
:1013200007281DDD01F08AFF0446E4B201F0BAFF90
:101330005A2CF3D1C0B25A28F0D101F07FFF01F04E
:101340007DFF01F07BFF01F079FF044601F076FF9D
:10135000C0B240EA0420E88001F060FF0728E1DC29
:1013600038BD00BF08B50121152001F0F1F80121B9
:10137000182001F0EDF80121192001F0E9F8012110
:10138000142001F0E5F801211B2001F0E1F8012112
:101390001A20BDE8084001F0DBB800BFF8B59BB2E9
:1013A0001A4415B2C91AFE2D0CB221DC15F1FF0F3B
:1013B0004FDA6FF0FE063546FE2C27461DDC14F191
:1013C000FF0FB8BFFF2446DA0021182001F0BAF859
:1013D0000121192001F0B6F82146152000F02EFF5A
:1013E000002D19DD01211B2001F0ACF8002119E0CE
:1013F000FF26FE2C35462746E1DDFF270121182078
:1014000001F0A0F80021192001F09CF839461520C0
:1014100000F014FF002DE5DC6EB901211B2001F066
:1014200091F801211A2001F08DF831461420BDE811
:10143000F84000F003BF00211B2001F083F80121D8
:101440001A2001F07FF871421420BDE8F84000F046
:10145000F5BE2E46B0E7002CD0DC08BF0121B4D089
:101460006442B1E770B5064608460D4605F0C6FA77
:1014700021F0004319460022074B05F097FD08B103
:10148000012070BD04462BB2304622462146FFF7AC
:1014900085FF204670BD00BF0000594010B580EDAB
:1014A000000B80ED021B80ED042B80ED083B044611
:1014B00001F054F8A061204610BD00BFFFFFFFFF00
:1014C0002DE9F04F53EC102B85B0044651EC110B75
:1014D0005BEC12AB05F046F99FED731B41EC100B72
:1014E00003F01AFE59EC108B0022002310EE100AB4
:1014F000494605F05BFD002840F0C58000226C4B9A
:101500004046494605F052FD00284BD0464609F1B9
:10151000004701F023F8A3699FED667AC31A07EE2E
:10152000903AF8EE677A0546C7EE876A16EE900A9B
:1015300005F076FAA56102460B468046894630469C
:10154000394605F0C1FAD4E90A2305F00BF9002267
:10155000CDE90201C4E90A0100235046594605F0CD
:101560001BFD40BB32463B463046394605F0F8F895
:1015700052460BF10043CDE9000105F017FD0028AC
:1015800069D0DDE9000152465B4605F0EBF8CDE994
:10159000000142464B46DDE9000105F0BFFB8046F5
:1015A000894614E042464B460020434905F0D8F8EE
:1015B00006460F46ADE7D4E90C233046394605F020
:1015C000CFF842464B4605F0A9FB80468946C4E960
:1015D0000C67D4E900233046394605F075FAD4E9A2
:1015E000022306460F46DDE9020105F06DFA0246C8
:1015F0000B463046394605F0B5F8D4E904230646D3
:101600000F464046494605F05FFA02460B46304613
:10161000394605F0A5F8D4E9084506460F460022EC
:1016200000232046294605F0B7FC78B905F10049AA
:1016300022464B463046394605F0B8FCE0B9224612
:101640002B463046394605F0CFFC28BB47EC106BE3
:1016500005B0BDE8F08FDDE900235046594605F09E
:10166000A5FC002895D0DDE9000152465B4605F057
:1016700077F8CDE900018CE726464F4647EC106B22
:1016800005B0BDE8F08F4046494600220A4B05F000
:1016900069F88046894631E726462F4647EC106BAD
:1016A00005B0BDE8F08F00BF00000000008076406C
:1016B00000806640002474490080764007EE901A4E
:1016C00090ED017AF8EEE77AB4EEE77AF1EE10FAEF
:1016D000A8BF0123B4EEE77AA8BF80F82430F1EE6A
:1016E00010FA49BF002390F8240080F824301846EF
:1016F000704700BF70B5594CB4230126062105463A
:10170000204684F83B3084F85E6084F85D6003F026
:1017100039F90021204603F0A1FA3346204603227E
:101720005A2103F025FB94F8383094F839008342AD
:1017300076D29A19D2B2E118904284F83820097E04
:1017400071D92244DFED466A127EDFED467A41EA26
:10175000022107EE101A9A1CD2B2B8EEC77A824262
:10176000E7EE267A84F8382002D2033384F8383042
:1017700095ED057A3C4CC5ED017AB4EEE77AF1EED1
:1017800010FA4CBF012300232B700126B42306213D
:10179000204684F83B3084F85E6084F85D6003F096
:1017A000F1F80021204603F059FA3346204603227F
:1017B0005A2103F0DDFA94F8383094F83900834266
:1017C0002BD29A19D2B2E118904284F83820097EBF
:1017D00036D92244DFED226A127EDFED227A41EA19
:1017E000022107EE101A9A1CD2B2B8EEC77A8242D2
:1017F000E7EE267A84F8382002D2033384F83830B2
:1018000095ED067AC5ED027AB4EEE77AF1EE10FABC
:101810004CBF012300236B7070BDDFED147AEFE73E
:10182000DFED127AA4E741F47F4107EE901ADFED75
:101830000C6AB8EEE77ADFED0B7AE7EE267A97E7E7
:1018400041F47F4107EE901ADFED056AB8EEE77AC2
:10185000DFED047AE7EE267AD2E700BF9C08FF1F8F
:101860000AD7A33C339388C3C407FF1F99B18144AF
:1018700038B5044605252046FFF73CFF94ED057A70
:10188000D4ED067A94ED016AD4ED026A37EE067A59
:1018900077EEA67A84ED057AC4ED067A322000F060
:1018A0007FFE6B1E13F0FF05E5D1D4ED057A94EDB4
:1018B000066AF1EE046A87EEA67AC6EE267AF2EEA2
:1018C000046A37EE267A77EEA67A84ED057AC4EDBF
:1018D000067A38BD10B50446054803F067F8054898
:1018E00003F064F82046BDE81040FFF7C1BF00BF19
:1018F0009C08FF1FC407FF1F0160704710B40C4A0B
:1019000083B01368009390E81200009B1B1B8B426E
:1019100008D913680193019B4360012003B05DF86F
:10192000044B7047002003B05DF8044B704700BFC4
:10193000F413FF1F0020704710B5036814465B685E
:101940009847204610BD00BF0EB400B582B003AA70
:1019500052F8041B019206F0A7FA02B05DF804EBFE
:1019600003B07047F0B507468BB0002A33D0012A88
:1019700008BF0A2251B3212400E0F4B2B1FBF2F512
:1019800002FB1511C8B2092900F1300198BFC8B295
:101990000AA988BF3730214488BFC0B201F8240C9F
:1019A000661E2946002DE8D133B1013CE4B20AABF2
:1019B00023442D2203F8242C3B6801AA11195B68EB
:1019C0003846C4F1220298470BB0F0BD30228DF8A2
:1019D00025202124E8E70368C9B21B6898470BB0AB
:1019E000F0BD00BFFFFFFFFF2DE9F04357EC106B88
:1019F00085B005460C4610EE102A3B4610EE100A44
:101A0000394605F0FBFA002840F0B28027F0004983
:101A1000304649464FF0FF32594B05F0EFFA90B986
:101A2000304649464FF0FF32554B05F0C9FA50B9E0
:101A30002B6854495B6828460322984780464046F5
:101A400005B0BDE8F0834FF060424F4B3046394659
:101A500005F0CAFA002872D14FF060424B4B304675
:101A6000394605F0A3FA002869D100220023304648
:101A7000394605F09BFA002864D18146002C67D0D6
:101A8000434900204FF000083BA3D3E9002308F1AD
:101A9000010805F019F85FFA88F39C42F4D8024671
:101AA0000B463046394604F05DFE0F46064605F00B
:101AB000E3FA804604F092FF02460B463046394670
:101AC00004F04EFE4B4606460F460A224146284683
:101AD000FFF748FF0F2C28BF0F2404F101092E2324
:101AE00080465FFA89F98DF8003001240022294BE5
:101AF0003046394604F0E8FF0F46064605F0BCFACA
:101B000004AB2344C0B200F1300203F8102C04F0FF
:101B100075FF02460B463046394604F021FE01347B
:101B2000E4B24C4506460F46E0D12B6822465B687E
:101B3000284669469847404605B0BDE8F0832B68C3
:101B4000154977E707F100431F464FF0010995E774
:101B500000220F4B3046394604F004FE05F08CFAA3
:101B60004B4601460A222846FFF7FCFE804666E700
:101B70002B680A495EE700BF000000A09999B93FB1
:101B8000FFFFEF7FC4B40000FFFFEF41FFFFEFC195
:101B90000000E03F00002440C0B40000BCB40000DE
:101BA000374A384913681B06FCD40B6813F08003CE
:101BB000F8D172B634490A78002A5FD0334A3448E3
:101BC000F0B4344C176806682568D4680C303E447D
:101BD000143200681268304F35442C4420440244CB
:101BE000C2F34E022D4E2E482E4D2F4C42F4004291
:101BF0003A60376806682D682C4A24680C303E44E9
:101C0000006812682A4F35442C4420440244C2F331
:101C10004E02284E2848294D294C42F400423A6091
:101C2000376806682D68274A24680C303E440068EF
:101C30001268254F35442C4420440244C2F34E021E
:101C4000224E2348234D244C42F400423A60376828
:101C500006682D68214A24680C303E4400681268EA
:101C600035442C4420440244C2F34E021C4842F442
:101C7000004202600B7062B6F0BC704762B67047FB
:101C800024B0034024B00B40EF13FF1F38B00340D3
:101C90003CB0034040B003402CB0034058B0034078
:101CA0005CB0034060B0034064B003406CB00340DC
:101CB00030B0034038B00B403CB00B4040B00B405C
:101CC00044B00B404CB00B402CB00B4058B00B4014
:101CD0005CB00B4060B00B4064B00B406CB00B408C
:101CE00030B00B4030B42948294A2A4B2A4D602491
:101CF000E121047011701B78284C082B30D00A2B7E
:101D00002748284937D00C2B0CBF35225D221223DF
:101D10002A60236002600B60234B24491B78244A0D
:101D2000BBB101230B601360224B23491B78234A6C
:101D3000012B26D9042B0FD9082B1ED9102B94BFA9
:101D4000862387230B6013601D4B01221A7030BC61
:101D500070470B601360E7E784230B601360F3E7C1
:101D600000F58E200F490830212213232A602360BA
:101D700002600B60D0E73922F7E785230B60136020
:101D8000E2E780230B601360DEE700BF00400740FE
:101D900001400740FD06FF1F08B003400CB00340A0
:101DA00008B00B400CB00B40F213FF1F20B00340F3
:101DB00020B00B40FE06FF1F24B0034024B00B40B0
:101DC000EF13FF1F47282FD8334B2DE9F0411E5C3E
:101DD000FF2E2BD0314B1B78002B2AD132062CD46E
:101DE00072B62F4D2F4C2F46012326602B7062B602
:101DF00072B623681B060CD43B781BB9F4E72B782A
:101E0000002BF1D062B602F053FB72B623681806BD
:101E1000F5D5254B1B6800222A7062B6234A10783C
:101E200043FA00F0BDE8F081002070470020BDE8D3
:101E3000F081FFF7B5FE3206D2D572B61C4DDFF841
:101E40007C801C4C06F04007FFB206F03F06D8F835
:101E50000030DFB123F01003C8F800300123266002
:101E6000134A2B7062B672B6236819060CD4137825
:101E70001BB9ECE72B78002BE9D062B602F018FB17
:101E800072B623681B06F5D50B4BC3E743F010036E
:101E9000C8F80030E2E700BFC8B40000EF13FF1F2E
:101EA000F113FF1F00B0034010B00340EE13FF1FFB
:101EB000F013FF1F00B00B4010B00B400CB00B40F4
:101EC0000A4A0B49136843F4805313600B7843B9F3
:101ED000084BC0221A70084B80F30C0000B2188027
:101EE0007047044B80221A70F5E700BF2C80044035
:101EF000F213FF1F21C00C4000C00C400A4A0B49DE
:101F0000136843F4005313600B7843B9084BC022A5
:101F10001A70084B80F30C0000B218807047044B15
:101F200080221A70F5E700BF2C800440F213FF1FD7
:101F300021D00C4000D00C4008B5FEF7FFFBFEF7A7
:101F40002FFC02F0B5FAFAE7844641EA000313F0E9
:101F500003036DD1403A41D351F8043B40F8043BB0
:101F600051F8043B40F8043B51F8043B40F8043B73
:101F700051F8043B40F8043B51F8043B40F8043B63
:101F800051F8043B40F8043B51F8043B40F8043B53
:101F900051F8043B40F8043B51F8043B40F8043B43
:101FA00051F8043B40F8043B51F8043B40F8043B33
:101FB00051F8043B40F8043B51F8043B40F8043B23
:101FC00051F8043B40F8043B51F8043B40F8043B13
:101FD00051F8043B40F8043B403ABDD2303211D3B3
:101FE00051F8043B40F8043B51F8043B40F8043BF3
:101FF00051F8043B40F8043B51F8043B40F8043BE3
:10200000103AEDD20C3205D351F8043B40F8043BB2
:10201000043AF9D2043208D0D2071CBF11F8013BB0
:1020200000F8013B01D30B8803806046704700BF76
:10203000082A13D38B078DD010F003038AD0C3F185
:102040000403D21ADB071CBF11F8013B00F8013B67
:1020500080D331F8023B20F8023B7BE7043AD9D326
:10206000013A11F8013B00F8013BF9D20B780370FB
:102070004B7843708B7883706046704708B5104C7E
:1020800008E0236859050DD423681A050FD4236886
:10209000DB0411D423685803F3D501F061FA2368F7
:1020A0005905F1D500F042FC23681A05EFD500F080
:1020B00093FD2368DB04EDD500F0BEFEEAE700BF28
:1020C0003480044008B5FFF7D9FF00BF014B102250
:1020D0001A80704700200540704700BF094908B5C5
:1020E0000B6830B16A461844A2F50052904202D201
:1020F0000860184608BD05F06DF80C2303604FF02A
:10210000FF3008BD0007FF1FF0B44D1E2E4600240F
:1021100000E00134B0FBF2F302FB1300092800F1E8
:1021200030078ABF3730F8B2C0B206F8010F184640
:10213000002BEED10A1953704CB1107815F8016FCD
:1021400028700133E01A834202F80169F5DB084682
:10215000F0BC704710B4114B53F8302092F8804215
:1021600034B1012379B182F880305DF8044B7047B7
:1021700003EBC0035B681A6851B922F002021A60CF
:102180005DF8044B704782F800315DF8044B7047EE
:1021900042F003021A605DF8044B704710B500006E
:1021A0001C4A02EBC00301295B6811D004291BD033
:1021B00052F83000002280F8802229B1022920D074
:1021C000032922D01A6070474FF480721A6070475A
:1021D00052F830004FF4A27280F880121A601A6828
:1021E00022F020021A60704752F830104FF4A272A9
:1021F000012081F880021A601A6842F020021A60F9
:10220000704740F203121A6070474FF481721A60EF
:10221000704700BF10B5000030B4054B054D064CAB
:10222000002210211A602A602060196030BC7047BB
:1022300014D0034004D0034000D0034038B5A0F1CF
:102240004203012B04461FD9002975DD904B1B78F2
:10225000012505FA03F28A4202D83F2827D938BD62
:10226000C21E012A2BD9A0F11D02012A73D90E2802
:1022700056D9A4F12302032A57D9864A126802FBD1
:10228000011222FA03F320E0814B1B780B2B0AD9B1
:102290000C2B1CBF0C3B1941422C084657D0BDE803
:1022A0003840FFF72BBEC3F10C039940F4E72946F1
:1022B000FFF750FF2946BDE83840FFF771BF764A67
:1022C000126802FB011222FA03F3A21E242A00F272
:1022D000D580DFE812F0CC00C500BE00B700B0002A
:1022E000A900A2009B009400D300D300D3008D006E
:1022F000D300D300D300D300D30086007F00780042
:102300007100D300D300D300D300D3006A00630070
:10231000D300D300D300D3005C0055004E0047002B
:1023200044F28412C240D207A3D55C4A126802FB71
:10233000011222FA03F3C8E73F2890D80021FFF7E3
:1023400009FF20460121BDE83840FFF729BFBDE85D
:102350003840FFF7B5BD524A126802FB011222FA5B
:1023600003F3B2E74F49504A0B604FF451731360C7
:1023700038BD4E494E4A0B604FF45173136038BD5F
:102380004C494D4A0B604FF45173136038BD4B49B3
:102390004B4A0B604FF45173136038BD49494A4AA8
:1023A0000B604FF45173136038BD4849484A0B60C5
:1023B0004FF45173136038BD4649474A0B6040F2F1
:1023C0004443136038BD4549454A0B6040F24443DD
:1023D000136038BD4349444A0B6040F244431360E4
:1023E00038BD4249424A0B6040F24443136038BD55
:1023F0004049414A0B6040F24443136038BD3F49B5
:102400003F4A0B6040F24443136038BD3D493E4AA9
:102410000B6040F24443136038BD3C493C4A0B60BA
:1024200040F24443136038BD3A493B4A0B6040F2E6
:102430004443136038BD3949394A0B6040F2444384
:10244000136038BD3749384A0B6040F2444313608B
:1024500038BD3649364A0B604FF45173136038BDAE
:102460003449354A0B604FF45173136038BD33491A
:10247000334A0B6040F24443136038BD3F2C3FF6B3
:10248000EEAE7F29D4BF00210121204657E700BFCF
:102490000407FF1F088003400890034008900B408A
:1024A00008800B4048900B402CB0044040900B40FB
:1024B00028B0044038900B4024B0044030900B40CA
:1024C00020B0044018800B404CA0044010800B400A
:1024D00048A004401880034008B004401080034026
:1024E00004B004404080034018C0044038800340DA
:1024F00014C0044018900B4004C0044028800340DE
:1025000010B00440208003400CB0044028900B40E1
:102510000CC0044020900B4008C0044030800340B1
:1025200010C00440488003401CC004401890034081
:1025300034900440109003403090044010900B40C1
:1025400000C004403F2801D8FFF704BE704700BF19
:102550003F2801D8FFF724BE704700BF72B60C4970
:102560000C4B0D4A1B680868126862B6520102D50E
:10257000322B88BF01300949C3F5EA334FF47A7230
:10258000BF33A1FB031302FB00F000EB9310704775
:10259000F413FF1F18E000E004ED00E0898888884C
:1025A0002DE9F843054672B6204F214B214A1B689E
:1025B0003C68126862B6520102D5322B88BF0134E2
:1025C00095B3C3F5EA331C4EDFF86490DFF86480FE
:1025D000BF334FF47A72A6FB031302FB04F404EB3F
:1025E000931472B6D9F800103A68D8F800E062B6D1
:1025F000C1F5EA33BF33A6FB03031EF0806FC4EBC3
:1026000093134FF47A7002D0322988BF013200FB55
:102610000233B3F57A7F04D3013D05D004F57A7413
:10262000DFE701F045FFDCE7BDE8F883F413FF1FA7
:1026300018E000E004ED00E089888888F8B53E4B9A
:102640003E49DFF818C13E4E3E4ADFF814E13E4DE8
:102650003E4C3F4F4FF0006018604FF080501860C4
:102660004FF0005018604FF0804018604FF000406D
:1026700018600020086028234EF6FF71CCF8001087
:10268000CEF8003033600EF5012E13602B6023600E
:1026900005F500253B6004F50024B36207F500272B
:1026A000936206F5012602F501220EF1100E05F6E1
:1026B000E87504F6E87407F57F67103220362B6062
:1026C0002360CEF800303B6013603360214EBB6165
:1026D000936109223260A7F5002706F58056203F56
:1026E000083638603160BB60F36047F8042C06F5AB
:1026F000FD2607F5FE2706F2FC76043730603960C8
:10270000B360FB6046F8042C0836C7F8FC0F06F6E9
:10271000FC76114831602B6023600260FFF7E2FA1B
:102720001920FFF73DFF01F083FC40F21310BDE8D4
:10273000F840FFF735BF00BF04E100E0048003402C
:10274000148003401C800340248003402C800340FD
:10275000348003400080034000900B400880034019
:102760000C800340324A33491368F0B543F4806368
:1027700013600A78304F314E314D324C32490023CC
:10278000152A3B7033702B7023700B7045D01B2AB9
:102790003ED082B32D4B1B78052B34D01A2B41D061
:1027A000012B1BD01F281FD8002002460125284BD3
:1027B000284C1A7028495D7004224FF0020E8827B9
:1027C0003C26402598729A704FF0004083F813E041
:1027D0005A751F74DE7025700860F0BD1F4B4FF4F2
:1027E00051721F281A60DFD9C0F34432C0F3471575
:1027F00000F01F00DBE71A4B40F213321A60134B54
:102800001B78052BCAD1174B4FF451721A60C9E7D8
:10281000154B40F213321A60BCE7144B40F21332EE
:102820001A60B7E7124B4FF451721A60BAE700BF53
:10283000348004404014FF1FFC13FF1FFD13FF1FD3
:102840008C14FF1F8514FF1F8414FF1F0507FF1F33
:1028500000A006401FE400E000E100E044A00440C6
:1028600040A004401CC004403C90044018C00440F8
:1028700038900440054A064B10781B78C0B2DBB292
:10288000984238BF4030C01A704700BFFC13FF1F8A
:10289000FD13FF1F30B4154B154C1A782378D2B2B4
:1028A000DBB29A421ED001333F2B0ED91149124B95
:1028B000087819680023C0B2237021B1D31A1A2BEB
:1028C00001DC00230B7030BC70470A480A49C05C29
:1028D0000968DDB2C0B225700029F4D09A4238BF31
:1028E0004032EBE74FF0FF30EDE700BFFC13FF1F76
:1028F000FD13FF1F4414FF1FF813FF1F084A094B65
:1029000012781B78DBB29A4207D00133402B28BFE4
:102910000023054AD05CC0B270474FF0FF307047CB
:10292000FC13FF1FFD13FF1F4414FF1FF0B4384BAF
:102930001A7912F0300F2CD072B6997D01F0FF0297
:1029400000293DD062B6334F334938780D78334E85
:102950001C46C0B2EDB2431C402BE17928BF0023D6
:10296000AB4202F1FF32C9B21CBFF154184612F05B
:10297000FF02F0D12A4B1B68C2B23A704BB1A84299
:1029800036BFC5F14005401B40192728C4BF0122AE
:102990001A701F49CA78D2B2150616D452060DD540
:1029A0001B4B1B795B0609D51E4B1F491B68002278
:1029B0000A7003B11A70164B3C22DA70F0BC7047F3
:1029C0004022D9795A7462B6E3E70B791C06E5D543
:1029D000164B174E1C783378E4B2DBB29C420ED013
:1029E000144D01E0A3420AD00133402B28BF00233D
:1029F0000879E85CC0B2C871087D0728F2D9DBB25B
:102A0000034933700B79180644BF7C23CB70C5E7AC
:102A100000A00640FC13FF1FFD13FF1F4414FF1FFF
:102A2000F813FF1F8814FF1F8414FF1F8C14FF1F4F
:102A30008514FF1F0014FF1F2A4A2B491368F0B4A6
:102A400043F4006313600A78284F294E294D2A4C1D
:102A50002A490023092A3B7033702B7023700B70B6
:102A60003AD03B2A1ED0264B1B780A2B22D03A2B79
:102A70002DD01F2824D8002002460126214B224DAC
:102A80001A70224C5E7004219872022288273C261C
:102A900040209970DA7459751F74DE7028702260B6
:102AA000F0BC70471A4B40F213321A60144B1B787B
:102AB0000A2BDCD1174B4FF451721F281A60DAD958
:102AC000C0F34432C0F3471600F01F00D6E7124BA4
:102AD0004FF451721A60CCE7104B40F213321A6077
:102AE000C1E700BF348004400607FF1F0015FF1F29
:102AF0009514FF1F0815FF1F0115FF1F9414FF1FDA
:102B00000707FF1F00B0064021E400E004E100E0F9
:102B100004D0044010B0044000D004400CB0044085
:102B2000054A064B10781B78C0B2DBB2984238BF1A
:102B30004030C01A704700BF0015FF1F9514FF1FDB
:102B400030B4154B154C1A782378D2B2DBB29A42C6
:102B50001ED001333F2B0ED91149124B087819684A
:102B60000023C0B2237021B1D31A1A2B01DC002339
:102B70000B7030BC70470A480A49C05C0968DDB276
:102B8000C0B225700029F4D09A4238BF4032EBE73A
:102B90004FF0FF30EDE700BF0015FF1F9514FF1F3A
:102BA000C014FF1F9014FF1F084A094B12781B78AE
:102BB000DBB29A4207D00133402B28BF0023054ADD
:102BC000D05CC0B270474FF0FF3070470015FF1F58
:102BD0009514FF1FC014FF1FF0B4384B1A7912F080
:102BE000300F2CD072B6997D01F0FF0200293DD044
:102BF00062B6334F334938780D78334E1C46C0B235
:102C0000EDB2431C402BE17928BF0023AB4202F117
:102C1000FF32C9B21CBFF154184612F0FF02F0D1C6
:102C20002A4B1B68C2B23A704BB1A84236BFC5F1FD
:102C30004005401B40192728C4BF01221A701F49B4
:102C4000CA78D2B2150616D452060DD51B4B1B7985
:102C50005B0609D51E4B1F491B6800220A7003B191
:102C60001A70164B3C22DA70F0BC70474022D979BA
:102C70005A7462B6E3E70B791C06E5D5164B174E7E
:102C80001C783378E4B2DBB29C420ED0144D01E0E4
:102C9000A3420AD00133282B28BF00230879E85C1F
:102CA000C0B2C871087D0728F2D9DBB2034933707E
:102CB0000B79180644BF7C23CB70C5E700B00640F3
:102CC0000015FF1F9514FF1FC014FF1F9014FF1F56
:102CD0000415FF1F9414FF1F0815FF1F0115FF1F88
:102CE0009814FF1F1B4BDFF890C01A681A49F0B503
:102CF00042F48052194D1A60DFF880E0184F194EE7
:102D0000194C00238CF800304FF451722B701F289F
:102D100040F213358EF800303B70337025600A6046
:102D200011D819460124114A114D117011485470DF
:102D300000212C2740269372082491701174D770BB
:102D40002E700460F0BDC0F34431C0F3471400F0AE
:102D50001F03E8E7348004400CC004401115FF1F36
:102D60007D15FF1F7C15FF1F08C0044000C00640F2
:102D700023E400E004E100E01015FF1F8415FF1FAD
:102D8000054A064B10781B78C0B2DBB2984238BFB8
:102D90004030C01A704700BF1015FF1F1115FF1FEC
:102DA00030B4154B154C1A782378D2B2DBB29A4264
:102DB0001ED001333F2B0ED91149124B08781968E8
:102DC0000023C0B2237021B1D31A1A2B01DC0023D7
:102DD0000B7030BC70470A480A49C05C0968DDB214
:102DE000C0B225700029F4D09A4238BF4032EBE7D8
:102DF0004FF0FF30EDE700BF1015FF1F1115FF1F4B
:102E00003C15FF1F0C15FF1F084A094B12781B7851
:102E1000DBB29A4207D00133402B28BF0023054A7A
:102E2000D05CC0B270474FF0FF3070471015FF1FE5
:102E30001115FF1F3C15FF1F30B42B4B1A79940658
:102E40001FD52A48DA790378294901333F2B0978BD
:102E5000C8BF00238B42D2B203D0264CD9B2E25471
:102E60000170254A116861B1244A1278D2B29342A6
:102E700036BFC2F140029B1A9B18272BC4BF012307
:102E80000B70194AD378DBB2180611D45A060DD547
:102E9000154B1B795B0609D5194B1A491B68002293
:102EA0000A7003B11A70104B2C22DA7030BC7047D4
:102EB00011790906EAD5144910480C780178C9B28D
:102EC0008C420DD04A1C272A84BF00210A460F4D90
:102ED000054C98BFD1B2AA5CD2B2E2710170D5E7BD
:102EE0006C21D170D2E700BF00C006401015FF1F53
:102EF0001115FF1F3C15FF1F0C15FF1F7D15FF1F30
:102F00008015FF1F7C15FF1F8415FF1F1415FF1F61
:102F1000284A29491368F0B443F4005313600A782F
:102F2000264F274E274D284C284900231F2A3B7047
:102F300033702B7023700B7037D03F2A1BD0244B7B
:102F40001B78202B1FD03E2B2AD01F2821D80020F1
:102F5000024601241F4B204D1A702C2700224026C8
:102F60001E495C70987220249A701A74DF702E705B
:102F70000C60F0BC70471A4B40F213321A60144BCD
:102F80001B78202BDFD1174B4FF451721F281A608A
:102F9000DDD9C0F34432C0F3471400F01F00D9E775
:102FA000114B4FF451721A60CFE7104B40F21332BD
:102FB0001A60C4E7348004400807FF1F8C15FF1F08
:102FC0008D15FF1F0016FF1FF915FF1FF815FF1FB6
:102FD0000907FF1F00D0064025E400E004E100E0FF
:102FE00014D004402CA0044010D0044028A0044079
:102FF000054A064B10781B78C0B2DBB2984238BF46
:103000004030C01A704700BF8C15FF1F8D15FF1F81
:1030100030B4154B154C1A782378D2B2DBB29A42F1
:103020001ED001333F2B0ED91149124B0878196875
:103030000023C0B2237021B1D31A1A2B01DC002364
:103040000B7030BC70470A480A49C05C0968DDB2A1
:10305000C0B225700029F4D09A4238BF4032EBE765
:103060004FF0FF30EDE700BF8C15FF1F8D15FF1FE0
:10307000B815FF1F8815FF1F084A094B12781B78E7
:10308000DBB29A4207D00133402B28BF0023054A08
:10309000D05CC0B270474FF0FF3070478C15FF1FF7
:1030A0008D15FF1FB815FF1F30B42B4B1A799406EE
:1030B0001FD52A48DA790378294901333F2B09784B
:1030C000C8BF00238B42D2B203D0264CD9B2E254FF
:1030D0000170254A116861B1244A1278D2B2934234
:1030E00036BFC2F140029B1A9B18272BC4BF012395
:1030F0000B70194AD378DBB2180611D45A060DD5D5
:10310000154B1B795B0609D5194B1A491B68002220
:103110000A7003B11A70104B2C22DA7030BC704761
:1031200011790906EAD5144910480C780178C9B21A
:103130008C420DD04A1C272A84BF00210A460F4D1D
:10314000054C98BFD1B2AA5CD2B2E2710170D5E74A
:103150006C21D170D2E700BF00D006408C15FF1F54
:103160008D15FF1FB815FF1F8815FF1FF915FF1FCD
:10317000FC15FF1FF815FF1F0016FF1F9015FF1FFE
:103180001B4BDFF890C01A681A49F0B542F4806210
:10319000194D1A60DFF880E0184F194E194C0023C2
:1031A0008CF800304FF451722B701F2840F2133509
:1031B0008EF800303B70337025600A6011D81946D4
:1031C0000124114A114D11701148547000212C270F
:1031D00040269372042491701174D7702E7004608D
:1031E000F0BDC0F34431C0F3471400F01F03E8E71B
:1031F0002880044060D004400916FF1F7516FF1F89
:103200007416FF1F64D0044000A00E4042E400E0AA
:1032100008E100E00816FF1F7C16FF1F054A064B59
:1032200010781B78C0B2DBB2984238BF4030C01A69
:10323000704700BF0816FF1F0916FF1F30B4154B5B
:10324000154C1A782378D2B2DBB29A421ED00133E1
:103250003F2B0ED91149124B087819680023C0B2D0
:10326000237021B1D31A1A2B01DC00230B7030BC60
:1032700070470A480A49C05C0968DDB2C0B22570CF
:103280000029F4D09A4238BF4032EBE74FF0FF30CC
:10329000EDE700BF0816FF1F0916FF1F3416FF1FBA
:1032A0000416FF1F084A094B12781B78DBB29A42BA
:1032B00007D00133402B28BF0023054AD05CC0B2A1
:1032C00070474FF0FF3070470816FF1F0916FF1FA9
:1032D0003416FF1F30B42B4B1A7994061FD52A4899
:1032E000DA790378294901333F2B0978C8BF0023D5
:1032F0008B42D2B203D0264CD9B2E2540170254A97
:10330000116861B1244A1278D2B2934236BFC2F139
:1033100040029B1A9B18272BC4BF01230B70194A2C
:10332000D378DBB2180611D45A060DD5154B1B798C
:103330005B0609D5194B1A491B6800220A7003B1B4
:103340001A70104B2C22DA7030BC704711790906C4
:10335000EAD5144910480C780178C9B28C420DD0D6
:103360004A1C272A84BF00210A460F4D054C98BFEE
:10337000D1B2AA5CD2B2E2710170D5E76C21D170F2
:10338000D2E700BF00A00E400816FF1F0916FF1F5E
:103390003416FF1F0416FF1F7516FF1F7816FF1F38
:1033A0007416FF1F7C16FF1F0C16FF1F431E032BF6
:1033B00014D872B60A4951F8230068B170B4094CA8
:1033C000058834F81320466841F82360521B24F81E
:1033D000132062B670BC704762B670470020704719
:1033E000D816FF1F4818FF1F013803280BD872B6E4
:1033F000074B53F8203043B100205B680130002BAD
:10340000FBD162B67047002070471846F9E700BF4D
:103410002C17FF1F30B472B62B4A13781D0706D540
:103420002A4B196A002936D0996A002941D053786D
:103430001C0706D5254B196C00293ED0996C002934
:1034400039D09378190705D5204B196E002936D04D
:10345000996E89B1D3781B0707D51C4BD3F8802010
:103460007AB3D3F8882011213AB162B6184B002202
:103470001A7030BC00F08CBE0D21154C154D227811
:1034800043F8315003EBC1030830013A5860227011
:1034900062B630BC704704220D4C0F4D217843F8C2
:1034A000325003EBC20308304A1E5860227062B6E5
:1034B000EFE70521E1E70921DFE70822ECE70C222D
:1034C000EAE71022E8E700BF38B700000000FF1F5E
:1034D0005517FF1FC800400088004000431E032B03
:1034E0001DD81B4A400140F0100030B4104472B6A1
:1034F000184CE25C032A1BD8DFE802F00212151711
:1035000003220D88E25410F0080F14BFC82388234B
:1035100043EA054308310360416062B630BC70473E
:1035200008300222EDE70522EBE708300422E8E745
:10353000094A52F8230038B1084A52F82300416082
:1035400042F8231062B6E9E742F82310034AF7E78E
:103550000000FF1F6417FF1F2C17FF1F3C17FF1FE2
:103560002DE9F04FDFF80CB3DFF80CA387B044E08F
:10357000AB4F4FEA930807EBC809013ED9F8042086
:1035800003F00803F6B2A2F1080003F0FF04002BD9
:1035900040F0028157F838301B0C99B222F8081C11
:1035A000002B00F0F0809F4B22F8064C42F8044CB0
:1035B00053F82620002A00F0C5829B4D55F826308E
:1035C00058609A4C45F8260034F81630194424F80F
:1035D000161000F0BDFD002800F0AD82944A954B16
:1035E00019F0080F00F1080018BF1346C9F80400CD
:1035F00047F8383008238BF800309BF80040E4B2DD
:1036000061071AD58C4B1B78A3B18C490A7802F05C
:10361000FF0322B1013BDBB20B7003B900BE884946
:103620000A7802F0FF032AB1013BDBB20B70002BDA
:1036300000F0578204238BF8003004F0080303F0F5
:10364000FF02002B00F0CC809AF80030DBB21E099C
:103650008ED19C08DFF8C89159F8342009EBC401D9
:10366000C2F38302013A49680C2A00F28880DFE83D
:1036700002F07C7C8686868686864786868607005C
:103680000868704D4A68704F704E286081B240F2F1
:103690008160674B6A604FF0010E0022814249F859
:1036A00034303A60C9F81020C9F8182086F800E0D4
:1036B0005B4C00F2E380B1F5D06F80F04683B1F54A
:1036C000817F00F0FC8200F28D82802900F07783F8
:1036D000822940F0FA82A98801F07F01042900F2D2
:1036E000F4825B485B4C8900084422706270027867
:1036F000930740F1588484F800E04FF0020E42E353
:10370000514F3A6832B3544B504E5449188834786C
:103710000D784028864645F0020828BF4FF0400E3D
:10372000002C84F001043470CEEB00000CBF882420
:10373000C82409EBC80680B285F0010544EA0E44AE
:103740007260188049F8384072440D70002800F00B
:1037500045813A603B4B1A88B2F5A06F0FD100212A
:103760009A7859703E4B1A7009E0364A108842F236
:103770002102904200F037812D4A49F83420394A1D
:103780000123137036E72A4A2A4B19F0080F18BF95
:10379000134647F838302DE700F0FAFC324A334937
:1037A00052F82630002B00F0D18158688C5D42F829
:1037B000260003F10802C9F80420032C05D8DFE82D
:1037C00004F02C02292602228A551A8819F0080FC3
:1037D0000CBF8823C82343EA024347F8383009E77F
:1037E000E00700F18181210600F1F281A20706D5F0
:1037F0001F4A204913780220DBB213700870E306D9
:1038000002D51C4B10221A7007B0BDE8F08F0422BD
:103810008A55DAE705228A55D7E703228A55D4E785
:103820000000FF1FD816FF1F8416FF1F4818FF1F38
:10383000C8004000880040006017FF1FE916FF1F06
:103840006817FF1F4C17FF1F8016FF1FE816FF1F8A
:10385000C02007405817FF1F9416FF1F5417FF1F63
:1038600098200740942007402C17FF1F6417FF1F64
:1038700088200740802007409020074042F2210026
:10388000814200F02A8100F2D880B1F5086F00F083
:103890007682B1F5106F40F01882226AB349A87899
:1038A0000870120600F13A83D9F82820B0491306AF
:1038B00000F10C83D9F83020AD49150600F10183E1
:1038C000D9F83820AA49140600F1F682D9F8402028
:1038D000A749100600F14A83D9F84820A4491206E6
:1038E00000F13F83D9F85020A149130600F1348339
:1038F000D9F858209E49150600F12983D9F860208F
:103900009B49140600F11E83D9F8682098491006D7
:1039100000F11383D9F870209549120600F108834D
:10392000D9F878209249130600F1FD82D9F8802059
:103930008F49150600F13183D9F888208C49140687
:1039400000F12583D9F890208949100600F11983E8
:10395000D9F898208649120600F10D838548864AD9
:10396000864901908648874D874C04970023059629
:10397000029580460F4616461D460394306828B1CE
:10398000446800F005FC2046002CF9D10023336088
:10399000029B38681A46002342F8253028B1446853
:1039A00000F0F6FB2046002CF9D100223A60019A83
:1039B00098F800301146002241F8042B039A019137
:1039C000023B4FF0000122F81510032B00F22B816F
:1039D000DFE813F07001250170012501BEF1400FF1
:1039E00018BF0022B5E6694A0D7848781570507006
:1039F0008D78C8789570D07010680D79157186280B
:103A00004D7989795571917100F09B816049614EC2
:103A10000A78307882F00105002842F002020D7029
:103A20000CBF8821C82149F8321009EBC20280F08E
:103A300001000021307051609EE642F22120814257
:103A400040F0CB81544B554C5549A8781D682560F2
:103A5000CDF804E0087000200290804684460446B9
:103A60004B490D7845F0020E09EBCE030393019B01
:103A7000002B039B5C600CBF8824C82444EA080325
:103A800085F0010449F83E3032700C70DFF8E0E058
:103A9000404BDFF8FC80002840F01E81BCF1400F55
:103AA0001BD144F0020C09EBCC03029CDFF8C0E010
:103AB0005C60002A40F02681020442F088029DF8F2
:103AC00004304EF83C20044433700D7023464028E7
:103AD00003D10020334A3B601080334A0123137026
:103AE0004DE600F0C1FCA5E5214B2F4828491A619D
:103AF0004FF0020E80F800E02C4F0A702C4919603C
:103B000099602C4E2C4D2D4C9A610D213970FF215E
:103B10003170DFF8B8E029702270294D294A8EF8FB
:103B200000109F27012406F8047C5D600470DA60B1
:103B300007B0BDE8F08F244A47F838001378013306
:103B4000137057E543F826000E4D3AE58B5D032BC5
:103B500000F2F08001A252F823F000BFF53500001A
:103B6000F5350000193C0000133C00006017FF1FF2
:103B70000000FF1F3C17FF1FD816FF1F2C17FF1F49
:103B80006417FF1F8416FF1F4818FF1F5018FF1FE0
:103B90005417FF1FE816FF1FF413FF1F5818FF1FCD
:103BA0007817FF1F9416FF1F94200740C02007407E
:103BB0008800400088200740802007409820074068
:103BC0009816FF1FEC16FF1F5517FF1F8C2007408C
:103BD000C149C24B80220D2008701A70A2077FF5E0
:103BE0000EAE05E640F20232914240F0EE80A98826
:103BF00001F07F01042968D86A88002A65D1B64897
:103C0000CDF804E089000844017841F00201017018
:103C100021E701238B55EDE400238B55EAE44FF0B7
:103C2000010388F800300135042D06F1040607F180
:103C3000040708F101087FF4A1AEA94CA94B227832
:103C4000A94D049F059E002129701A70130700F1E9
:103C500005816278A549DFF8A0820A7010074FF04D
:103C60000001C9F83010C9F8381000F1E080A0490F
:103C7000A2780A700021C9F85010C9F8581011072D
:103C8000DFF8748200F10181E2789A499A4C0A7057
:103C900000211207C9F87010C9F8781000F1B0803F
:103CA00033780193002183F00102C9F89010C9F81C
:103CB0009810D0E64FF0000388F80030B3E7A988E9
:103CC00001F07F01042940F28D80834A0F23137095
:103CD0008A4A0123137052E540287FF6E2AE44F091
:103CE00002040EEBC401029E4E60BAB19DF80410AE
:103CF000834A19703346403888F8005040334EF8F4
:103D00003420E7E69DF8043033700204029B0D7006
:103D100042F0C80203444EF83C20D8E69DF8041057
:103D20001970029B774A88F80050403840334EF8AB
:103D30003420CFE619F0080F0CBF022303238B5564
:103D400058E4714A0F21117060E6704A5468002CE3
:103D5000BBD06888B5F804E003E00C325468002C4E
:103D6000B3D013888342F8D153887345F5D1000A44
:103D700003280CBF94F800E0B2F808E003E0644ABE
:103D8000644C12782270E888704580F03F81624967
:103D90000D784028844645F0020E28BF4FF0400CB5
:103DA00004EB0C0309EBCE02029301235460CCEB2D
:103DB00000004FEA0C4800220193C8245EE6554CEF
:103DC0004FF0020E22706270DDE7B1F5A06F7FF454
:103DD0007CAF0123002201933DE642F22132914261
:103DE000F7D072E76A88002A7FF46FAF3A48CDF8BF
:103DF00004E089000844017821F0020101702AE6FC
:103E000000F0A6F9002800F0EF8008303D4AC4F821
:103E10008400C4F8802000F09BF9002800F0DE80C8
:103E20000830374AC9F88C00C9F8882038E700F014
:103E30008FF9002800F0C0800830324AC8F84400EA
:103E4000C8F8402000F084F9002800F0AF80083066
:103E50002B4AC9F84C00C9F8482008E700F078F967
:103E6000002800F0CD800830264AC9F82400C9F89F
:103E7000202000F06DF9002800F0BC800830204AB6
:103E8000C9F82C00C9F82820E3E600F061F9002801
:103E900000F09E8008301B4AC8F86400C8F8602013
:103EA00000F056F9002800F08D800830144AC9F857
:103EB0006C00C9F86820E7E6C86B083800F068F9BC
:103EC00004E5486B083800F063F9F9E4C86A08387B
:103ED00000F05EF9EEE400BFC020074080200740FC
:103EE00038B70000C42007405517FF1FC8200740FF
:103EF000CC200740D02007400000FF1F942007403F
:103F0000C800400088004000E916FF1F3CB70000D1
:103F10006017FF1F5817FF1F5417FF1F606A0838EC
:103F200000F036F9C0E4C86F083800F031F9FDE45C
:103F3000486F083800F02CF9F2E4C86E083800F039
:103F400027F9E7E4486E083800F022F9DCE4C86D90
:103F5000083800F01DF9D1E4486D083800F018F970
:103F6000C6E4C86C083800F013F9BBE4486C0838A4
:103F700000F00EF9B0E4D1F89C00083800F008F920
:103F8000ECE4D1F89400083800F002F9E0E4D1F84C
:103F90008C00083800F0FCF8D4E4D1F8840008382C
:103FA00000F0F6F8C8E44FF0020EECE62A78C9F803
:103FB000480001322A705AE62A78C8F840000132D7
:103FC0002A703FE72A78C9F8680001322A705BE658
:103FD0002A78C8F8600001322A7061E72A78C9F8A7
:103FE000880001322A705BE62A78C4F8800001322A
:103FF0002A7010E72A78C9F8280001322A7028E6CA
:104000002A78C9F8200001322A7032E7BEF1400F49
:10401000F44628BF4FF0400C04EB0C03029301233D
:10402000CCEB0E004FEA0C480022019318E500BFCC
:104030002DE9F04100F020FC2F4C304B3048DFF8E8
:10404000D880304F304D314EDFF8D0C0DFF8D0E0AF
:1040500000221A605A609A60DA601A615A619A61A5
:10406000DA611A625A629A62DA621A635A639A636E
:10407000DA631A645A649A64DA641A655A659A654E
:10408000DA651A665A669A66DA661A675A679A672E
:10409000DA67C3F880202168C3F8842041F48021C6
:1040A0002160016841F040710160C3F3072188F885
:1040B000001004F52834C3F307411B0E3970CC34CB
:1040C0002B7000F12040FF238CF80030104D8EF84B
:1040D000003000F6041033700E49012308F8083C44
:1040E000702622704FF40014102207F82C3C2E701A
:1040F00004600A70BDE8F081348004400000FF1FB6
:1041000000D80040B0200740B420074010200740EE
:1041100035E400E0082107409C200740802007404C
:104120008820074000F0A4B800F07CB800F056B832
:1041300000F090B800F06CB900F046B9084611469E
:1041400000F0B2B8084600F033B900BF704700BFB6
:1041500072B60D480268B2FA82F30B2B10DC4FF0F6
:104160000041D94022EA0102026062B6074803EB2F
:10417000C303DB00C2180021C150104651607047D4
:1041800062B60020704700BF1C07FF1F9803FF1F87
:104190000D4B0E4AC31AA2FB03231B090B2B0CD891
:1041A0000B4A127852B972B60A484FF000410268C1
:1041B00021FA03F31A43026062B67047064A127886
:1041C000002AF0D0FFF726B99803FF1F398EE33895
:1041D0005517FF1F1C07FF1F6017FF1F38B50F4D36
:1041E000286878B143880288C118013393420C7A59
:1041F00002D24380204638BDFFF7CAFF0023204685
:104200002B6038BD064B1B782BB10320FFF7CEF88F
:1042100028600028E6D14FF0FF3038BD7417FF1F2B
:104220006017FF1F10B5094C206818B14388184467
:10423000007A10BD064B1B782BB10320FFF7B6F8B0
:1042400020600028F2D14FF0FF3010BD7417FF1F1F
:104250006017FF1F044B054A1B6890881BB11A8822
:104260005B88D31A184470477417FF1F4818FF1F44
:104270000B4B1B789BB110B50A4C206848B1FFF777
:1042800087FF002303202360FFF790F830B1FFF78A
:104290007FFF0320FFF78AF80028F8D110BD704790
:1042A0006017FF1F7417FF1F2DE9F04FDFF8F8901C
:1042B00083B0012289F80020019169B3DFF8EC8016
:1042C000364F019E8346D8F80000B0B3344D448881
:1042D000C4F14001B14228BF314604EB010E002277
:1042E0001FFA8EFE2A70761AA0F802E000F108028A
:1042F00051B1013C224459441BF8014B02F8014FD3
:104300008B45F9D1B0F802E0BEF13F0F0BD8254A3A
:1043100005211170002ED6D10198002389F80030B4
:1043200003B0BDE8F08F4022028001460420FFF771
:10433000D5F80022C8F80020E9E73A782AB3184DEA
:104340004DF2E9044FF0010A07E0013C16D02A784B
:10435000A2B900F0ADF83A78BAB10420FFF744F8FA
:104360000728F2D889F800A0FFF7F2FEC8F800008D
:104370000028ACD10C4B013C1870E8D101234FF060
:10438000FF302B7003B0BDE8F08F00234FF0FF30FB
:1043900089F8003003B0BDE8F08F00BF6017FF1F41
:1043A0007017FF1F6817FF1F6917FF1F6C17FF1F8C
:1043B00000B583B002AB012103F8010D1846FFF7E9
:1043C00073FF03B05DF804FB38B50E4D0E4C286842
:1043D0000123237028B1408800232370C0F14000DE
:1043E00038BD0A4B1B7813B90020207038BD04205B
:1043F000FEF7FAFF0728F7D8FFF7AAFE2860002883
:10440000E9D1F1E76C17FF1F6917FF1F6017FF1F46
:10441000F8B5114B1B788BB1104E114D3468012744
:104420002F7064B10F4A63880027177021462380DC
:104430000420FFF753F8376000232B70F8BDFFF717
:1044400087FE084B28B1014604201C70FFF746F890
:10445000F2E71F70F0E700BF6017FF1F6C17FF1F28
:104460006917FF1F6817FF1F38B50E4B1B7873B90C
:104470000D4C216861B103F0FF054B880B800420CF
:10448000FFF72CF8256038BD084B01221A7038BDA3
:10449000FFF75EFE0028F7D00146BDE83840042053
:1044A000FFF71CB86917FF1F6C17FF1F6817FF1F66
:1044B00038B52C4C237803B138BD01232370FFF7A6
:1044C000C9FE002842D1FEF7D5F900283BD1FEF7FE
:1044D00027FB002834D1FEF753FC70BBFEF788FDA4
:1044E00040BBFEF79BFE10BB00F04AF9E0B9002389
:1044F0002370EFF30583002BDED1EFF3108172B64A
:10450000194B186828B3194C227812BB45691D60F5
:10451000012323700DB3AA6101B962B60025457766
:10452000836898472570C7E700F028F9DFE700F0B7
:1045300023F9D9E700F01EF9D3E700F019F9CDE728
:1045400000F014F9C7E700F00FF9C0E7FFF7FEFD30
:10455000B9E70029B0D162B638BD054B1D6000290E
:10456000DCD1DAE77917FF1F8C17FF1F9017FF1FA9
:104570008817FF1F10B4EFF3108272B6437F33B970
:10458000017F012908D0032910D00123437702B904
:1045900062B65DF8044B7047114C2168A1B1114916
:1045A00043610B68836108605861EEE70E4C216837
:1045B00081B10E4943610B688361086058610C4BFF
:1045C0004FF080511960E0E7064B41618161206046
:1045D0001860DAE7054B4161816120601860EEE701
:1045E0008C17FF1F8817FF1F7C17FF1F8017FF1FE7
:1045F00004ED00E010B4047F4160022CC26003D0DF
:104600005DF8044BFFF7B6BF83685DF8044B1847AD
:1046100070B5EFF3108272B60C4C206880B10C4E6E
:1046200000254369236073B19D6102B962B6457785
:1046300083689847EFF3108272B620680028F0D1A3
:1046400002B962B670BD3360EFE700BF7C17FF1F91
:104650008017FF1FFFF7DCBF184A30B41468002C26
:1046600027D0036821688B420ED2CB1A00218460C8
:10467000C1602360E06010600223037530BC7047A6
:1046800011688B42144608D3A2685B1A0360002AA3
:10469000F6D18260C460A060EEE7D268C260846038
:1046A000E060C568CB1A0222A8602360027530BCA6
:1046B00070478460C4601060DEE700BF8417FF1F8E
:1046C000F8B5224E34682CB32368002B3AD1204F22
:1046D0001D4604E03468ECB12368002B32D1A36896
:1046E00003B1DD6020693360036825751B68BB4238
:1046F00021D1037F4560022BC46020D0FFF73AFF31
:104700006368002BE6D023602046FFF7A5FF3468DE
:10471000002CE1D1EFF3108372B60E4A002110682D
:10472000116003B962B628B18468FFF795FF20468F
:104730000028F9D1F8BD224600219847E0E78368B8
:104740009847DDE7013B2360E4E700BF8417FF1FC4
:10475000F54500009417FF1F024A136801331360E8
:10476000FFF7AEBFF413FF1F704700BF704700BFD5
:10477000704700BF704700BF704700BF704700BF61
:10478000054A064B10781B78C0B2DBB2984238BF9E
:104790004030C01A704700BF9C17FF1F9D17FF1FB6
:1047A00030B42B4B1A7994061FD52A48DA7903784E
:1047B000294901333F2B0978C8BF00238B42D2B26D
:1047C00003D0264CD9B2E2540170254A116861B178
:1047D000244A1278D2B2934236BFC2F140029B1AE9
:1047E0009B18272BC4BF01230B70194AD378DBB267
:1047F000180611D45A060DD5154B1B795B0609D541
:10480000194B1A491B6800220A7003B11A70104B29
:104810002C22DA7030BC704711790906EAD51449A8
:1048200010480C780178C9B28C420DD04A1C272A56
:1048300084BF00210A460F4D054C98BFD1B2AA5C37
:10484000D2B2E2710170D5E76C21D170D2E700BF1E
:1048500000B00E409C17FF1F9D17FF1FC817FF1FBA
:104860009817FF1F0918FF1F0C18FF1F0818FF1FBC
:104870001018FF1FA017FF1F72B6184A184B1949CE
:104880001160702280211A701A46197013781B0665
:10489000FCD510B5144B84B0186862B6134B144C99
:1048A000984298BF00EB800001A998BF40000A22FF
:1048B000FDF72AFC01A92046002311F8012B013342
:1048C0003AB10A2B20F8022FF7D11623237004B037
:1048D00010BD5B00DBB2237004B010BD04000240C9
:1048E00000000240000007410C0002407F96980043
:1048F000AC07FF1F0B460146184602F065BC00BF1F
:1049000090F8392090F83800101A704790F8383035
:1049100090F839209A4205D95A1C034480F838206F
:10492000187E70474FF0FF30704700BF90F8383066
:1049300090F839209A4286BF1B18187E4FF0FF303E
:10494000704700BF704700BF38B50546B0F85E003D
:1049500090B195F85D301446C3F1210294420CD811
:1049600005F13B0018442246FDF7EEFA95F85D305C
:10497000234485F85D30204638BD01201446287157
:10498000EEE700BFB0F85E306BB190F85D30202BE1
:1049900007D8C218013380F85D30012082F83B103F
:1049A0007047012303710020704700BF0023426954
:1049B00080F8383080F8393080F85C3080F85D302D
:1049C00080F85E3080F85F3006CA30B40D68046944
:1049D00043662A4383660A60A370426990F8613097
:1049E0001649146813441D7A5B7B01EBC5051B0255
:1049F0006D6803F4E06343F064032B6090F8623069
:104A000013449D7CDB7D01EBC5011B02496803F467
:104A1000E06343F064030B6021685368194205D0DA
:104A200003692C225A70036904229A7103692022B7
:104A30005A71036980229A7030BC704710B500002B
:104A400038B50269D478E4B2E106054624D51023CE
:104A5000D37063061FD504F0040404F0FF03002C98
:104A60005AD042496A6E00230B7085F85D30002AE7
:104A700066D0904795F85D30002B61D02B69D0222D
:104A80009A702B6995F83B201A712B69012285F8E1
:104A90005C200222DA7038BD04F0400303F0FF000E
:104AA000002BD8D19379DBB203F0600160294ED09E
:104AB000937803F0100303F0FF01B3B114F0010485
:104AC00037D195F85C3095F85D1099424BD9591C57
:104AD0002B4485F85C1093F83B3013712B69D0227E
:104AE0009A702B690222DA70D5E785F86010937905
:104AF00043F0200393712B6995F839101A791F2917
:104B0000D2B2C6D8194800780028C2D0681801313E
:104B100085F839100276BCE72A6985F83930C02358
:104B200093702B69114A1979012111700222DA70F0
:104B3000B1E7C02393702B691A790222DA70AAE7D1
:104B40000122002385F85D2085F83B3096E703F0CD
:104B5000DF039371AB6E23B185F8380095F8390007
:104B600098472A69A4E71471B8E700BF1118FF1F1E
:104B70002DE9F047374FDFF8E0903B68026982B0DB
:104B800006460093DDF800800021C825D3789B06F7
:104B90005BD53B680193019BC8EB03030F2BF5D951
:104BA00049B1102BF2D000209070336980229A70A6
:104BB00002B0BDE8F087726996F8613013440521B0
:104BC000187AFDF7C5FC726996F86130134401212B
:104BD00093F812A05046FDF7BBFC09240021504673
:104BE000FDF7B0FC2B46013BFDD101215046FDF7FE
:104BF000A9FC2B46013BFDD1013CEFD1706996F831
:104C0000611001444FF4C8720C7A4B7B09EBC4016C
:104C10001B02496803F4E06343F064030B6096F8F9
:104C200062300344997CDB7D09EBC1011B024968BA
:104C300003F4E06343F064030B60013AFDD1326991
:104C4000D3789B064FF00101A3D4012002B0BDE848
:104C5000F08700BFF413FF1F10B50000F0B5036923
:104C60001222DA700269937803F0200385B00446BB
:104C70000D46002B5ED0B42393703C4922690B682B
:104C80000093009E05E00B680193019B9B1B042B86
:104C900042D8D37803F0200303F0FF00002BF2D0BA
:104CA00094F85D30002B31D04FF0000E4FF0020C25
:104CB00004EB0E0393F83B3013710B680393039FCF
:104CC000206907E09B060DD50B680293029BDB1B56
:104CD000052B28D8C378DBB203F0020202F0FF06EE
:104CE000002AEFD080F803C02669F378DBB2DF0634
:104CF00032462DD49F062BD5DB0731D40EF1010EA1
:104D000094F85D305FFA8EFE7345D1D800201DBB4C
:104D1000002384F85E3004E09070236980229A704A
:104D2000042005B0F0BD86702369802204209A70AB
:104D300005B0F0BD03F0FF06FFF71AFF10B904201D
:104D400005B0F0BD236984F85F60B0229A7094E7E3
:104D50008023B3700420DAE726698023B370D7E795
:104D6000BEF1000F0CBF02200320F6E7F413FF1F73
:104D70002DE9F04106690025122780F8385080F8A7
:104D80003950F770D0F810C09CF802E00EF0200EF9
:104D900088B00446884615461E46BEF1000F49D02D
:104DA000B4238CF80230784B21691A680092DDF840
:104DB00000E006E01A6801920198CEEB000004289A
:104DC00030D8C87800F0200000F0FF070028F1D0AC
:104DD0004FEA480242F00102D2B20A711A68029206
:104DE000DDF808E0206906E01A6803920399CEEB2B
:104DF000010105292AD8C17801F0020101F0FF075D
:104E00000029F1D04FF0020C80F803C02269D1785C
:104E100011F0110722D12DBB002E0CBFA02380233F
:104E2000937003E08F70236980229A70384608B02F
:104E3000BDE8F0810EF0FF07FFF79AFE0028F5D0DD
:104E4000236984F85F70B0229A70ACE78770236999
:104E5000802238469A7008B0BDE8F08180239370B4
:104E60000027E3E7012D75D0A021917021690A790F
:104E7000BE4667464FF0A80C1A680492049805E0F5
:104E80001A680592059A121A052A4AD8CA7802F0B9
:104E9000020202F0FF08002AF2D0CF702169CA781E
:104EA000D2B212F0100F08465AD1920658D5013DE1
:104EB000EDB2012D49D0BEF11F0F3BD90A79012D6A
:104EC000DAD11A680692069D05E01A680792079AD9
:104ED000521B052A46D8C27802F0020202F0FF01F6
:104EE000002AF2D00223C3702269D378DBB2D9063C
:104EF0003AD49B0634D5B023BEF11F0F93703FD830
:104F0000226904EB0E0312791A760EF1010E5FFA94
:104F10008EFE16B1236980229A7084F839E07746B4
:104F200084E781F80280236980229A70774684F8AA
:104F300039E07BE704EB0E0291F8048082F81880D8
:104F40000EF1010E5FFA8EFEB9E781F802C0216909
:104F50000846B0E7A82191702069BE460279B0E703
:104F6000774663E78170DEE71021C823D170013BEB
:104F7000FDD12269937803F0F7037746937055E7E4
:104F800023691B79C5E700BFF413FF1F0148FFF732
:104F900057BD00BF3008FF1F0148FFF751BD00BFDC
:104FA0009C08FF1F0148FFF74BBD00BFC407FF1F50
:104FB0002DE9F0411A4C4FEA400E012607462046E3
:104FC00090461D4684F83BE084F85E6084F85D609E
:104FD000FFF7D8FC31462046FFF740FE33464246F5
:104FE00039462046FFF7C4FE94F8392094F838304B
:104FF0009A4213D00021E6189A42C8B203F1010385
:105000008ABF84F83830FF23337E2B5494F839203C
:1050100094F838309A4201F10101ECD1BDE8F081F9
:105020003008FF1F70B50B4C430016460125204683
:1050300084F83B3084F85E5084F85D50FFF7A2FCA2
:1050400031462046FFF79EFC29462046BDE87040C9
:10505000FFF704BE3008FF1F00B551EC100B2C4ABF
:1050600021F00043934285B020DD2A4A934209DDB6
:1050700010EE102A0B4601F073FB41EC100B05B04B
:105080005DF804FB684600F0EFF900F0030001282A
:1050900028D0022815D060B301209DED021B9DEDA4
:1050A000000B01F05DF951EC100BE6E79FED161BCC
:1050B00000F002FC51EC100B41EC100B05B05DF858
:1050C00004FB9DED021B9DED000B00F0F5FB53EC86
:1050D000102B10EE100A03F1004141EC100B05B04B
:1050E0005DF804FB9DED021B9DED000B01F038F90E
:1050F000EDE79DED021B9DED000B00F0DDFB51EC9B
:10510000100BBAE7AFF300800000000000000000C1
:10511000FB21E93FFFFFEF7F2DE9F0432DED028BEF
:105120008BB057EC106B55EC114B00F061F82E4B27
:10513000B0EE408AF0EE608A93F90080B8F1FF3F4C
:1051400031D022462B462046294601F057FF50BB5E
:1051500032463B463046394601F050FF814610BB8F
:10516000002200232046294601F016FFD8B11F4B2C
:10517000CDF820900122CDE90267CDE904458DE804
:105180000C00B8F1000F17D1CDE90667684601F0B1
:105190004BFAE0B1089B0BBB9DED060B0BB0BDECD1
:1051A000028BBDE8F083B0EE480AF0EE680A0BB05F
:1051B000BDEC028BBDE8F0830022002310461946A7
:1051C00001F0ACFDB8F1020FCDE90601DED102F02D
:1051D00001F821230360089B002BDDD001F0FAFFCA
:1051E000089B0360D8E700BF0809FF1F14B8000040
:1051F0002DE9F84F53EC112B23F0004952EA090036
:1052000055EC104B25D005F000468F4885EA060B7B
:1052100083451EDC50421043DFF844C249EAD07097
:10522000604511EE108A14D8CB451F4610EE10AA27
:1052300011EE10EA10EE101A17DC28DB944226D388
:1052400013D1824BF60F03EBC60393ED000BBDE8C1
:10525000F88F2046294601F037FC02460B4601F044
:105260005DFD41EC100BBDE8F88FBBF5801F12DA35
:10527000BBF1000F40F0A780BAF1000F534674480D
:105280000DDD5B00002B00F1FF30FADC07E045ECA0
:10529000104BBDE8F88F4FEA2B50A0F2FF30B9F564
:1052A000801F0FDAB9F1000F40F0A780B8F1000FAE
:1052B0004346DFF89CC109DD5B00002B0CF1FF3C8D
:1052C000FADC03E04FEA295CACF2FF3C614B984208
:1052D0005BDBCBF3130343F480135E4A944563DB3B
:1052E000C7F3130545F48015CCEB000007E052EA44
:1052F000040313D0E30F03EB420361000138CEEB4C
:1053000001045A1B90B1714538BF02F1FF32002AE7
:10531000EDDACA0F02EB43034900EFE74B4BF60F00
:1053200003EBC60696ED000BBDE8F88F71451546F8
:1053300038BF02F1FF35002DACBFCEEB01011D4699
:1053400055EA0103EAD0444A954208DCCB0F03EB4F
:10535000450595420CF1FF3C4FEA4101F6DD3D4B1E
:105360009C4554DA3B4ACCEB0202142A5BDCC2F1C6
:10537000200305FA03F3D1400B43154145EA06012A
:10538000184641EC100BBDE8F88F3249091A1F2965
:105390002DDCC1F120030BFA01FB2AFA03F343EAE7
:1053A0000B030AFA01F198E72A4CCCEB04041F2CFA
:1053B00015DCC4F1200209FA04F528FA02F21543BB
:1053C00008FA04FE90E74FEACB23002B21487FF731
:1053D00066AF5B00002B00F1FF30FADC5FE71F4D8A
:1053E000CCEB050508FA05F54FF0000E7CE71B4BEA
:1053F0001B1A0AFA03F300216FE7DFF858C04FEADF
:10540000C9235B00002B0CF1FF3CFADC5EE7A5F53D
:1054100080152E430CF2FF3C46EA0C530A4643EC3F
:10542000102BBDE8F88F1F2A07DCC2F120039D4036
:10543000D14045EA01033546A0E7084BCCEB030316
:1054400045FA03F3354699E7FFFFEF7F20B80000E8
:10545000EDFBFFFF02FCFFFFFFFF0F00E2FBFFFF82
:105460000000F07FFFFFFFFF2DE9F04F53EC102B02
:10547000974923F0004B8B458FB040F387809549C7
:105480008B451C46824629DC002C194610EE100A7A
:1054900085A3D3E9002340F3A58101F061F98E4B88
:1054A0009B4504460D4600F0878081A3D3E9002385
:1054B00001F056F902460B46CAE900232046294668
:1054C00001F04EF97AA3D3E9002301F049F901254F
:1054D000CAE9020128460FB0BDE8F08F7F498B452D
:1054E00040F387807E498B455BDC4FEA2B55A5F264
:1054F0001645ABEB05571046394610EE106A01F021
:1055000093FD01F07BFA8046894642464B46304681
:105510003946CDE9088901F023F90022714B01F0E9
:10552000D3FA8946804601F07FFD01F067FA06460E
:105530000F4632463B4640464946CDE90A6701F0F0
:105540000FF90022674B01F0BFFA00220023CDE9DA
:105550000C0101F021FD002800F07081002330468D
:105560003946002201F018FD002814BF0123022350
:105570005D4A0192022100912A46514608A800F096
:10558000DFFA002CC0F24C81054606E080ED000BEE
:1055900000250024C0E90245002528460FB0BDE8DB
:1055A000F08F10EE100A194601F0DAF80025CAE96A
:1055B0000201CAE90001F0E73FA3D3E9002301F0AB
:1055C000CFF83FA3D3E900230D46044601F0C8F805
:1055D00002460B46CAE900232946204601F0C0F8DE
:1055E00037A3D3E9002301F0BBF80125CAE9020182
:1055F000D3E700F07FFF57EC106B10EE100A32A3D8
:10560000D3E90023394601F05FFA0022374B01F05D
:10561000A9F801F009FD054601F0F0F922A3D3E94C
:105620000023CDE9040101F04FFA02460B46304653
:10563000394601F095F81EA3D3E900238046894638
:10564000DDE9040101F040FA1F2DCDE9020151DC32
:10565000274B6A1E53F822309B454BD002460B461F
:105660004046494601F07CF806460F46CAE9006705
:1056700032463B464046494601F072F8DDE90223D6
:1056800001F06EF8002CCAE9020186DA07F1004445
:1056900001F100436D42CAF80060CAF80440CAF83C
:1056A0000800CAF80C3078E700004054FB21F93FAD
:1056B0003163621A61B4D03D0000601A61B4D03D1C
:1056C0007370032E8A19A33B83C8C96D305FE43F12
:1056D000FB21E93F7BD90240FB21F93FFB21394106
:1056E000FFFFEF7F00007041B0B800000000E03F16
:1056F00030B80000DDE902234046494601F030F8A9
:105700004FEA2B5BC1F30A53C3EB0B0306460F466C
:10571000102BCAE90067ABDD5DA3D3E90023DDE907
:10572000040101F0D1F906460F4602460B464046F9
:10573000494601F015F8CDE9060102460B46404600
:10574000494601F00DF832463B4601F009F852A3F4
:10575000D3E9002306460F46DDE9040101F0B4F960
:1057600032463B4600F0FCFF0B46CDE90201024603
:10577000DDE9060100F0F4FFC1F30A53C3EB0B0BA4
:1057800006460F46BBF1310FCAE9006776DD45A337
:10579000D3E90023DDE9040101F096F906460F463E
:1057A00002460B46DDE9060100F0DAFF02460B4631
:1057B00080468946DDE9060100F0D2FF32463B46CD
:1057C00000F0CEFF39A3D3E9002306460F46DDE9FA
:1057D000040101F079F932463B4600F0C1FFCDE902
:1057E00002013BE700F0BEFF2D4B9B4504460D46F2
:1057F00026D025A3D3E9002300F0B4FF02460B46D0
:10580000CAE900232946204600F0AAFF1EA3D3E9D7
:10581000002300F0A7FF4FF0FF35CAE90201BCE604
:10582000DAF80420DAF80C3002F1004203F1004308
:105830004542CAF80420CAF80C30AEE6032397E6C6
:1058400013A3D3E9002300F08DFF13A3D3E90023B2
:105850000D46044600F086FF02460B46CAE90023C7
:105860002946204600F07CFF0BA3D3E9002300F07B
:1058700079FF4FF0FF35CAE902018EE6DDE90689BE
:10588000F6E600BFAFF300803163621A61B4D03D29
:105890000000601A61B4D03D7370032E8A19A33BD7
:1058A000FB21F93F0000002E8A19A33BC1492025A6
:1058B0009A837B39FFFFFFFF2DE9F04F57EC106B08
:1058C0002DED028BB0EE418AF0EE618A27F000499F
:1058D000B9F1795F83B072DA10EE100A394601F03F
:1058E000A3FB002800F0F68032463B46304639469E
:1058F00001F0EAF87CA3D3E9002304460D4601F049
:10590000E3F87BA3D3E9002300F02CFF22462B46CB
:1059100001F0DAF878A3D3E9002300F021FF224652
:105920002B4601F0D1F876A3D3E9002300F01AFF4B
:1059300022462B4601F0C8F873A3D3E9002300F0F8
:105940000FFF22462B4601F0BFF871A3D3E90023D5
:1059500000F008FF22462B4601F0B6F882468B463F
:105960000022714B2046294601F0AEF8524680468F
:1059700089465B462046294601F0A6F853EC182BD1
:1059800004460D463046394601F09EF802460B4665
:105990002046294600F0E4FE02460B4640464946B2
:1059A00000F0DEFE02460B460020604900F0D8FE03
:1059B00041EC100B03B0BDEC028BBDE8F08F10EE94
:1059C000102A10EE100A3B46394601F07DF846A336
:1059D000D3E9002304460D4601F076F844A3D3E949
:1059E000002300F0BFFE22462B4601F06DF842A3D3
:1059F000D3E9002300F0B4FE22462B4601F064F800
:105A00003FA3D3E9002300F0ADFE22462B4601F070
:105A10005BF83DA3D3E9002300F0A2FE22462B460B
:105A200001F052F83AA3D3E9002300F09BFE2B4685
:105A3000224601F049F83E4B994582468B468FDD60
:105A40003C4B99453DDC0022A9F500130020374965
:105A50009046994600F084FECDE900010022324BC9
:105A60002046294601F030F842464B4600F078FEC9
:105A70005246804689465B462046294601F024F876
:105A800053EC182B04460D463046394601F01CF8FD
:105A900002460B462046294600F062FE02460B46AF
:105AA0004046494600F05CFE02460B46DDE9000137
:105AB00000F056FE41EC100B03B0BDEC028BBDE8CC
:105AC000F08F9FED157B4FF000088DED007BDFF828
:105AD0006890C3E79FED120B03B0BDEC028BBDE8ED
