:10000000F8FF022099010000F51F0000AD1F00005D
:10001000AD1F0000AD1F0000AD1F0000AD1F0000B0
:10002000AD1F0000AD1F0000AD1F0000F51F000058
:10003000F51F0000AD1F0000C1450000C5460000CF
:10004000F51F0000F51F0000F51F0000F51F000060
:10005000F51F0000F51F0000F51F0000F51F000050
:10006000F51F0000F51F0000F51F0000F51F000040
:10007000F51F0000F51F0000F51F0000F51F000030
:10008000F51F0000F51F0000F51F0000F51F000020
:10009000F51F0000F51F0000F51F0000F51F000010
:1000A000D55D0000E15D0000F51F0000F51F0000B8
:1000B000F51F0000F51F0000F51F00009928000043
:1000C000F51F0000452B0000F51F0000A52D0000C6
:1000D000F51F000015300000F51F0000F51F00009F
:1000E000F51F0000F51F0000F51F0000F51F0000C0
:1000F000F51F0000F51F0000F51F0000F51F0000B0
:10010000F51F0000F51F0000F51F0000F51F00009F
:10011000F51F0000CD340000F51F0000F51F0000A2
:10012000F51F0000F51F0000F51F0000F51F00007F
:10013000F51F0000F51F0000F51F0000F51F00006F
:10014000F51F0000F51F000041320000F51F000000
:100150000D470000F51F0000F51F0000F51F00000F
:10016000F51F0000F51F0000ED5D0000F51F000009
:10017000F51F0000F51F0000F51F0000F51F00002F
:10018000F51F0000F51F0000F51F0000F51F00001F
:10019000F51F0000F51F0000584B4CF2205210B51F
:1001A0001A804DF628121A8000BF00BF01F026FF0A
:1001B000534B4FF030621A60524A9A60524ADA60EA
:1001C000524B4FF470021A60514A136813F4807353
:1001D00004D150490B604FF4A85313604E4B1A786A
:1001E000110703D51A7842F008021A704B4B4C499C
:1001F0002A221A704B4A4C4B8B4204D252F8040FFD
:1002000043F8040BF8E7494B494900228B4202D2DC
:1002100043F8042BFAE74749474A002352F82300E2
:1002200041F823000133662BF8D1444B444A802126
:1002300003F8011B9342FBD1424B3E4A1A60424BEA
:100240008A221A70A3F5805324225A70A0221A70B1
:100250009A799207FCD59A79D406FCD43B4A9379D3
:1002600003F00C03082B394BF9D103221A714622F3
:100270005A719A799006FCD5344A9179334B4906E4
:10028000FBD5334A4FF08271116009215160202261
:100290001A709A7902F00C020C2AFAD12D4B2E4AD0
:1002A0001A602E4B2E4A1A6000225A60072243F829
:1002B000042C2C4AC3F80C2D62B602F075F9154BCC
:1002C0001B68DA0705D5284801F05CFF274B284A50
:1002D0001A60284B1B785B0609D5244C244B2268F6
:1002E0009A4204D1204801F04DFF0023236007F01B
:1002F00013FF01F089FE01F0B7FDFEE70E20054077
:1003000030800440823F04000100002B88ED00E0B3
:1003100010D0034014D0034002D0074000E0074053
:10032000DC17FF1F10920000F806FF1FE017FF1FE9
:10033000A81DFF1F0002FF1F0000000000E400E0F6
:1003400056E400E008ED00E00050064000400640A2
:100350004480044004800440C010050014E000E024
:10036000BFD40100000020203A38A15D1CE003400A
:10037000A5C3945A00F00740FFFFFFFFFFFFFFFFF8
:10038000FFFFFFFFFFFFFFFFFFFFFFFFFFFFFFFF7D
:10039000FFFFFFFFFFFFFFFFFFFFFFFFFFFFFFFF6D
:1003A000FFFFFFFFFFFFFFFFFFFFFFFFFFFFFFFF5D
:1003B000FFFFFFFFFFFFFFFFFFFFFFFFFFFFFFFF4D
:1003C000FFFFFFFFFFFFFFFFFFFFFFFFFFFFFFFF3D
:1003D000FFFFFFFFFFFFFFFFFFFFFFFFFFFFFFFF2D
:1003E000FFFFFFFFFFFFFFFFFFFFFFFFFFFFFFFF1D
:1003F000FFFFFFFFFFFFFFFFFFFFFFFFFFFFFFFF0D
:10040000FFFFFFFFFFFFFFFFFFFFFFFFDEF9FFFF23
:1004100010B5054C237833B9044B13B10448AFF33E
:1004200000800123237010BDE017FF1F00000000B3
:100430000C920000084B10B51BB108490848AFF3F7
:1004400000800848036803B910BD074B002BFBD0A0
:10045000BDE81040184700BF00000000E417FF1F70
:100460000C920000DC17FF1F0000000010B50748C9
:1004700001F0E2F940B1064C0D20217802F018F8A5
:10048000237883F00103237010BD00BF7818FF1F8D
:10049000FC06FF1FF0B51F4E83B00DF1070502F0FB
:1004A0009FF9092834DD02F0ABF90446E4B202F00A
:1004B000DBF9FF2CF3D1C0B2FF28F0D102F0A0F994
:1004C0000DF1FF3402F09CF904F8010FAC42F9D1B0
:1004D0009DF800C09DF801009DF802E09DF8031012
:1004E0009DF804709DF805209DF806409DF80730A2
:1004F00040EA0C2041EA0E2142EA072243EA0423A3
:1005000030817181B281F38102F06AF90928CADC75
:1005100003B0F0BDE418FF1F70B50D4E0D4D3068EF
:1005200007F01AFA042241EC100B2846022100F0D1
:100530009BFD0446306807F00FFA052241EC100BD2
:100540002846032100F090FD201A00B270BD00BFC4
:10055000B818FF1FE418FF1F70B5134E134C306816
:10056000134D07F0F9F941EC100B2046022101F080
:10057000D3F92846012103F04DFE706807F0ECF92D
:1005800041EC100B2046022101F0C6F9284601215A
:1005900003F040FE1421074803F03CFE2046BDE86E
:1005A000704001F067B900BFB818FF1F0C07FF1FAC
:1005B000188B0000988B000038B5414C2DED028B54
:1005C000204600F029FF3F4800F022FD3E4800F0A1
:1005D000B9FDFFF74BFFFFF75DFF3C4B206893ED44
:1005E000008B07F0B9F9B0EE481AF0EE681A41EC4A
:1005F000100B9FED312B364801F01EF855EC104BD7
:100600000022002310EE100A294607F07FFC002884
:100610003ED000222F4B2046294607F03FF807F036
:100620009FFC07F087F92C4BC3E90001FFF774FF2B
:1006300007F080F99FED202B41EC100BB0EE421A31
:10064000F0EE621A254800F0F7FF55EC104B00223F
:10065000002310EE100A294607F058FC08B30022C8
:100660001C4B2046294607F019F807F079FCB0F535
:10067000967F1B4B1B4CA8BF4FF496709842B8BF97
:10068000184607F057F9BDEC028BC4E9000138BDEC
:100690000022104B2046294606F0FEFF07F060FCC2
:1006A000BFE700220B4B2046294606F0F5FF07F076
:1006B00057FCDCE7AFF30080000000000000000002
:1006C000B818FF1F8018FF1FE418FF1F9818FF1F9E
:1006D0000018FF1F0000E03F7018FF1F3818FF1FB1
:1006E000D4FEFFFF9018FF1F10B546F2A81001F0CE
:1006F000EFFF0E480E4C00F09BFC0E4800F082FC11
:100700000D4800F0ABFD01210D2001F0D7FE0B4894
:1007100000F040FF204600F01DFB20460A2100F0BB
:1007200047FC2046BDE8104000F068BBE418FF1FFE
:10073000A018FF1F8018FF1FD818FF1FB818FF1F31
:10074000F0B583B0FFF738FFFFF706FFFFF7A2FE13
:1007500001220021B04800F07FFC642840F2918023
:10076000AE4CD4E9000107F0FBFB962203B2114620
:10077000AB4800F08FFDAB4B5A68B2F5167F03DC37
:100780001B68B3F5167F7ADDD4E9000107F0E8FBBA
:10079000002203B21146A24800F07CFDD4E900011A
:1007A00007F0DEFB6FF0630203B211469C4800F0D5
:1007B00071FD4FF4FA6001F0A9FE0422022196486F
:1007C00000F04AFC052205460321934800F044FC52
:1007D000854200F23381052203218F4800F03CFC62
:1007E0000422054602218C4800F036FC854246D999
:1007F0008D4D8E4B0022D5E9000106F04DFF07F02C
:10080000AFFB4FF4B47100F08DFA07F093F8884B0A
:1008100041EC110B186885ED001B8DED001B07F0F6
:100820009BF89DED001B41EC100B9FED772B814851
:1008300000F002FF57EC106B0022002310EE100AAC
:10084000394607F063FB002800F0AA8100227A4BAA
:100850003046394606F022FF07F082FB07F06AF8BF
:10086000C4E9000103E0FFF7A7FED4E9000107F0A7
:1008700077FB01466A4800F071FD0028F3D003B011
:10088000F0BD6B4C206807F067F8042241EC100BB8
:100890000221614800F0E8FB0546206807F05CF89B
:1008A000052241EC100B03215B4800F0DDFB854283
:1008B00048D95D4D5D4B0022D5E9000106F0EEFE02
:1008C00007F04EFB4FF4B47100F02CFA07F032F849
:1008D00041EC110B206885ED001B8DED001B07F02E
:1008E0003BF89DED001B41EC100B9FED492B51484F
:1008F00000F0A2FE55EC104B0022002310EE100A6F
:10090000294607F003FB002800F0268100224A4B0D
:100910002046294606F0C2FE07F022FB07F00AF83F
:100920003E4CC4E9000103E0FFF746FED4E90001B4
:1009300007F016FB01463A4800F010FD0028F3D0FE
:1009400003B0F0BD206807F007F8052241EC100B5A
:100950000321314800F088FB0546206806F0FCFFC3
:10096000042241EC100B02212B4800F07DFB854254
:100970004FF000022C4D40F2A9802C4BD5E900012C
:1009800006F08AFE07F0ECFA4FF4B47100F0CAF9F1
:1009900006F0D0FF41EC110B206885ED001B8DEDBA
:1009A000001B06F0D9FF9DED001B41EC100B9FEDE5
:1009B000182B204800F040FE55EC104B002200237D
:1009C00010EE100A294607F0A1FA002800F0D680A0
:1009D0000022194B2046294606F060FE07F0C0FAB7
:1009E00006F0A8FF0D4CC4E9000103E0FFF7E4FDA9
:1009F000D4E9000107F0B4FA0146094800F0AEFC62
:100A00000028F3D003B0F0BD000000000080764065
:100A10000000000000000000E418FF1F7018FF1F16
:100A2000D818FF1F8018FF1F9818FF1F008056401E
:100A3000B818FF1F0018FF1F0000E03F624D634B16
:100A40000022D5E9000106F029FE07F089FA4FF4EB
:100A5000B47100F067F906F06DFF5D4B41EC110BCE
:100A6000186885ED001B8DED001B06F075FF9DEDF0
:100A7000001B41EC100B9FED502B564800F0DCFDA5
:100A800057EC106B0022002310EE100A394607F0D5
:100A90003DFA002869D000224F4B3046394606F017
:100AA000FDFD07F05DFA06F045FFC4E9000103E033
:100AB000FFF782FDD4E9000107F052FA01464748EA
:100AC00000F04CFC0028F3D003B0F0BD444BD5E956
:100AD000000106F0E3FD07F043FA4FF4B47100F0B3
:100AE00021F906F027FF41EC110B206885ED001B72
:100AF0008DED001B06F030FF9DED001B41EC100B4F
:100B00009FED2F2B334800F097FD55EC104B002242
:100B1000002310EE100A294607F0F8F9002836D015
:100B200000222D4B2046294606F0B8FD07F018FAA2
:100B300006F000FF2B4CC4E9000103E0FFF73CFD89
:100B4000D4E9000107F00CFA0146244800F006FC45
:100B50000028F3D003B0F0BD00221F4B20462946E9
:100B600006F09AFD07F0FCF9D8E600221A4B304651
:100B7000394606F091FD07F0F3F994E70022164B91
:100B80002046294606F088FD07F0EAF928E700220A
:100B9000114B2046294606F07FFD07F0E1F9C7E733
:100BA00000220D4B3046394606F076FD07F0D8F9A5
:100BB00054E600BFAFF300800000000000807640E4
:100BC00000000000000000009818FF1F0080564041
:100BD000B818FF1F0018FF1F0000E03FD818FF1FC4
:100BE000008066407018FF1F38B52DED048B9FED17
:100BF000248B9FED259BB0EE482AF0EE682AB0EEDC
:100C0000481AF0EE681A284B2849294CB0EE493AA8
:100C1000F0EE693A002200259FED1D0B25488D61FD
:100C20001A605A609A60DA601A82CD6100F0F4FCB2
:100C3000B0EE493AF0EE693AB0EE481AF0EE681AB2
:100C40009FED152B9FED160B1B4800F0E5FC522382
:100C5000204617223C2100F095F92046174A1849F2
:100C600003F0FEFD4FF47A71164800F0E3FDBDEC91
:100C7000048BFA211448BDE8384000F0DBBD00BF0A
:100C800000000000000000000000000000E07F40C5
:100C90000000000000002E40000000000000F8BF2F
:100CA000000000000000F03FE418FF1FB818FF1F0D
:100CB000A018FF1F0018FF1F3818FF1FF806FF1F9E
:100CC000350D00007818FF1FDC18FF1F00B52DED53
:100CD000028B10EE900A85B0B0EE608A8DED030AAB
:100CE00006F03AFE9DED030ACDE9000110EE100A70
:100CF00006F032FE9DED001B41EC100B05F0A8F94B
:100D000051EC100B07F074F900EE100AB5EEC00AB2
:100D1000F1EE10FA48BF38EE000A05B0BDEC028BC8
:100D20005DF804FB90FBF1F303FB11000028B8BF52
:100D30004018704710B50446C06807F01DFAB4F9B2
:100D40000600002803DBC0B2002101F0B7FB2046FB
:100D500010BD00BF10B50446B0F90600002807DB3F
:100D6000C0B2012101F0AAFB0021A07901F0A0FB93
:100D70000123637010BD00BF38B50446C0680D463E
:100D800007F0FAF9E37C207C83420CBF03200420A7
:100D900010FB05F080B2A080012107F079F9E06036
:100DA00008B1658038BDA080608038BDF0B4077C94
:100DB000C47CC568C1F38106FF29A4EB0704C1F315
:100DC000811201F003074674B4FA84F48CBF002644
:100DD0000126C1F30111C27464098774067001749D
:100DE0004DB1511AB1FA81F14909A14203D04188AC
:100DF000F0BCFFF7C1BFF0BC704700BF2DE9F8435E
:100E0000C368002B4FD0044601F05EFB6369C01A33
:100E1000B0F5967FF8D372B64649B4F906500B6820
:100E20004548464A50F83500E668A788257843F0DB
:100E300080730B60136843F0010337441360A5B35C
:100E4000A1F55D41F8390A68BE4202F196021FD24F
:100E500089464FF0010C16F8018B4FF0080E8025E3
:100E60000B689B1A952BFBD918EA050FD9F80020BF
:100E700080F880C055D00B689B1A5F2BFBD9BEF160
:100E8000010E80F800C14FEA5505E9D1B742E2D121
:100E90002B490B689B1A952BFBD962B601F014FB0A
:100EA0006061BDE8F883BDE8F88325490A68BE4261
:100EB00002F5967220D289464FF0010C16F8018B8C
:100EC0004FF0080E80250B689B1AB3F5967FFAD376
:100ED00018EA050FD9F8002080F880C018D00B68F8
:100EE0009B1A8F2BFBD9BEF1010E80F800C14FEA8F
:100EF0005505E8D1B742E1D111490B689B1AB3F50A
:100F0000967FFAD362B601F0DFFA6061BDE8F8833C
:100F10000B689B1A3B2BE6D80B689B1A3B2BF7D927
:100F2000E1E70B689B1A1D2BA9D80B689B1A1D2B98
:100F3000F7D9A4E7FCED00E01C8C0000001000E0F5
:100F4000041000E038B543786BB10446B0F90600F0
:100F500000280D4609DBC0B2002101F0AFFA63782A
:100F6000E5801BB938BDC18038BDE180EDB22846AF
:100F7000012101F0A3FA28460021BDE8384001F024
:100F800097BA00BF70B5002504460E464570194655
:100F90000572C56045611546FFF708FF31462046DA
:100FA000FFF7EAFE20462946FFF7CCFF204670BD3A
:100FB00070B44E1C047AF6B2A64213D0013C14F071
:100FC000FF04C56810D183882A4653B1137804FB07
:100FD00003F31B1202F8013B531B81889BB2994219
:100FE000F4D8067270BC7047FF2905D03302013B6C
:100FF00093FBF4F4A4B2E6E74FF6FF7393FBF4F42B
:10100000E1E700BF0023036043608360704700BFD7
:1010100010B504460E2000F06DFE20600F2000F099
:1010200069FE6060102000F065FEA06010BD00BF8A
:1010300008B546F2A81001F0B5FC43F2D40001F067
:1010400007FE43F2D40001F019FF43F2D400BDE8DB
:10105000084002F04BB800BF30F8111030F81230E1
:10106000C818C0F34F0070472DE9F04F824683B097
:1010700030F811008DED000B934606F05BFC9DED02
:10108000000B2EA3D3E900238046894651EC100BB8
:1010900006F0B6FC0022284B06F0DCFD41EC100BFC
:1010A00004F076FF55EC104B0022002310EE100ADE
:1010B000294606F035FF00B322462B4640464946F6
:1010C00006F09EFC06F04CFF80463AF81B0006F046
:1010D00031FC26462F4682468B4652465B463046BA
:1010E000394606F08DFC06F03BFF404400EBD07023
:1010F000C0F34F0003B0BDE8F08F05F10047224672
:101100003B464046494606F07BFC06F029FF8046F8
:101110003AF81B0006F00EFC002282468B460023A4
:1011200020462946264606F0FBFE0028D5D0264656
:101130002F46D2E7AFF300800080664000000060D9
:10114000FB21094038B5054601F0A0FC07281DDD4C
:1011500001F0ACFC0446E4B201F0DCFC5A2CF3D103
:10116000C0B25A28F0D101F0A1FC01F09FFC01F0BF
:101170009DFC01F09BFC044601F098FCC0B240EAE3
:101180000420288001F082FC0728E1DC01F0AEFD9C
:1011900007281DDD01F0BAFD0446E4B201F0EAFDC6
:1011A0005A2CF3D1C0B25A28F0D101F0AFFD01F0B2
:1011B000ADFD01F0ABFD01F0A9FD044601F0A6FD77
:1011C000C0B240EA0420688001F090FD0728E1DC0D
:1011D00001F0C4FE07281DDD01F0D0FE0446E4B294
:1011E00001F000FF5A2CF3D1C0B25A28F0D101F01F
:1011F000C5FE01F0C3FE01F0C1FE01F0BFFE0446D2
:1012000001F0BCFEC0B240EA0420A88001F0A6FEB6
:101210000728E1DC01F0B8FF07281DDD01F0C4FF5D
:101220000446E4B201F0F4FF5A2CF3D1C0B25A28BC
:10123000F0D101F0B9FF01F0B7FF01F0B5FF01F007
:10124000B3FF044601F0B0FFC0B240EA0420E880DA
:1012500001F09AFF0728E1DC38BD00BF08B5012185
:10126000152001F02BF90121182001F027F90121A7
:10127000192001F023F90121142001F01FF90121A7
:101280001B2001F01BF901211A20BDE8084001F0E4
:1012900015B900BFF8B59BB21A4415B2C91AFE2D94
:1012A0000CB221DC15F1FF0F4FDA6FF0FE06354668
:1012B000FE2C27461DDC14F1FF0FB8BFFF2446DAD1
:1012C0000021182001F0F4F80121192001F0F0F8B4
:1012D0002146152000F068FF002D19DD01211B209B
:1012E00001F0E6F8002119E0FF26FE2C35462746DE
:1012F000E1DDFF270121182001F0DAF80021192093
:1013000001F0D6F83946152000F04EFF002DE5DC3F
:101310006EB901211B2001F0CBF801211A2001F048
:10132000C7F831461420BDE8F84000F03DBF002169
:101330001B2001F0BDF801211A2001F0B9F871421B
:101340001420BDE8F84000F02FBF2E46B0E7002C77
:10135000D0DC08BF0121B4D06442B1E770B50646C5
:1013600008460D4606F0E6FA21F000431946002231
:10137000074B06F0B7FD08B1012070BD04462BB243
:10138000304622462146FFF785FF204670BD00BF4C
:101390000000594030B58DB008AB0E223B216820CB
:1013A00003F064FA9DF828409DF821309DF82A50FA
:1013B0009DF82B209DF82C009DF82D109FED147AA0
:1013C0009FED141A43EA042342EA05225B4241EAF4
:1013D00000211BB2524212B200EE103A0BB200EEE4
:1013E000902A07EE903AF8EEE00AB8EEC00AF8EE5E
:1013F000E77A60EE870A20EE070A67EE877A60EEEA
:10140000810A20EE010A27EE811A0DB030BD00BF1F
:1014100000007A440000003810B586B00446FFF79B
:10142000B9FF8DED030ACDED040A8DED051A01F02B
:101430004BF8A3689DED057ADFED274AD4ED045AF9
:1014400094ED055A9DED046A244A94ED000A116852
:10145000D4ED016A0191C31A07EE903AF8EEE77AEB
:1014600077EE655A87EEA47A019BE168A0605B1A6B
:10147000642B36EE456AF1EE477AA7EEA50AE7EE51
:10148000866A84ED000AC4ED016A11D9F0EE667A2D
:1014900094ED077AD4ED066A1368029330EE260ABB
:1014A00077EE277A029BE36084ED000AC4ED017AAF
:1014B000DFED0B0AFFF70AFCDFED0A0A84ED000AF4
:1014C00094ED010AFFF702FC0A2084ED010A01F005
:1014D0001DF806B010BD00BF00247449FC18FF1FA2
:1014E0000000B4430000344330B52DED028B0446B8
:1014F00085B028252046FFF74DFF94ED047AD4ED02
:10150000057ACDED020A37EE017A77EEA00A84ED76
:10151000047AC4ED050A64208DED010A8DED031AED
:1015200000F0F4FF6B1E13F0FF05E3D1DFED177A37
:1015300094ED056A94ED047AC7EE276A204686EE9C
:10154000277AC4ED046A84ED057AFFF765FF64200D
:10155000D4ED008A94ED018A00F0D8FF2046FFF711
:101560005BFF0B4B94ED007A1B68D4ED017A01937D
:1015700037EE687A77EEC87A019B84ED067AC4ED7F
:10158000077AE36005B0BDEC028B30BD000020425D
:10159000FC18FF1FF0B51E4B1E4C1A69597B87B013
:1015A00001230494122700241326054605931046B0
:1015B00023462246039400940297019603F03EFCD2
:1015C00006221D21682003F087F906221A216820CF
:1015D00003F082F910221B21682003F07DF92246D6
:1015E0001C21682003F078F902223721682003F0DB
:1015F00073F916220A210C2003F06EF900F064FF43
:10160000A860284607B0BDE8F040FFF76DBF00BFF7
:10161000441DFF1F801A060010B580ED000B80ED01
:10162000021B80ED042B80ED083B044600F04CFFCC
:10163000A061204610BD00BF2DE9F04F53EC102BE8
:1016400085B0044651EC110B5BEC12AB06F026F8AA
:101650009FED731B41EC100B04F0FAFC59EC108B5E
:101660000022002310EE100A494606F03BFC002839
:1016700040F0C58000226C4B4046494606F032FCE3
:1016800000284BD0464609F1004700F01DFFA36932
:101690009FED667AC31A07EE903AF8EE677A054630
:1016A000C7EE876A16EE900A06F056F9A561024663
:1016B0000B46804689463046394606F0A1F9D4E902
:1016C0000A2305F0EBFF0022CDE90201C4E90A017B
:1016D00000235046594606F0FBFB40BB32463B46D2
:1016E0003046394605F0D8FF52460BF10043CDE9AC
:1016F000000106F0F7FB002869D0DDE90001524641
:101700005B4605F0CBFFCDE9000142464B46DDE9E3
:10171000000106F09FFA8046894614E042464B4697
:101720000020434905F0B8FF06460F46ADE7D4E96F
:101730000C233046394605F0AFFF42464B4606F0D3
:1017400089FA80468946C4E90C67D4E9002330460B
:10175000394606F055F9D4E9022306460F46DDE97D
:10176000020106F04DF902460B463046394605F0B7
:1017700095FFD4E9042306460F464046494606F045
:101780003FF902460B463046394605F085FFD4E95D
:10179000084506460F46002200232046294606F04B
:1017A00097FB78B905F1004922464B463046394649
:1017B00006F098FBE0B922462B463046394606F043
:1017C000AFFB28BB47EC106B05B0BDE8F08FDDE93F
:1017D00000235046594606F085FB002895D0DDE9E8
:1017E000000152465B4605F057FFCDE900018CE74A
:1017F00026464F4647EC106B05B0BDE8F08F4046DB
:10180000494600220A4B05F049FF8046894631E7E8
:1018100026462F4647EC106B05B0BDE8F08F00BFA1
:10182000000000000080764000806640002474497B
:10183000008076400160704710B40C4A83B0136892
:10184000009390E81200009B1B1B8B4208D9136881
:101850000193019B4360012003B05DF8044B704786
:10186000002003B05DF8044B704700BFFC18FF1F59
:101870000020704700B5064A036812885B6883B091
:1018800001A9ADF804200222984703B05DF804FBDB
:10189000C48B0000F0B507468BB0002A33D0012A74
:1018A00008BF0A2251B3212400E0F4B2B1FBF2F5E3
:1018B00002FB1511C8B2092900F1300198BFC8B266
:1018C0000AA988BF3730214488BFC0B201F8240C70
:1018D000661E2946002DE8D133B1013CE4B20AABC3
:1018E00023442D2203F8242C3B6801AA11195B68BC
:1018F0003846C4F1220298470BB0F0BD30228DF873
:1019000025202124E8E70368C9B21B6898470BB07B
:10191000F0BD00BFFFFFFFFF2DE9F04357EC106B58
:1019200085B005460C4610EE102A3B4610EE100A14
:10193000394606F0FFFA002840F0B28027F000494F
:10194000304649464FF0FF32594B06F0F3FA90B952
:10195000304649464FF0FF32554B06F0CDFA50B9AC
:101960002B6854495B6828460322984780464046C6
:1019700005B0BDE8F0834FF060424F4B304639462A
:1019800006F0CEFA002872D14FF060424B4B304641
:10199000394606F0A7FA002869D100220023304614
:1019A000394606F09FFA002864D18146002C67D0A2
:1019B000434900204FF000083BA3D3E9002308F17E
:1019C000010806F01DF85FFA88F39C42F4D802463D
:1019D0000B463046394605F061FE0F46064606F0D6
:1019E000E7FA804605F096FF02460B463046394638
:1019F00005F052FE4B4606460F460A22414628464F
:101A0000FFF748FF0F2C28BF0F2404F101092E23F4
:101A100080465FFA89F98DF8003001240022294BB5
:101A20003046394605F0ECFF0F46064606F0C0FA90
:101A300004AB2344C0B200F1300203F8102C05F0CF
:101A400079FF02460B463046394605F025FE013443
:101A5000E4B24C4506460F46E0D12B6822465B684F
:101A6000284669469847404605B0BDE8F0832B6894
:101A7000154977E707F100431F464FF0010995E745
:101A800000220F4B3046394605F008FE06F090FA6A
:101A90004B4601460A222846FFF7FCFE804666E7D1
:101AA0002B680A495EE700BF000000A09999B93F82
:101AB000FFFFEF7FD08B0000FFFFEF41FFFFEFC183
:101AC0000000E03F00002440CC8B0000C88B0000E9
:101AD000374A384913681B06FCD40B6813F080039F
:101AE000F8D172B634490A78002A5FD0334A3448B4
:101AF000F0B4344C176806682568D4680C303E444E
:101B0000143200681268304F35442C44204402449B
:101B1000C2F34E022D4E2E482E4D2F4C42F4004261
:101B20003A60376806682D682C4A24680C303E44B9
:101B3000006812682A4F35442C4420440244C2F302
:101B40004E02284E2848294D294C42F400423A6062
:101B5000376806682D68274A24680C303E440068C0
:101B60001268254F35442C4420440244C2F34E02EF
:101B7000224E2348234D244C42F400423A603768F9
:101B800006682D68214A24680C303E4400681268BB
:101B900035442C4420440244C2F34E021C4842F413
:101BA000004202600B7062B6F0BC704762B67047CC
:101BB00024B0034024B00B40F718FF1F38B0034097
:101BC0003CB0034040B003402CB0034058B0034049
:101BD0005CB0034060B0034064B003406CB00340AD
:101BE00030B0034038B00B403CB00B4040B00B402D
:101BF00044B00B404CB00B402CB00B4058B00B40E5
:101C00005CB00B4060B00B4064B00B406CB00B405C
:101C100030B00B4030B42948294A2A4B2A4D602461
:101C2000E121047011701B78284C082B30D00A2B4E
:101C30002748284937D00C2B0CBF35225D221223B0
:101C40002A60236002600B60234B24491B78244ADE
:101C5000BBB101230B601360224B23491B78234A3D
:101C6000012B26D9042B0FD9082B1ED9102B94BF7A
:101C7000862387230B6013601D4B01221A7030BC32
:101C800070470B601360E7E784230B601360F3E792
:101C900000F58E200F490830212213232A6023608B
:101CA00002600B60D0E73922F7E785230B601360F1
:101CB000E2E780230B601360DEE700BF00400740CF
:101CC00001400740FD06FF1F08B003400CB0034071
:101CD00008B00B400CB00B40FA18FF1F20B00340B7
:101CE00020B00B40FE06FF1F24B0034024B00B4081
:101CF000F718FF1F47282FD8334B2DE9F0411E5C02
:101D0000FF2E2BD0314B1B78002B2AD132062CD43E
:101D100072B62F4D2F4C2F46012326602B7062B6D2
:101D200072B623681B060CD43B781BB9F4E72B78FA
:101D3000002BF1D062B602F071FB72B62368180670
:101D4000F5D5254B1B6800222A7062B6234A10780D
:101D500043FA00F0BDE8F081002070470020BDE8A4
:101D6000F081FFF7B5FE3206D2D572B61C4DDFF812
:101D70007C801C4C06F04007FFB206F03F06D8F806
:101D80000030DFB123F01003C8F8003001232660D3
:101D9000134A2B7062B672B6236819060CD41378F6
:101DA0001BB9ECE72B78002BE9D062B602F036FBCA
:101DB00072B623681B06F5D50B4BC3E743F010033F
:101DC000C8F80030E2E700BFD48B0000F718FF1F0F
:101DD000F918FF1F00B0034010B00340F618FF1FB2
:101DE000F818FF1F00B00B4010B00B400CB00B40B8
:101DF0000A4A0B49136843F4805313600B7843B9C4
:101E0000084BC0221A70084B80F30C0000B21880F7
:101E10007047044B80221A70F5E700BF2C80044005
:101E2000FA18FF1F21C00C4000C00C400A4A0B49A1
:101E3000136843F4005313600B7843B9084BC02276
:101E40001A70084B80F30C0000B218807047044BE6
:101E500080221A70F5E700BF2C800440FA18FF1F9B
:101E600021D00C4000D00C4008B5FEF73DFCFEF739
:101E700067FC02F0D3FAFAE7844641EA000313F064
:101E800003036DD1403A41D351F8043B40F8043B81
:101E900051F8043B40F8043B51F8043B40F8043B44
:101EA00051F8043B40F8043B51F8043B40F8043B34
:101EB00051F8043B40F8043B51F8043B40F8043B24
:101EC00051F8043B40F8043B51F8043B40F8043B14
:101ED00051F8043B40F8043B51F8043B40F8043B04
:101EE00051F8043B40F8043B51F8043B40F8043BF4
:101EF00051F8043B40F8043B51F8043B40F8043BE4
:101F000051F8043B40F8043B403ABDD2303211D383
:101F100051F8043B40F8043B51F8043B40F8043BC3
:101F200051F8043B40F8043B51F8043B40F8043BB3
:101F3000103AEDD20C3205D351F8043B40F8043B83
:101F4000043AF9D2043208D0D2071CBF11F8013B81
:101F500000F8013B01D30B8803806046704700BF47
:101F6000082A13D38B078DD010F003038AD0C3F156
:101F70000403D21ADB071CBF11F8013B00F8013B38
:101F800080D331F8023B20F8023B7BE7043AD9D3F7
:101F9000013A11F8013B00F8013BF9D20B780370CC
:101FA0004B7843708B7883706046704708B5104C4F
:101FB00008E0236859050DD423681A050FD4236857
:101FC000DB0411D423685803F3D501F07FFA2368AA
:101FD0005905F1D500F060FC23681A05EFD500F033
:101FE000B1FD2368DB04EDD500F0DCFEEAE700BFBD
:101FF0003480044008B5FFF7D9FF00BF014B102221
:102000001A80704700200540704700BF094908B595
:102010000B6830B16A461844A2F50052904202D2D1
:102020000860184608BD06F071F80C2303604FF0F5
:10203000FF3008BD0007FF1FEFF3138070B9EFF307
:1020400010836BB9EFF305825AB94FF48070EFF348
:1020500011832BB1984228BF184670474FF0FF30CC
:1020600070470F2A01D81846F1E7014BD05CEEE724
:10207000F0E300E0F0B44D1E2E46002400E00134F1
:10208000B0FBF2F302FB1300092800F130078ABF0E
:102090003730F8B2C0B206F8010F1846002BEED167
:1020A0000A1953704CB1107815F8016F287001337C
:1020B000E01A834202F80169F5DB0846F0BC70477C
:1020C00010B4114B53F8302092F8804234B1012300
:1020D00079B182F880305DF8044B704703EBC003A0
:1020E0005B681A6851B922F002021A605DF8044B6D
:1020F000704782F800315DF8044B704742F00302EC
:102100001A605DF8044B70471C8C00001C4A02EBFF
:10211000C00301295B6811D004291BD052F830009C
:10212000002280F8802229B1022920D0032922D060
:102130001A6070474FF480721A60704752F830008E
:102140004FF4A27280F880121A601A6822F02002FE
:102150001A60704752F830104FF4A272012081F8D3
:1021600080021A601A6842F020021A60704740F23A
:1021700003121A6070474FF481721A60704700BFF3
:102180001C8C000030B4054B054D064C002210217C
:102190001A602A602060196030BC704714D0034078
:1021A00004D0034000D0034038B5A0F14203012B16
:1021B00004461FD9002975DD904B1B78012505FACF
:1021C00003F28A4202D83F2827D938BDC21E012A0D
:1021D0002BD9A0F11D02012A73D90E2856D9A4F1DA
:1021E0002302032A57D9864A126802FB011222FAF7
:1021F00003F320E0814B1B780B2B0AD90C2B1CBF5F
:102200000C3B1941422C084657D0BDE83840FFF737
:102210000DBEC3F10C039940F4E72946FFF750FFC8
:102220002946BDE83840FFF771BF764A126802FBC5
:10223000011222FA03F3A21E242A00F2D580DFE85D
:1022400012F0CC00C500BE00B700B000A900A2008B
:102250009B009400D300D300D3008D00D300D300A3
:10226000D300D300D30086007F0078007100D30034
:10227000D300D300D300D3006A006300D300D3009F
:10228000D300D3005C0055004E00470044F2841296
:10229000C240D207A3D55C4A126802FB011222FA9F
:1022A00003F3C8E73F2890D80021FFF709FF204635
:1022B0000121BDE83840FFF729BFBDE83840FFF7EE
:1022C00097BD524A126802FB011222FA03F3B2E7E9
:1022D0004F49504A0B604FF45173136038BD4E495B
:1022E0004E4A0B604FF45173136038BD4C494D4A50
:1022F0000B604FF45173136038BD4B494B4A0B6070
:102300004FF45173136038BD49494A4A0B604FF48A
:102310005173136038BD4849484A0B604FF45173FC
:10232000136038BD4649474A0B6040F2444313608E
:1023300038BD4549454A0B6040F24443136038BDFF
:102340004349444A0B6040F24443136038BD42495C
:10235000424A0B6040F24443136038BD4049414A51
:102360000B6040F24443136038BD3F493F4A0B6065
:1023700040F24443136038BD3D493E4A0B6040F291
:102380004443136038BD3C493C4A0B6040F244432F
:10239000136038BD3A493B4A0B6040F24443136036
:1023A00038BD3949394A0B6040F24443136038BDA7
:1023B0003749384A0B6040F24443136038BD364910
:1023C000364A0B604FF45173136038BD3449354AB7
:1023D0000B604FF45173136038BD3349334A0B60BF
:1023E00040F24443136038BD3F2C3FF6EEAE7F29E8
:1023F000D4BF00210121204657E700BF0407FF1F7B
:10240000088003400890034008900B4008800B4070
:1024100048900B402CB0044040900B4028B0044042
:1024200038900B4024B0044030900B4020B0044062
:1024300018800B404CA0044010800B4048A0044082
:102440001880034008B004401080034004B00440EA
:102450004080034018C004403880034014C004404A
:1024600018900B4004C004402880034010B0044082
:10247000208003400CB0044028900B400CC0044066
:1024800020900B4008C004403080034010C004403E
:10249000488003401CC0044018900340349004401E
:1024A000109003403090044010900B4000C0044056
:1024B0003F2801D8FFF704BE704700BF3F2801D86E
:1024C000FFF724BE704700BF72B60C490C4B0D4A93
:1024D0001B680868126862B6520102D5322B88BFA9
:1024E00001300949C3F5EA334FF47A72BF33A1FBD7
:1024F000031302FB00F000EB93107047FC18FF1F62
:1025000018E000E004ED00E0898888882DE9F843B0
:10251000054672B6204F214B214A1B683C68126861
:1025200062B6520102D5322B88BF013495B3C3F590
:10253000EA331C4EDFF86490DFF86480BF334FF459
:102540007A72A6FB031302FB04F404EB931472B635
:10255000D9F800103A68D8F800E062B6C1F5EA335D
:10256000BF33A6FB03031EF0806FC4EB93134FF43D
:102570007A7002D0322988BF013200FB0233B3F5F2
:102580007A7F04D3013D05D004F57A74DFE701F0CA
:1025900045FFDCE7BDE8F883FC18FF1F18E000E00A
:1025A00004ED00E089888888F8B53E4B3E49DFF8A5
:1025B00018C13E4E3E4ADFF814E13E4D3E4C3F4FBF
:1025C0004FF0006018604FF0805018604FF00050DE
:1025D00018604FF0804018604FF0004018600020F5
:1025E000086028234EF6FF71CCF80010CEF80030BA
:1025F00033600EF5012E13602B60236005F5002576
:102600003B6004F50024B36207F50027936206F5EA
:10261000012602F501220EF1100E05F6E87504F60A
:10262000E87407F57F67103220362B602360CEF800
:1026300000303B6013603360214EBB61936109221F
:102640003260A7F5002706F58056203F083638602F
:102650003160BB60F36047F8042C06F5FD2607F5F2
:10266000FE2706F2FC76043730603960B360FB6009
:1026700046F8042C0836C7F8FC0F06F6FC7611481D
:1026800031602B6023600260FFF7C4FA1920FFF766
:102690003DFF01F083FC40F21310BDE8F840FFF766
:1026A00035BF00BF04E100E0048003401480034014
:1026B0001C800340248003402C800340348003406E
:1026C0000080034000900B40088003400C800340D2
:1026D000324A33491368F0B543F4806313600A78D3
:1026E000304F314E314D324C32490023152A3B7068
:1026F00033702B7023700B7045D01B2A3ED082B3F1
:102700002D4B1B78052B34D01A2B41D0012B1BD01D
:102710001F281FD8002002460125284B284C1A707C
:1027200028495D7004224FF0020E88273C26402580
:1027300098729A704FF0004083F813E05A751F7436
:10274000DE7025700860F0BD1F4B4FF451721F28DA
:102750001A60DFD9C0F34432C0F3471500F01F0000
:10276000DBE71A4B40F213321A60134B1B78052B30
:10277000CAD1174B4FF451721A60C9E7154B40F29A
:1027800013321A60BCE7144B40F213321A60B7E7F9
:10279000124B4FF451721A60BAE700BF3480044004
:1027A0004819FF1F0419FF1F0519FF1F9419FF1F68
:1027B0008D19FF1F8C19FF1F0507FF1F00A0064082
:1027C0001FE400E000E100E044A0044040A0044019
:1027D0001CC004403C90044018C0044038900440A1
:1027E000054A064B10781B78C0B2DBB2984238BF5E
:1027F0004030C01A704700BF0419FF1F0519FF1FA2
:1028000030B4154B154C1A782378D2B2DBB29A4209
:102810001ED001333F2B0ED91149124B087819688D
:102820000023C0B2237021B1D31A1A2B01DC00237C
:102830000B7030BC70470A480A49C05C0968DDB2B9
:10284000C0B225700029F4D09A4238BF4032EBE77D
:102850004FF0FF30EDE700BF0419FF1F0519FF1F00
:102860004C19FF1F0019FF1F084A094B12781B78EB
:10287000DBB29A4207D00133402B28BF0023054A20
:10288000D05CC0B270474FF0FF3070470419FF1F93
:102890000519FF1F4C19FF1FF0B4384B1A7912F0BD
:1028A000300F2CD072B6997D01F0FF0200293DD087
:1028B00062B6334F334938780D78334E1C46C0B278
:1028C000EDB2431C402BE17928BF0023AB4202F15B
:1028D000FF32C9B21CBFF154184612F0FF02F0D10A
:1028E0002A4B1B68C2B23A704BB1A84236BFC5F141
:1028F0004005401B40192728C4BF01221A701F49F8
:10290000CA78D2B2150616D452060DD51B4B1B79C8
:102910005B0609D51E4B1F491B6800220A7003B1D4
:102920001A70164B3C22DA70F0BC70474022D979FD
:102930005A7462B6E3E70B791C06E5D5164B174EC1
:102940001C783378E4B2DBB29C420ED0144D01E027
:10295000A3420AD00133402B28BF00230879E85C4A
:10296000C0B2C871087D0728F2D9DBB203493370C1
:102970000B79180644BF7C23CB70C5E700A0064046
:102980000419FF1F0519FF1F4C19FF1F0019FF1F16
:102990009019FF1F8C19FF1F9419FF1F8D19FF1F1E
:1029A0000819FF1F2A4A2B491368F0B443F4006347
:1029B00013600A78284F294E294D2A4C2A490023B2
:1029C000092A3B7033702B7023700B703AD03B2A6E
:1029D0001ED0264B1B780A2B22D03A2B2DD01F2835
:1029E00024D8002002460126214B224D1A70224C89
:1029F0005E7004219872022288273C26402099703C
:102A0000DA7459751F74DE7028702260F0BC70474C
:102A10001A4B40F213321A60144B1B780A2BDCD18C
:102A2000174B4FF451721F281A60DAD9C0F34432A1
:102A3000C0F3471600F01F00D6E7124B4FF4517257
:102A40001A60CCE7104B40F213321A60C1E700BFA6
:102A5000348004400607FF1F081AFF1F9D19FF1F3F
:102A6000101AFF1F091AFF1F9C19FF1F0707FF1FDE
:102A700000B0064021E400E004E100E004D004409E
:102A800010B0044000D004400CB00440054A064B8E
:102A900010781B78C0B2DBB2984238BF4030C01A01
:102AA000704700BF081AFF1F9D19FF1F30B4154B58
:102AB000154C1A782378D2B2DBB29A421ED0013379
:102AC0003F2B0ED91149124B087819680023C0B268
:102AD000237021B1D31A1A2B01DC00230B7030BCF8
:102AE00070470A480A49C05C0968DDB2C0B2257067
:102AF0000029F4D09A4238BF4032EBE74FF0FF3064
:102B0000EDE700BF081AFF1F9D19FF1FC819FF1F1F
:102B10009819FF1F084A094B12781B78DBB29A42BA
:102B200007D00133402B28BF0023054AD05CC0B238
:102B300070474FF0FF307047081AFF1F9D19FF1FA5
:102B4000C819FF1FF0B4384B1A7912F0300F2CD08F
:102B500072B6997D01F0FF0200293DD062B6334F75
:102B6000334938780D78334E1C46C0B2EDB2431C61
:102B7000402BE17928BF0023AB4202F1FF32C9B2FA
:102B80001CBFF154184612F0FF02F0D12A4B1B680B
:102B9000C2B23A704BB1A84236BFC5F14005401BE6
:102BA00040192728C4BF01221A701F49CA78D2B21F
:102BB000150616D452060DD51B4B1B795B0609D59D
:102BC0001E4B1F491B6800220A7003B11A70164B76
:102BD0003C22DA70F0BC70474022D9795A7462B650
:102BE000E3E70B791C06E5D5164B174E1C783378B6
:102BF000E4B2DBB29C420ED0144D01E0A3420AD0F5
:102C00000133282B28BF00230879E85CC0B2C871C3
:102C1000087D0728F2D9DBB2034933700B79180617
:102C200044BF7C23CB70C5E700B00640081AFF1FE5
:102C30009D19FF1FC819FF1F9819FF1F0C1AFF1FAE
:102C40009C19FF1F101AFF1F091AFF1FA019FF1F51
:102C50001B4BDFF890C01A681A49F0B542F4805255
:102C6000194D1A60DFF880E0184F194E194C0023F7
:102C70008CF800304FF451722B701F2840F213353E
:102C80008EF800303B70337025600A6011D8194609
:102C90000124114A114D11701148547000212C2744
:102CA00040269372082491701174D7702E700460BE
:102CB000F0BDC0F34431C0F3471400F01F03E8E750
:102CC000348004400CC00440191AFF1F851AFF1FEE
:102CD000841AFF1F08C0044000C0064023E400E03F
:102CE00004E100E0181AFF1F8C1AFF1F054A064B6B
:102CF00010781B78C0B2DBB2984238BF4030C01A9F
:102D0000704700BF181AFF1F191AFF1F30B4154B68
:102D1000154C1A782378D2B2DBB29A421ED0013316
:102D20003F2B0ED91149124B087819680023C0B205
:102D3000237021B1D31A1A2B01DC00230B7030BC95
:102D400070470A480A49C05C0968DDB2C0B2257004
:102D50000029F4D09A4238BF4032EBE74FF0FF3001
:102D6000EDE700BF181AFF1F191AFF1F441AFF1FB3
:102D7000141AFF1F084A094B12781B78DBB29A42DB
:102D800007D00133402B28BF0023054AD05CC0B2D6
:102D900070474FF0FF307047181AFF1F191AFF1FB6
:102DA000441AFF1F30B42B4B1A7994061FD52A48BA
:102DB000DA790378294901333F2B0978C8BF00230A
:102DC0008B42D2B203D0264CD9B2E2540170254ACC
:102DD000116861B1244A1278D2B2934236BFC2F16F
:102DE00040029B1A9B18272BC4BF01230B70194A62
:102DF000D378DBB2180611D45A060DD5154B1B79C2
:102E00005B0609D5194B1A491B6800220A7003B1E9
:102E10001A70104B2C22DA7030BC704711790906F9
:102E2000EAD5144910480C780178C9B28C420DD00B
:102E30004A1C272A84BF00210A460F4D054C98BF23
:102E4000D1B2AA5CD2B2E2710170D5E76C21D17027
:102E5000D2E700BF00C00640181AFF1F191AFF1F53
:102E6000441AFF1F141AFF1F851AFF1F881AFF1F1D
:102E7000841AFF1F8C1AFF1F1C1AFF1F284A29499A
:102E80001368F0B443F4005313600A78264F274EBA
:102E9000274D284C284900231F2A3B7033702B7084
:102EA00023700B7037D03F2A1BD0244B1B78202B6C
:102EB0001FD03E2B2AD01F2821D8002002460124F3
:102EC0001F4B204D1A702C27002240261E495C7093
:102ED000987220249A701A74DF702E700C60F0BC07
:102EE00070471A4B40F213321A60144B1B78202B98
:102EF000DFD1174B4FF451721F281A60DDD9C0F390
:102F00004432C0F3471400F01F00D9E7114B4FF4CF
:102F100051721A60CFE7104B40F213321A60C4E7C7
:102F2000348004400807FF1F941AFF1F951AFF1FE3
:102F3000081BFF1F011BFF1F001BFF1F0907FF1FAF
:102F400000D0064025E400E004E100E014D0044095
:102F50002CA0044010D0044028A00440054A064B91
:102F600010781B78C0B2DBB2984238BF4030C01A2C
:102F7000704700BF941AFF1F951AFF1F30B4154BFE
:102F8000154C1A782378D2B2DBB29A421ED00133A4
:102F90003F2B0ED91149124B087819680023C0B293
:102FA000237021B1D31A1A2B01DC00230B7030BC23
:102FB00070470A480A49C05C0968DDB2C0B2257092
:102FC0000029F4D09A4238BF4032EBE74FF0FF308F
:102FD000EDE700BF941AFF1F951AFF1FC01AFF1FCD
:102FE000901AFF1F084A094B12781B78DBB29A42ED
:102FF00007D00133402B28BF0023054AD05CC0B264
:1030000070474FF0FF307047941AFF1F951AFF1F4B
:10301000C01AFF1F30B42B4B1A7994061FD52A48CB
:10302000DA790378294901333F2B0978C8BF002397
:103030008B42D2B203D0264CD9B2E2540170254A59
:10304000116861B1244A1278D2B2934236BFC2F1FC
:1030500040029B1A9B18272BC4BF01230B70194AEF
:10306000D378DBB2180611D45A060DD5154B1B794F
:103070005B0609D5194B1A491B6800220A7003B177
:103080001A70104B2C22DA7030BC70471179090687
:10309000EAD5144910480C780178C9B28C420DD099
:1030A0004A1C272A84BF00210A460F4D054C98BFB1
:1030B000D1B2AA5CD2B2E2710170D5E76C21D170B5
:1030C000D2E700BF00D00640941AFF1F951AFF1FD9
:1030D000C01AFF1F901AFF1F011BFF1F041BFF1FB9
:1030E000001BFF1F081BFF1F981AFF1F1B4BDFF859
:1030F00090C01A681A49F0B542F48062194D1A60FE
:10310000DFF880E0184F194E194C00238CF800307E
:103110004FF451722B701F2840F213358EF8003097
:103120003B70337025600A6011D819460124114A9A
:10313000114D11701148547000212C2740269372B4
:10314000042491701174D7702E700460F0BDC0F328
:103150004431C0F3471400F01F03E8E7288004401F
:1031600060D00440111BFF1F7D1BFF1F7C1BFF1F36
:1031700064D0044000A00E4042E400E008E100E01A
:10318000101BFF1F841BFF1F054A064B10781B787E
:10319000C0B2DBB2984238BF4030C01A704700BF9F
:1031A000101BFF1F111BFF1F30B4154B154C1A7855
:1031B0002378D2B2DBB29A421ED001333F2B0ED914
:1031C0001149124B087819680023C0B2237021B14D
:1031D000D31A1A2B01DC00230B7030BC70470A484D
:1031E0000A49C05C0968DDB2C0B225700029F4D07C
:1031F0009A4238BF4032EBE74FF0FF30EDE700BFB7
:10320000101BFF1F111BFF1F3C1BFF1F0C1BFF1F71
:10321000084A094B12781B78DBB29A4207D0013377
:10322000402B28BF0023054AD05CC0B270474FF046
:10323000FF307047101BFF1F111BFF1F3C1BFF1FA0
:1032400030B42B4B1A7994061FD52A48DA790378C3
:10325000294901333F2B0978C8BF00238B42D2B2E2
:1032600003D0264CD9B2E2540170254A116861B1ED
:10327000244A1278D2B2934236BFC2F140029B1A5E
:103280009B18272BC4BF01230B70194AD378DBB2DC
:10329000180611D45A060DD5154B1B795B0609D5B6
:1032A000194B1A491B6800220A7003B11A70104B9F
:1032B0002C22DA7030BC704711790906EAD514491E
:1032C00010480C780178C9B28C420DD04A1C272ACC
:1032D00084BF00210A460F4D054C98BFD1B2AA5CAD
:1032E000D2B2E2710170D5E76C21D170D2E700BF94
:1032F00000A00E40101BFF1F111BFF1F3C1BFF1FD8
:103300000C1BFF1F7D1BFF1F801BFF1F7C1BFF1F54
:10331000841BFF1F141BFF1F431E032B14D872B600
:103320000A4951F8230068B170B4094C058834F893
:103330001320466841F82360521B24F8132062B61C
:1033400070BC704762B6704700207047E01BFF1FDB
:10335000901DFF1F013803280BD872B6074B53F896
:10336000203043B100205B680130002BFBD162B6F6
:103370007047002070471846F9E700BF341CFF1F54
:1033800030B472B62B4A13781D0706D52A4B196A3A
:10339000002936D0996A002941D053781C0706D5F8
:1033A000254B196C00293ED0996C002939D09378AF
:1033B000190705D5204B196E002936D0996E89B1B1
:1033C000D3781B0707D51C4BD3F880207AB3D3F8EA
:1033D000882011213AB162B6184B00221A7030BC15
:1033E00000F08CBE0D21154C154D227843F831505C
:1033F00003EBC1030830013A5860227062B630BC5A
:10340000704704220D4C0F4D217843F8325003EBE6
:10341000C20308304A1E5860227062B6EFE70521E9
:10342000E1E70921DFE70822ECE70C22EAE71022B6
:10343000E8E700BF448E00000000FF1F5D1CFF1F77
:10344000C800400088004000431E032B1DD81B4AC3
:10345000400140F0100030B4104472B6184CE25CE9
:10346000032A1BD8DFE802F00212151703220D8889
:10347000E25410F0080F14BFC823882343EA054321
:1034800008310360416062B630BC704708300222E8
:10349000EDE70522EBE708300422E8E7094A52F895
:1034A000230038B1084A52F82300416042F8231043
:1034B00062B6E9E742F82310034AF7E70000FF1F6E
:1034C0006C1CFF1F341CFF1F441CFF1F2DE9F04F15
:1034D000DFF80CB3DFF80CA387B044E0AB4F4FEA42
:1034E000930807EBC809013ED9F8042003F008034C
:1034F000F6B2A2F1080003F0FF04002B40F00281B5
:1035000057F838301B0C99B222F8081C002B00F039
:10351000F0809F4B22F8064C42F8044C53F82620CA
:10352000002A00F0C5829B4D55F8263058609A4C11
:1035300045F8260034F81630194424F8161000F027
:10354000BDFD002800F0AD82944A954B19F0080F9C
:1035500000F1080018BF1346C9F8040047F83830D6
:1035600008238BF800309BF80040E4B261071AD5BD
:103570008C4B1B78A3B18C490A7802F0FF0322B16F
:10358000013BDBB20B7003B900BE88490A7802F038
:10359000FF032AB1013BDBB20B70002B00F0578216
:1035A00004238BF8003004F0080303F0FF02002B23
:1035B00000F0CC809AF80030DBB21E098ED19C0856
:1035C000DFF8C89159F8342009EBC401C2F3830233
:1035D000013A49680C2A00F28880DFE802F07C7C1E
:1035E0008686868686864786868607000868704DAA
:1035F0004A68704F704E286081B240F28160674B1C
:103600006A604FF0010E0022814249F834303A607E
:10361000C9F81020C9F8182086F800E05B4C00F2C9
:10362000E380B1F5D06F80F04683B1F5817F00F083
:10363000FC8200F28D82802900F07783822940F09D
:10364000FA82A98801F07F01042900F2F4825B4824
:103650005B4C89000844227062700278930740F145
:10366000588484F800E04FF0020E42E3514F3A686C
:1036700032B3544B504E5449188834780D78402852
:10368000864645F0020828BF4FF0400E002C84F01B
:1036900001043470CEEB00000CBF8824C82409EB71
:1036A000C80680B285F0010544EA0E4472601880B5
:1036B00049F8384072440D70002800F045813A60A6
:1036C0003B4B1A88B2F5A06F0FD100219A78597040
:1036D0003E4B1A7009E0364A108842F221029042AD
:1036E00000F037812D4A49F83420394A01231370FC
:1036F00036E72A4A2A4B19F0080F18BF134647F835
:1037000038302DE700F0FAFC324A334952F82630BF
:10371000002B00F0D18158688C5D42F8260003F13F
:103720000802C9F80420032C05D8DFE804F02C02B5
:10373000292602228A551A8819F0080F0CBF8823FF
:10374000C82343EA024347F8383009E7E00700F1AD
:103750008181210600F1F281A20706D51F4A204986
:1037600013780220DBB213700870E30602D51C4BFD
:1037700010221A7007B0BDE8F08F04228A55DAE7EC
:1037800005228A55D7E703228A55D4E70000FF1F98
:10379000E01BFF1F8C1BFF1F901DFF1FC800400078
:1037A00088004000681CFF1FF11BFF1F701CFF1FDB
:1037B000541CFF1F881BFF1FF01BFF1FC02007406A
:1037C000601CFF1F9C1BFF1F5C1CFF1F98200740F5
:1037D00094200740341CFF1F6C1CFF1F88200740EB
:1037E000802007409020074042F22100814200F0F3
:1037F0002A8100F2D880B1F5086F00F07682B1F529
:10380000106F40F01882226AB349A8780870120637
:1038100000F13A83D9F82820B049130600F10C834F
:10382000D9F83020AD49150600F10183D9F83820C8
:10383000AA49140600F1F682D9F84020A7491006DB
:1038400000F14A83D9F84820A449120600F13F83C9
:10385000D9F85020A149130600F13483D9F8582033
:103860009E49150600F12983D9F860209B4914066A
:1038700000F11E83D9F868209849100600F11383DF
:10388000D9F870209549120600F10883D9F87820FC
:103890009249130600F1FD82D9F880208F49150660
:1038A00000F13183D9F888208C49140600F1258372
:1038B000D9F890208949100600F11983D9F8982089
:1038C0008649120600F10D838548864A8649019093
:1038D0008648874D874C04970023059602958046BD
:1038E0000F4616461D460394306828B1446800F020
:1038F00005FC2046002CF9D100233360029B386878
:103900001A46002342F8253028B1446800F0F6FB3F
:103910002046002CF9D100223A60019A98F8003034
:103920001146002241F8042B039A0191023B4FF00B
:10393000000122F81510032B00F22B81DFE813F0B1
:103940007001250170012501BEF1400F18BF002252
:10395000B5E6694A0D784878157050708D78C8784A
:103960009570D07010680D79157186284D79897918
:103970005571917100F09B816049614E0A783078F1
:1039800082F00105002842F002020D700CBF882170
:10399000C82149F8321009EBC20280F00100002171
:1039A000307051609EE642F22120814240F0CB818E
:1039B000544B554C5549A8781D682560CDF804E056
:1039C0000870002002908046844604464B490D78DA
:1039D00045F0020E09EBCE030393019B002B039BE2
:1039E0005C600CBF8824C82444EA080385F0010405
:1039F00049F83E3032700C70DFF8E0E0404BDFF801
:103A0000FC80002840F01E81BCF1400F1BD144F027
:103A1000020C09EBCC03029CDFF8C0E05C60002ADA
:103A200040F02681020442F088029DF804304EF8EE
:103A30003C20044433700D702346402803D10020FD
:103A4000334A3B601080334A012313704DE600F087
:103A5000C1FCA5E5214B2F4828491A614FF0020E01
:103A600080F800E02C4F0A702C49196099602C4EA8
:103A70002C4D2D4C9A610D213970FF213170DFF8EA
:103A8000B8E029702270294D294A8EF800109F272E
:103A9000012406F8047C5D600470DA6007B0BDE8BC
:103AA000F08F244A47F8380013780133137057E534
:103AB00043F826000E4D3AE58B5D032B00F2F080B3
:103AC00001A252F823F000BF61350000613500000B
:103AD000853B00007F3B0000681CFF1F0000FF1FAC
:103AE000441CFF1FE01BFF1F341CFF1F6C1CFF1F2B
:103AF0008C1BFF1F901DFF1F981DFF1F5C1CFF1FCD
:103B0000F01BFF1FFC18FF1FA01DFF1F801CFF1FC5
:103B10009C1BFF1F94200740C020074088004000E6
:103B2000882007408020074098200740A01BFF1FE7
:103B3000F41BFF1F5D1CFF1F8C200740C149C24BB7
:103B400080220D2008701A70A2077FF50EAE05E6E0
:103B500040F20232914240F0EE80A98801F07F01EC
:103B6000042968D86A88002A65D1B648CDF804E0EF
:103B700089000844017841F00201017021E7012326
:103B80008B55EDE400238B55EAE44FF0010388F8F0
:103B900000300135042D06F1040607F1040708F191
:103BA00001087FF4A1AEA94CA94B2278A94D049F2E
:103BB000059E002129701A70130700F105816278B3
:103BC000A549DFF8A0820A7010074FF00001C9F87C
:103BD0003010C9F8381000F1E080A049A2780A70CE
:103BE0000021C9F85010C9F858101107DFF8748285
:103BF00000F10181E2789A499A4C0A70002112077B
:103C0000C9F87010C9F8781000F1B08033780193CA
:103C1000002183F00102C9F89010C9F89810D0E68D
:103C20004FF0000388F80030B3E7A98801F07F0166
:103C3000042940F28D80834A0F2313708A4A01239E
:103C4000137052E540287FF6E2AE44F002040EEB1A
:103C5000C401029E4E60BAB19DF80410834A1970E7
:103C60003346403888F8005040334EF83420E7E6B9
:103C70009DF8043033700204029B0D7042F0C802BC
:103C800003444EF83C20D8E69DF804101970029BBE
:103C9000774A88F80050403840334EF83420CFE659
:103CA00019F0080F0CBF022303238B5558E4714A07
:103CB0000F21117060E6704A5468002CBBD06888F0
:103CC000B5F804E003E00C325468002CB3D013883C
:103CD0008342F8D153887345F5D1000A03280CBFFD
:103CE00094F800E0B2F808E003E0644A644C12780B
:103CF0002270E888704580F03F8162490D78402845
:103D0000844645F0020E28BF4FF0400C04EB0C0334
:103D100009EBCE02029301235460CCEB00004FEA82
:103D20000C4800220193C8245EE6554C4FF0020E69
:103D300022706270DDE7B1F5A06F7FF47CAF0123E4
:103D4000002201933DE642F221329142F7D072E720
:103D50006A88002A7FF46FAF3A48CDF804E0890002
:103D60000844017821F0020101702AE600F0A6F96A
:103D7000002800F0EF8008303D4AC4F88400C4F801
:103D8000802000F09BF9002800F0DE800830374AE0
:103D9000C9F88C00C9F8882038E700F08FF90028AE
:103DA00000F0C0800830324AC8F84400C8F840200B
:103DB00000F084F9002800F0AF8008302B4AC9F8E1
:103DC0004C00C9F8482008E700F078F9002800F016
:103DD000CD800830264AC9F82400C9F8202000F018
:103DE0006DF9002800F0BC800830204AC9F82C008A
:103DF000C9F82820E3E600F061F9002800F09E8071
:103E000008301B4AC8F86400C8F8602000F056F972
:103E1000002800F08D800830144AC9F86C00C9F8F9
:103E20006820E7E6C86B083800F068F904E5486BDD
:103E3000083800F063F9F9E4C86A083800F05EF960
:103E4000EEE400BFC020074080200740448E000001
:103E5000C42007405D1CFF1FC8200740CC2007403E
:103E6000D02007400000FF1F94200740C8004000FA
:103E700088004000F11BFF1F488E0000681CFF1FD8
:103E8000601CFF1F5C1CFF1F606A083800F036F9D9
:103E9000C0E4C86F083800F031F9FDE4486F083815
:103EA00000F02CF9F2E4C86E083800F027F9E7E4D6
:103EB000486E083800F022F9DCE4C86D083800F0DC
:103EC0001DF9D1E4486D083800F018F9C6E4C86C53
:103ED000083800F013F9BBE4486C083800F00EF91C
:103EE000B0E4D1F89C00083800F008F9ECE4D1F80F
:103EF0009400083800F002F9E0E4D1F88C000838AA
:103F000000F0FCF8D4E4D1F88400083800F0F6F8AA
:103F1000C8E44FF0020EECE62A78C9F848000132F6
:103F20002A705AE62A78C8F8400001322A703FE722
:103F30002A78C9F8680001322A705BE62A78C8F846
:103F4000600001322A7061E72A78C9F888000132DE
:103F50002A705BE62A78C4F8800001322A7010E7E4
:103F60002A78C9F8280001322A7028E62A78C9F888
:103F7000200001322A7032E7BEF1400FF44628BF1C
:103F80004FF0400C04EB0C0302930123CCEB0E002A
:103F90004FEA0C480022019318E500BF2DE9F041DB
:103FA00000F020FC2F4C304B3048DFF8D880304FE9
:103FB000304D314EDFF8D0C0DFF8D0E000221A607B
:103FC0005A609A60DA601A615A619A61DA611A621B
:103FD0005A629A62DA621A635A639A63DA631A64FB
:103FE0005A649A64DA641A655A659A65DA651A66DB
:103FF0005A669A66DA661A675A679A67DA67C3F882
:1040000080202168C3F8842041F480212160016868
:1040100041F040710160C3F3072188F8001004F5F6
:104020002834C3F307411B0E3970CC342B7000F1D8
:104030002040FF238CF80030104D8EF8003000F641
:10404000041033700E49012308F8083C70262270D2
:104050004FF40014102207F82C3C2E7004600A70F4
:10406000BDE8F081348004400000FF1F00D800400C
:10407000B0200740B42007401020074035E400E09E
:10408000082107409C2007408020074088200740E7
:1040900000F0A4B800F07CB800F056B800F090B87A
:1040A00000F06CB900F046B90846114600F0B2B80D
:1040B000084600F033B900BF704700BF72B60D4824
:1040C0000268B2FA82F30B2B10DC4FF00041D940AA
:1040D00022EA0102026062B6074803EBC303DB0079
:1040E000C2180021C15010465160704762B60020CE
:1040F000704700BF1C07FF1F9803FF1F0D4B0E4AA0
:10410000C31AA2FB03231B090B2B0CD80B4A1278F2
:1041100052B972B60A484FF00041026821FA03F31F
:104120001A43026062B67047064A1278002AF0D03D
:10413000FFF726B99803FF1F398EE3385D1CFF1F78
:104140001C07FF1F681CFF1F38B50F4D286878B18A
:1041500043880288C118013393420C7A02D243800B
:10416000204638BDFFF7CAFF002320462B6038BD2C
:10417000064B1B782BB10320FFF7CEF828600028F0
:10418000E6D14FF0FF3038BD7C1CFF1F681CFF1FBD
:1041900010B5094C206818B143881844007A10BD46
:1041A000064B1B782BB10320FFF7B6F820600028E0
:1041B000F2D14FF0FF3010BD7C1CFF1F681CFF1FA9
:1041C000044B054A1B6890881BB11A885B88D31A78
:1041D000184470477C1CFF1F901DFF1F0B4B1B7862
:1041E0009BB110B50A4C206848B1FFF787FF002348
:1041F00003202360FFF790F830B1FFF77FFF032023
:10420000FFF78AF80028F8D110BD7047681CFF1F1F
:104210007C1CFF1F2DE9F04FDFF8F89083B00122DE
:1042200089F80020019169B3DFF8EC80364F019ED8
:104230008346D8F80000B0B3344D4488C4F140013F
:10424000B14228BF314604EB010E00221FFA8EFE58
:104250002A70761AA0F802E000F1080251B1013C80
:10426000224459441BF8014B02F8014F8B45F9D108
:10427000B0F802E0BEF13F0F0BD8254A05211170BE
:10428000002ED6D10198002389F8003003B0BDE894
:10429000F08F4022028001460420FFF7D5F800226B
:1042A000C8F80020E9E73A782AB3184D4DF2E9043E
:1042B0004FF0010A07E0013C16D02A78A2B900F0BD
:1042C000ADF83A78BAB10420FFF744F80728F2D8DD
:1042D00089F800A0FFF7F2FEC8F800000028ACD172
:1042E0000C4B013C1870E8D101234FF0FF302B70CC
:1042F00003B0BDE8F08F00234FF0FF3089F80030A5
:1043000003B0BDE8F08F00BF681CFF1F781CFF1FC3
:10431000701CFF1F711CFF1F741CFF1F00B583B0B2
:1043200002AB012103F8010D1846FFF773FF03B03C
:104330005DF804FB38B50E4D0E4C28680123237040
:1043400028B1408800232370C0F1400038BD0A4BDB
:104350001B7813B90020207038BD0420FEF7FAFF47
:104360000728F7D8FFF7AAFE28600028E9D1F1E76F
:10437000741CFF1F711CFF1F681CFF1FF8B5114B39
:104380001B788BB1104E114D346801272F7064B12A
:104390000F4A638800271770214623800420FFF707
:1043A00053F8376000232B70F8BDFFF787FE084BEA
:1043B00028B1014604201C70FFF746F8F2E71F7091
:1043C000F0E700BF681CFF1F741CFF1F711CFF1F5C
:1043D000701CFF1F38B50E4B1B7873B90D4C21684C
:1043E00061B103F0FF054B880B800420FFF72CF828
:1043F000256038BD084B01221A7038BDFFF75EFEFC
:104400000028F7D00146BDE838400420FFF71CB86B
:10441000711CFF1F741CFF1F701CFF1F38B52C4C34
:10442000237803B138BD01232370FFF7C9FE0028AC
:1044300042D1FEF7D5F900283BD1FEF727FB002833
:1044400034D1FEF753FC70BBFEF788FD40BBFEF78E
:104450009BFE10BB00F04AF9E0B900232370EFF394
:104460000583002BDED1EFF3108172B6194B18686B
:1044700028B3194C227812BB45691D6001232370B3
:104480000DB3AA6101B962B60025457783689847E4
:104490002570C7E700F028F9DFE700F023F9D9E736
:1044A00000F01EF9D3E700F019F9CDE700F014F998
:1044B000C7E700F00FF9C0E7FFF7FEFDB9E70029F5
:1044C000B0D162B638BD054B1D600029DCD1DAE7FA
:1044D000811CFF1F941CFF1F981CFF1F901CFF1FB7
:1044E00010B4EFF3108272B6437F33B9017F012914
:1044F00008D0032910D00123437702B962B65DF8D2
:10450000044B7047114C2168A1B1114943610B68FC
:10451000836108605861EEE70E4C216881B10E4955
:1045200043610B688361086058610C4B4FF0805108
:104530001960E0E7064B4161816120601860DAE7AD
:10454000054B4161816120601860EEE7941CFF1FFC
:10455000901CFF1F841CFF1F881CFF1F04ED00E040
:1045600010B4047F4160022CC26003D05DF8044B9C
:10457000FFF7B6BF83685DF8044B184770B5EFF3DB
:10458000108272B60C4C206880B10C4E0025436935
:10459000236073B19D6102B962B64577836898471D
:1045A000EFF3108272B620680028F0D102B962B62B
:1045B00070BD3360EFE700BF841CFF1F881CFF1F26
:1045C000FFF7DCBF184A30B41468002C27D003680A
:1045D00021688B420ED2CB1A00218460C160236017
:1045E000E06010600223037530BC704711688B4295
:1045F000144608D3A2685B1A0360002AF6D18260D1
:10460000C460A060EEE7D268C2608460E060C56804
:10461000CB1A0222A8602360027530BC7047846008
:10462000C4601060DEE700BF8C1CFF1FF8B5224E8F
:1046300034682CB32368002B3AD1204F1D4604E088
:104640003468ECB12368002B32D1A36803B1DD607C
:1046500020693360036825751B68BB4221D1037F45
:104660004560022BC46020D0FFF73AFF6368002B3F
:10467000E6D023602046FFF7A5FF3468002CE1D187
:10468000EFF3108372B60E4A00211068116003B96F
:1046900062B628B18468FFF795FF20460028F9D15B
:1046A000F8BD224600219847E0E783689847DDE798
:1046B000013B2360E4E700BF8C1CFF1F6145000045
:1046C0009C1CFF1F024A136801331360FFF7AEBF43
:1046D000FC18FF1F704700BF704700BF704700BF46
:1046E000704700BF704700BF704700BF054A064BC8
:1046F00010781B78C0B2DBB2984238BF4030C01A85
:10470000704700BFA41CFF1FA51CFF1F30B42B4B1C
:104710001A7994061FD52A48DA7903782949013392
:104720003F2B0978C8BF00238B42D2B203D0264C5E
:10473000D9B2E2540170254A116861B1244A127855
:10474000D2B2934236BFC2F140029B1A9B18272B6C
:10475000C4BF01230B70194AD378DBB2180611D4F9
:104760005A060DD5154B1B795B0609D5194B1A490D
:104770001B6800220A7003B11A70104B2C22DA70E9
:1047800030BC704711790906EAD5144910480C78F5
:104790000178C9B28C420DD04A1C272A84BF00215F
:1047A0000A460F4D054C98BFD1B2AA5CD2B2E27155
:1047B0000170D5E76C21D170D2E700BF00B00E4088
:1047C000A41CFF1FA51CFF1FD01CFF1FA01CFF1F48
:1047D000111DFF1F141DFF1F101DFF1F181DFF1FA0
:1047E000A81CFF1F72B6184A184B19491160702295
:1047F00080211A701A46197013781B06FCD510B563
:10480000144B84B0186862B6134B144C984298BF8E
:1048100000EB800001A998BF40000A22FDF72AFCA6
:1048200001A92046002311F8012B01333AB10A2BCC
:1048300020F8022FF7D11623237004B010BD5B00BF
:10484000DBB2237004B010BD04000240000002403F
:10485000000007410C0002407F969800AC07FF1F44
:104860000B460146184603F04BBC00BF2DE9F04152
:10487000184D074682B00C462846394690461E46DB
:1048800000F0FCFB21462846002400F071F86A7B0A
:10489000296900942846012300F002FF4FF0010E21
:1048A000697B2869019443463A46CDF800E000F060
:1048B0000DFF04E000F024FFE3B20134F054286956
:1048C000D0F83821D0F834319A42F3D102B0BDE8A3
:1048D000F08100BF441DFF1F70B50D4C82B00E4625
:1048E00001462046154600F0C9FB3146204600F03F
:1048F0003FF82946204600F03BF800230093627BF6
:1049000021692046012300F0CBFE02B070BD00BF3C
:10491000441DFF1F0369D3F83801D3F83431C01A9E
:10492000704700BF0369D3F83411D3F8382191429E
:1049300008D2D3F83421511C1A44C3F8341192F828
:10494000300070474FF0FF30704700BF0369D3F865
:104950003411D3F8382191423DBFD3F834219B184C
:1049600093F830004FF0FF30704700BF704700BF32
:104970000369D3F84422B2F5817F03D9012303717F
:1049800000207047D3F8442210B49C180132C3F8B9
:10499000442284F83C1101205DF8044B704700BFAD
:1049A00038B503690A4A026093F84822022A04468D
:1049B00001D0204638BDD3F87452002DF9D02846D6
:1049C00001F0C6FA2846082101F0E0FA204638BD79
:1049D000A48E000038B503690546D3F84402B0F54B
:1049E000817F1AD81446D3F84422D3F84402C2F582
:1049F0008172013203F59E73A242184402D2012350
:104A000014462B712246FDF737FA2A69D2F8443250
:104A10002344C2F84432204638BD01232B710020C4
:104A200038BD00BF2DE9F04F574C83B006460D4608
:104A300092461F469DF830809DF834E09DF83890EE
:104A4000234621460022022004E004321C2A36D0EC
:104A500011F8040F8542F8D148785045F5D196F801
:104A60004A121A448A4592F803B000F08680BBF1DE
:104A7000000F28D0BEF1000F0BD096F84C2296F80C
:104A80004A020193002A14BF02210021FDF716FDFE
:104A9000019B4FEA0B2202F4E062B8F1000F60D1F3
:104AA00042F06402394901EBCA01012049680A60F9
:104AB00086F84AA286F84C8286F8980203E096F8B7
:104AC0004A224FF0000B0022022104E004321C2A8B
:104AD00036D014F8041F8D42F8D1A178B942F5D12F
:104AE0001A4496F84B32D4789F4240D0002C34D0F0
:104AF000B9F1000F09D096F84C3296F84B02002B12
:104B000014BF02210021FDF7D9FC230203F4E06366
:104B1000B8F1000F28D143F064031C4A02EBC7022E
:104B200001215268136086F84B7286F84C8286F831
:104B30009912BBF1000F10D0012003B0BDE8F08F37
:104B400096F84B32BB4208D1B9F1000F05D00024D2
:104B5000BBF1000F01D0002CEED1002003B0BDE866
:104B6000F08F42F003029DE743F00303D5E7B9F16C
:104B7000000FEDD1002CC8D1EFE7BEF1000FA2D19C
:104B8000BBF1000F85D19EE7C08E00001C8C000099
:104B9000F8B5C3681B789B0610D483680D46802146
:104BA0001970C3681221197090F84932012B04461C
:104BB00006D08AB980F848220120F8BD0020F8BD4F
:104BC0001A4675B95E4B4FF080711960022A0FD0FA
:104BD000012084F84802F8BD531E012BF1D90120B1
:104BE000F8BD012D4BD1564B4FF000711960EDE728
:104BF000D4F87462002E00F097803379102B30D0F7
:104C0000002D43D132684F49938B4F4F9BB243F0F5
:104C1000080393833279531102F110009B0041F88D
:104C2000207003F1604303F56143012102F01F028C
:104C300001FA02F231681A608B8B9BB243F00203D7
:104C40008B83337903F1804303F5043392221D7083
:104C50001A700022022384F85E2284F84832012070
:104C6000F8BD304601F074F93046082101F08EF9A4
:104C700000230120C4F8743284F84802F8BD022DE4
:104C8000A4D1324B4FF4806119609FE7012D26D1EA
:104C900032682C49938B2E4F9BB243F008039383C9
:104CA0003279531102F110009B0041F8207003F19A
:104CB000604303F5614302F01F02954032681D60B6
:104CC000938B9BB243F002039383337903F18043C8
:104CD00003F504330021932219701A70B9E7022DED
:104CE000B7D1D4F8741217480A681A4E938B9BB246
:104CF00043F0080393830A79531102F110059B00D6
:104D000040F8256003F1604303F56143012002F0A0
:104D10001F0200FA02F208681A60838B9BB243F00C
:104D2000020383830B79D1E7082001F02DF9314686
:104D300007463E4601F0A8F8C4F874725DE700BF6C
:104D400000E100E00002FF1FD55D000008E100E087
:104D5000E15D0000ED5D0000F0B5284EDFF8ACE04D
:104D6000A6FB0143A6FB02429E093702754696093F
:104D700014240023B7FBF6F604E00133372B1BD0D5
:104D800055F8044F22029642F7DA83BB14241C4ADA
:104D90004568B1FBF4F491422B70C0F8504207D83B
:104DA000184B8269A3FB0131C1F307511170F0BDAB
:104DB000836904221A70F0BD002422464FF4702744
:104DC0004FF470654FF0360CB21AF71B002A87EAD1
:104DD000E776A6EBE776B8BF5242964202DD0A4A72
:104DE000D35CD4E7084B2C4613F80C30CFE703F123
:104DF000FF3C5EF82C502F02E6E700BFD34D621057
:104E0000FF6BDC02819F5E16BC8F0000E08E00000D
:104E1000F0B49DF814409DF810609DF818503CB116
:104E200035B1C7683F78BF0602D50020F0BC704797
:104E3000069505940496F0BCFFF7F4BD2DE9F0410A
:104E400084B0044694469DF828609DF82C209DF877
:104E500030009DF834E09DF83C700D4600294CD19F
:104E6000DFF8F880D8F8001041F04001C8F80010D1
:104E7000002184F849C284F85512BCF1000F2BD1EF
:104E800063692021197012B994F84A22D2B210B97C
:104E900094F84B02C0B294F8981294F89962029672
:104EA0000346CDF800E0019120462946FFF7B0FF08
:104EB0000E9A29492046FFF74FFF3A4629462046D9
:104EC000FFF766FE94F84932002B37D0A368C02262
:104ED0001A7004B0BDE8F0816169CEB14FF0280CC2
:104EE00081F800C09E4221682ED95B00DBB20B70B6
:104EF0007600E369F6B21E70C5E7012913D1DFF829
:104F00005C80D8F8001041F08001C8F80010AFE7CD
:104F10004FF0200C81F800C021685B00DBB20B7001
:104F2000E3691E70AFE70229A2D1DFF83480D8F818
:104F3000001041F04001C8F8001099E7A3688022F2
:104F40001A7004B0BDE8F0817600F6B20E705E0013
:104F5000E369F6B21E7096E700879303348004403D
:104F6000288004402DE9F041154682B004460F46E2
:104F70009846FDF7A9FA0DB9D4F87852FDF7A4FACE
:104F8000A3681A789206064609D5B4221A70374BE0
:104F90001B78002B35D0012002B0BDE8F08155BB55
:104FA000E3681B7803F0200303F0FF02002BF6D127
:104FB000A36884F84922B0221A70A3681B7803F012
:104FC000200303F0FF00002BE1D1062384F85532C3
:104FD000D4F89032013304D0D4F890320133C4F8BD
:104FE0009032D4F87032002BD6D0019098470198B7
:104FF00002B0BDE8F081FDF767FA801B8542CFD88B
:10500000DBE794F84832013B012BC4D8FDF714F8D4
:10501000012F1DD012D3022F10D1154B1B788342C4
:10502000B9DB0F2817DD012F19D00AD3022F08D1C1
:10503000A0F110030E4ADBB21370ACE70D4B1B78E6
:10504000EDE7A0F110030B4ADBB213700120A3E7D8
:10505000094B1B78E3E7012088F800009CE7A0F1EA
:105060001003054ADBB23846137095E7581DFF1F41
:105070004AE400E018E400E019E400E003694900B4
:1050800083F83C11036900220121C3F84412027124
:1050900083F85522704700BF2DE9F043054683B0E1
:1050A000D0F8440200248DF80740C0B190461C4659
:1050B0000BB9D5F87842AA69137843F050031370FE
:1050C000AA69137803F0DF031370EB6812221A70D9
:1050D00028460DF107032246FFF744FF10B903B03D
:1050E000BDE8F08395F84832BBB19DF80720A2B91E
:1050F000591E0129F3D80821022B85F8551285F88D
:105100005482C5F8402200F0A180AB68F0221A70EA
:105110002B6995F83C211A70E1E7FDF7D5F90823D2
:1051200085F85532D5F8447285F8548206465FB347
:1051300005F23B1800274FF00209002C44D12B69DF
:1051400018F8012F1A70EA681378980737D4002CE2
:10515000FAD0FDF7B9F9801B8442F4D8EB6883F8E4
:105160000090FDF7B1F9801B84420BD9EA681378EF
:10517000DBB2D9063AD4DB074AD4D5F8443201373A
:10518000BB42DAD895F85482AB68B8F1010F0CBF76
:105190008022B0221A70D5F84432BB421AD90123BA
:1051A00085F85532D5F88032013304D0D5F88032F5
:1051B0000133C5F88032D5F870329BB98FE782F899
:1051C0000090002CD2D0CCE7FDF77EF9801B844202
:1051D000B5D8D7E7D5F86032002285F85522002BE4
:1051E0003FF47DAF984703B0BDE8F083102304215E
:1051F00085F855121370AB6880221A70D5F88C327E
:105200000133D8D0D5F88C320133C5F88C32D2E7CF
:105210007FB9022385F85532D5F88432013304D0A2
:10522000D5F884320133C5F88432AB6880221A7015
:10523000C1E7032385F85532D5F888320133F4D01D
:10524000D5F888320133C5F88832EEE7D5F8443214
:10525000042B7FF65AAFD5F8741201200C6885F83C
:105260005E02D5F84432E2710E68A08005F59F77A2
:105270002760B0600C68033B98B2E08309685B422A
:10528000E360C882D5F8741228690B68B0F1804FCA
:105290009A7118619A820B6801D39A6812B9012237
:1052A0009A600B6800229A612FE700BF2DE9F04158
:1052B00082B000258DF807509DF82070099E2BB113
:1052C000B3F5827F05D3052380F8553202B0BDE8DF
:1052D000F081C0F83451C0F85832C0F838510EB9D6
:1052E000D0F8786290468269137843F050031370C7
:1052F0008269137803F0DF031370C36812221A70F7
:105300000DF1070332460446FFF72CFE0028DDD0DE
:1053100094F848321BB19DF80720002A51D0FDF7C0
:10532000D3F84FEA480343F00103226984F854722A
:10533000DBB2092184F8551205461370E268137830
:105340009B071ED4002EFAD0FDF7BEF8401B864204
:10535000F4D8E36802221A70FDF7B6F8401B8642C3
:1053600013D8A26801238021117084F85532D4F833
:10537000803201331FD0D4F880320133C4F8803238
:1053800019E002231370002EE6D1E2681378DBB235
:10539000D9062CD4DF073CD5A3680221802284F8EB
:1053A00055121A70D4F88432013304D0D4F8843200
:1053B0000133C4F88432D4F87032002B86D0984779
:1053C00084E7591E012981D80921022B84F85472DF
:1053D00084F8551200F0E080A268F02111704FEAC5
:1053E000480343F001032269DBB213706EE7102318
:1053F000042184F855121370A36880221A70D4F81F
:105400008C320133D7D0D4F88C320133C4F88C32CB
:10541000D1E7D4F858320A22012BA36884F8552228
:105420000CBFA822A0221A7023691B784FF0000835
:10543000B027D4F85832D4F838219A42BFF446AF96
:1054400094F855320A2B7FF441AFE268137898073D
:105450003CD4002EFAD0FDF737F8401B8642F4D832
:10546000E36802221A70FDF72FF8D4F83821D4F837
:105470005832401B911C86428CBF00220122994267
:1054800006D086422FD894F85D22002A4CD1012202
:10549000A368A8211970D4F83811D4F85832013112
:1054A000994226D2002A5AD094F85D32002B3DD181
:1054B000D4F838312269591CC4F8381123441278C1
:1054C00083F83020012384F85D32B2E702231370A1
:1054D000002EC8D1D4F83821D4F8583202329A427A
:1054E00001D13246D4E7D4F838210132934236D87C
:1054F0000022A36884F85D821F7023691878D4F8AD
:105500003831E1180133C4F8383181F8300094F8AB
:105510005432012B1CD06ABBD4F8643284F8552273
:10552000002B86D0984784E7D4F83821A36884F804
:105530005D821F7023691978D4F83831E21801337D
:10554000C4F8383182F8301094F85422012A11D16D
:105550002823013BFDD1A36880211970DBE7D4F833
:1055600038212169501CC4F838012244097882F896
:10557000301060E7012384F85532D4F880320133CB
:1055800004D0D4F880320133C4F88032D4F87032B9
:10559000002B97D0984795E7D4F85832042B7FF624
:1055A0001BAFD4F8743220691968012584F85E5263
:1055B000B0F1804FCA718A8008601A6801D391687F
:1055C00011B9012191601A68D4F87412D4F85832D4
:1055D00008680025D56085710E6804F13002012548
:1055E00002618582B5600868013B9AB2C28309688E
:1055F0005B428361CA82EFE6036993F85532013B4F
:10560000052B0CD8DFE803F003070903050304208A
:1056100070470120704702207047032070470079CF
:10562000003018BF0120704770B515460446FCF7DE
:105630004BFF0DB9D4F87852FCF746FF064694F8B4
:105640005532072B1AD9002DF9D0FCF73DFF801BEE
:105650008542F4D8FCF738FF801B854210D894F8B7
:105660004832022B0CD194F85E324BB194F855328B
:10567000072BFBD8012384F8553201E0002DE9D136
:1056800094F85532072B02D9012384F85532A02310
:10569000013BFDD194F85502B0FA80F0400970BD8D
:1056A000F8B5069E0C46154607461A46294620467A
:1056B0003346FFF7F1FC324629462046FFF7B4FF98
:1056C0003846BDE8F840FFF797BF00BFF0B583B09C
:1056D0009DF8206013B9002003B0F0BD099F044677
:1056E0000D468DE8C000FFF7E1FD099A29462046E6
:1056F000FFF79AFF0028EED0D4F8380103B0F0BDD0
:10570000D0F83421D0F838319A4208D2D0F8343168
:105710005A1C0344C0F8342193F8300070474FF00E
:10572000FF3070472DE9F041BF4EC7683378D0F89D
:1057300008E00133DBB233703D789EF80030044658
:10574000DBB2806903F020020178EDB2FAB113F008
:10575000100F94F85E327FD0022B00F0D78094F8BF
:105760005E32032B00F0D28094F85532082B00F003
:10577000238294F85532092B00F05C8294F855325C
:10578000012B00F0CC8180238EF800305BE002F02A
:10579000FF08EA0624D405F0400202F0FF071ABB16
:1057A00003F0100303F0FF02002B00F08E8015F0D1
:1057B000010540F0A881D4F84022D4F844329A423E
:1057C00007D2D4F840325A1C2344C4F8402293F83C
:1057D0003C5123691D70A368D0221A70A06979E03A
:1057E000102368063B7029D594F855320C2B00F035
:1057F0000F8105F0040505F0FF02002D73D0A368AA
:105800000021D0220B2084F85502C4F844121A70EB
:105810002269D4F86C1213785B0884F8563209B107
:1058200088472269D4F84432002B00F0758194F83F
:105830003C8182F800800123C4F84032A2691378C9
:1058400043F050031370E36802221A703378013B6F
:10585000DBB23370BDE8F081022B00F09F8094F83A
:105860005E32032B00F09A80D4F83831D4F85822F5
:105870000233934200F0418194F85532012B00F03D
:105880003781D4F838310133934280F00B8194F89A
:105890005532012B00F00181D4F838312269591CAE
:1058A000C4F838112344127883F83020E3680222C8
:1058B0001A7094F85532DBB2012BC7D194F85D22EF
:1058C000002AC3D184F85D32C0E794F855320C2B1E
:1058D00000F09381037843F050030370E3680222E1
:1058E0001A70BDE8F081A1690B7843F020030B70BA
:1058F000A3680C20C02184F85502C4F8382119701F
:1059000023691B785B0884F8563297E7D4F8742231
:1059100013689B8B190604D594F85E32022B00F0B5
:10592000B08094F85E32032B00F086803F4B1279F2
:105930001968012393400B4288D03D493D4B0A70C2
:10594000D4F87412097919700022072384F85E22B2
:1059500084F85532D4F89432013304D0D4F8943218
:105960000133C4F89432ED0611D5042384F855327E
:10597000D4F88C32013304D0D4F88C320133C4F81B
:105980008C32E268102100231170C4F84032A36801
:1059900080221A70E36802221A7032E0D4F874325E
:1059A0001A68928B120603D594F85E22022A5CD004
:1059B00094F85E22032A00F0D6801C491A790968FF
:1059C000012393400B423FF441AF1949194B0A7030
:1059D000D4F8742212791A70A3688022002007215B
:1059E00084F85E0284F855121A70E36802221A7075
:1059F000D4F89432013304D0D4F894320133C4F88B
:105A00009432D4F87032002B3FF420AF98471DE752
:105A1000D4F86832002B3FF4ECAE0022C4F83421F5
:105A2000D4F838019847E4E6581DFF1F2C80004049
:105A30001E8000401F8000403B781B06FCD5C34BF6
:105A400012791A70002384F85E32D4F84432216946
:105A5000013BC4F84032D4F840322344022293F888
:105A60003C310B70E3681A70F0E6B9491B790B7092
:105A7000A368E8211970E368032184F85E121A70A4
:105A8000E4E6B34912790A70A268F0211170E26865
:105A9000032184F85E121370D8E694F85D32002B6F
:105AA0003FF4FAAEA3680021B02284F85D121A70A8
:105AB000D4F838312269591CC4F8381123441278BB
:105AC00083F8302094F85432012B00F0C580E3684D
:105AD00002221A7094F85532012B36D0D4F8643271
