:10000000F8FF022099010000551A00000D1A0000A7
:100010000D1A00000D1A00000D1A00000D1A000044
:100020000D1A00000D1A00000D1A0000551A0000EC
:10003000551A00000D1A0000E53F0000E9400000DD
:10004000551A0000551A0000551A0000551A0000F4
:10005000551A0000551A0000551A0000551A0000E4
:10006000551A0000551A0000551A0000551A0000D4
:10007000551A0000551A0000551A0000551A0000C4
:10008000551A0000551A0000551A0000551A0000B4
:10009000551A0000551A0000551A0000551A0000A4
:1000A0007549000081490000551A0000551A0000EA
:1000B000551A0000551A0000551A0000BD22000014
:1000C000551A000069250000551A0000C9270000D4
:1000D000551A0000392A0000551A0000551A000070
:1000E000551A0000551A0000551A0000551A000054
:1000F000551A0000551A0000551A0000551A000044
:10010000551A0000551A0000551A0000551A000033
:10011000551A0000F12E0000551A0000551A000073
:10012000551A0000551A0000551A0000551A000013
:10013000551A0000551A0000551A0000551A000003
:10014000551A0000551A0000652C0000551A0000D1
:1001500031410000551A0000551A0000551A0000E0
:10016000551A0000551A00008D490000551A00006C
:10017000551A0000551A0000551A0000551A0000C3
:10018000551A0000551A0000551A0000551A0000B3
:10019000551A0000551A0000584B4CF2205210B569
:1001A0001A804DF628121A8000BF00BF01F056FCDD
:1001B000534B4FF030621A60524A9A60524ADA60EA
:1001C000524B4FF470021A60514A136813F4807353
:1001D00004D150490B604FF4A85313604E4B1A786A
:1001E000110703D51A7842F008021A704B4B4C499C
:1001F0002A221A704B4A4C4B8B4204D252F8040FFD
:1002000043F8040BF8E7494B494900228B4202D2DC
:1002100043F8042BFAE74749474A002352F82300E2
:1002200041F823000133662BF8D1444B444A802126
:1002300003F8011B9342FBD1424B3E4A1A60424BEA
:100240008A221A70A3F5805324225A70A0221A70B1
:100250009A799207FCD59A79D406FCD43B4A9379D3
:1002600003F00C03082B394BF9D103221A714622F3
:100270005A719A799006FCD5344A9179334B4906E4
:10028000FBD5334A4FF08271116009215160202261
:100290001A709A7902F00C020C2AFAD12D4B2E4AD0
:1002A0001A602E4B2E4A1A6000225A60072243F829
:1002B000042C2C4AC3F80C2D62B601F087FE154BB6
:1002C0001B68DA0705D5284801F06EFC274B284A41
:1002D0001A60284B1B785B0609D5244C244B2268F6
:1002E0009A4204D1204801F05FFC0023236005F00E
:1002F00073FA01F0B9FB01F0E7FAFEE70E200540C2
:1003000030800440823F04000100002B88ED00E0B3
:1003100010D0034014D0034002D0074000E0074053
:100320004C11FF1F0C660000F806FF1F5011FF1F45
:10033000F416FF1F0002FF1F0000000000E400E0B1
:1003400056E400E008ED00E00050064000400640A2
:100350004480044004800440C010050014E000E024
:10036000BFD40100000020204D74895D1CE00340D3
:10037000A5C3945A00F00740FFFFFFFFFFFFFFFFF8
:10038000FFFFFFFFFFFFFFFFFFFFFFFFFFFFFFFF7D
:10039000FFFFFFFFFFFFFFFFFFFFFFFFFFFFFFFF6D
:1003A000FFFFFFFFFFFFFFFFFFFFFFFFFFFFFFFF5D
:1003B000FFFFFFFFFFFFFFFFFFFFFFFFFFFFFFFF4D
:1003C000FFFFFFFFFFFFFFFFFFFFFFFFFFFFFFFF3D
:1003D000FFFFFFFFFFFFFFFFFFFFFFFFFFFFFFFF2D
:1003E000FFFFFFFFFFFFFFFFFFFFFFFFFFFFFFFF1D
:1003F000FFFFFFFFFFFFFFFFFFFFFFFFFFFFFFFF0D
:10040000FFFFFFFFFFFFFFFFFFFFFFFFDEF9FFFF23
:1004100010B5054C237833B9044B13B10448AFF33E
:1004200000800123237010BD5011FF1F0000000049
:1004300008660000084B10B51BB108490848AFF327
:1004400000800848036803B910BD074B002BFBD0A0
:10045000BDE81040184700BF000000005411FF1F06
:10046000086600004C11FF1F0000000010B507488F
:1004700000F0E8FF40B1064C0D20217801F02AFD84
:10048000237883F00103237010BD00BFE811FF1F24
:10049000FC06FF1FF0B51F4E83B00DF1070501F0FC
:1004A000B1FE092834DD01F0BDFE0446E4B201F0DE
:1004B000EDFEFF2CF3D1C0B2FF28F0D101F0B2FE67
:1004C0000DF1FF3401F0AEFE04F8010FAC42F9D19A
:1004D0009DF800C09DF801009DF802E09DF8031012
:1004E0009DF804709DF805209DF806409DF80730A2
:1004F00040EA0C2041EA0E2142EA072243EA0423A3
:1005000030817181B281F38101F07CFE0928CADC5F
:1005100003B0F0BD7012FF1FF8B51F4F1F4E3868B3
:100520001F4D04F099FD042241EC100B30460221CE
:1005300000F05CFC01460446284600F0F1FF05216E
:10054000184803F079FB284600F09AFF386804F059
:1005500083FD052241EC100B3046032100F046FCE0
:1005600006460146284600F0DBFFA41B06210E4884
:1005700003F062FB24B2284600F082FF21462846A1
:1005800000F0CEFF0621094803F056FB284600F094
:1005900077FF2046F8BD00BF4C12FF1F7012FF1FEF
:1005A0000C07FF1FD8610000E0610000E861000057
:1005B00038B53D4C2DED028B204600F01BFB3B482F
:1005C00000F0C6FA3A4800F019FC3A4800F036FE4E
:1005D000FFF74CFFFFF75EFF374B206893ED008B72
:1005E00004F03AFDB0EE481AF0EE681A41EC100B38
:1005F0009FED2B2B314800F023FD55EC104B0022D2
:10060000002310EE100A294605F000F800283ED01D
:1006100000222B4B2046294604F0C0FB05F020F8B1
:1006200004F008FD274BC3E90001FFF775FF04F054
:1006300001FD9FED1B2B41EC100BB0EE421AF0EECA
:10064000621A214800F0FCFC55EC104B00220023FC
:1006500010EE100A294604F0D9FF78B10022184B99
:100660002046294604F09AFB04F0FAFF04F0E2FC6D
:10067000BDEC028B154BC3E9000138BD0022104BC5
:100680002046294604F088FB04F0EAFFEEE700224A
:100690000B4B2046294604F07FFB04F0E1FFBFE747
:1006A00000000000000000004C12FF1FF011FF1FAF
:1006B0007012FF1F2812FF1F0812FF1F7011FF1F6B
:1006C0000000E03FE011FF1FA811FF1F0012FF1FF5
:1006D00010B546F2A81001F00DFD1048104C00F0C6
:1006E00071FB104800F032FA0F4800F013FC0F487D
:1006F00000F094FE01210D2001F0F2FB0C4800F007
:1007000033FB204600F0CAF82046142100F0F4F92B
:100710002046BDE8104000F015B900BF7012FF1F61
:100720001012FF1FF011FF1F6C12FF1F2812FF1F76
:100730004C12FF1FFFFFFFFF10B5FFF739FFFFF758
:10074000A9FE9FED0B0B012200210B4800F04EFB90
:10075000642800D810BD094BD3E9000104F080FFE4
:10076000642203B211460648BDE8104000F0EEBB1B
:1007700000000000000000007012FF1F0012FF1FA9
:100780006C12FF1FFFFFFFFFF8B52DED048B9FEDEF
:100790002A8B9FED2B9BB0EE482AF0EE682AB0EE34
:1007A000481AF0EE681A2C4B2C4AB0EE493AF0EE9B
:1007B000693A002400219FED240B294891611C60B7
:1007C0005C609C60DC601C82D16100F029FCB0EEB2
:1007D000493AF0EE693AB0EE481AF0EE681A9FED29
:1007E0001C2B2048B0EE420AF0EE620A00F018FC22
:1007F0001D491E4F4C600D4601F1140645F8044B8F
:1008000052234C61384617223C216C60AC60EC608E
:100810007460B460F46000F059F938461449154A20
:1008200003F030FDBDEC048B4FF47A711248BDE843
:10083000F84000F005BE00BF00000000000000000E
:100840000000000000E07F400000000000002E409B
:10085000000000000000F03F7012FF1F4C12FF1F4D
:100860007011FF1FA811FF1F2812FF1F1012FF1F7A
:100870007D080000F806FF1FE811FF1F10B50446B1
:10088000C06804F0D9FFB4F90600002803DBC0B249
:10089000002101F025FB204610BD00BF10B5044625
:1008A000B0F90600002807DBC0B2012101F018FBF7
:1008B0000021A07901F00EFB0123637010BD00BF81
:1008C00038B50446C0680D4604F0B6FFE37C207CD2
:1008D00083420CBF0320042010FB05F080B2A080EF
:1008E000012104F035FFE06008B1658038BDA080CB
:1008F000608038BDF0B4077CC47CC568C1F3810654
:10090000FF29A4EB0704C1F3811201F00307467429
:10091000B4FA84F48CBF00260126C1F30111C2741D
:1009200064098774067001744DB1511AB1FA81F1EE
:100930004909A14203D04188F0BCFFF7C1BFF0BC18
:10094000704700BF2DE9F843C368002B4FD0044621
:1009500001F0CCFA6369C01AB0F5967FF8D372B68D
:100960004649B4F906500B684548464A50F83500E8
:10097000E668A788257843F080730B60136843F01E
:10098000010337441360A5B3A1F55D41F8390A6846
:10099000BE4202F196021FD289464FF0010C16F8B2
:1009A000018B4FF0080E80250B689B1A952BFBD905
:1009B00018EA050FD9F8002080F880C055D00B68E0
:1009C0009B1A5F2BFBD9BEF1010E80F800C14FEAE4
:1009D0005505E9D1B742E2D12B490B689B1A952BFB
:1009E000FBD962B601F082FA6061BDE8F883BDE828
:1009F000F88325490A68BE4202F5967220D28946DC
:100A00004FF0010C16F8018B4FF0080E80250B6893
:100A10009B1AB3F5967FFAD318EA050FD9F8002090
:100A200080F880C018D00B689B1A8F2BFBD9BEF1C1
:100A3000010E80F800C14FEA5505E8D1B742E1D177
:100A400011490B689B1AB3F5967FFAD362B601F091
:100A50004DFA6061BDE8F8830B689B1A3B2BE6D822
:100A60000B689B1A3B2BF7D9E1E70B689B1A1D2BF0
:100A7000A9D80B689B1A1D2BF7D9A4E7FCED00E061
:100A8000CC620000001000E0041000E038B54378AC
:100A90006BB10446B0F9060000280D4609DBC0B270
:100AA000002101F01DFA6378E5801BB938BDC180D3
:100AB00038BDE180EDB22846012101F011FA284647
:100AC0000021BDE8384001F005BA00BF70B500252F
:100AD00004460E46457019460572C56045611546C7
:100AE000FFF708FF31462046FFF7EAFE2046294679
:100AF000FFF7CCFF204670BD70B44E1C047AF6B2EE
:100B0000A64213D0013C14F0FF04C56810D18388BD
:100B10002A4653B1137804FB03F31B1202F8013B7E
:100B2000531B81889BB29942F4D8067270BC7047FF
:100B3000FF2905D03302013B93FBF4F4A4B2E6E7AE
:100B40004FF6FF7393FBF4F4E1E700BF704700BF7B
:100B500010B504460E2000F0FDFD20600F2000F0CF
:100B6000F9FD6060102000F0F5FDA06010BD00BF31
:100B700030B58DB008AB0E223B21682003F00CFF8E
:100B80009DF828409DF821309DF82A509DF82B2093
:100B90009DF82C009DF82D109FED147A9FED141AEE
:100BA00043EA042342EA05225B4241EA00211BB2E8
:100BB000524212B200EE103A0BB200EE902A07EE4B
:100BC000903AF8EEE00AB8EEC00AF8EEE77A60EE86
:100BD000870A20EE070A67EE877A60EE810A20EE28
:100BE000010A27EE811A0DB030BD00BF00007A4423
:100BF0000000003810B586B00446FFF7B9FF8DED50
:100C0000030ACDED040A8DED051A01F06FF9A36812
:100C10009DED057ADFED274AD4ED045A94ED055A8F
:100C20009DED046A244A94ED000A1168D4ED016A2E
:100C30000191C31A07EE903AF8EEE77A77EE655A1B
:100C400087EEA47A019BE168A0605B1A642B36EE04
:100C5000456AF1EE477AA7EEA50AE7EE866A84EDCB
:100C6000000AC4ED016A11D9F0EE667A94ED077AB4
:100C7000D4ED066A1368029330EE260A77EE277ADF
:100C8000029BE36084ED000AC4ED017ADFED0B0AFC
:100C900003F0FEFADFED090A84ED000A94ED010A83
:100CA00003F0F6FA0A2084ED010A01F041F906B0DA
:100CB00010BD00BF002474498812FF1F0000B44318
:100CC00030B52DED028B044685B014252046FFF784
:100CD0004FFF94ED047AD4ED057ACDED020A37EE9C
:100CE000017A77EEA00A84ED047AC4ED050A322079
:100CF0008DED010A8DED031A01F01AF96B1E13F048
:100D0000FF05E3D194ED056A94ED047AF3EE047ADD
:100D1000C7EE276A204686EE277AC4ED046A84ED82
:100D2000057AFFF767FF6420D4ED008A94ED018A0D
:100D300001F0FEF82046FFF75DFF0A4B94ED007AC4
:100D40001B68D4ED017A019337EE687A77EEC87AA2
:100D5000019B84ED067AC4ED077AE36005B0BDEC33
:100D6000028B30BD8812FF1F10B50446144803F0F3
:100D700011FB06221D21682003F048FE06221A21DD
:100D8000682003F043FE10221B21682003F03EFE82
:100D900000221C21682003F039FE0222372168203E
:100DA00003F034FE16220A210C2003F02FFE01F07E
:100DB0009DF8A0602046BDE81040FFF781BF00BF4E
:100DC0003008FF1F08B546F2A81001F0FDFA43F203
:100DD000D40001F04FFC43F2D40001F061FD43F276
:100DE000D400BDE8084001F093BE00BF30F81110F8
:100DF00030F81230C818C0F34F00704738B50546B8
:100E000001F056FB07281DDD01F062FB0446E4B249
:100E100001F092FB5A2CF3D1C0B25A28F0D101F064
:100E200057FB01F055FB01F053FB01F051FB044669
:100E300001F04EFBC0B240EA0420288001F038FBEC
:100E40000728E1DC01F064FC07281DDD01F070FCDF
:100E50000446E4B201F0A0FC5A2CF3D1C0B25A28E7
:100E6000F0D101F065FC01F063FC01F061FC01F0E0
:100E70005FFC044601F05CFCC0B240EA04206880DC
:100E800001F046FC0728E1DC01F07AFD07281DDDB2
:100E900001F086FD0446E4B201F0B6FD5A2CF3D110
:100EA000C0B25A28F0D101F07BFD01F079FD01F0CC
:100EB00077FD01F075FD044601F072FDC0B240EA15
:100EC0000420A88001F05CFD0728E1DC01F06EFE43
:100ED00007281DDD01F07AFE0446E4B201F0AAFE07
:100EE0005A2CF3D1C0B25A28F0D101F06FFE01F0B4
:100EF0006DFE01F06BFE01F069FE044601F066FE36
:100F0000C0B240EA0420E88001F050FE0728E1DC8E
:100F100038BD00BF08B50121152000F0E1FF012117
:100F2000182000F0DDFF0121192000F0D9FF012178
:100F3000142000F0D5FF01211B2000F0D1FF01217A
:100F40001A20BDE8084000F0CBBF00BF9BB2C91A11
:100F500009B21A44FE2970B514B22CDC11F1FF0F4E
:100F600059DA6FF0FE063146FE2C28DC14F1FF0F33
:100F700053DA6FF0FE052C46002924DD01211820EC
:100F800000F0A8FF0021192000F0A4FF3146152031
:100F900000F01CFE002C1DDC15BB01211B2000F005
:100FA00099FF01211A2000F095FF29461420BDE881
:100FB000704000F00BBEFF26FE2C3146D6DDFF252B
:100FC00000292C46DADCCEB90121182000F082FF7E
:100FD0000121D8E701211B2000F07CFF0021E1E77F
:100FE00000211B2000F076FF01211A2000F072FF83
:100FF00069421420BDE8704000F0E8BD00211820CF
:1010000000F068FF0121192000F064FF71421520F3
:1010100000F0DCFDBEE70E46A6E72546ACE700BFC4
:1010200010B580ED000B80ED021B80ED042B80EDF0
:10103000083B044600F05AFFA061204610BD00BFE7
:101040002DE9F04F53EC102B85B0044651EC110BF9
:101050005BEC12AB03F0A2FE9FED731B41EC100B97
:1010600003F0EEFC59EC108B0022002310EE100A66
:10107000494604F0B7FA002840F0C58000226C4BC6
:101080004046494604F0AEFA00284BD0464609F1E6
:10109000004700F02BFFA3699FED667AC31A07EEA5
:1010A000903AF8EE677A0546C7EE876A16EE900A20
:1010B00003F0D2FFA56102460B46804689463046C2
:1010C000394604F01DF8D4E90A2303F067FE002234
:1010D000CDE90201C4E90A0100235046594604F053
:1010E00077FA40BB32463B463046394603F054FE61
:1010F00052460BF10043CDE9000104F073FA0028D9
:1011000069D0DDE9000152465B4603F047FECDE9B8
:10111000000142464B46DDE9000104F01BF9804620
:10112000894614E042464B460020434903F034FE12
:1011300006460F46ADE7D4E90C233046394603F0A6
:101140002BFE42464B4604F005F980468946C4E929
:101150000C67D4E900233046394603F0D1FFD4E9C7
:10116000022306460F46DDE9020103F0C9FF0246ED
:101170000B463046394603F011FED4E904230646F7
:101180000F464046494603F0BBFF02460B46304639
:10119000394603F001FED4E9084506460F46002211
:1011A00000232046294604F013FA78B905F10049D6
:1011B00022464B463046394604F014FAE0B922463E
:1011C0002B463046394604F02BFA28BB47EC106B0F
:1011D00005B0BDE8F08FDDE900235046594604F024
:1011E00001FA002895D0DDE9000152465B4603F084
:1011F000D3FDCDE900018CE726464F4647EC106B46
:1012000005B0BDE8F08F4046494600220A4B03F086
:10121000C5FD8046894631E726462F4647EC106BD0
:1012200005B0BDE8F08F00BF0000000000807640F0
:1012300000806640002474490080764070B5594CA7
:10124000B423012606210546204684F83B3084F865
:101250005E6084F85D6003F089F80021204603F0A9
:10126000F1F93346204603225A2103F075FA94F827
:10127000383094F83900834276D29A19D2B2E11804
:10128000904284F83820097E71D92244DFED466A05
:10129000127EDFED467A41EA022107EE101A9A1C0F
:1012A000D2B2B8EEC77A8242E7EE267A84F83820C6
:1012B00002D2033384F8383095ED057A3C4CC5ED05
:1012C000017AB4EEE77AF1EE10FA4CBF0123002365
:1012D0002B700126B4230621204684F83B3084F885
:1012E0005E6084F85D6003F041F80021204603F061
:1012F000A9F93346204603225A2103F02DFA94F827
:10130000383094F8390083422BD29A19D2B2E118BE
:10131000904284F83820097E36D92244DFED226AD3
:10132000127EDFED227A41EA022107EE101A9A1CA2
:10133000D2B2B8EEC77A8242E7EE267A84F8382035
:1013400002D2033384F8383095ED067AC5ED027A7F
:10135000B4EEE77AF1EE10FA4CBF012300236B7074
:1013600070BDDFED147AEFE7DFED127AA4E741F408
:101370007F4107EE901ADFED0C6AB8EEE77ADFEDF9
:101380000B7AE7EE267A97E741F47F4107EE901A51
:10139000DFED056AB8EEE77ADFED047AE7EE267A4C
:1013A000D2E700BF9C08FF1F0AD7A33C339388C332
:1013B000C407FF1F99B1814438B50446052520466E
:1013C000FFF73CFF94ED057AD4ED067A94ED016ABF
:1013D000D4ED026A37EE067A77EEA67A84ED057AC6
:1013E000C4ED067A322000F0A3FD6B1E13F0FF055A
:1013F000E5D1D4ED057A94ED066AF1EE046A87EE44
:10140000A67AC6EE267AF2EE046A37EE267A77EEF0
:10141000A67A84ED057AC4ED067A38BD10B5044687
:10142000054802F0B7FF054802F0B4FF2046BDE8CA
:101430001040FFF7C1BF00BF9C08FF1FC407FF1F7C
:101440000160704710B40C4A83B01368009390E8B1
:101450001200009B1B1B8B4208D913680193019B50
:101460004360012003B05DF8044B7047002003B0D7
:101470005DF8044B704700BF8812FF1F00207047C3
:1014800000B5064A036812885B6883B001A9ADF80D
:1014900004200222984703B05DF804FB806200003C
:1014A000F0B507468BB0002A33D0012A08BF0A22C4
:1014B00051B3212400E0F4B2B1FBF2F502FB1511A7
:1014C000C8B2092900F1300198BFC8B20AA988BF83
:1014D0003730214488BFC0B201F8240C661E29466B
:1014E000002DE8D133B1013CE4B20AAB23442D22F4
:1014F00003F8242C3B6801AA11195B683846C4F133
:10150000220298470BB0F0BD30228DF8252021240F
:10151000E8E70368C9B21B6898470BB0F0BD00BF8D
:101520000029BABF49422D2300230A22FFF7B8BF82
:10153000374A384913681B06FCD40B6813F0800344
:10154000F8D172B634490A78002A5FD0334A344859
:10155000F0B4344C176806682568D4680C303E44F3
:10156000143200681268304F35442C442044024441
:10157000C2F34E022D4E2E482E4D2F4C42F4004207
:101580003A60376806682D682C4A24680C303E445F
:10159000006812682A4F35442C4420440244C2F3A8
:1015A0004E02284E2848294D294C42F400423A6008
:1015B000376806682D68274A24680C303E44006866
:1015C0001268254F35442C4420440244C2F34E0295
:1015D000224E2348234D244C42F400423A6037689F
:1015E00006682D68214A24680C303E440068126861
:1015F00035442C4420440244C2F34E021C4842F4B9
:10160000004202600B7062B6F0BC704762B6704771
:1016100024B0034024B00B408312FF1F38B00340B6
:101620003CB0034040B003402CB0034058B00340EE
:101630005CB0034060B0034064B003406CB0034052
:1016400030B0034038B00B403CB00B4040B00B40D2
:1016500044B00B404CB00B402CB00B4058B00B408A
:101660005CB00B4060B00B4064B00B406CB00B4002
:1016700030B00B4030B42948294A2A4B2A4D602407
:10168000E121047011701B78284C082B30D00A2BF4
:101690002748284937D00C2B0CBF35225D22122356
:1016A0002A60236002600B60234B24491B78244A84
:1016B000BBB101230B601360224B23491B78234AE3
:1016C000012B26D9042B0FD9082B1ED9102B94BF20
:1016D000862387230B6013601D4B01221A7030BCD8
:1016E00070470B601360E7E784230B601360F3E738
:1016F00000F58E200F490830212213232A60236031
:1017000002600B60D0E73922F7E785230B60136096
:10171000E2E780230B601360DEE700BF0040074074
:1017200001400740FD06FF1F08B003400CB0034016
:1017300008B00B400CB00B408612FF1F20B00340D6
:1017400020B00B40FE06FF1F24B0034024B00B4026
:101750008312FF1F47282FD8334B2DE9F0411E5C21
:10176000FF2E2BD0314B1B78002B2AD132062CD4E4
:1017700072B62F4D2F4C2F46012326602B7062B678
:1017800072B623681B060CD43B781BB9F4E72B78A0
:10179000002BF1D062B602F053FB72B62368180634
:1017A000F5D5254B1B6800222A7062B6234A1078B3
:1017B00043FA00F0BDE8F081002070470020BDE84A
:1017C000F081FFF7B5FE3206D2D572B61C4DDFF8B8
:1017D0007C801C4C06F04007FFB206F03F06D8F8AC
:1017E0000030DFB123F01003C8F800300123266079
:1017F000134A2B7062B672B6236819060CD413789C
:101800001BB9ECE72B78002BE9D062B602F018FB8D
:1018100072B623681B06F5D50B4BC3E743F01003E4
:10182000C8F80030E2E700BF846200008312FF1FA7
:101830008512FF1F00B0034010B003408212FF1F4B
:101840008412FF1F00B00B4010B00B400CB00B40D7
:101850000A4A0B49136843F4805313600B7843B969
:10186000084BC0221A70084B80F30C0000B218809D
:101870007047044B80221A70F5E700BF2C800440AB
:101880008612FF1F21C00C4000C00C400A4A0B49C1
:10189000136843F4005313600B7843B9084BC0221C
:1018A0001A70084B80F30C0000B218807047044B8C
:1018B00080221A70F5E700BF2C8004408612FF1FBB
:1018C00021D00C4000D00C4008B5FEF701FFFEF718
:1018D00033FF02F0B5FAFAE7844641EA000313F059
:1018E00003036DD1403A41D351F8043B40F8043B27
:1018F00051F8043B40F8043B51F8043B40F8043BEA
:1019000051F8043B40F8043B51F8043B40F8043BD9
:1019100051F8043B40F8043B51F8043B40F8043BC9
:1019200051F8043B40F8043B51F8043B40F8043BB9
:1019300051F8043B40F8043B51F8043B40F8043BA9
:1019400051F8043B40F8043B51F8043B40F8043B99
:1019500051F8043B40F8043B51F8043B40F8043B89
:1019600051F8043B40F8043B403ABDD2303211D329
:1019700051F8043B40F8043B51F8043B40F8043B69
:1019800051F8043B40F8043B51F8043B40F8043B59
:10199000103AEDD20C3205D351F8043B40F8043B29
:1019A000043AF9D2043208D0D2071CBF11F8013B27
:1019B00000F8013B01D30B8803806046704700BFED
:1019C000082A13D38B078DD010F003038AD0C3F1FC
:1019D0000403D21ADB071CBF11F8013B00F8013BDE
:1019E00080D331F8023B20F8023B7BE7043AD9D39D
:1019F000013A11F8013B00F8013BF9D20B78037072
:101A00004B7843708B7883706046704708B5104CF4
:101A100008E0236859050DD423681A050FD42368FC
:101A2000DB0411D423685803F3D501F061FA23686D
:101A30005905F1D500F042FC23681A05EFD500F0F6
:101A400093FD2368DB04EDD500F0BEFEEAE700BF9E
:101A50003480044008B5FFF7D9FF00BF014B1022C6
:101A60001A80704700200540704700BF094908B53B
:101A70000B6830B16A461844A2F50052904202D277
:101A80000860184608BD03F0A1FE0C2303604FF068
:101A9000FF3008BD0007FF1FF0B44D1E2E46002486
:101AA00000E00134B0FBF2F302FB1300092800F15F
:101AB00030078ABF3730F8B2C0B206F8010F1846B7
:101AC000002BEED10A1953704CB1107815F8016F44
:101AD00028700133E01A834202F80169F5DB0846F9
:101AE000F0BC704710B4114B53F8302092F880428C
:101AF00034B1012379B182F880305DF8044B70472E
:101B000003EBC0035B681A6851B922F002021A6045
:101B10005DF8044B704782F800315DF8044B704764
:101B200042F003021A605DF8044B7047CC6200007B
:101B30001C4A02EBC00301295B6811D004291BD0A9
:101B400052F83000002280F8802229B1022920D0EA
:101B5000032922D01A6070474FF480721A607047D0
:101B600052F830004FF4A27280F880121A601A689E
:101B700022F020021A60704752F830104FF4A2721F
:101B8000012081F880021A601A6842F020021A606F
:101B9000704740F203121A6070474FF481721A6066
:101BA000704700BFCC62000030B4054B054D064CB9
:101BB000002210211A602A602060196030BC704732
:101BC00014D0034004D0034000D0034038B5A0F146
:101BD0004203012B04461FD9002975DD904B1B7869
:101BE000012505FA03F28A4202D83F2827D938BDD9
:101BF000C21E012A2BD9A0F11D02012A73D90E2879
:101C000056D9A4F12302032A57D9864A126802FB47
:101C1000011222FA03F320E0814B1B780B2B0AD927
:101C20000C2B1CBF0C3B1941422C084657D0BDE879
:101C30003840FFF72BBEC3F10C039940F4E7294667
:101C4000FFF750FF2946BDE83840FFF771BF764ADD
:101C5000126802FB011222FA03F3A21E242A00F2E8
:101C6000D580DFE812F0CC00C500BE00B700B000A0
:101C7000A900A2009B009400D300D300D3008D00E4
:101C8000D300D300D300D300D30086007F007800B8
:101C90007100D300D300D300D300D3006A006300E7
:101CA000D300D300D300D3005C0055004E004700A2
:101CB00044F28412C240D207A3D55C4A126802FBE8
:101CC000011222FA03F3C8E73F2890D80021FFF75A
:101CD00009FF20460121BDE83840FFF729BFBDE8D4
:101CE0003840FFF7B5BD524A126802FB011222FAD2
:101CF00003F3B2E74F49504A0B604FF4517313603E
:101D000038BD4E494E4A0B604FF45173136038BDD5
:101D10004C494D4A0B604FF45173136038BD4B4929
:101D20004B4A0B604FF45173136038BD49494A4A1E
:101D30000B604FF45173136038BD4849484A0B603B
:101D40004FF45173136038BD4649474A0B6040F267
:101D50004443136038BD4549454A0B6040F2444353
:101D6000136038BD4349444A0B6040F2444313605A
:101D700038BD4249424A0B6040F24443136038BDCB
:101D80004049414A0B6040F24443136038BD3F492B
:101D90003F4A0B6040F24443136038BD3D493E4A20
:101DA0000B6040F24443136038BD3C493C4A0B6031
:101DB00040F24443136038BD3A493B4A0B6040F25D
:101DC0004443136038BD3949394A0B6040F24443FB
:101DD000136038BD3749384A0B6040F24443136002
:101DE00038BD3649364A0B604FF45173136038BD25
:101DF0003449354A0B604FF45173136038BD334991
:101E0000334A0B6040F24443136038BD3F2C3FF629
:101E1000EEAE7F29D4BF00210121204657E700BF45
:101E20000407FF1F088003400890034008900B4000
:101E300008800B4048900B402CB0044040900B4071
:101E400028B0044038900B4024B0044030900B4040
:101E500020B0044018800B404CA0044010800B4080
:101E600048A004401880034008B00440108003409C
:101E700004B004404080034018C004403880034050
:101E800014C0044018900B4004C004402880034054
:101E900010B00440208003400CB0044028900B4058
:101EA0000CC0044020900B4008C004403080034028
:101EB00010C00440488003401CC0044018900340F8
:101EC00034900440109003403090044010900B4038
:101ED00000C004403F2801D8FFF704BE704700BF90
:101EE0003F2801D8FFF724BE704700BF72B60C49E7
:101EF0000C4B0D4A1B680868126862B6520102D585
:101F0000322B88BF01300949C3F5EA334FF47A72A6
:101F1000BF33A1FB031302FB00F000EB93107047EB
:101F20008812FF1F18E000E004ED00E0898888882F
:101F30002DE9F843054672B6204F214B214A1B6814
:101F40003C68126862B6520102D5322B88BF013458
:101F500095B3C3F5EA331C4EDFF86490DFF8648074
:101F6000BF334FF47A72A6FB031302FB04F404EBB5
:101F7000931472B6D9F800103A68D8F800E062B647
:101F8000C1F5EA33BF33A6FB03031EF0806FC4EB39
:101F900093134FF47A7002D0322988BF013200FBCC
:101FA0000233B3F57A7F04D3013D05D004F57A748A
:101FB000DFE701F045FFDCE7BDE8F8838812FF1F8B
:101FC00018E000E004ED00E089888888F8B53E4B11
:101FD0003E49DFF818C13E4E3E4ADFF814E13E4D5F
:101FE0003E4C3F4F4FF0006018604FF0805018603B
:101FF0004FF0005018604FF0804018604FF00040E4
:1020000018600020086028234EF6FF71CCF80010FD
:10201000CEF8003033600EF5012E13602B60236084
:1020200005F500253B6004F50024B36207F50027A1
:10203000936206F5012602F501220EF1100E05F657
:10204000E87504F6E87407F57F67103220362B60D8
:102050002360CEF800303B6013603360214EBB61DB
:10206000936109223260A7F5002706F58056203FCC
:10207000083638603160BB60F36047F8042C06F521
:10208000FD2607F5FE2706F2FC760437306039603E
:10209000B360FB6046F8042C0836C7F8FC0F06F660
:1020A000FC76114831602B6023600260FFF7E2FA92
:1020B0001920FFF73DFF01F083FC40F21310BDE84B
:1020C000F840FFF735BF00BF04E100E004800340A3
:1020D000148003401C800340248003402C80034074
:1020E000348003400080034000900B400880034090
:1020F0000C800340324A33491368F0B543F48063DF
:1021000013600A78304F314E314D324C3249002342
:10211000152A3B7033702B7023700B7045D01B2A2F
:102120003ED082B32D4B1B78052B34D01A2B41D0D7
:10213000012B1BD01F281FD8002002460125284B49
:10214000284C1A7028495D7004224FF0020E88272F
:102150003C26402598729A704FF0004083F813E0B7
:102160005A751F74DE7025700860F0BD1F4B4FF468
:1021700051721F281A60DFD9C0F34432C0F34715EB
:1021800000F01F00DBE71A4B40F213321A60134BCA
:102190001B78052BCAD1174B4FF451721A60C9E74F
:1021A000154B40F213321A60BCE7144B40F2133265
:1021B0001A60B7E7124B4FF451721A60BAE700BFCA
:1021C00034800440D412FF1F9012FF1F9112FF1F92
:1021D0002013FF1F1913FF1F1813FF1F0507FF1FF1
:1021E00000A006401FE400E000E100E044A004403D
:1021F00040A004401CC004403C90044018C004406F
:1022000038900440054A064B10781B78C0B2DBB208
:10221000984238BF4030C01A704700BF9012FF1F6D
:102220009112FF1F30B4154B154C1A782378D2B297
:10223000DBB29A421ED001333F2B0ED91149124B0B
:10224000087819680023C0B2237021B1D31A1A2B61
:1022500001DC00230B7030BC70470A480A49C05C9F
:102260000968DDB2C0B225700029F4D09A4238BFA7
:102270004032EBE74FF0FF30EDE700BF9012FF1F59
:102280009112FF1FD812FF1F8C12FF1F084A094B23
:1022900012781B78DBB29A4207D00133402B28BF5B
:1022A0000023054AD05CC0B270474FF0FF30704742
:1022B0009012FF1F9112FF1FD812FF1FF0B4384B6E
:1022C0001A7912F0300F2CD072B6997D01F0FF020E
:1022D00000293DD062B6334F334938780D78334EFC
:1022E0001C46C0B2EDB2431C402BE17928BF00234D
:1022F000AB4202F1FF32C9B21CBFF154184612F0D2
:10230000FF02F0D12A4B1B68C2B23A704BB1A8420F
:1023100036BFC5F14005401B40192728C4BF012224
:102320001A701F49CA78D2B2150616D452060DD5B6
:102330001B4B1B795B0609D51E4B1F491B680022EE
:102340000A7003B11A70164B3C22DA70F0BC704769
:102350004022D9795A7462B6E3E70B791C06E5D5B9
:10236000164B174E1C783378E4B2DBB29C420ED089
:10237000144D01E0A3420AD00133402B28BF0023B3
:102380000879E85CC0B2C871087D0728F2D9DBB2D1
:10239000034933700B79180644BF7C23CB70C5E723
:1023A00000A006409012FF1F9112FF1FD812FF1FBE
:1023B0008C12FF1F1C13FF1F1813FF1F2013FF1F7A
:1023C0001913FF1F9412FF1F2A4A2B491368F0B4F8
:1023D00043F4006313600A78284F294E294D2A4C94
:1023E0002A490023092A3B7033702B7023700B702D
:1023F0003AD03B2A1ED0264B1B780A2B22D03A2BF0
:102400002DD01F2824D8002002460126214B224D22
:102410001A70224C5E7004219872022288273C2692
:1024200040209970DA7459751F74DE70287022602C
:10243000F0BC70471A4B40F213321A60144B1B78F1
:102440000A2BDCD1174B4FF451721F281A60DAD9CE
:10245000C0F34432C0F3471600F01F00D6E7124B1A
:102460004FF451721A60CCE7104B40F213321A60ED
:10247000C1E700BF348004400607FF1F9413FF1F0D
:102480002913FF1F9C13FF1F9513FF1F2813FF1F06
:102490000707FF1F00B0064021E400E004E100E070
:1024A00004D0044010B0044000D004400CB00440FC
:1024B000054A064B10781B78C0B2DBB2984238BF91
:1024C0004030C01A704700BF9413FF1F2913FF1F2D
:1024D00030B4154B154C1A782378D2B2DBB29A423D
:1024E0001ED001333F2B0ED91149124B08781968C1
:1024F0000023C0B2237021B1D31A1A2B01DC0023B0
:102500000B7030BC70470A480A49C05C0968DDB2EC
:10251000C0B225700029F4D09A4238BF4032EBE7B0
:102520004FF0FF30EDE700BF9413FF1F2913FF1F8B
:102530005413FF1F2413FF1F084A094B12781B78FE
:10254000DBB29A4207D00133402B28BF0023054A53
:10255000D05CC0B270474FF0FF3070479413FF1F3C
:102560002913FF1F5413FF1FF0B4384B1A7912F0D0
:10257000300F2CD072B6997D01F0FF0200293DD0BA
:1025800062B6334F334938780D78334E1C46C0B2AB
:10259000EDB2431C402BE17928BF0023AB4202F18E
:1025A000FF32C9B21CBFF154184612F0FF02F0D13D
:1025B0002A4B1B68C2B23A704BB1A84236BFC5F174
:1025C0004005401B40192728C4BF01221A701F492B
:1025D000CA78D2B2150616D452060DD51B4B1B79FC
:1025E0005B0609D51E4B1F491B6800220A7003B108
:1025F0001A70164B3C22DA70F0BC70474022D97931
:102600005A7462B6E3E70B791C06E5D5164B174EF4
:102610001C783378E4B2DBB29C420ED0144D01E05A
:10262000A3420AD00133282B28BF00230879E85C95
:10263000C0B2C871087D0728F2D9DBB203493370F4
:102640000B79180644BF7C23CB70C5E700B0064069
:102650009413FF1F2913FF1F5413FF1F2413FF1F81
:102660009813FF1F2813FF1F9C13FF1F9513FF1FB5
:102670002C13FF1F1B4BDFF890C01A681A49F0B5E6
:1026800042F48052194D1A60DFF880E0184F194E5D
:10269000194C00238CF800304FF451722B701F2816
:1026A00040F213358EF800303B70337025600A60BD
:1026B00011D819460124114A114D11701148547056
:1026C00000212C2740269372082491701174D77032
:1026D0002E700460F0BDC0F34431C0F3471400F025
:1026E0001F03E8E7348004400CC00440A513FF1F1B
:1026F0001114FF1F1014FF1F08C0044000C0064043
:1027000023E400E004E100E0A413FF1F1814FF1FFE
:10271000054A064B10781B78C0B2DBB2984238BF2E
:102720004030C01A704700BFA413FF1FA513FF1F3E
:1027300030B4154B154C1A782378D2B2DBB29A42DA
:102740001ED001333F2B0ED91149124B087819685E
:102750000023C0B2237021B1D31A1A2B01DC00234D
:102760000B7030BC70470A480A49C05C0968DDB28A
:10277000C0B225700029F4D09A4238BF4032EBE74E
:102780004FF0FF30EDE700BFA413FF1FA513FF1F9D
:10279000D013FF1FA013FF1F084A094B12781B78A4
:1027A000DBB29A4207D00133402B28BF0023054AF1
:1027B000D05CC0B270474FF0FF307047A413FF1FCA
:1027C000A513FF1FD013FF1F30B42B4B1A799406AB
:1027D0001FD52A48DA790378294901333F2B097834
:1027E000C8BF00238B42D2B203D0264CD9B2E254E8
:1027F0000170254A116861B1244A1278D2B293421D
:1028000036BFC2F140029B1A9B18272BC4BF01237D
:102810000B70194AD378DBB2180611D45A060DD5BD
:10282000154B1B795B0609D5194B1A491B68002209
:102830000A7003B11A70104B2C22DA7030BC70474A
:1028400011790906EAD5144910480C780178C9B203
:102850008C420DD04A1C272A84BF00210A460F4D06
:10286000054C98BFD1B2AA5CD2B2E2710170D5E733
:102870006C21D170D2E700BF00C00640A413FF1F37
:10288000A513FF1FD013FF1FA013FF1F1114FF1F5D
:102890001414FF1F1014FF1F1814FF1FA813FF1F8D
:1028A000284A29491368F0B443F4005313600A78A6
:1028B000264F274E274D284C284900231F2A3B70BE
:1028C00033702B7023700B7037D03F2A1BD0244BF2
:1028D0001B78202B1FD03E2B2AD01F2821D8002068
:1028E000024601241F4B204D1A702C27002240263F
:1028F0001E495C70987220249A701A74DF702E70D2
:102900000C60F0BC70471A4B40F213321A60144B43
:102910001B78202BDFD1174B4FF451721F281A6000
:10292000DDD9C0F34432C0F3471400F01F00D9E7EB
:10293000114B4FF451721A60CFE7104B40F2133233
:102940001A60C4E7348004400807FF1F2014FF1FEB
:102950002114FF1F9414FF1F8D14FF1F8C14FF1FE1
:102960000907FF1F00D0064025E400E004E100E075
:1029700014D004402CA0044010D0044028A00440EF
:10298000054A064B10781B78C0B2DBB2984238BFBC
:102990004030C01A704700BF2014FF1F2114FF1FD2
:1029A00030B4154B154C1A782378D2B2DBB29A4268
:1029B0001ED001333F2B0ED91149124B08781968EC
:1029C0000023C0B2237021B1D31A1A2B01DC0023DB
:1029D0000B7030BC70470A480A49C05C0968DDB218
:1029E000C0B225700029F4D09A4238BF4032EBE7DC
:1029F0004FF0FF30EDE700BF2014FF1F2114FF1F31
:102A00004C14FF1F1C14FF1F084A094B12781B7837
:102A1000DBB29A4207D00133402B28BF0023054A7E
:102A2000D05CC0B270474FF0FF3070472014FF1FDA
:102A30002114FF1F4C14FF1F30B42B4B1A7994063E
:102A40001FD52A48DA790378294901333F2B0978C1
:102A5000C8BF00238B42D2B203D0264CD9B2E25475
:102A60000170254A116861B1244A1278D2B29342AA
:102A700036BFC2F140029B1A9B18272BC4BF01230B
:102A80000B70194AD378DBB2180611D45A060DD54B
:102A9000154B1B795B0609D5194B1A491B68002297
:102AA0000A7003B11A70104B2C22DA7030BC7047D8
:102AB00011790906EAD5144910480C780178C9B291
:102AC0008C420DD04A1C272A84BF00210A460F4D94
:102AD000054C98BFD1B2AA5CD2B2E2710170D5E7C1
:102AE0006C21D170D2E700BF00D006402014FF1F38
:102AF0002114FF1F4C14FF1F1C14FF1F8D14FF1FF8
:102B00009014FF1F8C14FF1F9414FF1F2414FF1F29
:102B10001B4BDFF890C01A681A49F0B542F4806286
:102B2000194D1A60DFF880E0184F194E194C002338
:102B30008CF800304FF451722B701F2840F213357F
:102B40008EF800303B70337025600A6011D819464A
:102B50000124114A114D11701148547000212C2785
:102B600040269372042491701174D7702E70046003
:102B7000F0BDC0F34431C0F3471400F01F03E8E791
:102B80002880044060D004409D14FF1F0915FF1FDA
:102B90000815FF1F64D0044000A00E4042E400E08E
:102BA00008E100E09C14FF1F1015FF1F054A064BAB
:102BB00010781B78C0B2DBB2984238BF4030C01AE0
:102BC000704700BF9C14FF1F9D14FF1F30B4154BAE
:102BD000154C1A782378D2B2DBB29A421ED0013358
:102BE0003F2B0ED91149124B087819680023C0B247
:102BF000237021B1D31A1A2B01DC00230B7030BCD7
:102C000070470A480A49C05C0968DDB2C0B2257045
:102C10000029F4D09A4238BF4032EBE74FF0FF3042
:102C2000EDE700BF9C14FF1F9D14FF1FC814FF1F7A
:102C30009814FF1F084A094B12781B78DBB29A429E
:102C400007D00133402B28BF0023054AD05CC0B217
:102C500070474FF0FF3070479C14FF1F9D14FF1FFB
:102C6000C814FF1F30B42B4B1A7994061FD52A487D
:102C7000DA790378294901333F2B0978C8BF00234B
:102C80008B42D2B203D0264CD9B2E2540170254A0D
:102C9000116861B1244A1278D2B2934236BFC2F1B0
:102CA00040029B1A9B18272BC4BF01230B70194AA3
:102CB000D378DBB2180611D45A060DD5154B1B7903
:102CC0005B0609D5194B1A491B6800220A7003B12B
:102CD0001A70104B2C22DA7030BC7047117909063B
:102CE000EAD5144910480C780178C9B28C420DD04D
:102CF0004A1C272A84BF00210A460F4D054C98BF65
:102D0000D1B2AA5CD2B2E2710170D5E76C21D17068
:102D1000D2E700BF00A00E409C14FF1F9D14FF1FB0
:102D2000C814FF1F9814FF1F0915FF1F0C15FF1F64
:102D30000815FF1F1015FF1FA014FF1F431E032BB4
:102D400014D872B60A4951F8230068B170B4094C1E
:102D5000058834F81320466841F82360521B24F894
:102D6000132062B670BC704762B67047002070478F
:102D70006C15FF1FDC16FF1F013803280BD872B635
:102D8000074B53F8203043B100205B680130002B23
:102D9000FBD162B67047002070471846F9E700BFC4
:102DA000C015FF1F30B472B62B4A13781D0706D525
:102DB0002A4B196A002936D0996A002941D05378E4
:102DC0001C0706D5254B196C00293ED0996C0029AB
:102DD00039D09378190705D5204B196E002936D0C4
:102DE000996E89B1D3781B0707D51C4BD3F8802087
:102DF0007AB3D3F8882011213AB162B6184B002279
:102E00001A7030BC00F08CBE0D21154C154D227887
:102E100043F8315003EBC1030830013A5860227087
:102E200062B630BC704704220D4C0F4D217843F838
:102E3000325003EBC20308304A1E5860227062B65B
:102E4000EFE70521E1E70921DFE70822ECE70C22A3
:102E5000EAE71022E8E700BFF46400000000FF1F6B
:102E6000E915FF1FC800400088004000431E032BE7
:102E70001DD81B4A400140F0100030B4104472B617
:102E8000184CE25C032A1BD8DFE802F00212151787
:102E900003220D88E25410F0080F14BFC8238823C2
:102EA00043EA054308310360416062B630BC7047B5
:102EB00008300222EDE70522EBE708300422E8E7BC
:102EC000094A52F8230038B1084A52F823004160F9
:102ED00042F8231062B6E9E742F82310034AF7E705
:102EE0000000FF1FF815FF1FC015FF1FD015FF1FA3
:102EF0002DE9F04FDFF80CB3DFF80CA387B044E006
:102F0000AB4F4FEA930807EBC809013ED9F80420FC
:102F100003F00803F6B2A2F1080003F0FF04002B4F
:102F200040F0028157F838301B0C99B222F8081C87
:102F3000002B00F0F0809F4B22F8064C42F8044C26
:102F400053F82620002A00F0C5829B4D55F8263004
:102F500058609A4C45F8260034F81630194424F885
:102F6000161000F0BDFD002800F0AD82944A954B8C
:102F700019F0080F00F1080018BF1346C9F8040043
:102F800047F8383008238BF800309BF80040E4B253
:102F900061071AD58C4B1B78A3B18C490A7802F0D3
:102FA000FF0322B1013BDBB20B7003B900BE8849BD
:102FB0000A7802F0FF032AB1013BDBB20B70002B51
:102FC00000F0578204238BF8003004F0080303F06C
:102FD000FF02002B00F0CC809AF80030DBB21E0913
:102FE0008ED19C08DFF8C89159F8342009EBC40150
:102FF000C2F38302013A49680C2A00F28880DFE8B4
:1030000002F07C7C868686868686478686860700D2
:103010000868704D4A68704F704E286081B240F267
:103020008160674B6A604FF0010E0022814249F8CF
:1030300034303A60C9F81020C9F8182086F800E04A
:103040005B4C00F2E380B1F5D06F80F04683B1F5C0
:10305000817F00F0FC8200F28D82802900F077836E
:10306000822940F0FA82A98801F07F01042900F248
:10307000F4825B485B4C89000844227062700278DD
:10308000930740F1588484F800E04FF0020E42E3C9
:10309000514F3A6832B3544B504E544918883478E3
:1030A0000D784028864645F0020828BF4FF0400EB4
:1030B000002C84F001043470CEEB00000CBF882497
:1030C000C82409EBC80680B285F0010544EA0E4425
:1030D0007260188049F8384072440D70002800F082
:1030E00045813A603B4B1A88B2F5A06F0FD10021A1
:1030F0009A7859703E4B1A7009E0364A108842F2AD
:103100002102904200F037812D4A49F83420394A93
:103110000123137036E72A4A2A4B19F0080F18BF0B
:10312000134647F838302DE700F0FAFC324A3349AD
:1031300052F82630002B00F0D18158688C5D42F89F
:10314000260003F10802C9F80420032C05D8DFE8A3
:1031500004F02C02292602228A551A8819F0080F39
:103160000CBF8823C82343EA024347F8383009E7F5
:10317000E00700F18181210600F1F281A20706D566
:103180001F4A204913780220DBB213700870E3064F
:1031900002D51C4B10221A7007B0BDE8F08F042234
:1031A0008A55DAE705228A55D7E703228A55D4E7FC
:1031B0000000FF1F6C15FF1F1815FF1FDC16FF1FF7
:1031C000C800400088004000F415FF1F7D15FF1F58
:1031D000FC15FF1FE015FF1F1415FF1F7C15FF1FB7
:1031E000C0200740EC15FF1F2815FF1FE815FF1F23
:1031F0009820074094200740C015FF1FF815FF1FB7
:1032000088200740802007409020074042F221009C
:10321000814200F02A8100F2D880B1F5086F00F0F9
:103220007682B1F5106F40F01882226AB349A8780F
:103230000870120600F13A83D9F82820B049130625
:1032400000F10C83D9F83020AD49150600F1018357
:10325000D9F83820AA49140600F1F682D9F840209E
:10326000A749100600F14A83D9F84820A44912065C
:1032700000F13F83D9F85020A149130600F13483AF
:10328000D9F858209E49150600F12983D9F8602005
:103290009B49140600F11E83D9F86820984910064E
:1032A00000F11383D9F870209549120600F10883C4
:1032B000D9F878209249130600F1FD82D9F88020D0
:1032C0008F49150600F13183D9F888208C491406FE
:1032D00000F12583D9F890208949100600F119835F
:1032E000D9F898208649120600F10D838548864A50
:1032F000864901908648874D874C049700230596A0
:10330000029580460F4616461D460394306828B144
:10331000446800F005FC2046002CF9D100233360FE
:10332000029B38681A46002342F8253028B14468C9
:1033300000F0F6FB2046002CF9D100223A60019AF9
:1033400098F800301146002241F8042B039A0191AD
:10335000023B4FF0000122F81510032B00F22B81E5
:10336000DFE813F07001250170012501BEF1400F67
:1033700018BF0022B5E6694A0D784878157050707C
:103380008D78C8789570D07010680D791571862881
:103390004D7989795571917100F09B816049614E39
:1033A0000A78307882F00105002842F002020D70A0
:1033B0000CBF8821C82149F8321009EBC20280F005
:1033C00001000021307051609EE642F221208142CE
:1033D00040F0CB81544B554C5549A8781D68256069
:1033E000CDF804E008700020029080468446044630
:1033F0004B490D7845F0020E09EBCE030393019B78
:10340000002B039B5C600CBF8824C82444EA08039B
:1034100085F0010449F83E3032700C70DFF8E0E0CE
:10342000404BDFF8FC80002840F01E81BCF1400FCB
:103430001BD144F0020C09EBCC03029CDFF8C0E086
:103440005C60002A40F02681020442F088029DF868
:1034500004304EF83C20044433700D70234640285D
:1034600003D10020334A3B601080334A012313709C
:103470004DE600F0C1FCA5E5214B2F4828491A6113
:103480004FF0020E80F800E02C4F0A702C491960B2
:1034900099602C4E2C4D2D4C9A610D213970FF21D5
:1034A0003170DFF8B8E029702270294D294A8EF872
:1034B00000109F27012406F8047C5D600470DA6028
:1034C00007B0BDE8F08F244A47F83800137801337D
:1034D000137057E543F826000E4D3AE58B5D032B3C
:1034E00000F2F08001A252F823F000BF852F000007
:1034F000852F0000A9350000A3350000F415FF1F3B
:103500000000FF1FD015FF1F6C15FF1FC015FF1F08
:10351000F815FF1F1815FF1FDC16FF1FE416FF1F0D
:10352000E815FF1F7C15FF1F8812FF1FEC16FF1FF9
:103530000C16FF1F2815FF1F94200740C0200740CE
:1035400088004000882007408020074098200740DE
:103550002C15FF1F8015FF1FE915FF1F8C2007404A
:10356000C149C24B80220D2008701A70A2077FF556
:103570000EAE05E640F20232914240F0EE80A9889C
:1035800001F07F01042968D86A88002A65D1B6480D
:10359000CDF804E089000844017841F0020101708F
:1035A00021E701238B55EDE400238B55EAE44FF02E
:1035B000010388F800300135042D06F1040607F1F7
:1035C000040708F101087FF4A1AEA94CA94B2278A9
:1035D000A94D049F059E002129701A70130700F160
:1035E00005816278A549DFF8A0820A7010074FF0C4
:1035F0000001C9F83010C9F8381000F1E080A04986
:10360000A2780A700021C9F85010C9F858101107A3
:10361000DFF8748200F10181E2789A499A4C0A70CD
:1036200000211207C9F87010C9F8781000F1B080B5
:1036300033780193002183F00102C9F89010C9F892
:103640009810D0E64FF0000388F80030B3E7A9885F
:1036500001F07F01042940F28D80834A0F2313700B
:103660008A4A0123137052E540287FF6E2AE44F007
:1036700002040EEBC401029E4E60BAB19DF8041024
:10368000834A19703346403888F8005040334EF86A
:103690003420E7E69DF8043033700204029B0D707D
:1036A00042F0C80203444EF83C20D8E69DF80410CE
:1036B0001970029B774A88F80050403840334EF822
:1036C0003420CFE619F0080F0CBF022303238B55DB
:1036D00058E4714A0F21117060E6704A5468002C5A
:1036E000BBD06888B5F804E003E00C325468002CC5
:1036F000B3D013888342F8D153887345F5D1000ABB
:1037000003280CBF94F800E0B2F808E003E0644A34
:10371000644C12782270E888704580F03F816249DD
:103720000D784028844645F0020E28BF4FF0400C2B
:1037300004EB0C0309EBCE02029301235460CCEBA3
:1037400000004FEA0C4800220193C8245EE6554C65
:103750004FF0020E22706270DDE7B1F5A06F7FF4CA
:103760007CAF0123002201933DE642F221329142D7
:10377000F7D072E76A88002A7FF46FAF3A48CDF835
:1037800004E089000844017821F0020101702AE672
:1037900000F0A6F9002800F0EF8008303D4AC4F898
:1037A0008400C4F8802000F09BF9002800F0DE803F
:1037B0000830374AC9F88C00C9F8882038E700F08B
:1037C0008FF9002800F0C0800830324AC8F8440061
:1037D000C8F8402000F084F9002800F0AF800830DD
:1037E0002B4AC9F84C00C9F8482008E700F078F9DE
:1037F000002800F0CD800830264AC9F82400C9F816
:10380000202000F06DF9002800F0BC800830204A2C
:10381000C9F82C00C9F82820E3E600F061F9002877
:1038200000F09E8008301B4AC8F86400C8F8602089
:1038300000F056F9002800F08D800830144AC9F8CD
:103840006C00C9F86820E7E6C86B083800F068F932
:1038500004E5486B083800F063F9F9E4C86A0838F1
:1038600000F05EF9EEE400BFC02007408020074072
:10387000F4640000C4200740E915FF1FC82007407A
:10388000CC200740D02007400000FF1F94200740B5
:10389000C8004000880040007D15FF1FF86400004C
:1038A000F415FF1FEC15FF1FE815FF1F606A0838AD
:1038B00000F036F9C0E4C86F083800F031F9FDE4D3
:1038C000486F083800F02CF9F2E4C86E083800F0B0
:1038D00027F9E7E4486E083800F022F9DCE4C86D07
:1038E000083800F01DF9D1E4486D083800F018F9E7
:1038F000C6E4C86C083800F013F9BBE4486C08381B
:1039000000F00EF9B0E4D1F89C00083800F008F996
:10391000ECE4D1F89400083800F002F9E0E4D1F8C2
:103920008C00083800F0FCF8D4E4D1F884000838A2
:1039300000F0F6F8C8E44FF0020EECE62A78C9F879
:10394000480001322A705AE62A78C8F8400001324D
:103950002A703FE72A78C9F8680001322A705BE6CE
:103960002A78C8F8600001322A7061E72A78C9F81D
:10397000880001322A705BE62A78C4F880000132A0
:103980002A7010E72A78C9F8280001322A7028E640
:103990002A78C9F8200001322A7032E7BEF1400FC0
:1039A000F44628BF4FF0400C04EB0C0302930123B4
:1039B000CCEB0E004FEA0C480022019318E500BF43
:1039C0002DE9F04100F020FC2F4C304B3048DFF85F
:1039D000D880304F304D314EDFF8D0C0DFF8D0E026
:1039E00000221A605A609A60DA601A615A619A611C
:1039F000DA611A625A629A62DA621A635A639A63E5
:103A0000DA631A645A649A64DA641A655A659A65C4
:103A1000DA651A665A669A66DA661A675A679A67A4
:103A2000DA67C3F880202168C3F8842041F480213C
:103A30002160016841F040710160C3F3072188F8FB
:103A4000001004F52834C3F307411B0E3970CC3441
:103A50002B7000F12040FF238CF80030104D8EF8C1
:103A6000003000F6041033700E49012308F8083CBA
:103A7000702622704FF40014102207F82C3C2E7090
:103A800004600A70BDE8F081348004400000FF1F2C
:103A900000D80040B0200740B42007401020074065
:103AA00035E400E0082107409C20074080200740C3
:103AB0008820074000F0A4B800F07CB800F056B8A9
:103AC00000F090B800F06CB900F046B90846114615
:103AD00000F0B2B8084600F033B900BF704700BF2D
:103AE00072B60D480268B2FA82F30B2B10DC4FF06D
:103AF0000041D94022EA0102026062B6074803EBA6
:103B0000C303DB00C2180021C1501046516070474A
:103B100062B60020704700BF1C07FF1F9803FF1FFD
:103B20000D4B0E4AC31AA2FB03231B090B2B0CD807
:103B30000B4A127852B972B60A484FF00041026837
:103B400021FA03F31A43026062B67047064A1278FC
:103B5000002AF0D0FFF726B99803FF1F398EE3380B
:103B6000E915FF1F1C07FF1FF415FF1F38B50F4D88
:103B7000286878B143880288C118013393420C7ACF
:103B800002D24380204638BDFFF7CAFF00232046FB
:103B90002B6038BD064B1B782BB10320FFF7CEF806
:103BA00028600028E6D14FF0FF3038BD0816FF1F0F
:103BB000F415FF1F10B5094C206818B1438818444C
:103BC000007A10BD064B1B782BB10320FFF7B6F827
:103BD00020600028F2D14FF0FF3010BD0816FF1F03
:103BE000F415FF1F044B054A1B6890881BB11A8807
:103BF0005B88D31A184470470816FF1FDC16FF1F96
:103C00000B4B1B789BB110B50A4C206848B1FFF7ED
:103C100087FF002303202360FFF790F830B1FFF700
:103C20007FFF0320FFF78AF80028F8D110BD704706
:103C3000F415FF1F0816FF1F2DE9F04FDFF8F8906D
:103C400083B0012289F80020019169B3DFF8EC808C
:103C5000364F019E8346D8F80000B0B3344D4488F7
:103C6000C4F14001B14228BF314604EB010E0022ED
:103C70001FFA8EFE2A70761AA0F802E000F1080200
:103C800051B1013C224459441BF8014B02F8014F49
:103C90008B45F9D1B0F802E0BEF13F0F0BD8254AB1
:103CA00005211170002ED6D10198002389F800302B
:103CB00003B0BDE8F08F4022028001460420FFF7E8
:103CC000D5F80022C8F80020E9E73A782AB3184D61
:103CD0004DF2E9044FF0010A07E0013C16D02A78C2
:103CE000A2B900F0ADF83A78BAB10420FFF744F871
:103CF0000728F2D889F800A0FFF7F2FEC8F8000004
:103D00000028ACD10C4B013C1870E8D101234FF0D6
:103D1000FF302B7003B0BDE8F08F00234FF0FF3071
:103D200089F8003003B0BDE8F08F00BFF415FF1F25
:103D30000416FF1FFC15FF1FFD15FF1F0016FF1FB8
:103D400000B583B002AB012103F8010D1846FFF75F
:103D500073FF03B05DF804FB38B50E4D0E4C2868B8
:103D60000123237028B1408800232370C0F1400054
:103D700038BD0A4B1B7813B90020207038BD0420D1
:103D8000FEF7FAFF0728F7D8FFF7AAFE28600028F9
:103D9000E9D1F1E70016FF1FFD15FF1FF415FF1F06
:103DA000F8B5114B1B788BB1104E114D34680127BB
:103DB0002F7064B10F4A6388002717702146238053
:103DC0000420FFF753F8376000232B70F8BDFFF78E
:103DD00087FE084B28B1014604201C70FFF746F807
:103DE000F2E71F70F0E700BFF415FF1F0016FF1F7A
:103DF000FD15FF1FFC15FF1F38B50E4B1B7873B95F
:103E00000D4C216861B103F0FF054B880B80042045
:103E1000FFF72CF8256038BD084B01221A7038BD19
:103E2000FFF75EFE0028F7D00146BDE838400420C9
:103E3000FFF71CB8FD15FF1F0016FF1FFC15FF1F25
:103E400038B52C4C237803B138BD01232370FFF71C
:103E5000C9FE002842D1FEF7D5F900283BD1FEF774
:103E600027FB002834D1FEF753FC70BBFEF788FD1A
:103E700040BBFEF79BFE10BB00F04AF9E0B90023FF
:103E80002370EFF30583002BDED1EFF3108172B6C0
:103E9000194B186828B3194C227812BB45691D606C
:103EA000012323700DB3AA6101B962B600254577DD
:103EB000836898472570C7E700F028F9DFE700F02E
:103EC00023F9D9E700F01EF9D3E700F019F9CDE79F
:103ED00000F014F9C7E700F00FF9C0E7FFF7FEFDA7
:103EE000B9E70029B0D162B638BD054B1D60002985
:103EF000DCD1DAE70D16FF1F2016FF1F2416FF1F67
:103F00001C16FF1F10B4EFF3108272B6437F33B953
:103F1000017F012908D0032910D00123437702B97A
:103F200062B65DF8044B7047114C2168A1B111498C
:103F300043610B68836108605861EEE70E4C2168AD
:103F400081B10E4943610B688361086058610C4B75
:103F50004FF080511960E0E7064B416181612060BC
:103F60001860DAE7054B4161816120601860EEE777
:103F70002016FF1F1C16FF1F1016FF1F1416FF1F11
:103F800004ED00E010B4047F4160022CC26003D055
:103F90005DF8044BFFF7B6BF83685DF8044B184724
:103FA00070B5EFF3108272B60C4C206880B10C4EE5
:103FB00000254369236073B19D6102B962B64577FC
:103FC00083689847EFF3108272B620680028F0D11A
:103FD00002B962B670BD3360EFE700BF1016FF1F75
:103FE0001416FF1FFFF7DCBF184A30B41468002C0A
:103FF00027D0036821688B420ED2CB1A002184603F
:10400000C1602360E06010600223037530BC70471C
:1040100011688B42144608D3A2685B1A0360002A19
:10402000F6D18260C460A060EEE7D268C2608460AE
:10403000E060C568CB1A0222A8602360027530BC1C
:1040400070478460C4601060DEE700BF1816FF1F71
:10405000F8B5224E34682CB32368002B3AD1204F98
:104060001D4604E03468ECB12368002B32D1A3680C
:1040700003B1DD6020693360036825751B68BB42AE
:1040800021D1037F4560022BC46020D0FFF73AFFA7
:104090006368002BE6D023602046FFF7A5FF346855
:1040A000002CE1D1EFF3108372B60E4A00211068A4
:1040B000116003B962B628B18468FFF795FF204606
:1040C0000028F9D1F8BD224600219847E0E783682F
:1040D0009847DDE7013B2360E4E700BF1816FF1FA8
:1040E000853F00002816FF1F024A13680133136042
:1040F000FFF7AEBF8812FF1F704700BF704700BFB9
:10410000704700BF704700BF704700BF704700BFD7
:10411000054A064B10781B78C0B2DBB2984238BF14
:104120004030C01A704700BF3016FF1F3116FF1F06
:1041300030B42B4B1A7994061FD52A48DA790378C4
:10414000294901333F2B0978C8BF00238B42D2B2E3
:1041500003D0264CD9B2E2540170254A116861B1EE
:10416000244A1278D2B2934236BFC2F140029B1A5F
:104170009B18272BC4BF01230B70194AD378DBB2DD
:10418000180611D45A060DD5154B1B795B0609D5B7
:10419000194B1A491B6800220A7003B11A70104BA0
:1041A0002C22DA7030BC704711790906EAD514491F
:1041B00010480C780178C9B28C420DD04A1C272ACD
:1041C00084BF00210A460F4D054C98BFD1B2AA5CAE
:1041D000D2B2E2710170D5E76C21D170D2E700BF95
:1041E00000B00E403016FF1F3116FF1F5C16FF1F78
:1041F0002C16FF1F9D16FF1FA016FF1F9C16FF1FEA
:10420000A416FF1F3416FF1F72B6184A184B19491F
:104210001160702280211A701A46197013781B06DB
:10422000FCD510B5144B84B0186862B6134B144C0F
:10423000984298BF00EB800001A998BF40000A2275
:10424000FDF72AFC01A92046002311F8012B0133B8
:104250003AB10A2B20F8022FF7D11623237004B0AD
:1042600010BD5B00DBB2237004B010BD040002403F
:1042700000000240000007410C0002407F969800B9
:10428000AC07FF1F0B460146184601F099BA00BF64
:1042900000B52DED028B10EE900A85B0B0EE608A6D
:1042A0008DED030A00F0D8FE9DED030ACDE9000173
:1042B00010EE100A00F0D0FE9DED001B41EC100B3B
:1042C00000F0BEFB51EC100B01F0F2F900EE100A09
:1042D000B5EEC00AF1EE10FA48BF38EE000A05B09C
:1042E000BDEC028B5DF804FB90F8392090F83800A3
:1042F000101A704790F8383090F839209A4205D952
:104300005A1C034480F83820187E70474FF0FF3065
:10431000704700BF90F8383090F839209A4286BF35
:104320001B18187E4FF0FF30704700BF704700BF6A
:1043300038B50546B0F85E0090B195F85D3014468A
:10434000C3F1210294420CD805F13B0018442246E7
:10435000FDF7C2FA95F85D30234485F85D302046BC
:1043600038BD012014462871EEE700BFB0F85E307A
:104370006BB190F85D30202B07D8C218013380F85C
:104380005D30012082F83B1070470123037100204B
:10439000704700BF0023426980F8383080F8393018
:1043A00080F85C3080F85D3080F85E3080F85F30F7
:1043B00006CA30B40D68046943662A4383660A60FE
:1043C000A370426990F861301649146813441D7A4D
:1043D0005B7B01EBC5051B026D6803F4E06343F0F2
:1043E00064032B6090F8623013449D7CDB7D01EB0D
:1043F000C5011B02496803F4E06343F064030B60EA
:1044000021685368194205D003692C225A70036948
:1044100004229A71036920225A71036980229A70DA
:1044200030BC7047CC62000038B50269D478E4B281
:10443000E106054624D51023D37063061FD504F08A
:10444000040404F0FF03002C5AD042496A6E002392
:104450000B7085F85D30002A66D0904795F85D3086
:10446000002B61D02B69D0229A702B6995F83B20E4
:104470001A712B69012285F85C200222DA7038BD9E
:1044800004F0400303F0FF00002BD8D19379DBB296
:1044900003F0600160294ED0937803F0100303F01D
:1044A000FF01B3B114F0010437D195F85C3095F8F1
:1044B0005D1099424BD9591C2B4485F85C1093F838
:1044C0003B3013712B69D0229A702B690222DA706B
:1044D000D5E785F86010937943F0200393712B6939
:1044E00095F839101A791F29D2B2C6D81948007820
:1044F0000028C2D06818013185F839100276BCE76F
:104500002A6985F83930C02393702B69114A1979CB
:10451000012111700222DA70B1E7C02393702B6978
:104520001A790222DA70AAE70122002385F85D20B9
:1045300085F83B3096E703F0DF039371AB6E23B150
:1045400085F8380095F8390098472A69A4E714716E
:10455000B8E700BFA516FF1F2DE9F047374FDFF87A
:10456000E0903B68026982B006460093DDF8008067
:104570000021C825D3789B065BD53B680193019B3E
:10458000C8EB03030F2BF5D949B1102BF2D0002053
:104590009070336980229A7002B0BDE8F08772692A
:1045A00096F8613013440521187AFDF799FC726979
:1045B00096F861301344012193F812A05046FDF79C
:1045C0008FFC092400215046FDF784FC2B46013B5B
:1045D000FDD101215046FDF77DFC2B46013BFDD16D
:1045E000013CEFD1706996F8611001444FF4C87234
:1045F0000C7A4B7B09EBC4011B02496803F4E063AE
:1046000043F064030B6096F862300344997CDB7DD1
:1046100009EBC1011B02496803F4E06343F0640342
:104620000B60013AFDD13269D3789B064FF001014E
:10463000A3D4012002B0BDE8F08700BF8812FF1F9D
:10464000CC620000F0B503691222DA700269937837
:1046500003F0200385B004460D46002B5ED0B42342
:1046600093703C4922690B680093009E05E00B683B
:104670000193019B9B1B042B42D8D37803F02003AA
:1046800003F0FF00002BF2D094F85D30002B31D006
:104690004FF0000E4FF0020C04EB0E0393F83B308A
:1046A00013710B680393039F206907E09B060DD5E8
:1046B0000B680293029BDB1B052B28D8C378DBB267
:1046C00003F0020202F0FF06002AEFD080F803C0D8
:1046D0002669F378DBB2DF0632462DD49F062BD550
:1046E000DB0731D40EF1010E94F85D305FFA8EFED7
:1046F0007345D1D800201DBB002384F85E3004E050
:104700009070236980229A70042005B0F0BD8670F5
:104710002369802204209A7005B0F0BD03F0FF06E3
:10472000FFF71AFF10B9042005B0F0BD236984F823
:104730005F60B0229A7094E78023B3700420DAE7B8
:1047400026698023B370D7E7BEF1000F0CBF0220AB
:104750000320F6E78812FF1F2DE9F04106690025C6
:10476000122780F8385080F83950F770D0F810C010
:104770009CF802E00EF0200E88B0044688461546EC
:104780001E46BEF1000F49D0B4238CF80230784B9E
:1047900021691A680092DDF800E006E01A680192CB
:1047A0000198CEEB0000042830D8C87800F0200033
:1047B00000F0FF070028F1D04FEA480242F0010262
:1047C000D2B20A711A680292DDF808E0206906E0A8
:1047D0001A6803920399CEEB010105292AD8C17802
:1047E00001F0020101F0FF070029F1D04FF0020CA7
:1047F00080F803C02269D17811F0110722D12DBBB6
:10480000002E0CBFA0238023937003E08F702369D8
:1048100080229A70384608B0BDE8F0810EF0FF079C
:10482000FFF79AFE0028F5D0236984F85F70B02264
:104830009A70ACE787702369802238469A7008B076
:10484000BDE8F081802393700027E3E7012D75D048
:10485000A021917021690A79BE4667464FF0A80CE5
:104860001A680492049805E01A680592059A121ACB
:10487000052A4AD8CA7802F0020202F0FF08002A8C
:10488000F2D0CF702169CA78D2B212F0100F084668
:104890005AD1920658D5013DEDB2012D49D0BEF155
:1048A0001F0F3BD90A79012DDAD11A680692069DAD
:1048B00005E01A680792079A521B052A46D8C27863
:1048C00002F0020202F0FF01002AF2D00223C370BC
:1048D0002269D378DBB2D9063AD49B0634D5B0230B
:1048E000BEF11F0F93703FD8226904EB0E031279BB
:1048F0001A760EF1010E5FFA8EFE16B12369802240
:104900009A7084F839E0774684E781F80280236959
:1049100080229A70774684F839E07BE704EB0E0238
:1049200091F8048082F818800EF1010E5FFA8EFE75
:10493000B9E781F802C021690846B0E7A821917063
:104940002069BE460279B0E7774663E78170DEE70B
:104950001021C823D170013BFDD12269937803F067
:10496000F7037746937055E723691B79C5E700BFC6
:104970008812FF1F0148FFF757BD00BF3008FF1F17
:104980000148FFF751BD00BF9C08FF1F0148FFF71A
:104990004BBD00BFC407FF1F2DE9F0411A4C4FEA81
:1049A000400E01260746204690461D4684F83BE00F
:1049B00084F85E6084F85D60FFF7D8FC31462046DD
:1049C000FFF740FE3346424639462046FFF7C4FE15
:1049D00094F8392094F838309A4213D00021E61820
:1049E0009A42C8B203F101038ABF84F83830FF232A
:1049F000337E2B5494F8392094F838309A4201F1E0
:104A00000101ECD1BDE8F0813008FF1F70B50B4CFF
:104A1000430016460125204684F83B3084F85E505A
:104A200084F85D50FFF7A2FC31462046FFF79EFC5C
:104A300029462046BDE87040FFF704BE3008FF1F3E
:104A40002DE9F0432DED028B8BB057EC106B55EC3C
:104A5000114B00F061F82E4BB0EE408AF0EE608A08
:104A600093F90080B8F1FF3F31D022462B46204613
:104A7000294600F0DFFD50BB32463B463046394602
:104A800000F0D8FD814610BB0022002320462946B5
:104A900000F09EFDD8B11F4BCDF820900122CDE94A
:104AA0000267CDE904458DE80C00B8F1000F17D17D
:104AB000CDE90667684600F069F9E0B1089B0BBBD9
:104AC0009DED060B0BB0BDEC028BBDE8F083B0EEA4
:104AD000480AF0EE680A0BB0BDEC028BBDE8F0832B
:104AE000002200231046194600F034FCB8F1020FF2
:104AF000CDE90601DED100F069FE21230360089BA9
:104B0000002BDDD000F062FE089B0360D8E700BFF9
:104B10000809FF1FD06500002DE9F84F53EC112B59
:104B200023F0004952EA090055EC104B25D005F05E
:104B300000468F4885EA060B83451EDC5042104331
:104B4000DFF844C249EAD070604511EE108A14D8EB
:104B5000CB451F4610EE10AA11EE10EA10EE101A07
:104B600017DC28DB944226D313D1824BF60F03EBDC
:104B7000C60393ED000BBDE8F88F2046294600F0F0
:104B8000BFFA02460B4600F0E5FB41EC100BBDE816
:104B9000F88FBBF5801F12DABBF1000F40F0A78041
:104BA000BAF1000F534674480DDD5B00002B00F195
:104BB000FF30FADC07E045EC104BBDE8F88F4FEA18
:104BC0002B50A0F2FF30B9F5801F0FDAB9F1000FBA
:104BD00040F0A780B8F1000F4346DFF89CC109DD23
:104BE0005B00002B0CF1FF3CFADC03E04FEA295C90
:104BF000ACF2FF3C614B98425BDBCBF3130343F415
:104C000080135E4A944563DBC7F3130545F48015B2
:104C1000CCEB000007E052EA040313D0E30F03EBF0
:104C2000420361000138CEEB01045A1B90B171457B
:104C300038BF02F1FF32002AEDDACA0F02EB43035C
:104C40004900EFE74B4BF60F03EBC60696ED000B62
:104C5000BDE8F88F7145154638BF02F1FF35002DCC
:104C6000ACBFCEEB01011D4655EA0103EAD0444A30
:104C7000954208DCCB0F03EB450595420CF1FF3C58
:104C80004FEA4101F6DD3D4B9C4554DA3B4ACCEB03
:104C90000202142A5BDCC2F1200305FA03F3D140BF
:104CA0000B43154145EA0601184641EC100BBDE8DF
:104CB000F88F3249091A1F292DDCC1F120030BFAA4
:104CC00001FB2AFA03F343EA0B030AFA01F198E71E
:104CD0002A4CCCEB04041F2C15DCC4F1200209FA89
:104CE00004F528FA02F2154308FA04FE90E74FEAA9
:104CF000CB23002B21487FF766AF5B00002B00F130
:104D0000FF30FADC5FE71F4DCCEB050508FA05F52F
:104D10004FF0000E7CE71B4B1B1A0AFA03F300212D
:104D20006FE7DFF858C04FEAC9235B00002B0CF196
:104D3000FF3CFADC5EE7A5F580152E430CF2FF3C44
:104D400046EA0C530A4643EC102BBDE8F88F1F2AA5
:104D500007DCC2F120039D40D14045EA01033546FE
:104D6000A0E7084BCCEB030345FA03F3354699E77C
:104D7000FFFFEF7FD8650000EDFBFFFF02FCFFFFA8
:104D8000FFFF0F00E2FBFFFF0000F07F00207047F5
:104D900081F0004102E000BF83F0004330B54FEAEC
:104DA00041044FEA430594EA050F08BF90EA020F59
:104DB0001FBF54EA000C55EA020C7FEA645C7FEAEC
:104DC000655C00F0E2804FEA5454D4EB5555B8BF0F
:104DD0006D420CDD2C4480EA020281EA030382EA80
:104DE000000083EA010180EA020281EA0303362D12
:104DF00088BF30BD11F0004F4FEA01314FF4801CE5
:104E00004CEA113102D0404261EB410113F0004FF6
:104E10004FEA03334CEA133302D0524263EB4303AD
:104E200094EA050F00F0A780A4F10104D5F1200E4B
:104E30000DDB02FA0EFC22FA05F2801841F10001A6
:104E400003FA0EF2801843FA05F359410EE0A5F17A
:104E500020050EF1200E012A03FA0EFC28BF4CF0AB
:104E6000020C43FA05F3C01851EBE37101F0004561
:104E700007D54FF0000EDCF1000C7EEB00006EEB6E
:104E80000101B1F5801F1BD3B1F5001F0CD34908F8
:104E90005FEA30004FEA3C0C04F101044FEA44524F
:104EA00012F5800F80F09A80BCF1004F08BF5FEAD6
:104EB000500C50F1000041EB045141EA050130BDB6
:104EC0005FEA4C0C404141EB010111F4801FA4F159
:104ED0000104E9D191F0000F04BF01460020B1FAAE
:104EE00081F308BF2033A3F10B03B3F120020CDAE6
:104EF0000C3208DD02F1140CC2F10C0201FA0CF0C4
:104F000021FA02F10CE002F11402D8BFC2F1200C28
:104F100001FA02F120FA0CFCDCBF41EA0C019040DE
:104F2000E41AA2BF01EB0451294330BD6FEA040427
:104F30001F3C1CDA0C340EDC04F11404C4F1200212
:104F400020FA04F001FA02F340EA030021FA04F324
:104F500045EA030130BDC4F10C04C4F1200220FA7B
:104F600002F001FA04F340EA0300294630BD21FAB9
:104F700004F0294630BD94F0000F83F4801306BF7F
:104F800081F480110134013D4EE77FEA645C18BF73
:104F90007FEA655C29D094EA050F08BF90EA020F0A
:104FA00005D054EA000C04BF1946104630BD91EA02
:104FB000030F1EBF0021002030BD5FEA545C05D105
:104FC0004000494128BF41F0004130BD14F5800444
:104FD0003CBF01F5801130BD01F0004545F0FE41B8
:104FE00041F470014FF0000030BD7FEA645C1ABFED
:104FF000194610467FEA655C1CBF0B46024650EA24
:10500000013406BF52EA033591EA030F41F400214F
:1050100030BD00BF90F0000F04BF0021704730B5D5
:105020004FF4806404F132044FF000054FF00001AA
:1050300050E700BF90F0000F04BF0021704730B56B
:105040004FF4806404F1320410F0004548BF404240
:105050004FF000013EE700BF42004FEAE2014FEA95
:1050600031014FEA02701FBF12F07F4393F07F4F70
:1050700081F06051704792F0000F14BF93F07F4FA2
:10508000704730B54FF4607401F0004521F00041E5
:1050900020E700BF50EA010208BF704730B54FF06B
:1050A00000050AE050EA010208BF704730B511F070
:1050B000004502D5404261EB41014FF4806404F1A8
:1050C00032045FEA915C3FF4DCAE4FF003025FEA2A
:1050D000DC0C18BF03325FEADC0C18BF033202EBB2
:1050E000DC02C2F1200300FA03FC20FA02F001FA0C
:1050F00003FE40EA0E0021FA02F11444C1E600BFAB
:1051000070B54FF0FF0C4CF4E06C1CEA11541DBF5D
:105110001CEA135594EA0C0F95EA0C0F00F0DEF828
:105120002C4481EA030621EA4C5123EA4C5350EA0D
:10513000013518BF52EA033541F4801143F480135E
:1051400038D0A0FB02CE4FF00005E1FB02E506F0EF
:105150000042E0FB03E54FF00006E1FB03569CF044
:10516000000F18BF4EF0010EA4F1FF04B6F5007F4A
:1051700064F5407404D25FEA4E0E6D4146EB0606BC
:1051800042EAC62141EA55514FEAC52040EA5E5045
:105190004FEACE2EB4F1FD0C88BFBCF5E06F1ED8EF
:1051A000BEF1004F08BF5FEA500E50F1000041EB26
:1051B000045170BD06F0004646EA010140EA0200D3
:1051C00081EA0301B4EB5C04C2BFD4EB0C0541EAF5
:1051D000045170BD41F480114FF0000E013C00F30A
:1051E000AB8014F1360FDEBF002001F0004170BD2E
:1051F000C4F10004203C35DA0C341BDC04F1140447
:10520000C4F1200500FA05F320FA04F001FA05F2D2
:1052100040EA020001F0004221F0004110EBD3709F
:1052200021FA04F642EB06015EEA430E08BF20EACB
:10523000D37070BDC4F10C04C4F1200500FA04F36E
:1052400020FA05F001FA04F240EA020001F0004100
:1052500010EBD37041F100015EEA430E08BF20EA73
:10526000D37070BDC4F1200500FA05F24EEA020EBB
:1052700020FA04F301FA05F243EA020321FA04F0EA
:1052800001F0004121FA04F220EA020000EBD370A1
:105290005EEA430E08BF20EAD37070BD94F0000FA1
:1052A0000FD101F00046400041EB010111F4801FD5
:1052B00008BF013CF7D041EA060195F0000F18BF86
:1052C000704703F00046520043EB030313F4801FC2
:1052D00008BF013DF7D043EA0603704794EA0C0F7C
:1052E0000CEA135518BF95EA0C0F0CD050EA410692
:1052F00018BF52EA4306D1D181EA030101F000410F
:105300004FF0000070BD50EA410606BF1046194636
:1053100052EA430619D094EA0C0F02D150EA013642
:1053200013D195EA0C0F05D152EA03361CBF104683
:1053300019460AD181EA030101F0004141F0FE4122
:1053400041F470014FF0000070BD41F0FE4141F4A6
:10535000780170BD70B54FF0FF0C4CF4E06C1CEAA6
:1053600011541DBF1CEA135594EA0C0F95EA0C0F5B
:1053700000F0A7F8A4EB050481EA030E52EA033516
:105380004FEA013100F088804FEA03334FF0805537
:1053900045EA131343EA12634FEA022245EA111564
:1053A00045EA10654FEA00260EF000419D4208BF15
:1053B000964244F1FD0404F5407402D25B084FEAC2
:1053C0003202B61A65EB03055B084FEA32024FF46E
:1053D00080104FF4002CB6EB020E75EB030E22BFCB
:1053E000B61A754640EA0C005B084FEA3202B6EB8B
:1053F000020E75EB030E22BFB61A754640EA5C003A
:105400005B084FEA3202B6EB020E75EB030E22BFC9
:10541000B61A754640EA9C005B084FEA3202B6EBCA
:10542000020E75EB030E22BFB61A754640EADC0089
:1054300055EA060E18D04FEA051545EA16754FEAEB
:1054400006164FEAC30343EA52734FEAC2025FEA09
:105450001C1CC0D111F4801F0BD141EA00014FF098
:1054600000004FF0004CB6E711F4801F04BF014369
:105470000020B4F1FD0C88BFBCF5E06F3FF6AFAE85
:10548000B5EB030C04BFB6EB020C5FEA500C50F115
:10549000000041EB045170BD0EF0004E4EEA113198
:1054A00014EB5C04C2BFD4EB0C0541EA045170BD9F
:1054B00041F480114FF0000E013C90E645EA060EE3
:1054C0008DE60CEA135594EA0C0F08BF95EA0C0F11
:1054D0003FF43BAF94EA0C0F0AD150EA01347FF459
:1054E00034AF95EA0C0F7FF425AF104619462CE730
:1054F00095EA0C0F06D152EA03353FF4FDAE104693
:10550000194622E750EA410618BF52EA43067FF4E3
:10551000C5AE50EA41047FF40DAF52EA43057FF473
:10552000EBAE12E74FF0FF3C06E000BF4FF0010C7E
:1055300002E000BF4FF0010C4DF804CD4FEA410CE2
:105540007FEA6C5C4FEA430C18BF7FEA6C5C1BD0AF
:1055500001B050EA410C0CBF52EA430C91EA030F30
:1055600002BF90EA020F0020704710F1000F91EA8D
:10557000030F58BF994208BF90422CBFD8176FEA5B
:10558000E37040F0010070474FEA410C7FEA6C5C29
:1055900002D150EA013C07D14FEA430C7FEA6C5C30
:1055A000D6D152EA033CD3D05DF8040B704700BF5C
:1055B0008446104662468C461946634600E000BFAA
:1055C00001B5FFF7B7FF002848BF10F1000F01BD7C
:1055D0004DF808EDFFF7F4FF0CBF012000205DF847
:1055E00008FB00BF4DF808EDFFF7EAFF34BF0120CC
:1055F00000205DF808FB00BF4DF808EDFFF7E0FF65
:1056000094BF012000205DF808FB00BF4DF808EDB5
:10561000FFF7CEFF94BF012000205DF808FB00BF1C
:105620004DF808EDFFF7C4FF34BF012000205DF8FE
:1056300008FB00BF4FEA410C7FEA6C5C02D150EAE4
:10564000013C0AD14FEA430C7FEA6C5C02D152EA7A
:10565000033C02D14FF0000070474FF0010070474B
:105660004FEA410212F5001215D211D56FF478738A
:10567000B3EB625212D94FEAC12343F0004343EA2D
:10568000505311F0004F23FA02F018BF4042704708
:105690004FF00000704750EA013005D111F0004092
:1056A00008BF6FF0004070474FF00000704700BF28
:1056B0004FEA4102B2F1E04324BFB3F5001CDCF134
:1056C000FE5C0DD901F0004C4FEAC0024CEA50706C
:1056D000B2F1004F40EB830008BF20F0010070479B
:1056E00011F0804F21D113F13872BCBF01F000409E
:1056F000704741F480114FEA5252C2F11802C2F1D0
:10570000200C10FA0CF320FA02F018BF40F0010050
:105710004FEAC1234FEAD32303FA0CFC40EA0C0002
:1057200023FA02F34FEA4303CCE77FEA625307D13F
:1057300050EA01331EBF4FF0FE4040F44000704776
:1057400001F0004040F0FE4040F40000704700BF10
:10575000024B0A460146186800F002B8380DFF1FD8
:1057600010B502FB01F100F06FF80446D8B150F813
:10577000042C22F00302043A242A18D8132A14D93C
:1057800000231B2A0360436016D9242A8360C36068
:1057900011BF00F110020361436100F11802002300
:1057A000136053609360204610BD0246F7E7002166
:1057B00000F002FB204610BD00F10802EFE700BF39
:1057C00013460A460146022000F05ABB014B1868F6
:1057D000704700BF380DFF1F70B50F4E0F4D761B81
:1057E000B61018BF002405D0013455F8043B984783
:1057F000A642F9D10A4E0B4D761B00F0F7FEB6100B
:1058000018BF002406D0013455F8043B9847A6423F
:10581000F9D170BD70BD00BFF8650000F8650000EB
:1058200004660000F8650000024B0146186800F0AD
:105830000BB800BF380DFF1F024B0146186800F07F
:10584000E3BB00BF380DFF1F2DE9F04F01F10B0541
:10585000162D83B0064640F29F8035F0070500F113
:10586000BF80A94200F2BC8000F0F4FAB5F5FC7FDD
:10587000C0F09C826B0A00F0BA80042B00F2838196
:10588000A80900F1390E4FEA4E033830C44F07EB38
:105890008303A3F108015C68A14207D1ACE0002AB0
:1058A00080F2AC80E468A14200F0A680636823F037
:1058B00003035A1B0F2AF2DDB9493C6901F1080EB6
:1058C000744500F0B381636823F003035A1B0F2A69
:1058D00000F39981002AC1F814E0C1F810E080F2C9
:1058E0009E80B3F5007F80F06781DB0803F1010C37
:1058F00001229B1002FA03F34A6851F83C80C4F875
:10590000088001EBCC091A43A9F10803E3604A605F
:1059100041F83C40C8F80C40831001249C4094425C
:1059200000F28A80144206D120F003006400144281
:1059300000F10400FAD007EBC009CC468046DCF841
:105940000C108C4507D173E1002A80F28181C9686F
:105950008C4500F06D814B6823F003035A1B0F2A1E
:10596000F2DD0C46D1F80CC054F8088F4B1945F005
:1059700001054D6042F00101C8F80CC03046CCF87A
:1059800008807B613B61C3F80CE0C3F808E0596014
:105990009A5000F061FA1FE0102921D800F05AFA5D
:1059A0001025062302207E4F07EB8303A3F1080294
:1059B0005C68944200F045816368E168A56823F063
:1059C0000303234430465A68E96042F001028D60C7
:1059D0005A6000F041FA0834204603B0BDE8F08F69
:1059E00000240C232046336003B0BDE8F08F8023F1
:1059F0004FF0400E3F2049E770465DE72344E168E1
:105A00005A68A56842F00102E96030468D605A602C
:105A100000F022FA0834204603B0BDE8F08F23449A
:105A200030465A6842F001025A6000F015FA083414
:105A3000204603B0BDE8F08FBC68636823F003081C
:105A4000A84504D3C5EB08030F2B00F38C80554BFE
:105A5000DFF860911A68D9F8003001332A4404EB6A
:105A6000080A00F0608102F580520F3222F47F6252
:105A700022F00F0211463046019200F0EFF9B0F12A
:105A8000FF3F8346019A00F05881824500F2FC8076
:105A9000454B1968DA451144196000F05381D9F873
:105AA0000000DFF810E101301BBFCAEB0B0A5144C4
:105AB000CEF800B019601BF0070100F01781C1F1AA
:105AC0000800C1F58051834408315A44C2F30B02E7
:105AD000C2EB010949463046019300F0BFF9431C6F
