:10000000F8FF022099010000511B0000091B0000AD
:10001000091B0000091B0000091B0000091B000050
:10002000091B0000091B0000091B0000511B0000F8
:10003000511B0000091B00001D410000214200006F
:10004000511B0000511B0000511B0000511B000000
:10005000511B0000511B0000511B0000511B0000F0
:10006000511B0000511B0000511B0000511B0000E0
:10007000511B0000511B0000511B0000511B0000D0
:10008000511B0000511B0000511B0000511B0000C0
:10009000511B0000511B0000511B0000511B0000B0
:1000A0008958000095580000511B0000511B0000AA
:1000B000511B0000511B0000511B0000F5230000E4
:1000C000511B0000A1260000511B00000129000067
:1000D000511B0000712B0000511B0000511B000040
:1000E000511B0000511B0000511B0000511B000060
:1000F000511B0000511B0000511B0000511B000050
:10010000511B0000511B0000511B0000511B00003F
:10011000511B000029300000511B0000511B000042
:10012000511B0000511B0000511B0000511B00001F
:10013000511B0000511B0000511B0000511B00000F
:10014000511B0000511B00009D2D0000511B0000A1
:1001500069420000511B0000511B0000511B0000B0
:10016000511B0000511B0000A1580000511B000052
:10017000511B0000511B0000511B0000511B0000CF
:10018000511B0000511B0000511B0000511B0000BF
:10019000511B0000511B0000584B4CF2205210B56F
:1001A0001A804DF628121A8000BF00BF01F0D4FC5F
:1001B000534B4FF030621A60524A9A60524ADA60EA
:1001C000524B4FF470021A60514A136813F4807353
:1001D00004D150490B604FF4A85313604E4B1A786A
:1001E000110703D51A7842F008021A704B4B4C499C
:1001F0002A221A704B4A4C4B8B4204D252F8040FFD
:1002000043F8040BF8E7494B494900228B4202D2DC
:1002100043F8042BFAE74749474A002352F82300E2
:1002200041F823000133662BF8D1444B444A802126
:1002300003F8011B9342FBD1424B3E4A1A60424BEA
:100240008A221A70A3F5805324225A70A0221A70B1
:100250009A799207FCD59A79D406FCD43B4A9379D3
:1002600003F00C03082B394BF9D103221A714622F3
:100270005A719A799006FCD5344A9179334B4906E4
:10028000FBD5334A4FF08271116009215160202261
:100290001A709A7902F00C020C2AFAD12D4B2E4AD0
:1002A0001A602E4B2E4A1A6000225A60072243F829
:1002B000042C2C4AC3F80C2D62B601F023FF154B19
:1002C0001B68DA0705D5284801F00AFD274B284AA4
:1002D0001A60284B1B785B0609D5244C244B2268F6
:1002E0009A4204D1204801F0FBFC0023236007F070
:1002F000A3FC01F037FC01F065FBFEE70E20054092
:1003000030800440823F04000100002B88ED00E0B3
:1003100010D0034014D0034002D0074000E0074053
:10032000DC17FF1F088D0000F806FF1FE017FF1FF6
:10033000A01DFF1F0002FF1F0000000000E400E0FE
:1003400056E400E008ED00E00050064000400640A2
:100350004480044004800440C010050014E000E024
:10036000BFD40100000020205A2E9C5D1CE00340F9
:10037000A5C3945A00F00740FFFFFFFFFFFFFFFFF8
:10038000FFFFFFFFFFFFFFFFFFFFFFFFFFFFFFFF7D
:10039000FFFFFFFFFFFFFFFFFFFFFFFFFFFFFFFF6D
:1003A000FFFFFFFFFFFFFFFFFFFFFFFFFFFFFFFF5D
:1003B000FFFFFFFFFFFFFFFFFFFFFFFFFFFFFFFF4D
:1003C000FFFFFFFFFFFFFFFFFFFFFFFFFFFFFFFF3D
:1003D000FFFFFFFFFFFFFFFFFFFFFFFFFFFFFFFF2D
:1003E000FFFFFFFFFFFFFFFFFFFFFFFFFFFFFFFF1D
:1003F000FFFFFFFFFFFFFFFFFFFFFFFFFFFFFFFF0D
:10040000FFFFFFFFFFFFFFFFFFFFFFFFDEF9FFFF23
:1004100010B5054C237833B9044B13B10448AFF33E
:1004200000800123237010BDE017FF1F00000000B3
:10043000048D0000084B10B51BB108490848AFF304
:1004400000800848036803B910BD074B002BFBD0A0
:10045000BDE81040184700BF00000000E417FF1F70
:10046000048D0000DC17FF1F0000000010B50748D6
:1004700001F066F840B1064C0D20217801F0C6FD70
:10048000237883F00103237010BD00BF7818FF1F8D
:10049000FC06FF1FF0B51F4E83B00DF1070501F0FC
:1004A0004DFF092834DD01F059FF0446E4B201F0A4
:1004B00089FFFF2CF3D1C0B2FF28F0D101F04EFF2D
:1004C0000DF1FF3401F04AFF04F8010FAC42F9D1FD
:1004D0009DF800C09DF801009DF802E09DF8031012
:1004E0009DF804709DF805209DF806409DF80730A2
:1004F00040EA0C2041EA0E2142EA072243EA0423A3
:1005000030817181B281F38101F018FF0928CADCC2
:1005100003B0F0BDDC18FF1F70B50D4E0D4D3068F7
:1005200006F0CAFF042241EC100B2846022100F01D
:100530001FFC0446306806F0BFFF052241EC100B9B
:100540002846032100F014FC201A00B270BD00BF41
:10055000B818FF1FDC18FF1F38B50B4C04F110054D
:1005600034F8021F094801F059F80121084803F046
:10057000FFFBAC42F4D15E21064803F0F9FB0348CF
:10058000BDE8384000F0FABFDA18FF1F0C07FF1F64
:10059000388600003C86000038B5414C2DED028BBA
:1005A000204600F0BDFD3F4800F0B4FB3E4800F09F
:1005B0004DFCFFF75BFFFFF76DFF3C4B206893EDB1
:1005C000008B06F079FFB0EE481AF0EE681A41ECA5
:1005D000100B9FED312B364800F0B2FE55EC104B5E
:1005E0000022002310EE100A294607F03FFA0028E7
:1005F0003ED000222F4B2046294606F0FFFD07F093
:100600005FFA06F047FF2C4BC3E90001FFF784FFB8
:1006100006F040FF9FED202B41EC100BB0EE421A8C
:10062000F0EE621A254800F08BFE55EC104B0022CC
:10063000002310EE100A294607F018FA08B300222A
:100640001C4B2046294606F0D9FD07F039FAB0F5D3
:10065000967F1B4B1B4CA8BF4FF496709842B8BFB7
:10066000184606F017FFBDEC028BC4E9000138BD47
:100670000022104B2046294606F0BEFD07F020FA66
:10068000BFE700220B4B2046294606F0B5FD07F0D8
:1006900017FADCE7AFF30080000000000000000064
:1006A000B818FF1F8018FF1FDC18FF1F9818FF1FC6
:1006B0000018FF1F0000E03F7018FF1F3818FF1FD1
:1006C000D4FEFFFF9018FF1F10B546F2A81001F0EE
:1006D000ADFD0E480E4C00F02DFB0E4800F018FB4F
:1006E0000D4800F03FFC01210D2001F095FC0B4866
:1006F00000F0D2FD204600F0B3F92046142100F0AE
:10070000DDFA2046BDE8104000F0FEB9DC18FF1FFE
:10071000A018FF1F8018FF1FD818FF1FB818FF1F51
:1007200030B583B0FFF738FFFFF716FFFFF7B2FED3
:10073000012200216A4800F011FB642800F2AC801D
:1007400004220221664800F009FB05220446032129
:10075000634800F003FB844248D9624C624B00229C
:10076000D4E9000106F04AFD07F0AAF94FF4B4718C
:1007700000F05EF906F08EFE5C4B41EC110B186840
:1007800084ED001B8DED001B06F096FE9DED001B19
:1007900041EC100B9FED502B554800F0D1FD55EC6E
:1007A000104B0022002310EE100A294607F05EF9D4
:1007B00000287FD000224F4B2046294606F01EFD20
:1007C00007F07EF906F066FE4B4CC4E9000103E039
:1007D000FFF7E2FED4E9000107F072F9014647484D
:1007E00000F040FC0028F3D003B030BD0522032107
:1007F0003B4800F0B3FA042204460221384800F0D6
:10080000ADFA8442F0D9374C374B0022D4E90001CD
:1008100006F0F2FC07F054F94FF4B47100F008F957
:1008200006F038FE314B41EC110B186884ED001BCB
:100830008DED001B06F040FE9DED001B41EC100B02
:100840009FED252B2A4800F07BFD55EC104B002234
:10085000002310EE100A294607F008F9002832D0CC
:100860000022244B2046294606F0C8FC07F028F950
:1008700006F010FE204CC4E9000103E0FFF78CFEF7
:10088000D4E9000107F01CF901461C4800F0EAFB1E
:100890000028F3D003B030BD174BD3E9000107F0B7
:1008A0000FF9962203B21548114603B0BDE8304057
:1008B00000F074BB00220F4B2046294606F09CFC3A
:1008C00007F0FEF87EE700220A4B2046294606F094
:1008D00093FC07F0F5F8CBE70000000000000000F3
:1008E000DC18FF1F9818FF1F00805640B818FF1F24
:1008F0000018FF1F0000E03F7018FF1FD818FF1FEF
:1009000038B52DED048B9FED228B9FED239BB0EE30
:10091000482AF0EE682AB0EE481AF0EE681A264B24
:100920002649274CB0EE493AF0EE693A00220025FC
:100930009FED1B0B23488D611A605A609A60DA6044
:100940001A82CD6100F0EAFCB0EE493AF0EE693A65
:10095000B0EE481AF0EE681A9FED132B9FED140BC2
:10096000194800F0DBFC5223204617223C2100F0FE
:100970008FF920461549164A03F020FDBDEC048B83
:100980004FF47A711348BDE8384000F0D7BD00BF7E
:1009900000000000000000000000000000E07F40B8
:1009A0000000000000002E40000000000000F8BF22
:1009B000000000000000F03FDC18FF1FB818FF1F08
:1009C000A018FF1F0018FF1F3818FF1F410A000062
:1009D000F806FF1F7818FF1F00B52DED028B10EEF3
:1009E000900A85B0B0EE608A8DED030A06F064FDD2
:1009F0009DED030ACDE9000110EE100A06F05CFD42
:100A00009DED001B41EC100B05F0D2F851EC100BE2
:100A100007F07EF800EE100AB5EEC00AF1EE10FA0B
:100A200048BF38EE000A05B0BDEC028B5DF804FB50
:100A300090FBF1F303FB11000028B8BF401870478A
:100A400010B50446C06807F027F9B4F9060000287D
:100A500003DBC0B2002101F0DFFA204610BD00BF69
:100A600010B50446B0F90600002807DBC0B201212A
:100A700001F0D2FA0021A07901F0C8FA01236370D5
:100A800010BD00BF38B50446C0680D4607F004F934
:100A9000E37C207C83420CBF0320042010FB05F084
:100AA00080B2A080012107F083F8E06008B1658082
:100AB00038BDA080608038BDF0B4077CC47CC568B8
:100AC000C1F38106FF29A4EB0704C1F3811201F0F1
:100AD00003074674B4FA84F48CBF00260126C1F3E0
:100AE0000111C27464098774067001744DB1511A02
:100AF000B1FA81F14909A14203D04188F0BCFFF766
:100B0000C1BFF0BC704700BF2DE9F843C368002B9C
:100B10004FD0044601F086FA6369C01AB0F5967F9B
:100B2000F8D372B64649B4F906500B684548464AB0
:100B300050F83500E668A788257843F080730B608D
:100B4000136843F0010337441360A5B3A1F55D4179
:100B5000F8390A68BE4202F196021FD289464FF068
:100B6000010C16F8018B4FF0080E80250B689B1ABC
:100B7000952BFBD918EA050FD9F8002080F880C022
:100B800055D00B689B1A5F2BFBD9BEF1010E80F884
:100B900000C14FEA5505E9D1B742E2D12B490B68B4
:100BA0009B1A952BFBD962B601F03CFA6061BDE857
:100BB000F883BDE8F88325490A68BE4202F59672BB
:100BC00020D289464FF0010C16F8018B4FF0080E29
:100BD00080250B689B1AB3F5967FFAD318EA050FA8
:100BE000D9F8002080F880C018D00B689B1A8F2B92
:100BF000FBD9BEF1010E80F800C14FEA5505E8D1DE
:100C0000B742E1D111490B689B1AB3F5967FFAD32D
:100C100062B601F007FA6061BDE8F8830B689B1AC1
:100C20003B2BE6D80B689B1A3B2BF7D9E1E70B6807
:100C30009B1A1D2BA9D80B689B1A1D2BF7D9A4E76B
:100C4000FCED00E014870000001000E0041000E05C
:100C500038B543786BB10446B0F9060000280D465C
:100C600009DBC0B2002101F0D7F96378E5801BB938
:100C700038BDC18038BDE180EDB22846012101F0C8
:100C8000CBF928460021BDE8384001F0BFB900BFCC
:100C900070B5002504460E46457019460572C560BC
:100CA00045611546FFF708FF31462046FFF7EAFE8B
:100CB00020462946FFF7CCFF204670BD70B44E1C7D
:100CC000047AF6B2A64213D0013C14F0FF04C568C2
:100CD00010D183882A4653B1137804FB03F31B1207
:100CE00002F8013B531B81889BB29942F4D80672EB
:100CF00070BC7047FF2905D03302013B93FBF4F42D
:100D0000A4B2E6E74FF6FF7393FBF4F4E1E700BF0C
:100D1000704700BF10B504460E2000F099FD20601A
:100D20000F2000F095FD6060102000F091FDA060A4
:100D300010BD00BF08B546F2A81001F0E1FB43F278
:100D4000D40001F033FD43F2D40001F045FE43F23C
:100D5000D400BDE8084001F077BF00BF30F81110A3
:100D600030F81230C818C0F34F007047FFFFFFFF84
:100D70002DE9F04F824683B030F811008DED000B65
:100D8000934606F087FB9DED000B2EA3D3E90023CD
:100D90008046894651EC100B06F0E2FB0022284BFE
:100DA00006F008FD41EC100B04F0A2FE55EC104BD0
:100DB0000022002310EE100A294606F061FE00B35F
:100DC00022462B464046494606F0CAFB06F078FE0E
:100DD00080463AF81B0006F05DFB26462F46824609
:100DE0008B4652465B463046394606F0B9FB06F064
:100DF00067FE404400EBD070C0F34F0003B0BDE885
:100E0000F08F05F1004722463B464046494606F032
:100E1000A7FB06F055FE80463AF81B0006F03AFBA9
:100E2000002282468B46002320462946264606F0AD
:100E300027FE0028D5D026462F46D2E7AFF3008004
:100E40000080664000000060FB21094038B505467F
:100E500001F0CAFB07281DDD01F0D6FB0446E4B211
:100E600001F006FC5A2CF3D1C0B25A28F0D101F09F
:100E7000CBFB01F0C9FB01F0C7FB01F0C5FB044649
:100E800001F0C2FBC0B240EA0420288001F0ACFBB4
:100E90000728E1DC01F0D8FC07281DDD01F0E4FCA7
:100EA0000446E4B201F014FD5A2CF3D1C0B25A2822
:100EB000F0D101F0D9FC01F0D7FC01F0D5FC01F034
:100EC000D3FC044601F0D0FCC0B240EA04206880A4
:100ED00001F0BAFC0728E1DC01F0EEFD07281DDD7A
:100EE00001F0FAFD0446E4B201F02AFE5A2CF3D1D7
:100EF000C0B25A28F0D101F0EFFD01F0EDFD01F094
:100F0000EBFD01F0E9FD044601F0E6FDC0B240EA68
:100F10000420A88001F0D0FD0728E1DC01F0E2FE0A
:100F200007281DDD01F0EEFE0446E4B201F01EFFCD
:100F30005A2CF3D1C0B25A28F0D101F0E3FE01F0EF
:100F4000E1FE01F0DFFE01F0DDFE044601F0DAFE15
:100F5000C0B240EA0420E88001F0C4FE0728E1DCCA
:100F600038BD00BF08B50121152001F055F8012159
:100F7000182001F051F80121192001F04DF801214C
:100F8000142001F049F801211B2001F045F801214E
:100F90001A20BDE8084001F03FB800BFF8B59BB289
:100FA0001A4415B2C91AFE2D0CB221DC15F1FF0F3F
:100FB0004FDA6FF0FE063546FE2C27461DDC14F195
:100FC000FF0FB8BFFF2446DA0021182001F01EF8F9
:100FD0000121192001F01AF82146152000F092FE97
:100FE000002D19DD01211B2001F010F8002119E06E
:100FF000FF26FE2C35462746E1DDFF27012118207C
:1010000001F004F80021192001F000F839461520FC
:1010100000F078FE002DE5DC6EB901211B2000F008
:10102000F5FF01211A2000F0F1FF31461420BDE840
:10103000F84000F067BE00211B2000F0E7FF01210F
:101040001A2000F0E3FF71421420BDE8F84000F0E0
:1010500059BE2E46B0E7002CD0DC08BF0121B4D029
:101060006442B1E770B5064608460D4606F012FA2E
:1010700021F0004319460022074B06F0E3FC08B1BB
:10108000012070BD04462BB2304622462146FFF7B0
:1010900085FF204670BD00BF0000594030B58DB0BF
:1010A00008AB0E223B21682004F048FC9DF8284044
:1010B0009DF821309DF82A509DF82B209DF82C009A
:1010C0009DF82D109FED147A9FED141A43EA042326
:1010D00042EA05225B4241EA00211BB2524212B2AF
:1010E00000EE103A0BB200EE902A07EE903AF8EEBE
:1010F000E00AB8EEC00AF8EEE77A60EE870A20EE62
:10110000070A67EE877A60EE810A20EE010A27EE71
:10111000811A0DB030BD00BF00007A4400000038D5
:1011200010B586B00446FFF7B9FF8DED030ACDED8B
:10113000040A8DED051A00F075FFA3689DED057A90
:10114000DFED274AD4ED045A94ED055A9DED046A6B
:10115000244A94ED000A1168D4ED016A0191C31A82
:1011600007EE903AF8EEE77A77EE655A87EEA47AC2
:10117000019BE168A0605B1A642B36EE456AF1EED4
:10118000477AA7EEA50AE7EE866A84ED000AC4ED69
:10119000016A11D9F0EE667A94ED077AD4ED066A09
:1011A0001368029330EE260A77EE277A029BE360FB
:1011B00084ED000AC4ED017ADFED0B0AFFF70CFCA9
:1011C000DFED090A84ED000A94ED010AFFF704FC43
:1011D0000A2084ED010A00F047FF06B010BD00BFF1
:1011E00000247449F418FF1F0000B44330B52DEDFE
:1011F000028B044685B028252046FFF74FFF94ED6B
:10120000047AD4ED057ACDED020A37EE017A77EE55
:10121000A00A84ED047AC4ED050A64208DED010A6C
:101220008DED031A00F020FF6B1E13F0FF05E3D1D4
:10123000DFED177A94ED056A94ED047AC7EE276A1C
:10124000204686EE277AC4ED046A84ED057AFFF71E
:1012500067FF6420D4ED008A94ED018A00F004FF5A
:101260002046FFF75DFF0B4B94ED007A1B68D4ED31
:10127000017A019337EE687A77EEC87A019B84EDA4
:10128000067AC4ED077AE36005B0BDEC028B30BD91
:1012900000002042F418FF1FF0B51E4B1E4C1A69C7
:1012A000597B87B001230494122700241326054696
:1012B0000593104623462246039400940297019614
:1012C00003F016FB06221D21682004F06DFB0622A8
:1012D0001A21682004F068FB10221B21682004F00A
:1012E00063FB22461C21682004F05EFB02223721AA
:1012F000682004F059FB16220A210C2004F054FB4C
:1013000000F090FEA860284607B0BDE8F040FFF767
:101310006DBF00BF3C1DFF1F801A060010B580ED99
:10132000000B80ED021B80ED042B80ED083B044692
:1013300000F078FEA061204610BD00BFFFFFFFFF58
:101340002DE9F04F53EC102B85B0044651EC110BF6
:101350005BEC12AB05F052FF9FED731B41EC100BE1
:1013600004F026FC59EC108B0022002310EE100A2A
:10137000494606F067FB002840F0C58000226C4B10
:101380004046494606F05EFB00284BD0464609F130
:10139000004700F047FEA3699FED667AC31A07EE87
:1013A000903AF8EE677A0546C7EE876A16EE900A1D
:1013B00006F082F8A56102460B4680468946304613
:1013C000394606F0CDF8D4E90A2305F017FF0022CC
:1013D000CDE90201C4E90A0100235046594606F04E
:1013E00027FB40BB32463B463046394605F004FFFA
:1013F00052460BF10043CDE9000106F023FB002823
:1014000069D0DDE9000152465B4605F0F7FECDE903
:10141000000142464B46DDE9000106F0CBF980466B
:10142000894614E042464B460020434905F0E4FE5D
:1014300006460F46ADE7D4E90C233046394605F0A1
:10144000DBFE42464B4606F0B5F980468946C4E9C4
:101450000C67D4E900233046394606F081F8D4E918
:10146000022306460F46DDE9020106F079F802463E
:101470000B463046394605F0C1FED4E90423064642
:101480000F464046494606F06BF802460B4630468A
:10149000394605F0B1FED4E9084506460F4600225C
:1014A00000232046294606F0C3FA78B905F1004921
:1014B00022464B463046394606F0C4FAE0B9224689
:1014C0002B463046394606F0DBFA28BB47EC106B5A
:1014D00005B0BDE8F08FDDE900235046594606F01F
:1014E000B1FA002895D0DDE9000152465B4605F0CF
:1014F00083FECDE900018CE726464F4647EC106B92
:1015000005B0BDE8F08F4046494600220A4B05F081
:1015100075FE8046894631E726462F4647EC106B1C
:1015200005B0BDE8F08F00BF0000000000807640ED
:101530000080664000247449008076400160704756
:1015400010B40C4A83B01368009390E81200009B1B
:101550001B1B8B4208D913680193019B4360012038
:1015600003B05DF8044B7047002003B05DF8044BF6
:10157000704700BFF418FF1F0020704700B5064AEF
:10158000036812885B6883B001A9ADF804200222C9
:10159000984703B05DF804FBC8860000F0B5074625
:1015A0008BB0002A33D0012A08BF0A2251B321246C
:1015B00000E0F4B2B1FBF2F502FB1511C8B2092943
:1015C00000F1300198BFC8B20AA988BF3730214462
:1015D00088BFC0B201F8240C661E2946002DE8D150
:1015E00033B1013CE4B20AAB23442D2203F8242C8E
:1015F0003B6801AA11195B683846C4F1220298477A
:101600000BB0F0BD30228DF825202124E8E70368D7
:10161000C9B21B6898470BB0F0BD00BF0029BABF24
:1016200049422D2300230A22FFF7B8BF374A384921
:1016300013681B06FCD40B6813F08003F8D172B654
:1016400034490A78002A5FD0334A3448F0B4344C25
:10165000176806682568D4680C303E441432006868
:101660001268304F35442C4420440244C2F34E02E9
:101670002D4E2E482E4D2F4C42F400423A603768D2
:1016800006682D682C4A24680C303E4400681268B5
:101690002A4F35442C4420440244C2F34E02284EC3
:1016A0002848294D294C42F400423A6037680668C0
:1016B0002D68274A24680C303E4400681268254F84
:1016C00035442C4420440244C2F34E02224E2348A7
:1016D000234D244C42F400423A60376806682D6876
:1016E000214A24680C303E440068126835442C447A
:1016F00020440244C2F34E021C4842F400420260FD
:101700000B7062B6F0BC704762B6704724B00340FD
:1017100024B00B40EF18FF1F38B003403CB003402B
:1017200040B003402CB0034058B003405CB00340CD
:1017300060B0034064B003406CB0034030B003407D
:1017400038B00B403CB00B4040B00B4044B00B40B5
:101750004CB00B402CB00B4058B00B405CB00B4071
:1017600060B00B4064B00B406CB00B4030B00B402D
:1017700030B42948294A2A4B2A4D6024E1210470BB
:1017800011701B78284C082B30D00A2B2748284989
:1017900037D00C2B0CBF35225D2212232A60236028
:1017A00002600B60234B24491B78244ABBB1012300
:1017B0000B601360224B23491B78234A012B26D947
:1017C000042B0FD9082B1ED9102B94BF86238723F7
:1017D0000B6013601D4B01221A7030BC70470B6008
:1017E0001360E7E784230B601360F3E700F58E20B6
:1017F0000F490830212213232A60236002600B6006
:10180000D0E73922F7E785230B601360E2E78023F6
:101810000B601360DEE700BF004007400140074057
:10182000FD06FF1F08B003400CB0034008B00B409A
:101830000CB00B40F218FF1F20B0034020B00B404B
:10184000FE06FF1F24B0034024B00B40EF18FF1F1B
:1018500047282FD8334B2DE9F0411E5CFF2E2BD0AB
:10186000314B1B78002B2AD132062CD472B62F4D67
:101870002F4C2F46012326602B7062B672B6236868
:101880001B060CD43B781BB9F4E72B78002BF1D066
:1018900062B602F071FB72B623681806F5D5254BC7
:1018A0001B6800222A7062B6234A107843FA00F0BF
:1018B000BDE8F081002070470020BDE8F081FFF70F
:1018C000B5FE3206D2D572B61C4DDFF87C801C4CBA
:1018D00006F04007FFB206F03F06D8F80030DFB14F
:1018E00023F01003C8F8003001232660134A2B7040
:1018F00062B672B6236819060CD413781BB9ECE7EC
:101900002B78002BE9D062B602F036FB72B6236862
:101910001B06F5D50B4BC3E743F01003C8F80030A6
:10192000E2E700BFCC860000EF18FF1FF118FF1F91
:1019300000B0034010B00340EE18FF1FF018FF1F67
:1019400000B00B4010B00B400CB00B400A4A0B49E2
:10195000136843F4805313600B7843B9084BC022DB
:101960001A70084B80F30C0000B218807047044BCB
:1019700080221A70F5E700BF2C800440F218FF1F88
:1019800021C00C4000C00C400A4A0B49136843F4C4
:10199000005313600B7843B9084BC0221A70084BF0
:1019A00080F30C0000B218807047044B80221A703C
:1019B000F5E700BF2C800440F218FF1F21D00C4037
:1019C00000D00C4008B5FEF77FFEFEF7A9FE02F03E
:1019D000D3FAFAE7844641EA000313F003036DD11A
:1019E000403A41D351F8043B40F8043B51F8043BE2
:1019F00040F8043B51F8043B40F8043B51F8043BE9
:101A000040F8043B51F8043B40F8043B51F8043BD8
:101A100040F8043B51F8043B40F8043B51F8043BC8
:101A200040F8043B51F8043B40F8043B51F8043BB8
:101A300040F8043B51F8043B40F8043B51F8043BA8
:101A400040F8043B51F8043B40F8043B51F8043B98
:101A500040F8043B51F8043B40F8043B51F8043B88
:101A600040F8043B403ABDD2303211D351F8043B28
:101A700040F8043B51F8043B40F8043B51F8043B68
:101A800040F8043B51F8043B40F8043B103AEDD2D7
:101A90000C3205D351F8043B40F8043B043AF9D228
:101AA000043208D0D2071CBF11F8013B00F8013BFB
:101AB00001D30B8803806046704700BF082A13D308
:101AC0008B078DD010F003038AD0C3F10403D21A20
:101AD000DB071CBF11F8013B00F8013B80D331F854
:101AE000023B20F8023B7BE7043AD9D3013A11F8D4
:101AF000013B00F8013BF9D20B7803704B7843703F
:101B00008B7883706046704708B5104C08E02368F6
:101B100059050DD423681A050FD42368DB0411D4AA
:101B200023685803F3D501F07FFA23685905F1D5EE
:101B300000F060FC23681A05EFD500F0B1FD2368C2
:101B4000DB04EDD500F0DCFEEAE700BF34800440A2
:101B500008B5FFF7D9FF00BF014B10221A8070476C
:101B600000200540704700BF094908B50B6830B137
:101B70006A461844A2F50052904202D20860184604
:101B800008BD06F053F80C2303604FF0FF3008BD8A
:101B90000007FF1FEFF3138070B9EFF310836BB9E9
:101BA000EFF305825AB94FF48070EFF311832BB134
:101BB000984228BF184670474FF0FF3070470F2AF1
:101BC00001D81846F1E7014BD05CEEE7F0E300E006
:101BD000F0B44D1E2E46002400E00134B0FBF2F3B9
:101BE00002FB1300092800F130078ABF3730F8B232
:101BF000C0B206F8010F1846002BEED10A19537037
:101C00004CB1107815F8016F28700133E01A834247
:101C100002F80169F5DB0846F0BC704710B4114BBF
:101C200053F8302092F8804234B1012379B182F820
:101C300080305DF8044B704703EBC0035B681A68A3
:101C400051B922F002021A605DF8044B704782F825
:101C500000315DF8044B704742F003021A605DF8F2
:101C6000044B7047148700001C4A02EBC003012993
:101C70005B6811D004291BD052F83000002280F894
:101C8000802229B1022920D0032922D01A6070476E
:101C90004FF480721A60704752F830004FF4A2720D
:101CA00080F880121A601A6822F020021A607047C9
:101CB00052F830104FF4A272012081F880021A60AD
:101CC0001A6842F020021A60704740F203121A604C
:101CD00070474FF481721A60704700BF148700008C
:101CE00030B4054B054D064C002210211A602A60C5
:101CF0002060196030BC704714D0034004D003400A
:101D000000D0034038B5A0F14203012B04461FD98F
:101D1000002975DD904B1B78012505FA03F28A42F4
:101D200002D83F2827D938BDC21E012A2BD9A0F1DD
:101D30001D02012A73D90E2856D9A4F12302032AC1
:101D400057D9864A126802FB011222FA03F320E0F7
:101D5000814B1B780B2B0AD90C2B1CBF0C3B194158
:101D6000422C084657D0BDE83840FFF70DBEC3F1FE
:101D70000C039940F4E72946FFF750FF2946BDE8D8
:101D80003840FFF771BF764A126802FB011222FA4F
:101D900003F3A21E242A00F2D580DFE812F0CC0063
:101DA000C500BE00B700B000A900A2009B009400CF
:101DB000D300D300D3008D00D300D300D300D300D1
:101DC000D30086007F0078007100D300D300D300D9
:101DD000D300D3006A006300D300D300D300D30044
:101DE0005C0055004E00470044F28412C240D20706
:101DF000A3D55C4A126802FB011222FA03F3C8E77A
:101E00003F2890D80021FFF709FF20460121BDE8B7
:101E10003840FFF729BFBDE83840FFF797BD524A69
:101E2000126802FB011222FA03F3B2E74F49504A4B
:101E30000B604FF45173136038BD4E494E4A0B602E
:101E40004FF45173136038BD4C494D4A0B604FF449
:101E50005173136038BD4B494B4A0B604FF45173BB
:101E6000136038BD49494A4A0B604FF451731360FF
:101E700038BD4849484A0B604FF45173136038BD70
:101E80004649474A0B6040F24443136038BD454918
:101E9000454A0B6040F24443136038BD4349444A0D
:101EA0000B6040F24443136038BD4249424A0B6024
:101EB00040F24443136038BD4049414A0B6040F250
:101EC0004443136038BD3F493F4A0B6040F24443EE
:101ED000136038BD3D493E4A0B6040F244431360F5
:101EE00038BD3C493C4A0B6040F24443136038BD66
:101EF0003A493B4A0B6040F24443136038BD3949CC
:101F0000394A0B6040F24443136038BD3749384AC0
:101F10000B6040F24443136038BD3649364A0B60CB
:101F20004FF45173136038BD3449354A0B604FF498
:101F30005173136038BD3349334A0B6040F2444358
:101F4000136038BD3F2C3FF6EEAE7F29D4BF002191
:101F50000121204657E700BF0407FF1F0880034008
:101F60000890034008900B4008800B4048900B40BD
:101F70002CB0044040900B4028B0044038900B40F7
:101F800024B0044030900B4020B0044018800B4037
:101F90004CA0044010800B4048A00440188003402F
:101FA00008B004401080034004B004404080034067
:101FB00018C004403880034014C0044018900B40FF
:101FC00004C004402880034010B004402080034037
:101FD0000CB0044028900B400CC0044020900B40F3
:101FE00008C004403080034010C0044048800340D3
:101FF0001CC00440189003403490044010900340EB
:102000003090044010900B4000C004403F2801D89D
:10201000FFF704BE704700BF3F2801D8FFF724BE7A
:10202000704700BF72B60C490C4B0D4A1B6808681C
:10203000126862B6520102D5322B88BF01300949BD
:10204000C3F5EA334FF47A72BF33A1FB031302FBEB
:1020500000F000EB93107047F418FF1F18E000E049
:1020600004ED00E0898888882DE9F843054672B6BA
:10207000204F214B214A1B683C68126862B652010E
:1020800002D5322B88BF013495B3C3F5EA331C4E19
:10209000DFF86490DFF86480BF334FF47A72A6FBF8
:1020A000031302FB04F404EB931472B6D9F8001086
:1020B0003A68D8F800E062B6C1F5EA33BF33A6FB50
:1020C00003031EF0806FC4EB93134FF47A7002D0B9
:1020D000322988BF013200FB0233B3F57A7F04D383
:1020E000013D05D004F57A74DFE701F045FFDCE738
:1020F000BDE8F883F418FF1F18E000E004ED00E0ED
:1021000089888888F8B53E4B3E49DFF818C13E4EB5
:102110003E4ADFF814E13E4D3E4C3F4F4FF0006029
:1021200018604FF0805018604FF0005018604FF06A
:10213000804018604FF0004018600020086028239D
:102140004EF6FF71CCF80010CEF8003033600EF57B
:10215000012E13602B60236005F500253B6004F51C
:102160000024B36207F50027936206F5012602F505
:1021700001220EF1100E05F6E87504F6E87407F575
:102180007F67103220362B602360CEF800303B6032
:1021900013603360214EBB61936109223260A7F561
:1021A000002706F58056203F083638603160BB6056
:1021B000F36047F8042C06F5FD2607F5FE2706F226
:1021C000FC76043730603960B360FB6046F8042C5D
:1021D0000836C7F8FC0F06F6FC76114831602B6014
:1021E00023600260FFF7C4FA1920FFF73DFF01F0FA
:1021F00083FC40F21310BDE8F840FFF735BF00BF85
:1022000004E100E004800340148003401C8003408C
:10221000248003402C80034034800340008003402E
:1022200000900B40088003400C800340324A334941
:102230001368F0B543F4806313600A78304F314E71
:10224000314D324C32490023152A3B7033702B70CC
:1022500023700B7045D01B2A3ED082B32D4B1B78C8
:10226000052B34D01A2B41D0012B1BD01F281FD88F
:10227000002002460125284B284C1A7028495D7021
:1022800004224FF0020E88273C26402598729A704F
:102290004FF0004083F813E05A751F74DE7025700C
:1022A0000860F0BD1F4B4FF451721F281A60DFD930
:1022B000C0F34432C0F3471500F01F00DBE71A4BB0
:1022C00040F213321A60134B1B78052BCAD1174BFF
:1022D0004FF451721A60C9E7154B40F213321A607D
:1022E000BCE7144B40F213321A60B7E7124B4FF4BD
:1022F00051721A60BAE700BF348004404019FF1FD2
:10230000FC18FF1FFD18FF1F8C19FF1F8519FF1FE9
:102310008419FF1F0507FF1F00A006401FE400E00F
:1023200000E100E044A0044040A004401CC0044080
:102330003C90044018C0044038900440054A064BC5
:1023400010781B78C0B2DBB2984238BF4030C01A58
:10235000704700BFFC18FF1FFD18FF1F30B4154B5E
:10236000154C1A782378D2B2DBB29A421ED00133D0
:102370003F2B0ED91149124B087819680023C0B2BF
:10238000237021B1D31A1A2B01DC00230B7030BC4F
:1023900070470A480A49C05C0968DDB2C0B22570BE
:1023A0000029F4D09A4238BF4032EBE74FF0FF30BB
:1023B000EDE700BFFC18FF1FFD18FF1F4419FF1FAA
:1023C000F818FF1F084A094B12781B78DBB29A42B3
:1023D00007D00133402B28BF0023054AD05CC0B290
:1023E00070474FF0FF307047FC18FF1FFD18FF1FAC
:1023F0004419FF1FF0B4384B1A7912F0300F2CD06B
:1024000072B6997D01F0FF0200293DD062B6334FCC
:10241000334938780D78334E1C46C0B2EDB2431CB8
:10242000402BE17928BF0023AB4202F1FF32C9B251
:102430001CBFF154184612F0FF02F0D12A4B1B6862
:10244000C2B23A704BB1A84236BFC5F14005401B3D
:1024500040192728C4BF01221A701F49CA78D2B276
:10246000150616D452060DD51B4B1B795B0609D5F4
:102470001E4B1F491B6800220A7003B11A70164BCD
:102480003C22DA70F0BC70474022D9795A7462B6A7
:10249000E3E70B791C06E5D5164B174E1C7833780D
:1024A000E4B2DBB29C420ED0144D01E0A3420AD04C
:1024B0000133402B28BF00230879E85CC0B2C87103
:1024C000087D0728F2D9DBB2034933700B7918066F
:1024D00044BF7C23CB70C5E700A00640FC18FF1F5B
:1024E000FD18FF1F4419FF1FF818FF1F8819FF1F51
:1024F0008419FF1F8C19FF1F8519FF1F0019FF1F6B
:102500002A4A2B491368F0B443F4006313600A7835
:10251000284F294E294D2A4C2A490023092A3B706D
:1025200033702B7023700B703AD03B2A1ED0264B91
:102530001B780A2B22D03A2B2DD01F2824D800201C
:1025400002460126214B224D1A70224C5E70042156
:102550009872022288273C2640209970DA745975B7
:102560001F74DE7028702260F0BC70471A4B40F276
:1025700013321A60144B1B780A2BDCD1174B4FF423
:1025800051721F281A60DAD9C0F34432C0F34716DB
:1025900000F01F00D6E7124B4FF451721A60CCE7DF
:1025A000104B40F213321A60C1E700BF3480044080
:1025B0000607FF1F001AFF1F9519FF1F081AFF1FAC
:1025C000011AFF1F9419FF1F0707FF1F00B00640E5
:1025D00021E400E004E100E004D0044010B0044035
:1025E00000D004400CB00440054A064B10781B781C
:1025F000C0B2DBB2984238BF4030C01A704700BF4B
:10260000001AFF1F9519FF1F30B4154B154C1A788F
:102610002378D2B2DBB29A421ED001333F2B0ED9BF
:102620001149124B087819680023C0B2237021B1F8
:10263000D31A1A2B01DC00230B7030BC70470A48F8
:102640000A49C05C0968DDB2C0B225700029F4D027
:102650009A4238BF4032EBE74FF0FF30EDE700BF62
:10266000001AFF1F9519FF1FC019FF1F9019FF1FA8
:10267000084A094B12781B78DBB29A4207D0013323
:10268000402B28BF0023054AD05CC0B270474FF0F2
:10269000FF307047001AFF1F9519FF1FC019FF1F59
:1026A000F0B4384B1A7912F0300F2CD072B6997DF5
:1026B00001F0FF0200293DD062B6334F334938782C
:1026C0000D78334E1C46C0B2EDB2431C402BE1796D
:1026D00028BF0023AB4202F1FF32C9B21CBFF15444
:1026E000184612F0FF02F0D12A4B1B68C2B23A70B2
:1026F0004BB1A84236BFC5F14005401B4019272801
:10270000C4BF01221A701F49CA78D2B2150616D466
:1027100052060DD51B4B1B795B0609D51E4B1F4975
:102720001B6800220A7003B11A70164B3C22DA7043
:10273000F0BC70474022D9795A7462B6E3E70B794E
:102740001C06E5D5164B174E1C783378E4B2DBB285
:102750009C420ED0144D01E0A3420AD00133282B35
:1027600028BF00230879E85CC0B2C871087D07283B
:10277000F2D9DBB2034933700B79180644BF7C23CE
:10278000CB70C5E700B00640001AFF1F9519FF1F68
:10279000C019FF1F9019FF1F041AFF1F9419FF1F74
:1027A000081AFF1F011AFF1F9819FF1F1B4BDFF8A4
:1027B00090C01A681A49F0B542F48052194D1A6057
:1027C000DFF880E0184F194E194C00238CF80030C8
:1027D0004FF451722B701F2840F213358EF80030E1
:1027E0003B70337025600A6011D819460124114AE4
:1027F000114D11701148547000212C2740269372FE
:10280000082491701174D7702E700460F0BDC0F36D
:102810004431C0F3471400F01F03E8E7348004405C
:102820000CC00440111AFF1F7D1AFF1F7C1AFF1FE6
:1028300008C0044000C0064023E400E004E100E0DA
:10284000101AFF1F841AFF1F054A064B10781B78C9
:10285000C0B2DBB2984238BF4030C01A704700BFE8
:10286000101AFF1F111AFF1F30B4154B154C1A78A0
:102870002378D2B2DBB29A421ED001333F2B0ED95D
:102880001149124B087819680023C0B2237021B196
:10289000D31A1A2B01DC00230B7030BC70470A4896
:1028A0000A49C05C0968DDB2C0B225700029F4D0C5
:1028B0009A4238BF4032EBE74FF0FF30EDE700BF00
:1028C000101AFF1F111AFF1F3C1AFF1F0C1AFF1FBF
:1028D000084A094B12781B78DBB29A4207D00133C1
:1028E000402B28BF0023054AD05CC0B270474FF090
:1028F000FF307047101AFF1F111AFF1F3C1AFF1FED
:1029000030B42B4B1A7994061FD52A48DA7903780C
:10291000294901333F2B0978C8BF00238B42D2B22B
:1029200003D0264CD9B2E2540170254A116861B136
:10293000244A1278D2B2934236BFC2F140029B1AA7
:102940009B18272BC4BF01230B70194AD378DBB225
:10295000180611D45A060DD5154B1B795B0609D5FF
:10296000194B1A491B6800220A7003B11A70104BE8
:102970002C22DA7030BC704711790906EAD5144967
:1029800010480C780178C9B28C420DD04A1C272A15
:1029900084BF00210A460F4D054C98BFD1B2AA5CF6
:1029A000D2B2E2710170D5E76C21D170D2E700BFDD
:1029B00000C00640101AFF1F111AFF1F3C1AFF1F0C
:1029C0000C1AFF1F7D1AFF1F801AFF1F7C1AFF1FA2
:1029D000841AFF1F141AFF1F284A29491368F0B4EC
:1029E00043F4005313600A78264F274E274D284C96
:1029F000284900231F2A3B7033702B7023700B7003
:102A000037D03F2A1BD0244B1B78202B1FD03E2BC6
:102A10002AD01F2821D80020024601241F4B204D18
:102A20001A702C27002240261E495C7098722024C0
:102A30009A701A74DF702E700C60F0BC70471A4BDD
:102A400040F213321A60144B1B78202BDFD1174B46
:102A50004FF451721F281A60DDD9C0F34432C0F31D
:102A6000471400F01F00D9E7114B4FF451721A6060
:102A7000CFE7104B40F213321A60C4E734800440B1
:102A80000807FF1F8C1AFF1F8D1AFF1F001BFF1F57
:102A9000F91AFF1FF81AFF1F0907FF1F00D0064091
:102AA00025E400E004E100E014D004402CA0044040
:102AB00010D0044028A00440054A064B10781B782B
:102AC000C0B2DBB2984238BF4030C01A704700BF76
:102AD0008C1AFF1F8D1AFF1F30B4154B154C1A7836
:102AE0002378D2B2DBB29A421ED001333F2B0ED9EB
:102AF0001149124B087819680023C0B2237021B124
:102B0000D31A1A2B01DC00230B7030BC70470A4823
:102B10000A49C05C0968DDB2C0B225700029F4D052
:102B20009A4238BF4032EBE74FF0FF30EDE700BF8D
:102B30008C1AFF1F8D1AFF1FB81AFF1F881AFF1F5C
:102B4000084A094B12781B78DBB29A4207D001334E
:102B5000402B28BF0023054AD05CC0B270474FF01D
:102B6000FF3070478C1AFF1F8D1AFF1FB81AFF1F06
:102B700030B42B4B1A7994061FD52A48DA7903789A
:102B8000294901333F2B0978C8BF00238B42D2B2B9
:102B900003D0264CD9B2E2540170254A116861B1C4
:102BA000244A1278D2B2934236BFC2F140029B1A35
:102BB0009B18272BC4BF01230B70194AD378DBB2B3
:102BC000180611D45A060DD5154B1B795B0609D58D
:102BD000194B1A491B6800220A7003B11A70104B76
:102BE0002C22DA7030BC704711790906EAD51449F5
:102BF00010480C780178C9B28C420DD04A1C272AA3
:102C000084BF00210A460F4D054C98BFD1B2AA5C83
:102C1000D2B2E2710170D5E76C21D170D2E700BF6A
:102C200000D006408C1AFF1F8D1AFF1FB81AFF1F15
:102C3000881AFF1FF91AFF1FFC1AFF1FF81AFF1F3F
:102C4000001BFF1F901AFF1F1B4BDFF890C01A6874
:102C50001A49F0B542F48062194D1A60DFF880E03D
:102C6000184F194E194C00238CF800304FF4517254
:102C70002B701F2840F213358EF800303B703370F4
:102C800025600A6011D819460124114A114D1170AE
:102C90001148547000212C2740269372042491700F
:102CA0001174D7702E700460F0BDC0F34431C0F3CE
:102CB000471400F01F03E8E72880044060D0044078
:102CC000091BFF1F751BFF1F741BFF1F64D00440EF
:102CD00000A00E4042E400E008E100E0081BFF1FF6
:102CE0007C1BFF1F054A064B10781B78C0B2DBB275
:102CF000984238BF4030C01A704700BF081BFF1F02
:102D0000091BFF1F30B4154B154C1A782378D2B22B
:102D1000DBB29A421ED001333F2B0ED91149124B20
:102D2000087819680023C0B2237021B1D31A1A2B76
:102D300001DC00230B7030BC70470A480A49C05CB4
:102D40000968DDB2C0B225700029F4D09A4238BFBC
:102D50004032EBE74FF0FF30EDE700BF081BFF1FED
:102D6000091BFF1F341BFF1F041BFF1F084A094BD1
:102D700012781B78DBB29A4207D00133402B28BF70
:102D80000023054AD05CC0B270474FF0FF30704757
:102D9000081BFF1F091BFF1F341BFF1F30B42B4BE9
:102DA0001A7994061FD52A48DA790378294901331C
:102DB0003F2B0978C8BF00238B42D2B203D0264CE8
:102DC000D9B2E2540170254A116861B1244A1278DF
:102DD000D2B2934236BFC2F140029B1A9B18272BF6
:102DE000C4BF01230B70194AD378DBB2180611D483
:102DF0005A060DD5154B1B795B0609D5194B1A4997
:102E00001B6800220A7003B11A70104B2C22DA7072
:102E100030BC704711790906EAD5144910480C787E
:102E20000178C9B28C420DD04A1C272A84BF0021E8
:102E30000A460F4D054C98BFD1B2AA5CD2B2E271DE
:102E40000170D5E76C21D170D2E700BF00A00E4021
:102E5000081BFF1F091BFF1F341BFF1F041BFF1F45
:102E6000751BFF1F781BFF1F741BFF1F7C1BFF1FA1
:102E70000C1BFF1F431E032B14D872B60A4951F8CE
:102E8000230068B170B4094C058834F813204668F3
:102E900041F82360521B24F8132062B670BC7047BF
:102EA00062B6704700207047D81BFF1F881DFF1FA8
:102EB000013803280BD872B6074B53F8203043B1C2
:102EC00000205B680130002BFBD162B67047002008
:102ED00070471846F9E700BF2C1CFF1F30B472B6CC
:102EE0002B4A13781D0706D52A4B196A002936D0BC
:102EF000996A002941D053781C0706D5254B196CD7
:102F000000293ED0996C002939D09378190705D54E
:102F1000204B196E002936D0996E89B1D3781B07E2
:102F200007D51C4BD3F880207AB3D3F88820112121
:102F30003AB162B6184B00221A7030BC00F08CBE59
:102F40000D21154C154D227843F8315003EBC10388
:102F50000830013A5860227062B630BC70470422D3
:102F60000D4C0F4D217843F8325003EBC20308306B
:102F70004A1E5860227062B6EFE70521E1E7092199
:102F8000DFE70822ECE70C22EAE71022E8E700BFBF
:102F90003C8900000000FF1F551CFF1FC8004000B7
:102FA00088004000431E032B1DD81B4A400140F0FF
:102FB000100030B4104472B6184CE25C032A1BD8DF
:102FC000DFE802F00212151703220D88E25410F018
:102FD000080F14BFC823882343EA05430831036060
:102FE000416062B630BC704708300222EDE705222E
:102FF000EBE708300422E8E7094A52F8230038B129
:10300000084A52F82300416042F8231062B6E9E70B
:1030100042F82310034AF7E70000FF1F641CFF1F5C
:103020002C1CFF1F3C1CFF1F2DE9F04FDFF80CB3D9
:10303000DFF80CA387B044E0AB4F4FEA930807EBEF
:10304000C809013ED9F8042003F00803F6B2A2F142
:10305000080003F0FF04002B40F0028157F83830DD
:103060001B0C99B222F8081C002B00F0F0809F4B3B
:1030700022F8064C42F8044C53F82620002A00F0AF
:10308000C5829B4D55F8263058609A4C45F826006D
:1030900034F81630194424F8161000F0BDFD00284D
:1030A00000F0AD82944A954B19F0080F00F108002A
:1030B00018BF1346C9F8040047F8383008238BF8C6
:1030C00000309BF80040E4B261071AD58C4B1B78A6
:1030D000A3B18C490A7802F0FF0322B1013BDBB2B5
:1030E0000B7003B900BE88490A7802F0FF032AB1C9
:1030F000013BDBB20B70002B00F0578204238BF8EE
:10310000003004F0080303F0FF02002B00F0CC8035
:103110009AF80030DBB21E098ED19C08DFF8C89106
:1031200059F8342009EBC401C2F38302013A49681B
:103130000C2A00F28880DFE802F07C7C8686868696
:1031400086864786868607000868704D4A68704FF5
:10315000704E286081B240F28160674B6A604FF028
:10316000010E0022814249F834303A60C9F810203B
:10317000C9F8182086F800E05B4C00F2E380B1F556
:10318000D06F80F04683B1F5817F00F0FC8200F2C1
:103190008D82802900F07783822940F0FA82A98805
:1031A00001F07F01042900F2F4825B485B4C890046
:1031B0000844227062700278930740F1588484F8C2
:1031C00000E04FF0020E42E3514F3A6832B3544BE5
:1031D000504E5449188834780D784028864645F07A
:1031E000020828BF4FF0400E002C84F00104347018
:1031F000CEEB00000CBF8824C82409EBC80680B2BF
:1032000085F0010544EA0E447260188049F83840A0
:1032100072440D70002800F045813A603B4B1A88DB
:10322000B2F5A06F0FD100219A7859703E4B1A70F9
:1032300009E0364A108842F22102904200F03781BC
:103240002D4A49F83420394A0123137036E72A4AB7
:103250002A4B19F0080F18BF134647F838302DE7EE
:1032600000F0FAFC324A334952F82630002B00F0C5
:10327000D18158688C5D42F8260003F10802C9F834
:103280000420032C05D8DFE804F02C0229260222B2
:103290008A551A8819F0080F0CBF8823C82343EAFF
:1032A000024347F8383009E7E00700F18181210641
:1032B00000F1F281A20706D51F4A204913780220A7
:1032C000DBB213700870E30602D51C4B10221A7093
:1032D00007B0BDE8F08F04228A55DAE705228A5547
:1032E000D7E703228A55D4E70000FF1FD81BFF1F32
:1032F000841BFF1F881DFF1FC8004000880040007E
:10330000601CFF1FE91BFF1F681CFF1F4C1CFF1FD9
:10331000801BFF1FE81BFF1FC0200740581CFF1F1A
:10332000941BFF1F541CFF1F982007409420074048
:103330002C1CFF1F641CFF1F8820074080200740B3
:103340009020074042F22100814200F02A8100F2E1
:10335000D880B1F5086F00F07682B1F5106F40F0BB
:103360001882226AB349A8780870120600F13A83DD
:10337000D9F82820B049130600F10C83D9F8302081
:10338000AD49150600F10183D9F83820AA49140681
:1033900000F1F682D9F84020A749100600F14A83CF
:1033A000D9F84820A449120600F13F83D9F85020EB
:1033B000A149130600F13483D9F858209E49150617
:1033C00000F12983D9F860209B49140600F11E837F
:1033D000D9F868209849100600F11383D9F87020B5
:1033E0009549120600F10883D9F87820924913060E
:1033F00000F1FD82D9F880208F49150600F1318354
:10340000D9F888208C49140600F12583D9F890203A
:103410008949100600F11983D9F8982086491206C7
:1034200000F10D838548864A864901908648874D7C
:10343000874C049700230596029580460F46164652
:103440001D460394306828B1446800F005FC20460E
:10345000002CF9D100233360029B38681A46002300
:1034600042F8253028B1446800F0F6FB2046002CD5
:10347000F9D100223A60019A98F8003011460022F2
:1034800041F8042B039A0191023B4FF0000122F80E
:103490001510032B00F22B81DFE813F070012501DA
:1034A00070012501BEF1400F18BF0022B5E6694A40
:1034B0000D784878157050708D78C8789570D070F8
:1034C00010680D79157186284D798979557191713A
:1034D00000F09B816049614E0A78307882F00105E6
:1034E000002842F002020D700CBF8821C82149F863
:1034F000321009EBC20280F00100002130705160EF
:103500009EE642F22120814240F0CB81544B554C43
:103510005549A8781D682560CDF804E008700020A2
:1035200002908046844604464B490D7845F0020ED1
:1035300009EBCE030393019B002B039B5C600CBF44
:103540008824C82444EA080385F0010449F83E3081
:1035500032700C70DFF8E0E0404BDFF8FC800028B0
:1035600040F01E81BCF1400F1BD144F0020C09EB6E
:10357000CC03029CDFF8C0E05C60002A40F02681AA
:10358000020442F088029DF804304EF83C200444C6
:1035900033700D702346402803D10020334A3B602E
:1035A0001080334A012313704DE600F0C1FCA5E5FD
:1035B000214B2F4828491A614FF0020E80F800E095
:1035C0002C4F0A702C49196099602C4E2C4D2D4CB3
:1035D0009A610D213970FF213170DFF8B8E0297050
:1035E0002270294D294A8EF800109F27012406F8E1
:1035F000047C5D600470DA6007B0BDE8F08F244A97
:1036000047F8380013780133137057E543F8260064
:103610000E4D3AE58B5D032B00F2F08001A252F8CB
:1036200023F000BFBD300000BD300000E1360000D7
:10363000DB360000601CFF1F0000FF1F3C1CFF1F4B
:10364000D81BFF1F2C1CFF1F641CFF1F841BFF1FA8
:10365000881DFF1F901DFF1F541CFF1FE81BFF1F2D
:10366000F418FF1F981DFF1F781CFF1F941BFF1FDE
:1036700094200740C0200740880040008820074071
:103680008020074098200740981BFF1FEC1BFF1F5E
:10369000551CFF1F8C200740C149C24B80220D20C2
:1036A00008701A70A2077FF50EAE05E640F20232EE
:1036B000914240F0EE80A98801F07F01042968D88A
:1036C0006A88002A65D1B648CDF804E0890008442C
:1036D000017841F00201017021E701238B55EDE4EF
:1036E00000238B55EAE44FF0010388F800300135E0
:1036F000042D06F1040607F1040708F101087FF420
:10370000A1AEA94CA94B2278A94D049F059E00218A
:1037100029701A70130700F105816278A549DFF856
:10372000A0820A7010074FF00001C9F83010C9F8E4
:10373000381000F1E080A049A2780A700021C9F891
:103740005010C9F858101107DFF8748200F1018198
:10375000E2789A499A4C0A7000211207C9F8701051
:10376000C9F8781000F1B08033780193002183F01C
:103770000102C9F89010C9F89810D0E64FF0000384
:1037800088F80030B3E7A98801F07F01042940F2EE
:103790008D80834A0F2313708A4A0123137052E5E8
:1037A00040287FF6E2AE44F002040EEBC401029E14
:1037B0004E60BAB19DF80410834A19703346403800
:1037C00088F8005040334EF83420E7E69DF8043086
:1037D00033700204029B0D7042F0C80203444EF89D
:1037E0003C20D8E69DF804101970029B774A88F8AF
:1037F0000050403840334EF83420CFE619F0080F1F
:103800000CBF022303238B5558E4714A0F2111701A
:1038100060E6704A5468002CBBD06888B5F804E0B4
:1038200003E00C325468002CB3D013888342F8D1E3
:1038300053887345F5D1000A03280CBF94F800E0C3
:10384000B2F808E003E0644A644C12782270E88819
:10385000704580F03F8162490D784028844645F0EC
:10386000020E28BF4FF0400C04EB0C0309EBCE0214
:10387000029301235460CCEB00004FEA0C48002275
:103880000193C8245EE6554C4FF0020E2270627020
:10389000DDE7B1F5A06F7FF47CAF01230022019337
:1038A0003DE642F221329142F7D072E76A88002A5F
:1038B0007FF46FAF3A48CDF804E0890008440178FE
:1038C00021F0020101702AE600F0A6F9002800F0BC
:1038D000EF8008303D4AC4F88400C4F8802000F02E
:1038E0009BF9002800F0DE800830374AC9F88C00C8
:1038F000C9F8882038E700F08FF9002800F0C08070
:103900000830324AC8F84400C8F8402000F084F972
:10391000002800F0AF8008302B4AC9F84C00C9F8E5
:10392000482008E700F078F9002800F0CD80083042
:10393000264AC9F82400C9F8202000F06DF90028B3
:1039400000F0BC800830204AC9F82C00C9F82820B3
:10395000E3E600F061F9002800F09E8008301B4A81
:10396000C8F86400C8F8602000F056F9002800F09C
:103970008D800830144AC9F86C00C9F86820E7E661
:10398000C86B083800F068F904E5486B083800F0A7
:1039900063F9F9E4C86A083800F05EF9EEE400BFA4
:1039A000C0200740802007403C890000C420074019
:1039B000551CFF1FC8200740CC200740D0200740DF
:1039C0000000FF1F94200740C8004000880040000E
:1039D000E91BFF1F40890000601CFF1F581CFF1FD0
:1039E000541CFF1F606A083800F036F9C0E4C86F45
:1039F000083800F031F9FDE4486F083800F02CF980
:103A0000F2E4C86E083800F027F9E7E4486E083899
:103A100000F022F9DCE4C86D083800F01DF9D1E4AB
:103A2000486D083800F018F9C6E4C86C083800F092
:103A300013F9BBE4486C083800F00EF9B0E4D1F893
:103A40009C00083800F008F9ECE4D1F8940008383C
:103A500000F002F9E0E4D1F88C00083800F0FCF83E
:103A6000D4E4D1F88400083800F0F6F8C8E44FF048
:103A7000020EECE62A78C9F8480001322A705AE6AC
:103A80002A78C8F8400001322A703FE72A78C9F83E
:103A9000680001322A705BE62A78C8F860000132BB
:103AA0002A7061E72A78C9F8880001322A705BE63B
:103AB0002A78C4F8800001322A7010E72A78C9F801
:103AC000280001322A7028E62A78C9F8200001323D
:103AD0002A7032E7BEF1400FF44628BF4FF0400C89
:103AE00004EB0C0302930123CCEB0E004FEA0C48CD
:103AF0000022019318E500BF2DE9F04100F020FC01
:103B00002F4C304B3048DFF8D880304F304D314E9D
:103B1000DFF8D0C0DFF8D0E000221A605A609A6067
:103B2000DA601A615A619A61DA611A625A629A62BB
:103B3000DA621A635A639A63DA631A645A649A649B
:103B4000DA641A655A659A65DA651A665A669A667B
:103B5000DA661A675A679A67DA67C3F880202168BD
:103B6000C3F8842041F480212160016841F0407154
:103B70000160C3F3072188F8001004F52834C3F36B
:103B800007411B0E3970CC342B7000F12040FF230D
:103B90008CF80030104D8EF8003000F604103370B1
:103BA0000E49012308F8083C702622704FF40014D7
:103BB000102207F82C3C2E7004600A70BDE8F081DA
:103BC000348004400000FF1F00D80040B0200740B0
:103BD000B42007401020074035E400E008210740EA
:103BE0009C200740802007408820074000F0A4B8B0
:103BF00000F07CB800F056B800F090B800F06CB956
:103C000000F046B90846114600F0B2B8084600F088
:103C100033B900BF704700BF72B60D480268B2FAF0
:103C200082F30B2B10DC4FF00041D94022EA010255
:103C3000026062B6074803EBC303DB00C218002131
:103C4000C15010465160704762B60020704700BFF7
:103C50001C07FF1F9803FF1F0D4B0E4AC31AA2FB40
:103C600003231B090B2B0CD80B4A127852B972B6DE
:103C70000A484FF00041026821FA03F31A43026038
:103C800062B67047064A1278002AF0D0FFF726B9CC
:103C90009803FF1F398EE338551CFF1F1C07FF1FB9
:103CA000601CFF1F38B50F4D286878B14388028823
:103CB000C118013393420C7A02D24380204638BDAA
:103CC000FFF7CAFF002320462B6038BD064B1B7848
:103CD0002BB10320FFF7CEF828600028E6D14FF083
:103CE000FF3038BD741CFF1F601CFF1F10B5094C4E
:103CF000206818B143881844007A10BD064B1B7821
:103D00002BB10320FFF7B6F820600028F2D14FF066
:103D1000FF3010BD741CFF1F601CFF1F044B054AC1
:103D20001B6890881BB11A885B88D31A18447047A7
:103D3000741CFF1F881DFF1F0B4B1B789BB110B518
:103D40000A4C206848B1FFF787FF00230320236057
:103D5000FFF790F830B1FFF77FFF0320FFF78AF8F5
:103D60000028F8D110BD7047601CFF1F741CFF1F96
:103D70002DE9F04FDFF8F89083B0012289F8002098
:103D8000019169B3DFF8EC80364F019E8346D8F885
:103D90000000B0B3344D4488C4F14001B14228BFA3
:103DA000314604EB010E00221FFA8EFE2A70761AAD
:103DB000A0F802E000F1080251B1013C224459444C
:103DC0001BF8014B02F8014F8B45F9D1B0F802E026
:103DD000BEF13F0F0BD8254A05211170002ED6D118
:103DE0000198002389F8003003B0BDE8F08F40222D
:103DF000028001460420FFF7D5F80022C8F8002011
:103E0000E9E73A782AB3184D4DF2E9044FF0010A78
:103E100007E0013C16D02A78A2B900F0ADF83A7854
:103E2000BAB10420FFF744F80728F2D889F800A0B7
:103E3000FFF7F2FEC8F800000028ACD10C4B013CA3
:103E40001870E8D101234FF0FF302B7003B0BDE8AC
:103E5000F08F00234FF0FF3089F8003003B0BDE849
:103E6000F08F00BF601CFF1F701CFF1F681CFF1F2E
:103E7000691CFF1F6C1CFF1F00B583B002AB012142
:103E800003F8010D1846FFF773FF03B05DF804FB5C
:103E900038B50E4D0E4C28680123237028B1408898
:103EA00000232370C0F1400038BD0A4B1B7813B9C2
:103EB0000020207038BD0420FEF7FAFF0728F7D84D
:103EC000FFF7AAFE28600028E9D1F1E76C1CFF1F6C
:103ED000691CFF1F601CFF1FF8B5114B1B788BB1CD
:103EE000104E114D346801272F7064B10F4A63885A
:103EF00000271770214623800420FFF753F837600E
:103F000000232B70F8BDFFF787FE084B28B1014650
:103F100004201C70FFF746F8F2E71F70F0E700BFBF
:103F2000601CFF1F6C1CFF1F691CFF1F681CFF1F0C
:103F300038B50E4B1B7873B90D4C216861B103F095
:103F4000FF054B880B800420FFF72CF8256038BD57
:103F5000084B01221A7038BDFFF75EFE0028F7D02B
:103F60000146BDE838400420FFF71CB8691CFF1F5C
:103F70006C1CFF1F681CFF1F38B52C4C237803B145
:103F800038BD01232370FFF7C9FE002842D1FEF798
:103F9000D5F900283BD1FEF727FB002834D1FEF7E6
:103FA00053FC70BBFEF788FD40BBFEF79BFE10BBC9
:103FB00000F04AF9E0B900232370EFF30583002BEA
:103FC000DED1EFF3108172B6194B186828B3194C83
:103FD000227812BB45691D60012323700DB3AA61CD
:103FE00001B962B600254577836898472570C7E711
:103FF00000F028F9DFE700F023F9D9E700F01EF917
:10400000D3E700F019F9CDE700F014F9C7E700F0A5
:104010000FF9C0E7FFF7FEFDB9E70029B0D162B69E
:1040200038BD054B1D600029DCD1DAE7791CFF1F84
:104030008C1CFF1F901CFF1F881CFF1F10B4EFF388
:10404000108272B6437F33B9017F012908D003295A
:1040500010D00123437702B962B65DF8044B704774
:10406000114C2168A1B1114943610B68836108605B
:104070005861EEE70E4C216881B10E4943610B682F
:104080008361086058610C4B4FF080511960E0E784
:10409000064B4161816120601860DAE7054B4161A0
:1040A000816120601860EEE78C1CFF1F881CFF1FD9
:1040B0007C1CFF1F801CFF1F04ED00E010B4047F78
:1040C0004160022CC26003D05DF8044BFFF7B6BF1D
:1040D00083685DF8044B184770B5EFF3108272B631
:1040E0000C4C206880B10C4E00254369236073B1ED
:1040F0009D6102B962B6457783689847EFF31082F5
:1041000072B620680028F0D102B962B670BD336083
:10411000EFE700BF7C1CFF1F801CFF1FFFF7DCBF09
:10412000184A30B41468002C27D0036821688B42E9
:104130000ED2CB1A00218460C1602360E060106061
:104140000223037530BC704711688B42144608D3B4
:10415000A2685B1A0360002AF6D18260C460A06086
:10416000EEE7D268C2608460E060C568CB1A0222C4
:10417000A8602360027530BC70478460C460106022
:10418000DEE700BF841CFF1FF8B5224E34682CB355
:104190002368002B3AD1204F1D4604E03468ECB16F
:1041A0002368002B32D1A36803B1DD60206933603E
:1041B000036825751B68BB4221D1037F4560022B34
:1041C000C46020D0FFF73AFF6368002BE6D023607D
:1041D0002046FFF7A5FF3468002CE1D1EFF31083F0
:1041E00072B60E4A00211068116003B962B628B198
:1041F0008468FFF795FF20460028F9D1F8BD2246D4
:1042000000219847E0E783689847DDE7013B23609A
:10421000E4E700BF841CFF1FBD400000941CFF1F8B
:10422000024A136801331360FFF7AEBFF418FF1F93
:10423000704700BF704700BF704700BF704700BFA6
:10424000704700BF704700BF054A064B10781B78C7
:10425000C0B2DBB2984238BF4030C01A704700BFCE
:104260009C1CFF1F9D1CFF1F30B42B4B1A7994061A
:104270001FD52A48DA790378294901333F2B097879
:10428000C8BF00238B42D2B203D0264CD9B2E2542D
:104290000170254A116861B1244A1278D2B2934262
:1042A00036BFC2F140029B1A9B18272BC4BF0123C3
:1042B0000B70194AD378DBB2180611D45A060DD503
:1042C000154B1B795B0609D5194B1A491B6800224F
:1042D0000A7003B11A70104B2C22DA7030BC704790
:1042E00011790906EAD5144910480C780178C9B249
:1042F0008C420DD04A1C272A84BF00210A460F4D4C
:10430000054C98BFD1B2AA5CD2B2E2710170D5E778
:104310006C21D170D2E700BF00B00E409C1CFF1F83
:104320009D1CFF1FC81CFF1F981CFF1F091DFF1F9E
:104330000C1DFF1F081DFF1F101DFF1FA01CFF1FCE
:1043400072B6184A184B19491160702280211A70F0
:104350001A46197013781B06FCD510B5144B84B09F
:10436000186862B6134B144C984298BF00EB80005B
:1043700001A998BF40000A22FDF72AFC01A92046A6
:10438000002311F8012B01333AB10A2B20F8022F38
:10439000F7D11623237004B010BD5B00DBB223708D
:1043A00004B010BD040002400000024000000741BC
:1043B0000C0002407F969800AC07FF1F0B46014699
:1043C000184603F02DBC00BF0369D3F83801D3F8B9
:1043D0003431C01A704700BF0369D3F83411D3F8E1
:1043E0003821914208D2D3F83421511C1A44C3F821
:1043F000341192F8300070474FF0FF30704700BF23
:104400000369D3F83411D3F8382191423DBFD3F872
:1044100034219B1893F830004FF0FF30704700BFF5
:10442000704700BF0369D3F84422B2F5817F03D9F6
:104430000123037100207047D3F8442210B49C1864
:104440000132C3F8442284F83C1101205DF8044B8A
:10445000704700BF38B503690A4A026093F84822E2
:10446000022A044601D0204638BDD3F87452002DEC
:10447000F9D0284601F01AFB2846082101F034FB48
:10448000204638BD9C89000038B503690546D3F83D
:104490004402B0F5817F1AD81446D3F84422D3F8E9
:1044A0004402C2F58172013203F59E73A2421844A0
:1044B00002D2012314462B712246FDF78BFA2A699A
:1044C000D2F844322344C2F84432204638BD012396
:1044D0002B71002038BD00BF2DE9F04F574C83B041
:1044E00006460D4692461F469DF830809DF834E002
:1044F0009DF83890234621460022022004E0043231
:104500001C2A36D011F8040F8542F8D1487850455E
:10451000F5D196F84A121A448A4592F803B000F091
:104520008680BBF1000F28D0BEF1000F0BD096F8AB
:104530004C2296F84A020193002A14BF022100215E
:10454000FDF76AFD019B4FEA0B2202F4E062B8F12D
:10455000000F60D142F06402394901EBCA01012029
:1045600049680A6086F84AA286F84C8286F8980262
:1045700003E096F84A224FF0000B0022022104E0EB
:1045800004321C2A36D014F8041F8D42F8D1A178C9
:10459000B942F5D11A4496F84B32D4789F4240D0B4
:1045A000002C34D0B9F1000F09D096F84C3296F8AF
:1045B0004B02002B14BF02210021FDF72DFD230229
:1045C00003F4E063B8F1000F28D143F064031C4A00
:1045D00002EBC70201215268136086F84B7286F81D
:1045E0004C8286F89912BBF1000F10D0012003B065
:1045F000BDE8F08F96F84B32BB4208D1B9F1000FFD
:1046000005D00024BBF1000F01D0002CEED100201A
:1046100003B0BDE8F08F42F003029DE743F00303CF
:10462000D5E7B9F1000FEDD1002CC8D1EFE7BEF10D
:10463000000FA2D1BBF1000F85D19EE7B889000021
:1046400014870000F8B5C3681B789B0610D48368F4
:104650000D4680211970C3681221197090F84932F3
:10466000012B044606D08AB980F848220120F8BD03
:104670000020F8BD1A4675B95E4B4FF08071196085
:10468000022A0FD0012084F84802F8BD531E012BE6
:10469000F1D90120F8BD012D4BD1564B4FF00071DF
:1046A0001960EDE7D4F87462002E00F0978033793A
:1046B000102B30D0002D43D132684F49938B4F4F90
:1046C0009BB243F0080393833279531102F1100037
:1046D0009B0041F8207003F1604303F56143012121
:1046E00002F01F0201FA02F231681A608B8B9BB252
:1046F00043F002038B83337903F1804303F50433E2
:1047000092221D701A700022022384F85E2284F81F
:1047100048320120F8BD304601F0C8F93046082182
:1047200001F0E2F900230120C4F8743284F8480251
:10473000F8BD022DA4D1324B4FF4806119609FE780
:10474000012D26D132682C49938B2E4F9BB243F01A
:10475000080393833279531102F110009B0041F852
:10476000207003F1604303F5614302F01F0295409E
:1047700032681D60938B9BB243F0020393833379BD
:1047800003F1804303F504330021932219701A705A
:10479000B9E7022DB7D1D4F8741217480A681A4E37
:1047A000938B9BB243F0080393830A79531102F170
:1047B00010059B0040F8256003F1604303F5614359
:1047C000012002F01F0200FA02F208681A60838BCF
:1047D0009BB243F0020383830B79D1E7082001F0F9
:1047E00081F9314607463E4601F0FCF8C4F8747280
:1047F0005DE700BF00E100E00002FF1F89580000F4
:1048000008E100E095580000A1580000F0B5284EDE
:10481000DFF8ACE0A6FB0143A6FB02429E0937028B
:104820007546960914240023B7FBF6F604E001331D
:10483000372B1BD055F8044F22029642F7DA83BB80
:1048400014241C4A4568B1FBF4F491422B70C0F863
:10485000504207D8184B8269A3FB0131C1F30751BD
:104860001170F0BD836904221A70F0BD0024224645
:104870004FF470274FF470654FF0360CB21AF71BE7
:10488000002A87EAE776A6EBE776B8BF524296425F
:1048900002DD0A4AD35CD4E7084B2C4613F80C30EF
:1048A000CFE703F1FF3C5EF82C502F02E6E700BF94
:1048B000D34D6210FF6BDC02819F5E16B48A00004C
:1048C000D8890000F0B49DF814409DF810609DF860
:1048D00018503CB135B1C7683F78BF0602D50020FB
:1048E000F0BC7047069505940496F0BCFFF7F4BD44
:1048F0002DE9F04184B0044694469DF828609DF867
:104900002C209DF830009DF834E09DF83C700D4659
:1049100000294CD1DFF8F880D8F8001041F04001B0
:10492000C8F80010002184F849C284F85512BCF17F
:10493000000F2BD163692021197012B994F84A2213
:10494000D2B210B994F84B02C0B294F8981294F80D
:10495000996202960346CDF800E00191204629466F
:10496000FFF7B0FF0E9A29492046FFF74FFF3A465E
:1049700029462046FFF766FE94F84932002B37D0CF
:10498000A368C0221A7004B0BDE8F0816169CEB19D
:104990004FF0280C81F800C09E4221682ED95B00A0
:1049A000DBB20B707600E369F6B21E70C5E7012931
:1049B00013D1DFF85C80D8F8001041F08001C8F80E
:1049C0000010AFE74FF0200C81F800C021685B00B9
:1049D000DBB20B70E3691E70AFE70229A2D1DFF8EA
:1049E0003480D8F8001041F04001C8F8001099E771
:1049F000A36880221A7004B0BDE8F0817600F6B298
:104A00000E705E00E369F6B21E7096E700879303AE
:104A100034800440288004402DE9F041154682B0DE
:104A200004460F469846FDF7FDFA0DB9D4F87852C2
:104A3000FDF7F8FAA3681A789206064609D5B4225B
:104A40001A70374B1B78002B35D0012002B0BDE81F
:104A5000F08155BBE3681B7803F0200303F0FF02ED
:104A6000002BF6D1A36884F84922B0221A70A368FB
:104A70001B7803F0200303F0FF00002BE1D1062395
:104A800084F85532D4F89032013304D0D4F89032FF
:104A90000133C4F89032D4F87032002BD6D0019094
:104AA0009847019802B0BDE8F081FDF7BBFA801B82
:104AB0008542CFD8DBE794F84832013B012BC4D8BC
:104AC000FDF768F8012F1DD012D3022F10D1154B1E
:104AD0001B788342B9DB0F2817DD012F19D00AD3C9
:104AE000022F08D1A0F110030E4ADBB21370ACE71D
:104AF0000D4B1B78EDE7A0F110030B4ADBB21370EE
:104B00000120A3E7094B1B78E3E7012088F80000A8
:104B10009CE7A0F11003054ADBB23846137095E715
:104B2000501DFF1F4AE400E018E400E019E400E033
:104B30000369490083F83C11036900220121C3F88D
:104B40004412027183F85522704700BF2DE9F043EB
:104B5000054683B0D0F8440200248DF80740C0B168
:104B600090461C460BB9D5F87842AA69137843F0F1
:104B700050031370AA69137803F0DF031370EB6816
:104B800012221A7028460DF107032246FFF744FF50
:104B900010B903B0BDE8F08395F84832BBB19DF879
:104BA0000720A2B9591E0129F3D80821022B85F844
:104BB000551285F85482C5F8402200F0A180AB68F8
:104BC000F0221A702B6995F83C211A70E1E7FDF785
:104BD00029FA082385F85532D5F8447285F85482AD
:104BE00006465FB305F23B1800274FF00209002C80
:104BF00044D12B6918F8012F1A70EA6813789807C6
:104C000037D4002CFAD0FDF70DFA801B8442F4D87B
:104C1000EB6883F80090FDF705FA801B84420BD9FE
:104C2000EA681378DBB2D9063AD4DB074AD4D5F860
:104C300044320137BB42DAD895F85482AB68B8F1F8
:104C4000010F0CBF8022B0221A70D5F84432BB424B
:104C50001AD9012385F85532D5F88032013304D0B2
:104C6000D5F880320133C5F88032D5F870329BB95F
:104C70008FE782F80090002CD2D0CCE7FDF7D2F974
:104C8000801B8442B5D8D7E7D5F86032002285F87A
:104C90005522002B3FF47DAF984703B0BDE8F08369
:104CA0001023042185F855121370AB6880221A7006
:104CB000D5F88C320133D8D0D5F88C320133C5F811
:104CC0008C32D2E77FB9022385F85532D5F8843289
:104CD000013304D0D5F884320133C5F88432AB688F
:104CE00080221A70C1E7032385F85532D5F888323F
:104CF0000133F4D0D5F888320133C5F88832EEE7B5
:104D0000D5F84432042B7FF65AAFD5F8741201203F
:104D10000C6885F85E02D5F84432E2710E68A08016
:104D200005F59F772760B0600C68033B98B2E0837D
:104D300009685B42E360C882D5F8741228690B6881
:104D4000B0F1804F9A7118619A820B6801D39A680A
:104D500012B901229A600B6800229A612FE700BF06
:104D60002DE9F04182B000258DF807509DF82070A4
:104D7000099E2BB1B3F5827F05D3052380F8553208
:104D800002B0BDE8F081C0F83451C0F85832C0F824
:104D900038510EB9D0F8786290468269137843F0A2
:104DA000500313708269137803F0DF031370C36834
:104DB00012221A700DF1070332460446FFF72CFE4B
:104DC0000028DDD094F848321BB19DF80720002A56
:104DD00051D0FDF727F94FEA480343F00103226958
:104DE00084F85472DBB2092184F855120546137019
:104DF000E26813789B071ED4002EFAD0FDF712F953
:104E0000401B8642F4D8E36802221A70FDF70AF9C3
:104E1000401B864213D8A26801238021117084F8B8
:104E20005532D4F8803201331FD0D4F880320133A8
:104E3000C4F8803219E002231370002EE6D1E26834
:104E40001378DBB2D9062CD4DF073CD5A368022146
:104E5000802284F855121A70D4F88432013304D0B9
:104E6000D4F884320133C4F88432D4F87032002B81
:104E700086D0984784E7591E012981D80921022B41
:104E800084F8547284F8551200F0E080A268F02192
:104E900011704FEA480343F001032269DBB213703B
:104EA0006EE71023042184F855121370A368802242
:104EB0001A70D4F88C320133D7D0D4F88C32013345
:104EC000C4F88C32D1E7D4F858320A22012BA368F7
:104ED00084F855220CBFA822A0221A7023691B78DF
:104EE0004FF00008B027D4F85832D4F838219A424D
:104EF000BFF446AF94F855320A2B7FF441AFE26815
:104F0000137898073CD4002EFAD0FDF78BF8401B9D
:104F10008642F4D8E36802221A70FDF783F8D4F8C9
:104F20003821D4F85832401B911C86428CBF002295
:104F30000122994206D086422FD894F85D22002A99
:104F40004CD10122A368A8211970D4F83811D4F8E3
:104F500058320131994226D2002A5AD094F85D3253
:104F6000002B3DD1D4F838312269591CC4F83811CE
:104F70002344127883F83020012384F85D32B2E7AD
:104F800002231370002EC8D1D4F83821D4F8583237
:104F900002329A4201D13246D4E7D4F838210132A4
:104FA000934236D80022A36884F85D821F7023697B
:104FB0001878D4F83831E1180133C4F8383181F861
:104FC000300094F85432012B1CD06ABBD4F8643200
:104FD00084F85522002B86D0984784E7D4F83821EE
:104FE000A36884F85D821F7023691978D4F838317A
:104FF000E2180133C4F8383182F8301094F85422A2
:10500000012A11D12823013BFDD1A3688021197009
:10501000DBE7D4F838212169501CC4F83801224458
:10502000097882F8301060E7012384F85532D4F80B
:105030008032013304D0D4F880320133C4F8803296
:10504000D4F87032002B97D0984795E7D4F85832AF
:10505000042B7FF61BAFD4F8743220691968012540
:1050600084F85E52B0F1804FCA718A8008601A6875
:1050700001D3916811B9012191601A68D4F87412B2
:10508000D4F8583208680025D56085710E6804F19F
:105090003002012502618582B5600868013B9AB241
:1050A000C28309685B428361CA82EFE6036993F8B1
:1050B0005532013B052B0CD8DFE803F00307090349
:1050C0000503042070470120704702207047032029
:1050D00070470079003018BF0120704770B5154641
:1050E0000446FCF79FFF0DB9D4F87852FCF79AFFFD
:1050F000064694F85532072B1AD9002DF9D0FCF743
:1051000091FF801B8542F4D8FCF78CFF801B854201
:1051100010D894F84832022B0CD194F85E324BB17F
:1051200094F85532072BFBD8012384F8553201E05F
:10513000002DE9D194F85532072B02D9012384F8C8
:105140005532A023013BFDD194F85502B0FA80F00E
:10515000400970BDF8B5069E0C46154607461A462E
:10516000294620463346FFF7F1FC324629462046C1
:10517000FFF7B4FF3846BDE8F840FFF797BF00BF20
:10518000F0B583B09DF8206013B9002003B0F0BDE6
:10519000099F04460D468DE8C000FFF7E1FD099A1E
:1051A00029462046FFF79AFF0028EED0D4F83801B0
:1051B00003B0F0BDD0F83421D0F838319A4208D28B
:1051C000D0F834315A1C0344C0F8342193F830002D
:1051D00070474FF0FF3070472DE9F041BF4EC76870
:1051E0003378D0F808E00133DBB233703D789EF8B5
:1051F00000300446DBB2806903F020020178EDB292
:10520000FAB113F0100F94F85E327FD0022B00F049
:10521000D78094F85E32032B00F0D28094F8553298
:10522000082B00F0238294F85532092B00F05C82A1
:1052300094F85532012B00F0CC8180238EF8003099
:105240005BE002F0FF08EA0624D405F0400202F019
:10525000FF071ABB03F0100303F0FF02002B00F05E
:105260008E8015F0010540F0A881D4F84022D4F8D2
:1052700044329A4207D2D4F840325A1C2344C4F82C
:10528000402293F83C5123691D70A368D0221A7004
:10529000A06979E0102368063B7029D594F855324F
:1052A0000C2B00F00F8105F0040505F0FF02002D26
:1052B00073D0A3680021D0220B2084F85502C4F8D3
:1052C00044121A702269D4F86C1213785B0884F8BF
:1052D000563209B188472269D4F84432002B00F0D5
:1052E000758194F83C8182F800800123C4F8403233
:1052F000A269137843F050031370E36802221A7016
:105300003378013BDBB23370BDE8F081022B00F053
:105310009F8094F85E32032B00F09A80D4F83831E5
:10532000D4F858220233934200F0418194F8553268
:10533000012B00F03781D4F838310133934280F0EB
:105340000B8194F85532012B00F00181D4F83831EB
:105350002269591CC4F838112344127883F830208C
:10536000E36802221A7094F85532DBB2012BC7D1E0
:1053700094F85D22002AC3D184F85D32C0E794F826
:1053800055320C2B00F09381037843F050030370E7
:10539000E36802221A70BDE8F081A1690B7843F03E
:1053A00020030B70A3680C20C02184F85502C4F8B8
:1053B0003821197023691B785B0884F8563297E707
:1053C000D4F8742213689B8B190604D594F85E32C6
:1053D000022B00F0B08094F85E32032B00F0868040
:1053E0003F4B12791968012393400B4288D03D4905
:1053F0003D4B0A70D4F87412097919700022072302
:1054000084F85E2284F85532D4F89432013304D003
:10541000D4F894320133C4F89432ED0611D5042344
:1054200084F85532D4F88C32013304D0D4F88C325D
:105430000133C4F88C32E268102100231170C4F8E3
:105440004032A36880221A70E36802221A7032E0A8
:10545000D4F874321A68928B120603D594F85E223F
:10546000022A5CD094F85E22032A00F0D6801C4900
:105470001A790968012393400B423FF441AF19495F
:10548000194B0A70D4F8742212791A70A36880221A
:105490000020072184F85E0284F855121A70E36830
:1054A00002221A70D4F89432013304D0D4F8943222
:1054B0000133C4F89432D4F87032002B3FF420AF9B
:1054C00098471DE7D4F86832002B3FF4ECAE002279
:1054D000C4F83421D4F838019847E4E6501DFF1F82
:1054E0002C8000401E8000401F8000403B781B063F
:1054F000FCD5C34B12791A70002384F85E32D4F8BD
:1055000044322169013BC4F84032D4F8403223448C
:10551000022293F83C310B70E3681A70F0E6B94947
:105520001B790B70A368E8211970E368032184F8E4
:105530005E121A70E4E6B34912790A70A268F0218B
:105540001170E268032184F85E121370D8E694F8B3
:105550005D32002B3FF4FAAEA3680021B02284F83C
:105560005D121A70D4F838312269591CC4F8381108
:105570002344127883F8302094F85432012B00F041
:10558000C580E36802221A7094F85532012B36D098
:10559000D4F86432002284F85522002B3FF4E3AEA5
:1055A0009847E0E694F85D32002B7FF4C4AEE82320
:1055B0008EF80030D4F85822BDE6C0238EF80030B3
:1055C0002369A0691B7884F85572DDE684F83C31C4
:1055D00089E694F85432012B0CBF8023B0238EF857
:1055E0000030E36802221A70D4F8803201333FF4AD
:1055F00062AFD4F880320133C4F880325BE7D4F86C
:105600008032013304D0D4F880320133C4F88032C0
:10561000D4F87032002BC3D1A5E6794A1B791370F8
:10562000A3680021B02284F85E121A70D4F85832B0
:105630002269013BC4F83831D4F83831591CC4F818
:1056400038112344127883F8302094F85432012B17
:1056500000F0DA80E36802221A70D4F86432002283
:1056600084F85522002B7FF42BAF49E605F0100398
:1056700003F0FF02002B50D000230421102284F8F5
:105680005E3284F855123A70A26880211170E26887
:10569000C4F8403202231370D4F88C3201333FF443
:1056A0000AAFD4F88C320133C4F88C3203E7C9B2A4
:1056B00011F0500F4AD0037843F050030370A169F2
:1056C0000B7803F0DF030B70E36802211970D4F844
:1056D000683284F85522002B3FF412AEC4F834210E
:1056E000D4F8380198470BE6E80641D50422102388
:1056F00084F855223B70A36880221A70E368022266
:105700001A70D4F88C320133CBD1D4E62823013B74
:10571000FDD1A36880221A7033E715F001053CD053
:1057200084F85E22D4F84032002B7CD1022384F826
:105730005532D4F88432013304D0D4F884320133A2
:10574000C4F8843280238EF800307DE623691B780C
:10575000D4F83821B2F5817FDBB23FF615AED4F82C
:105760003821A1180132C4F8382181F830300BE615
:10577000E9072ED50223802284F855328EF80020C6
:10578000E2681370D4F8843201333FF494AED4F855
:1057900084320133C4F884328DE6D4F840320133C8
:1057A000C4F84032D4F84422934234D394F85432AB
:1057B00084F85552012B0CBF8023B0238EF80030A3
:1057C000E36802221A70D4F86032002B7FF478AEBE
:1057D00096E594F85E32012B32D0D4F85832012B82
:1057E0004FF00A020CBFE823E02384F855228EF81C
:1057F00000302269E368127802221A7080E500BF47
:105800001C8000401F8000402823013BFDD1A3687D
:1058100080221A701EE794F85E32012B20D0D4F853
:105820004032216973E6032384F85532D4F8883274
:10583000013387D0D4F888320133C4F8883281E745
:105840000223E12284F85E328EF80020D4F874122C
:105850000C4A097911702169E268097813704FE5E3
:105860000223F12284F85E328EF80020D4F87412FC
:10587000044A09791170226994F83D111170E268A7
:1058800013703DE51B80004000210148FFF7A4BCD8
:10589000C407FF1F01210148FFF79EBC600AFF1FDC
:1058A00002210148FFF798BCFC0CFF1F2DE9F843CB
:1058B0001B4BDFF88090DFF880801A4E1A4D1E6077
:1058C00000244FF47A774A4641461C711C739F604E
:1058D00018465C731D61FEF771FD144B05F52772C8
:1058E00001211A611C714A469F601C735973184646
:1058F00041461E60FEF762FD0D4B4FF0020E05F5AE
:10590000A7651C711C7383F80DE04A464146184692
:105910001D619F601E60BDE8F843FEF74FBD00BFEC
:105920003C1DFF1F9C890000C407FF1F141DFF1FA3
:10593000281DFF1FF806FF1F554400002DE9F04108
:10594000184D074682B00C462846394690461E46FA
:10595000FFF7EEF8214628460024FEF763FD6A7B38
:105960002969009428460123FFF7F4FB4FF0010E4C
:10597000697B2869019443463A46CDF800E0FFF779
:10598000FFFB04E0FFF716FCE3B20134F054286992
:10599000D0F83821D0F834319A42F3D102B0BDE8C2
:1059A000F08100BF3C1DFF1F70B50D4C82B00E464C
:1059B000014620461546FFF7BBF831462046FEF764
:1059C00031FD29462046FEF72DFD00230093627B22
:1059D000216920460123FFF7BDFB02B070BD00BF67
:1059E0003C1DFF1FF0B572B699B902688AB1037900
:1059F0000F2B0ED8274C218841FA03F5ED070AD565
:105A000003F1007303F59063B2EB431F03D162B659
:105A1000F0BD204C2188002341FA03F212F001026C
:105A200007D00133102BF7D162B600220371026058
:105A3000F0BD01259D402943218062B6164E174DC9
:105A4000174FDFF864E0D9B20171346844F0020402
:105A500034602C6844F002042C60A6F58026822471
:105A6000A5F5802503F100733C6003F59063223EA9
:105A7000243D0C4C8EF800105B01317029702170B0
:105A800003601A605A609A60DA601A615A619A611A
:105A9000DA61F0BD521DFF1F408004403C8004408D
:105AA000008000401F8000401A80004003790F2BC7
:105AB00012D80A4A10B4137072B6094904790A88D8
:105AC0000123A34022EA03030B8062B610220023C5
:105AD0005DF8044B02710360704700BF1A800040FC
