:10000000F8FF02209901000021280000D9270000F4
:10001000D9270000D9270000D9270000D9270000E0
:10002000D9270000D9270000D92700002128000087
:1000300021280000D9270000CD250000D12600008E
:10004000212800002128000021280000212800008C
:10005000212800002128000021280000212800007C
:10006000212800002128000021280000212800006C
:10007000212800002128000021280000212800005C
:10008000212800002128000021280000212800004C
:10009000212800002128000021280000212800003C
:1000A000212800002128000021280000212800002C
:1000B000212800002128000021280000A90B0000B1
:1000C00021280000550E000021280000B510000076
:1000D000212800002513000021280000212800000D
:1000E00021280000212800002128000021280000EC
:1000F00021280000212800002128000021280000DC
:1001000021280000212800002128000021280000CB
:100110002128000075170000212800002128000078
:1001200021280000212800002128000021280000AB
:10013000212800002128000021280000212800009B
:10014000212800002128000051150000212800006E
:100150009528000021280000212800002128000007
:10016000212800002128000021280000212800006B
:10017000212800002128000021280000212800005B
:10018000212800002128000021280000212800004B
:100190002128000021280000584B4CF2205210B5B5
:1001A0001A804DF628121A8000BF00BF02F03CFBF7
:1001B000534B4FF030621A60524A9A60524ADA60EA
:1001C000524B4FF470021A60514A136813F4807353
:1001D00004D150490B604FF4A85313604E4B1A786A
:1001E000110703D51A7842F008021A704B4B4C499C
:1001F0002A221A704B4A4C4B8B4204D252F8040FFD
:1002000043F8040BF8E7494B494900228B4202D2DC
:1002100043F8042BFAE74749474A002352F82300E2
:1002200041F823000133662BF8D1444B444A802126
:1002300003F8011B9342FBD1424B3E4A1A60424BEA
:100240008A221A70A3F5805324225A70A0221A70B1
:100250009A799207FCD59A79D406FCD43B4A9379D3
:1002600003F00C03082B394BF9D103221A714622F3
:100270005A719A799006FCD5344A9179334B4906E4
:10028000FBD5334A4FF08271116009215160202261
:100290001A709A7902F00C020C2AFAD12D4B2E4AD0
:1002A0001A602E4B2E4A1A6000225A60072243F829
:1002B000042C2C4AC3F80C2D62B600F0EDFA154B55
:1002C0001B68DA0705D5284800F07AFA274B284A38
:1002D0001A60284B1B785B0609D5244C244B2268F6
:1002E0009A4204D1204800F06BFA0023236002F008
:1002F000A3FB02F09FFA00F0F9F9FEE70E2005409B
:1003000030800440823F04000100002B88ED00E0B3
:1003100010D0034014D0034002D0074000E0074053
:10032000D80BFF1FE82D0000F806FF1FD80BFF1F9A
:100330006C10FF1F0002FF1F0000000000E400E03F
:1003400056E400E008ED00E00050064000400640A2
:100350004480044004800440C010050014E000E024
:10036000BFD4010000002020C098915D1CE0034034
:10037000A5C3945A00F00740FFFFFFFFFFFFFFFFF8
:10038000FFFFFFFFFFFFFFFFFFFFFFFFFFFFFFFF7D
:10039000FFFFFFFFFFFFFFFFFFFFFFFFFFFFFFFF6D
:1003A000FFFFFFFFFFFFFFFFFFFFFFFFFFFFFFFF5D
:1003B000FFFFFFFFFFFFFFFFFFFFFFFFFFFFFFFF4D
:1003C000FFFFFFFFFFFFFFFFFFFFFFFFFFFFFFFF3D
:1003D000FFFFFFFFFFFFFFFFFFFFFFFFFFFFFFFF2D
:1003E000FFFFFFFFFFFFFFFFFFFFFFFFFFFFFFFF1D
:1003F000FFFFFFFFFFFFFFFFFFFFFFFFFFFFFFFF0D
:10040000FFFFFFFFFFFFFFFFFFFFFFFFDEF9FFFF23
:1004100010B5054C237833B9044B13B10448AFF33E
:1004200000800123237010BDD80BFF1F00000000C7
:10043000EC2D0000084B10B51BB108490848AFF37C
:1004400000800848036803B910BD074B002BFBD0A0
:10045000BDE81040184700BF00000000DC0BFF1F84
:10046000EC2D0000D80BFF1F0000000010B507485E
:1004700000F020F940B1064C0D20217800F0B2F9CF
:10048000237883F00103237010BD00BF1C0CFF1FF5
:10049000F806FF1F38B5FF20154C164D00F06AFB1B
:1004A000FF2000F067FB2088000A00F063FB207843
:1004B00000F060FB6088000A00F05CFBA07800F0B0
:1004C00059FBA088000A00F055FB207900F052FB90
:1004D000E088000A00F04EFBA07900F04BFB287882
:1004E00000F048FB6878BDE8384000F043BB00BF2F
:1004F000240CFF1FF40BFF1F08B546F2A81000F0F4
:10050000B1FA044800F034F801210D20BDE808409C
:1005100000F06EB9240CFF1F08B5044800F03CF849
:10052000FFF7A4FFBDE80840FFF7B4BF240CFF1F8E
:1005300070B40C4D0C4A0D482C46002344F8043B83
:100540006B606360A360E3606B61AB61EB612B6226
:100550004FF4FA7170BC136053609360D3601382E0
:1005600000F0A6B8F40BFF1F240CFF1F1C0CFF1F8C
:1005700008B546F2A81000F09DFB43F2D40000F04D
:10058000EFFC43F2D40000F001FE43F2D400BDE8DA
:10059000084000F033BF00BF38B5054600F0FEFB51
:1005A00007281DDD00F00AFC0446E4B200F03AFC26
:1005B0005A2CF3D1C0B25A28F0D100F0FFFB00F062
:1005C000FDFB00F0FBFB00F0F9FB044600F0F6FB3E
:1005D000C0B240EA0420288000F0E0FB0728E1DCFC
:1005E00000F00CFD07281DDD00F018FD0446E4B204
:1005F00000F048FD5A2CF3D1C0B25A28F0D100F0D7
:100600000DFD00F00BFD00F009FD00F007FD0446B4
:1006100000F004FDC0B240EA0420688000F0EEFC67
:100620000728E1DC00F022FE07281DDD00F02EFE89
:100630000446E4B200F05EFE5A2CF3D1C0B25A2850
:10064000F0D100F023FE00F021FE00F01FFE00F0CC
:100650001DFE044600F01AFEC0B240EA0420A88045
:1006600000F004FE0728E1DC00F016FF07281DDD7E
:1006700000F022FF0446E4B200F052FF5A2CF3D1FE
:10068000C0B25A28F0D100F017FF00F015FF00F0BB
:1006900013FF00F011FF044600F00EFFC0B240EA65
:1006A0000420E88000F0F8FE0728E1DC38BD00BF38
:1006B0000160704710B40C4A83B01368009390E84F
:1006C0001200009B1B1B8B4208D913680193019BEE
:1006D0004360012003B05DF8044B7047002003B075
:1006E0005DF8044B704700BF380CFF1F08B5FFF7DB
:1006F00003FFFFF711FF01F097FEFAE710B4114B6B
:1007000053F8302092F8804234B1012379B182F855
:1007100080305DF8044B704703EBC0035B681A68D8
:1007200051B922F002021A605DF8044B704782F85A
:1007300000315DF8044B704742F003021A605DF827
:10074000044B7047742B00001C4A02EBC0030129C4
:100750005B6811D004291BD052F83000002280F8C9
:10076000802229B1022920D0032922D01A607047A3
:100770004FF480721A60704752F830004FF4A27242
:1007800080F880121A601A6822F020021A607047FE
:1007900052F830104FF4A272012081F880021A60E2
:1007A0001A6842F020021A60704740F203121A6081
:1007B00070474FF481721A60704700BF742B0000BD
:1007C00030B4054B054D064C002210211A602A60FA
:1007D0002060196030BC704714D0034004D003403F
:1007E00000D003403F2801D8FFF788BF704700BF03
:1007F0003F2801D8FFF7A8BF704700BF2DE9F84395
:10080000054672B6204F214B214A1B683C6812688E
:1008100062B6520102D5322B88BF013495B3C3F5BD
:10082000EA331C4EDFF86490DFF86480BF334FF486
:100830007A72A6FB031302FB04F404EB931472B662
:10084000D9F800103A68D8F800E062B6C1F5EA338A
:10085000BF33A6FB03031EF0806FC4EB93134FF46A
:100860007A7002D0322988BF013200FB0233B3F51F
:100870007A7F04D3013D05D004F57A74DFE701F0F7
:10088000D3FDDCE7BDE8F883380CFF1F18E000E07B
:1008900004ED00E089888888F8B53E4B3E49DFF8D2
:1008A00018C13E4E3E4ADFF814E13E4D3E4C3F4FEC
:1008B0004FF0006018604FF0805018604FF000500B
:1008C00018604FF0804018604FF000401860002022
:1008D000086028234EF6FF71CCF80010CEF80030E7
:1008E00033600EF5012E13602B60236005F50025A3
:1008F0003B6004F50024B36207F50027936206F518
:10090000012602F501220EF1100E05F6E87504F637
:10091000E87407F57F67103220362B602360CEF82D
:1009200000303B6013603360214EBB61936109224C
:100930003260A7F5002706F58056203F083638605C
:100940003160BB60F36047F8042C06F5FD2607F51F
:10095000FE2706F2FC76043730603960B360FB6036
:1009600046F8042C0836C7F8FC0F06F6FC7611484A
:1009700031602B602360026001F0BEFE1920FFF79A
:100980003DFF01F05FFC40F21310BDE8F840FFF7B7
:1009900035BF00BF04E100E0048003401480034041
:1009A0001C800340248003402C800340348003409B
:1009B0000080034000900B40088003400C800340FF
:1009C0002DE9F84F214B1B6807460BB101221A7025
:1009D000DFF888901E4D99F80040DFF884801D4EA6
:1009E00001343F2C8ABF4FF0000A5FFA84FA544664
:1009F000AB462B78A34216D101F01EFF40281FDC26
:100A000033791B06F5D59BF8003001333F2B86BFA9
:100A100000221346DAB218F80330DBB2F3712A7001
:100A20002B78A342E8D00C490A4BFFB208F80470B7
:100A30000120BC22087089F800A0DA70BDE8F88FA8
:100A4000FF28D6DD01F0F0FCD3E700BFCC0CFF1F80
:100A5000C90CFF1F00A00640C80CFF1FD00CFF1FD1
:100A6000440CFF1F324A33491368F0B543F48063E6
:100A700013600A78304F314E314D324C32490023E9
:100A8000152A3B7033702B7023700B7045D01B2AD6
:100A90003ED082B32D4B1B78052B34D01A2B41D07E
:100AA000012B1BD01F281FD8002002460125284BF0
:100AB000284C1A7028495D7004224FF0020E8827D6
:100AC0003C26402598729A704FF0004083F813E05E
:100AD0005A751F74DE7025700860F0BD1F4B4FF40F
:100AE00051721F281A60DFD9C0F34432C0F3471592
:100AF00000F01F00DBE71A4B40F213321A60134B71
:100B00001B78052BCAD1174B4FF451721A60C9E7F5
:100B1000154B40F213321A60BCE7144B40F213320B
:100B20001A60B7E7124B4FF451721A60BAE700BF70
:100B300034800440840CFF1F400CFF1F410CFF1F3A
:100B4000D00CFF1FC90CFF1FC80CFF1FF906FF1FA9
:100B500000A006401FE400E000E100E044A00440E3
:100B600040A004401CC004403C90044018C0044015
:100B700038900440034B1B685B0501D5FFF720BF8D
:100B8000704700BF34800440054A064B10781B783C
:100B9000C0B2DBB2984238BF4030C01A704700BFC5
:100BA000400CFF1F410CFF1FF0B4384B1A7912F0B4
:100BB000300F2CD072B6997D01F0FF0200293DD094
:100BC00062B6334F334938780D78334E1C46C0B285
:100BD000EDB2431C402BE17928BF0023AB4202F168
:100BE000FF32C9B21CBFF154184612F0FF02F0D117
:100BF0002A4B1B68C2B23A704BB1A84236BFC5F14E
:100C00004005401B40192728C4BF01221A701F4904
:100C1000CA78D2B2150616D452060DD51B4B1B79D5
:100C20005B0609D51E4B1F491B6800220A7003B1E1
:100C30001A70164B3C22DA70F0BC70474022D9790A
:100C40005A7462B6E3E70B791C06E5D5164B174ECE
:100C50001C783378E4B2DBB29C420ED0144D01E034
:100C6000A3420AD00133402B28BF00230879E85C57
:100C7000C0B2C871087D0728F2D9DBB203493370CE
:100C80000B79180644BF7C23CB70C5E700A0064053
:100C9000400CFF1F410CFF1F880CFF1F3C0CFF1F67
:100CA000CC0CFF1FC80CFF1FD00CFF1FC90CFF1F6F
:100CB000440CFF1F2A4A2B491368F0B443F4006325
:100CC00013600A78284F294E294D2A4C2A490023BF
:100CD000092A3B7033702B7023700B703AD03B2A7B
:100CE0001ED0264B1B780A2B22D03A2B2DD01F2842
:100CF00024D8002002460126214B224D1A70224C96
:100D00005E7004219872022288273C264020997048
:100D1000DA7459751F74DE7028702260F0BC704759
:100D20001A4B40F213321A60144B1B780A2BDCD199
:100D3000174B4FF451721F281A60DAD9C0F34432AE
:100D4000C0F3471600F01F00D6E7124B4FF4517264
:100D50001A60CCE7104B40F213321A60C1E700BFB3
:100D600034800440FA06FF1F440DFF1FD90CFF1FFB
:100D70004C0DFF1F450DFF1FD80CFF1FFB06FF1F6B
:100D800000B0064021E400E004E100E004D00440AB
:100D900010B0044000D004400CB00440054A064B9B
:100DA00010781B78C0B2DBB2984238BF4030C01A0E
:100DB000704700BF440DFF1FD90CFF1F30B4154B07
:100DC000154C1A782378D2B2DBB29A421ED0013386
:100DD0003F2B0ED91149124B087819680023C0B275
:100DE000237021B1D31A1A2B01DC00230B7030BC05
:100DF00070470A480A49C05C0968DDB2C0B2257074
:100E00000029F4D09A4238BF4032EBE74FF0FF3070
:100E1000EDE700BF440DFF1FD90CFF1F040DFF1F9E
:100E2000D40CFF1F084A094B12781B78DBB29A4298
:100E300007D00133402B28BF0023054AD05CC0B245
:100E400070474FF0FF307047440DFF1FD90CFF1F54
:100E5000040DFF1FF0B4384B1A7912F0300F2CD06C
:100E600072B6997D01F0FF0200293DD062B6334F82
:100E7000334938780D78334E1C46C0B2EDB2431C6E
:100E8000402BE17928BF0023AB4202F1FF32C9B207
:100E90001CBFF154184612F0FF02F0D12A4B1B6818
:100EA000C2B23A704BB1A84236BFC5F14005401BF3
:100EB00040192728C4BF01221A701F49CA78D2B22C
:100EC000150616D452060DD51B4B1B795B0609D5AA
:100ED0001E4B1F491B6800220A7003B11A70164B83
:100EE0003C22DA70F0BC70474022D9795A7462B65D
:100EF000E3E70B791C06E5D5164B174E1C783378C3
:100F0000E4B2DBB29C420ED0144D01E0A3420AD001
:100F10000133282B28BF00230879E85CC0B2C871D0
:100F2000087D0728F2D9DBB2034933700B79180624
:100F300044BF7C23CB70C5E700B00640440DFF1FC3
:100F4000D90CFF1F040DFF1FD40CFF1F480DFF1FFE
:100F5000D80CFF1F4C0DFF1F450DFF1FDC0CFF1FA2
:100F60001B4BDFF890C01A681A49F0B542F4805262
:100F7000194D1A60DFF880E0184F194E194C002304
:100F80008CF800304FF451722B701F2840F213354B
:100F90008EF800303B70337025600A6011D8194616
:100FA0000124114A114D11701148547000212C2751
:100FB00040269372082491701174D7702E700460CB
:100FC000F0BDC0F34431C0F3471400F01F03E8E75D
:100FD000348004400CC00440550DFF1FC10DFF1F9D
:100FE000C00DFF1F08C0044000C0064023E400E01D
:100FF00004E100E0540DFF1FC80DFF1F054A064B1A
:1010000010781B78C0B2DBB2984238BF4030C01AAB
:10101000704700BF540DFF1F550DFF1F30B4154B17
:10102000154C1A782378D2B2DBB29A421ED0013323
:101030003F2B0ED91149124B087819680023C0B212
:10104000237021B1D31A1A2B01DC00230B7030BCA2
:1010500070470A480A49C05C0968DDB2C0B2257011
:101060000029F4D09A4238BF4032EBE74FF0FF300E
:10107000EDE700BF540DFF1F550DFF1F800DFF1F33
:10108000500DFF1F084A094B12781B78DBB29A42B9
:1010900007D00133402B28BF0023054AD05CC0B2E3
:1010A00070474FF0FF307047540DFF1F550DFF1F65
:1010B000800DFF1F30B42B4B1A7994061FD52A4898
:1010C000DA790378294901333F2B0978C8BF002317
:1010D0008B42D2B203D0264CD9B2E2540170254AD9
:1010E000116861B1244A1278D2B2934236BFC2F17C
:1010F00040029B1A9B18272BC4BF01230B70194A6F
:10110000D378DBB2180611D45A060DD5154B1B79CE
:101110005B0609D5194B1A491B6800220A7003B1F6
:101120001A70104B2C22DA7030BC70471179090606
:10113000EAD5144910480C780178C9B28C420DD018
:101140004A1C272A84BF00210A460F4D054C98BF30
:10115000D1B2AA5CD2B2E2710170D5E76C21D17034
:10116000D2E700BF00C00640540DFF1F550DFF1F02
:10117000800DFF1F500DFF1FC10DFF1FC40DFF1F6E
:10118000C00DFF1FC80DFF1F580DFF1F284A29491A
:101190001368F0B443F4005313600A78264F274EC7
:1011A000274D284C284900231F2A3B7033702B7091
:1011B00023700B7037D03F2A1BD0244B1B78202B79
:1011C0001FD03E2B2AD01F2821D800200246012400
:1011D0001F4B204D1A702C27002240261E495C70A0
:1011E000987220249A701A74DF702E700C60F0BC14
:1011F00070471A4B40F213321A60144B1B78202BA5
:10120000DFD1174B4FF451721F281A60DDD9C0F39C
:101210004432C0F3471400F01F00D9E7114B4FF4DC
:1012200051721A60CFE7104B40F213321A60C4E7D4
:1012300034800440FC06FF1FD00DFF1FD10DFF1F9F
:10124000440EFF1F3D0EFF1F3C0EFF1FFD06FF1F3C
:1012500000D0064025E400E004E100E014D00440A2
:101260002CA0044010D0044028A00440054A064B9E
:1012700010781B78C0B2DBB2984238BF4030C01A39
:10128000704700BFD00DFF1FD10DFF1F30B4154BAD
:10129000154C1A782378D2B2DBB29A421ED00133B1
:1012A0003F2B0ED91149124B087819680023C0B2A0
:1012B000237021B1D31A1A2B01DC00230B7030BC30
:1012C00070470A480A49C05C0968DDB2C0B225709F
:1012D0000029F4D09A4238BF4032EBE74FF0FF309C
:1012E000EDE700BFD00DFF1FD10DFF1FFC0DFF1F4D
:1012F000CC0DFF1F084A094B12781B78DBB29A42CB
:1013000007D00133402B28BF0023054AD05CC0B270
:1013100070474FF0FF307047D00DFF1FD10DFF1FFA
:10132000FC0DFF1F30B42B4B1A7994061FD52A48A9
:10133000DA790378294901333F2B0978C8BF0023A4
:101340008B42D2B203D0264CD9B2E2540170254A66
:10135000116861B1244A1278D2B2934236BFC2F109
:1013600040029B1A9B18272BC4BF01230B70194AFC
:10137000D378DBB2180611D45A060DD5154B1B795C
:101380005B0609D5194B1A491B6800220A7003B184
:101390001A70104B2C22DA7030BC70471179090694
:1013A000EAD5144910480C780178C9B28C420DD0A6
:1013B0004A1C272A84BF00210A460F4D054C98BFBE
:1013C000D1B2AA5CD2B2E2710170D5E76C21D170C2
:1013D000D2E700BF00D00640D00DFF1FD10DFF1F88
:1013E000FC0DFF1FCC0DFF1F3D0EFF1F400EFF1F0A
:1013F0003C0EFF1F440EFF1FD40DFF1F1B4BDFF8D9
:1014000090C01A681A49F0B542F48062194D1A600A
:10141000DFF880E0184F194E194C00238CF800308B
:101420004FF451722B701F2840F213358EF80030A4
:101430003B70337025600A6011D819460124114AA7
:10144000114D11701148547000212C2740269372C1
:10145000042491701174D7702E700460F0BDC0F335
:101460004431C0F3471400F01F03E8E7288004402C
:1014700060D004404D0EFF1FB90EFF1FB80EFF1FB6
:1014800064D0044000A00E4042E400E008E100E027
:101490004C0EFF1FC00EFF1F054A064B10781B782D
:1014A000C0B2DBB2984238BF4030C01A704700BFAC
:1014B0004C0EFF1F4D0EFF1F30B4154B154C1A7804
:1014C0002378D2B2DBB29A421ED001333F2B0ED921
:1014D0001149124B087819680023C0B2237021B15A
:1014E000D31A1A2B01DC00230B7030BC70470A485A
:1014F0000A49C05C0968DDB2C0B225700029F4D089
:101500009A4238BF4032EBE74FF0FF30EDE700BFC3
:101510004C0EFF1F4D0EFF1F780EFF1F480EFF1FC2
:10152000084A094B12781B78DBB29A4207D0013384
:10153000402B28BF0023054AD05CC0B270474FF053
:10154000FF3070474C0EFF1F4D0EFF1F780EFF1F20
:1015500030B42B4B1A7994061FD52A48DA790378D0
:10156000294901333F2B0978C8BF00238B42D2B2EF
:1015700003D0264CD9B2E2540170254A116861B1FA
:10158000244A1278D2B2934236BFC2F140029B1A6B
:101590009B18272BC4BF01230B70194AD378DBB2E9
:1015A000180611D45A060DD5154B1B795B0609D5C3
:1015B000194B1A491B6800220A7003B11A70104BAC
:1015C0002C22DA7030BC704711790906EAD514492B
:1015D00010480C780178C9B28C420DD04A1C272AD9
:1015E00084BF00210A460F4D054C98BFD1B2AA5CBA
:1015F000D2B2E2710170D5E76C21D170D2E700BFA1
:1016000000A00E404C0EFF1F4D0EFF1F780EFF1F57
:10161000480EFF1FB90EFF1FBC0EFF1FB80EFF1FA5
:10162000C00EFF1F500EFF1F30B472B62B4A137846
:101630001D0706D52A4B196A002936D0996A002958
:1016400041D053781C0706D5254B196C00293ED094
:10165000996C002939D09378190705D5204B196E5C
:10166000002936D0996E89B1D3781B0707D51C4B5A
:10167000D3F880207AB3D3F8882011213AB162B62A
:10168000184B00221A7030BC00F076BE0D21154CAC
:10169000154D227843F8315003EBC1030830013A6D
:1016A0005860227062B630BC704704220D4C0F4D5A
:1016B000217843F8325003EBC20308304A1E5860C9
:1016C000227062B6EFE70521E1E70921DFE7082292
:1016D000ECE70C22EAE71022E8E700BF742D0000D7
:1016E0000000FF1F990FFF1FC80040008800400046
:1016F000431E032B1DD81B4A400140F0100030B49C
:10170000104472B6184CE25C032A1BD8DFE802F0E2
:101710000212151703220D88E25410F0080F14BFAF
:10172000C823882343EA054308310360416062B659
:1017300030BC704708300222EDE70522EBE70830A5
:101740000422E8E7094A52F8230038B1084A52F85F
:101750002300416042F8231062B6E9E742F8231003
:10176000034AF7E70000FF1FA80FFF1F700FFF1FBE
:10177000800FFF1F2DE9F04FDFF80CB3DFF80CA34B
:1017800087B044E0AB4F4FEA930807EBC809013E2E
:10179000D9F8042003F00803F6B2A2F1080003F020
:1017A000FF04002B40F0028157F838301B0C99B22F
:1017B00022F8081C002B00F0F0809F4B22F8064C0A
:1017C00042F8044C53F82620002A00F0C5829B4DB5
:1017D00055F8263058609A4C45F8260034F81630F3
:1017E000194424F8161000F0A7FD002800F0AD827F
:1017F000944A954B19F0080F00F1080018BF1346E2
:10180000C9F8040047F8383008238BF800309BF8FB
:101810000040E4B261071AD58C4B1B78A3B18C4908
:101820000A7802F0FF0322B1013BDBB20B7003B96F
:1018300000BE88490A7802F0FF032AB1013BDBB2FF
:101840000B70002B00F0578204238BF8003004F05B
:10185000080303F0FF02002B00F0CC809AF8003060
:10186000DBB21E098ED19C08DFF8C89159F83420EC
:1018700009EBC401C2F38302013A49680C2A00F261
:101880008880DFE802F07C7C8686868686864786AE
:10189000868607000868704D4A68704F704E286051
:1018A00081B240F28160674B6A604FF0010E002206
:1018B000814249F834303A60C9F81020C9F818203C
:1018C00086F800E05B4C00F2E380B1F5D06F80F069
:1018D0004683B1F5817F00F0FC8200F28D82802981
:1018E00000F07783822940F0FA82A98801F07F0115
:1018F000042900F2F4825B485B4C890008442270A2
:1019000062700278930740F1588484F800E04FF049
:10191000020E42E3514F3A6832B3544B504E544991
:10192000188834780D784028864645F0020828BF8C
:101930004FF0400E002C84F001043470CEEB000018
:101940000CBF8824C82409EBC80680B285F00105C5
:1019500044EA0E447260188049F8384072440D70B1
:10196000002800F045813A603B4B1A88B2F5A06F21
:101970000FD100219A7859703E4B1A7009E0364A0F
:10198000108842F22102904200F037812D4A49F836
:101990003420394A0123137036E72A4A2A4B19F0BA
:1019A000080F18BF134647F838302DE700F0E4FC65
:1019B000324A334952F82630002B00F0D181586862
:1019C0008C5D42F8260003F10802C9F80420032CBC
:1019D00005D8DFE804F02C02292602228A551A884D
:1019E00019F0080F0CBF8823C82343EA024347F8C5
:1019F000383009E7E00700F18181210600F1F2812A
:101A0000A20706D51F4A204913780220DBB21370C3
:101A10000870E30602D51C4B10221A7007B0BDE80F
:101A2000F08F04228A55DAE705228A55D7E7032288
:101A30008A55D4E70000FF1F1C0FFF1FC80EFF1FB1
:101A40005810FF1FC800400088004000A40FFF1F6F
:101A50002D0FFF1FAC0FFF1F900FFF1FC40EFF1FA6
:101A60002C0FFF1FC02007409C0FFF1FD80EFF1F29
:101A7000980FFF1F9820074094200740700FFF1F0A
:101A8000A80FFF1F882007408020074090200740B4
:101A900042F22100814200F02A8100F2D880B1F5A3
:101AA000086F00F07682B1F5106F40F01882226A5C
:101AB000B349A8780870120600F13A83D9F82820B3
:101AC000B049130600F10C83D9F83020AD49150652
:101AD00000F10183D9F83820AA49140600F1F682F2
:101AE000D9F84020A749100600F14A83D9F84820C8
:101AF000A449120600F13F83D9F85020A1491306EA
:101B000000F13483D9F858209E49150600F1298345
:101B1000D9F860209B49140600F11E83D9F868208B
:101B20009849100600F11383D9F8702095491206E0
:101B300000F10883D9F878209249130600F1FD825C
:101B4000D9F880208F49150600F13183D9F8882013
:101B50008C49140600F12583D9F890208949100694
:101B600000F11983D9F898208649120600F10D83F7
:101B70008548864A864901908648874D874C049758
:101B800000230596029580460F4616461D4603948F
:101B9000306828B1446800F0EFFB2046002CF9D1F2
:101BA00000233360029B38681A46002342F8253030
:101BB00028B1446800F0E0FB2046002CF9D1002257
:101BC0003A60019A98F800301146002241F8042B3F
:101BD000039A0191023B4FF0000122F81510032BEC
:101BE00000F22B81DFE813F070012501700125015F
:101BF000BEF1400F18BF0022B5E6694A0D7848785B
:101C0000157050708D78C8789570D07010680D7907
:101C1000157186284D7989795571917100F09B81F4
:101C20006049614E0A78307882F00105002842F060
:101C300002020D700CBF8821C82149F8321009EB4F
:101C4000C20280F001000021307051609EE642F235
:101C50002120814240F0CB81544B554C5549A87806
:101C60001D682560CDF804E00870002002908046D1
:101C7000844604464B490D7845F0020E09EBCE032D
:101C80000393019B002B039B5C600CBF8824C8243A
:101C900044EA080385F0010449F83E3032700C70C4
:101CA000DFF8E0E0404BDFF8FC80002840F01E81C8
:101CB000BCF1400F1BD144F0020C09EBCC03029C99
:101CC000DFF8C0E05C60002A40F02681020442F0A8
:101CD00088029DF804304EF83C20044433700D70A7
:101CE0002346402803D10020334A3B601080334A0A
:101CF000012313704DE600F073FBA5E5214B2F483F
:101D000028491A614FF0020E80F800E02C4F0A704B
:101D10002C49196099602C4E2C4D2D4C9A610D2147
:101D20003970FF213170DFF8B8E029702270294D39
:101D3000294A8EF800109F27012406F8047C5D6074
:101D40000470DA6007B0BDE8F08F244A47F8380025
:101D500013780133137057E543F826000E4D3AE52A
:101D60008B5D032B00F2F08001A252F823F000BF3C
:101D700009180000091800002D1E0000271E000091
:101D8000A40FFF1F0000FF1F800FFF1F1C0FFF1F6E
:101D9000700FFF1FA80FFF1FC80EFF1F5810FF1F57
:101DA0006010FF1F980FFF1F2C0FFF1F380CFF1F25
:101DB0006810FF1FB80FFF1FD80EFF1F94200740A9
:101DC000C02007408800400088200740802007404E
:101DD00098200740DC0EFF1F300FFF1F990FFF1FD9
:101DE0008C200740C149C24B80220D2008701A7018
:101DF000A2077FF50EAE05E640F20232914240F0B6
:101E0000EE80A98801F07F01042968D86A88002A39
:101E100065D1B648CDF804E089000844017841F066
:101E20000201017021E701238B55EDE400238B555E
:101E3000EAE44FF0010388F800300135042D06F183
:101E4000040607F1040708F101087FF4A1AEA94CCC
:101E5000A94B2278A94D049F059E002129701A7074
:101E6000130700F105816278A549DFF8A0820A70A6
:101E700010074FF00001C9F83010C9F8381000F110
:101E8000E080A049A2780A700021C9F85010C9F872
:101E900058101107DFF8748200F10181E2789A4945
:101EA0009A4C0A7000211207C9F87010C9F878100E
:101EB00000F1B08033780193002183F00102C9F86A
:101EC0009010C9F89810D0E64FF0000388F8003061
:101ED000B3E7A98801F07F01042940F28D80834A8D
:101EE0000F2313708A4A0123137052E540287FF6AE
:101EF000E2AE44F002040EEBC401029E4E60BAB1A1
:101F00009DF80410834A19703346403888F8005011
:101F100040334EF83420E7E69DF804303370020475
:101F2000029B0D7042F0C80203444EF83C20D8E6F4
:101F30009DF804101970029B774A88F800504038C9
:101F400040334EF83420CFE619F0080F0CBF0223BF
:101F500003238B5558E4714A0F21117060E6704AD3
:101F60005468002CBBD06888B5F804E003E00C325C
:101F70005468002CB3D013888342F8D1538873453A
:101F8000F5D1000A03280CBF94F800E0B2F808E08D
:101F900003E0644A644C12782270E888704580F04F
:101FA0003F8162490D784028844645F0020E28BFE3
:101FB0004FF0400C04EB0C0309EBCE02029301231B
:101FC0005460CCEB00004FEA0C4800220193C82477
:101FD0005EE6554C4FF0020E22706270DDE7B1F5FF
:101FE000A06F7FF47CAF0123002201933DE642F213
:101FF00021329142F7D072E76A88002A7FF46FAFEE
:102000003A48CDF804E089000844017821F0020143
:1020100001702AE600F090F9002800F0EF80083007
:102020003D4AC4F88400C4F8802000F085F90028F7
:1020300000F0DE800830374AC9F88C00C9F88820E3
:1020400038E700F079F9002800F0C0800830324A03
:10205000C8F84400C8F8402000F06EF9002800F0ED
:10206000AF8008302B4AC9F84C00C9F8482008E76F
:1020700000F062F9002800F0CD800830264AC9F847
:102080002400C9F8202000F057F9002800F0BC8097
:102090000830204AC9F82C00C9F82820E3E600F0EF
:1020A0004BF9002800F09E8008301B4AC8F86400F5
:1020B000C8F8602000F040F9002800F08D8008305A
:1020C000144AC9F86C00C9F86820E7E6C86B0838FC
:1020D00000F052F904E5486B083800F04DF9F9E4D6
:1020E000C86A083800F048F9EEE400BFC020074095
:1020F00080200740742D0000C4200740990FFF1F67
:10210000C8200740CC200740D02007400000FF1F18
:1021100094200740C8004000880040002D0FFF1F9A
:10212000782D0000A40FFF1F9C0FFF1F980FFF1FAB
:10213000606A083800F020F9C0E4C86F083800F081
:102140001BF9FDE4486F083800F016F9F2E4C86E98
:10215000083800F011F9E7E4486E083800F00CF98F
:10216000DCE4C86D083800F007F9D1E4486D0838A0
:1021700000F002F9C6E4C86C083800F0FDF8BBE4D2
:10218000486C083800F0F8F8B0E4D1F89C00083842
:1021900000F0F2F8ECE4D1F89400083800F0ECF824
:1021A000E0E4D1F88C00083800F0E6F8D4E4D1F887
:1021B0008400083800F0E0F8C8E44FF0020EECE6C6
:1021C0002A78C9F8480001322A705AE62A78C8F8F5
:1021D000400001322A703FE72A78C9F868000132CE
:1021E0002A705BE62A78C8F8600001322A7061E73D
:1021F0002A78C9F8880001322A705BE62A78C4F888
:10220000800001322A7010E72A78C9F828000132CC
:102210002A7028E62A78C9F8200001322A7032E7AD
:10222000BEF1400FF44628BF4FF0400C04EB0C0306
:1022300002930123CCEB0E004FEA0C4800220193DD
:1022400018E500BF2DE9F04100F090FB2F4C304B1A
:102250003048DFF8D880304F304D314EDFF8D0C0F5
:10226000DFF8D0E000221A605A609A60DA601A61E2
:102270005A619A61DA611A625A629A62DA621A6380
:102280005A639A63DA631A645A649A64DA641A6560
:102290005A659A65DA651A665A669A66DA661A6740
:1022A0005A679A67DA67C3F880202168C3F88420E8
:1022B00041F480212160016841F040710160C3F365
:1022C000072188F8001004F52834C3F307411B0EDA
:1022D0003970CC342B7000F12040FF238CF8003093
:1022E000104D8EF8003000F6041033700E490123B3
:1022F00008F8083C702622704FF40014102207F8EA
:102300002C3C2E7004600A70BDE8F08134800440DB
:102310000000FF1F00D80040B0200740B420074055
:102320001020074035E400E0082107409C200740CA
:10233000802007408820074072B60D480268B2FA34
:1023400082F30B2B10DC4FF00041D94022EA01024E
:10235000026062B6074803EBC303DB00C21800212A
:10236000C15010465160704762B60020704700BFF0
:102370000007FF1F9803FF1F0D4B0E4AC31AA2FB55
:1023800003231B090B2B0CD80B4A127852B972B6D7
:102390000A484FF00041026821FA03F31A43026031
:1023A00062B67047064A1278002AF0D0FFF73CB9AF
:1023B0009803FF1F398EE338990FFF1F0007FF1F97
:1023C000A40FFF1F044B054A1B6890881BB11A8895
:1023D0005B88D31A18447047B40FFF1F5810FF1FB3
:1023E00038B50E4B1B7873B90D4C216861B103F001
:1023F000FF054B880B800420FFF77AF9256038BD74
:10240000084B01221A7038BDFFF796FF0028F7D05D
:102410000146BDE838400420FFF76AB9AD0FFF1F41
:10242000B00FFF1FAC0FFF1F38B52C4C237803B142
:1024300038BD01232370FFF7C5FF002842D1FEF706
:10244000A3FB00283BD1FEF7A9FC002834D1FEF7FE
:10245000D5FD70BBFEF70AFF40BBFFF71DF810BBB0
:1024600000F008FAE0B900232370EFF30583002B96
:10247000DED1EFF3108172B6194B186828B3194CEE
:10248000227812BB45691D60012323700DB3AA6138
:1024900001B962B600254577836898472570C7E77C
:1024A00000F028F9DFE700F023F9D9E700F01EF982
:1024B000D3E700F019F9CDE700F014F9C7E700F011
:1024C0000FF9C0E700F090FAB9E70029B0D162B681
:1024D00038BD054B1D600029DCD1DAE7B90FFF1FBD
:1024E000CC0FFF1FD00FFF1FC80FFF1F10B4EFF35B
:1024F000108272B6437F33B9017F012908D00329C6
:1025000010D00123437702B962B65DF8044B7047DF
:10251000114C2168A1B1114943610B6883610860C6
:102520005861EEE70E4C216881B10E4943610B689A
:102530008361086058610C4B4FF080511960E0E7EF
:10254000064B4161816120601860DAE7054B41610B
:10255000816120601860EEE7CC0FFF1FC80FFF1FDE
:10256000BC0FFF1FC00FFF1F04ED00E010B4047F7D
:102570004160022CC26003D05DF8044BFFF7B6BF88
:1025800083685DF8044B184770B5EFF3108272B69C
:102590000C4C206880B10C4E00254369236073B158
:1025A0009D6102B962B6457783689847EFF3108260
:1025B00072B620680028F0D102B962B670BD3360EF
:1025C000EFE700BFBC0FFF1FC00FFF1FFFF7DCBF0F
:1025D000184A30B41468002C27D0036821688B4255
:1025E0000ED2CB1A00218460C1602360E0601060CD
:1025F0000223037530BC704711688B42144608D320
:10260000A2685B1A0360002AF6D18260C460A060F1
:10261000EEE7D268C2608460E060C568CB1A02222F
:10262000A8602360027530BC70478460C46010608D
:10263000DEE700BFC40FFF1FF8B5224E34682CB38D
:102640002368002B3AD1204F1D4604E03468ECB1DA
:102650002368002B32D1A36803B1DD6020693360A9
:10266000036825751B68BB4221D1037F4560022B9F
:10267000C46020D0FFF73AFF6368002BE6D02360E8
:102680002046FFF7A5FF3468002CE1D1EFF310835B
:1026900072B60E4A00211068116003B962B628B103
:1026A0008468FFF795FF20460028F9D1F8BD22463F
:1026B00000219847E0E783689847DDE7013B236006
:1026C000E4E700BFC40FFF1F6D250000D40FFF1FFC
:1026D000024A136801331360FFF7AEBF380CFF1FC7
:1026E000704700BF704700BF704700BF704700BF12
:1026F000704700BF704700BF30B42948294A2A4BB1
:102700002A4D6024E121047011701B78284C082B9D
:1027100030D00A2B2748284937D00C2B0CBF352244
:102720005D2212232A60236002600B60234B244940
:102730001B78244ABBB101230B601360224B234951
:102740001B78234A012B26D9042B0FD9082B1ED91D
:10275000102B94BF862387230B6013601D4B01222F
:102760001A7030BC70470B601360E7E784230B607E
:102770001360F3E700F58E200F4908302122132360
:102780002A60236002600B60D0E73922F7E78523D7
:102790000B601360E2E780230B601360DEE700BF8D
:1027A00000400740014007400407FF1F08B00340F6
:1027B0000CB0034008B00B400CB00B40D90FFF1F0A
:1027C00020B0034020B00B400507FF1F24B003409A
:1027D00024B00B40D80FFF1F08B5104C08E0236849
:1027E00059050DD423681A050FD42368DB0411D4CE
:1027F00023685803F3D5FEF7BDFF23685905F1D5CB
:10280000FEF7D2F923681A05EFD5FEF723FB2368FC
:10281000DB04EDD5FEF74EFCEAE700BF3480044050
:1028200008B5FFF7D9FF00BF014B10221A8070478F
:1028300000200540704700BFEFF3138070B9EFF33D
:1028400010836BB9EFF305825AB94FF48070EFF340
:1028500011832BB1984228BF184670474FF0FF30C4
:1028600070470F2A01D81846F1E7014BD05CEEE71C
:10287000F0E300E0054A064B10781B78C0B2DBB2EB
:10288000984238BF4030C01A704700BFE00FFF1FAA
:10289000E10FFF1F30B42B4B1A7994061FD52A483D
:1028A000DA790378294901333F2B0978C8BF00231F
:1028B0008B42D2B203D0264CD9B2E2540170254AE1
:1028C000116861B1244A1278D2B2934236BFC2F184
:1028D00040029B1A9B18272BC4BF01230B70194A77
:1028E000D378DBB2180611D45A060DD5154B1B79D7
:1028F0005B0609D5194B1A491B6800220A7003B1FF
:102900001A70104B2C22DA7030BC7047117909060E
:10291000EAD5144910480C780178C9B28C420DD020
:102920004A1C272A84BF00210A460F4D054C98BF38
:10293000D1B2AA5CD2B2E2710170D5E76C21D1703C
:10294000D2E700BF00B00E40E00FFF1FE10FFF1FF6
:102950000C10FF1FDC0FFF1F4D10FF1F5010FF1F3B
:102960004C10FF1F5410FF1FE40FFF1F72B6184AD0
:10297000184B19491160702280211A701A4619707B
:1029800013781B06FCD510B5144B84B0186862B6DA
:10299000134B144C984298BF00EB800001A998BFDC
:1029A00040000A2200F022F801A92046002311F875
:1029B000012B01333AB10A2B20F8022FF7D116234D
:1029C000237004B010BD5B00DBB2237004B010BDF7
:1029D0000400024000000240000007410C000240D9
:1029E0007F9698009407FF1F704700BFF0B44D1EFC
:1029F0002E46002400E00134B0FBF2F302FB13008A
:102A0000092800F130078ABF3730F8B2C0B206F8A3
:102A1000010F1846002BEED10A1953704CB11078F3
:102A200015F8016F28700133E01A834202F801693A
:102A3000F5DB0846F0BC704770B50F4E0F4D761BA6
:102A4000B61018BF002405D0013455F8043B984750
:102A5000A642F9D10A4E0B4D761B00F0B9F9B6101B
:102A600018BF002406D0013455F8043B9847A6420D
:102A7000F9D170BD70BD00BFDC2D0000DC2D000061
:102A8000E82D0000DC2D0000024B13B1024800F0DD
:102A900005B8704700000000A92A00000023014685
:102AA0001A46184600F014B838B5074D074C2C1BD1
:102AB000A41005D0013C55F8043D9847002CF9D1ED
:102AC000BDE8384000F090B90000000000000000B0
:102AD0002DE9F047254C2568D5F84841064688463B
:102AE00092469946C4B360681F2817DC431C76B130
:102AF00004EB80050122C5F888A0D4F88811824033
:102B00001143022EC4F88811C5F808911ED0023076
:102B1000636044F820800020BDE8F087144B03B3C5
:102B20004FF4C870AFF300800446D0B1D5F84831F7
:102B3000002780E88800C5F8484138460123C4F8DA
:102B40008871C4F88C71002EE1D0D1E7D4F88C11D3
:102B50000A43C4F88C21DAE705F5A674C5F84841A4
:102B6000C1E74FF0FF30BDE8F08700BFCC2D00007B
:102B7000000000004008FE4340A004404408FE431B
:102B800044A004400018FE4300C004403000FE434F
:102B9000309004403400FE43349004401C18FE433F
:102BA0001CC004401018FE4310C004400818FE4327
:102BB00008C004400C18FE430CC004400C10FE4337
:102BC0000CB004401010FE4310B004401810FE4337
:102BD00018B004401C10FE431CB004401410FE4307
:102BE00014B004400418FE4304C004400010FE4327
:102BF00000B004400008FE4300A004400408FE4367
:102C000004A004400C08FE430CA004400808FE4346
:102C100008A004401418FE4314C004401818FE43D2
:102C200018C004400410FE4304B004400810FE43E2
:102C300008B004406820FE4368D004401400FE43FE
:102C4000149004403800FE43389004403C00FE439A
:102C50003C9004404000FE43409004404808FE433E
:102C600048A004404C08FE434CA004402808FE4302
:102C700028A004402C08FE432CA004406020FE4302
:102C800060D004406420FE4364D004402010FE4322
:102C900020B004402410FE4324B004402810FE431A
:102CA00028B004402C10FE432CB004404400FE43E6
:102CB000449004407000FE43709004407400FE4352
:102CC000749004406800FE43689004405008FE433E
:102CD00050A004405808FE4358A004405C08FE433E
:102CE0005CA004405408FE4354A004402018FE4356
:102CF00020C004402418FE4324C004401008FE43B2
:102D000010A004401408FE4314A004403818FE43E9
:102D100038C004403418FE4334C004403018FE4329
:102D200030C004403C18FE433CC004402C18FE4315
:102D30002CC004402820FE4328D004402C20FE4311
:102D40002CD004400020FE4300D004400420FE4369
:102D500004D004400820FE4308D004400C20FE4369
:102D60000CD004401020FE4310D004401420FE4339
:102D700014D0044000151915000100000807FF1FBA
:102D800012000000000200003407FF1F4300000093
:102D9000000300009007FF1F00000000010309046A
:102DA0001C07FF1F00000000020309047807FF1F33
:102DB00000000000030309049407FF1F0000000047
:102DC000000000000000000000000000B007FF1F2E
:102DD000F8B500BFF8BC08BC9E467047892A0000C1
:082DE00035040000310500007C
:042DE800F8B500BF7B
:102DEC000101090A1F200000FFFFFFFF0A04000079
:102DFC001201100102000040C01683047602010289
:102E0C000301000018035400650065006E00730098
:102E1C0079006400750069006E006F0009024300C0
:102E2C00020100C032090400000102020100052465
:102E3C0000100105240101010424020605240600EA
:102E4C00010705820310004009040100020A00007A
:102E5C000007050302400000070584024000000043
:102E6C001603550053004200200053006500720009
:102E7C00690061006C000000040309040C030000ED
:102E8C000000000000000000000000000000000036
:102E9C000000000000000000000000009C0AFF1F62
:102EAC00040BFF1F6C0BFF1F000000000000000054
:102EBC000000000000000000000000000000000006
:102ECC0000000000000000000000000000000000F6
:102EDC0000000000000000000000000000000000E6
:102EEC0000000000000000000000000000000000D6
:102EFC0000000000000000000000000000000000C6
:102F0C0000000000000000000000000000000000B5
:102F1C0000000000000000000000000000000000A5
:102F2C000000000000000000000000000000000095
:102F3C000000000000000000000000000000000085
:102F4C0001000000000000000E33CDAB34126DE622
:102F5C00ECDE05000B00000000000000000000008B
:102F6C000000000000000000000000000000000055
:102F7C000000000000000000000000000000000045
:102F8C000000000000000000000000000000000035
:102F9C000000000000000000000000000000000025
:00000001FF
